{"contracts/CollegeAttendance.sol":{"CollegeAttendance":{"abi":[{"inputs":[],"stateMutability":"nonpayable","type":"constructor"},{"anonymous":false,"inputs":[{"indexed":true,"internalType":"bytes32","name":"requestId","type":"bytes32"},{"indexed":true,"internalType":"address","name":"student","type":"address"},{"indexed":false,"internalType":"uint256","name":"classId","type":"uint256"}],"name":"AdjustmentApproved","type":"event"},{"anonymous":false,"inputs":[{"indexed":false,"internalType":"bytes32","name":"requestId","type":"bytes32"},{"indexed":false,"internalType":"uint256","name":"classId","type":"uint256"},{"indexed":false,"internalType":"address","name":"student","type":"address"}],"name":"AdjustmentRequested","type":"event"},{"anonymous":false,"inputs":[{"indexed":false,"internalType":"address","name":"student","type":"address"},{"indexed":false,"internalType":"uint256","name":"classId","type":"uint256"}],"name":"AttendanceMarked","type":"event"},{"anonymous":false,"inputs":[{"indexed":true,"internalType":"uint256","name":"sectionId","type":"uint256"},{"indexed":false,"internalType":"uint256","name":"subjectId","type":"uint256"},{"indexed":false,"internalType":"uint256","name":"classId","type":"uint256"}],"name":"ClassStarted","type":"event"},{"anonymous":false,"inputs":[{"indexed":true,"internalType":"uint256","name":"sectionId","type":"uint256"},{"indexed":false,"internalType":"string","name":"name","type":"string"}],"name":"SectionCreated","type":"event"},{"inputs":[],"name":"GEOHASH_TOLERANCE_BYTES","outputs":[{"internalType":"uint256","name":"","type":"uint256"}],"stateMutability":"view","type":"function"},{"inputs":[{"internalType":"uint256","name":"sectionId","type":"uint256"},{"internalType":"address","name":"student","type":"address"}],"name":"addStudent","outputs":[],"stateMutability":"nonpayable","type":"function"},{"inputs":[{"internalType":"uint256","name":"sectionId","type":"uint256"},{"internalType":"string","name":"subjectName","type":"string"},{"internalType":"address","name":"teacher","type":"address"}],"name":"addSubjectToSection","outputs":[],"stateMutability":"nonpayable","type":"function"},{"inputs":[{"internalType":"bytes32","name":"","type":"bytes32"}],"name":"adjustmentRequests","outputs":[{"internalType":"address","name":"teacher","type":"address"},{"internalType":"uint256","name":"classId","type":"uint256"},{"internalType":"address","name":"student","type":"address"},{"internalType":"bool","name":"approved","type":"bool"}],"stateMutability":"view","type":"function"},{"inputs":[],"name":"admin","outputs":[{"internalType":"address","name":"","type":"address"}],"stateMutability":"view","type":"function"},{"inputs":[{"internalType":"bytes32","name":"requestId","type":"bytes32"}],"name":"approveAdjustment","outputs":[],"stateMutability":"nonpayable","type":"function"},{"inputs":[{"internalType":"address","name":"","type":"address"},{"internalType":"uint256","name":"","type":"uint256"}],"name":"attendance","outputs":[{"internalType":"bool","name":"","type":"bool"}],"stateMutability":"view","type":"function"},{"inputs":[],"name":"classCounter","outputs":[{"internalType":"uint256","name":"","type":"uint256"}],"stateMutability":"view","type":"function"},{"inputs":[{"internalType":"uint256","name":"","type":"uint256"}],"name":"classes","outputs":[{"internalType":"uint256","name":"id","type":"uint256"},{"internalType":"uint256","name":"sectionId","type":"uint256"},{"internalType":"uint256","name":"subjectId","type":"uint256"},{"internalType":"bytes32","name":"geohash","type":"bytes32"},{"internalType":"uint256","name":"startTime","type":"uint256"},{"internalType":"uint256","name":"endTime","type":"uint256"},{"internalType":"bool","name":"attendanceClosed","type":"bool"}],"stateMutability":"view","type":"function"},{"inputs":[{"internalType":"uint256","name":"classId","type":"uint256"}],"name":"closeAttendance","outputs":[],"stateMutability":"nonpayable","type":"function"},{"inputs":[{"internalType":"string","name":"name","type":"string"}],"name":"createSection","outputs":[],"stateMutability":"nonpayable","type":"function"},{"inputs":[{"internalType":"address","name":"student","type":"address"},{"internalType":"uint256","name":"sectionId","type":"uint256"}],"name":"getCombinedAttendance","outputs":[{"internalType":"uint256","name":"attended","type":"uint256"},{"internalType":"uint256","name":"total","type":"uint256"}],"stateMutability":"view","type":"function"},{"inputs":[{"internalType":"string","name":"subjectName","type":"string"}],"name":"getSubjectClasses","outputs":[{"internalType":"uint256[]","name":"","type":"uint256[]"}],"stateMutability":"view","type":"function"},{"inputs":[{"internalType":"address","name":"user","type":"address"}],"name":"getUserName","outputs":[{"internalType":"string","name":"","type":"string"}],"stateMutability":"view","type":"function"},{"inputs":[{"internalType":"uint256","name":"timestamp","type":"uint256"}],"name":"getYearMonth","outputs":[{"internalType":"uint256","name":"year","type":"uint256"},{"internalType":"uint256","name":"month","type":"uint256"}],"stateMutability":"pure","type":"function"},{"inputs":[{"internalType":"uint256","name":"","type":"uint256"},{"internalType":"address","name":"","type":"address"}],"name":"isEnrolled","outputs":[{"internalType":"bool","name":"","type":"bool"}],"stateMutability":"view","type":"function"},{"inputs":[{"internalType":"address","name":"_address","type":"address"}],"name":"isTeacher","outputs":[{"internalType":"bool","name":"","type":"bool"}],"stateMutability":"view","type":"function"},{"inputs":[{"internalType":"uint256","name":"classId","type":"uint256"},{"internalType":"bytes32","name":"studentGeohash","type":"bytes32"},{"internalType":"uint256","name":"studentTimestamp","type":"uint256"},{"internalType":"bytes","name":"teacherSig","type":"bytes"},{"internalType":"bytes","name":"studentSig","type":"bytes"}],"name":"markAttendance","outputs":[],"stateMutability":"nonpayable","type":"function"},{"inputs":[{"internalType":"uint256","name":"sectionId","type":"uint256"},{"internalType":"address","name":"student","type":"address"}],"name":"removeStudent","outputs":[],"stateMutability":"nonpayable","type":"function"},{"inputs":[{"internalType":"uint256","name":"classId","type":"uint256"},{"internalType":"address","name":"student","type":"address"}],"name":"requestAdjustment","outputs":[],"stateMutability":"nonpayable","type":"function"},{"inputs":[],"name":"requestCounter","outputs":[{"internalType":"uint256","name":"","type":"uint256"}],"stateMutability":"view","type":"function"},{"inputs":[],"name":"sectionCounter","outputs":[{"internalType":"uint256","name":"","type":"uint256"}],"stateMutability":"view","type":"function"},{"inputs":[{"internalType":"uint256","name":"","type":"uint256"},{"internalType":"uint256","name":"","type":"uint256"}],"name":"sectionStudents","outputs":[{"internalType":"address","name":"","type":"address"}],"stateMutability":"view","type":"function"},{"inputs":[{"internalType":"uint256","name":"","type":"uint256"}],"name":"sections","outputs":[{"internalType":"uint256","name":"id","type":"uint256"},{"internalType":"string","name":"name","type":"string"}],"stateMutability":"view","type":"function"},{"inputs":[{"internalType":"string","name":"name","type":"string"}],"name":"setUserName","outputs":[],"stateMutability":"nonpayable","type":"function"},{"inputs":[{"internalType":"uint256","name":"sectionId","type":"uint256"},{"internalType":"uint256","name":"subjectId","type":"uint256"},{"internalType":"bytes32","name":"geohash","type":"bytes32"},{"internalType":"uint256","name":"durationMinutes","type":"uint256"}],"name":"startClass","outputs":[],"stateMutability":"nonpayable","type":"function"},{"inputs":[{"internalType":"address","name":"newAdmin","type":"address"}],"name":"transferAdmin","outputs":[],"stateMutability":"nonpayable","type":"function"},{"inputs":[{"internalType":"bytes32","name":"","type":"bytes32"}],"name":"usedLocationProofs","outputs":[{"internalType":"bool","name":"","type":"bool"}],"stateMutability":"view","type":"function"},{"inputs":[{"internalType":"address","name":"","type":"address"}],"name":"userNames","outputs":[{"internalType":"string","name":"","type":"string"}],"stateMutability":"view","type":"function"}],"evm":{"bytecode":{"linkReferences":{},"object":"608060405234801561001057600080fd5b5073850692ce85850278b754695fa4eb69d6840745d56000806101000a81548173ffffffffffffffffffffffffffffffffffffffff021916908373ffffffffffffffffffffffffffffffffffffffff160217905550336000806101000a81548173ffffffffffffffffffffffffffffffffffffffff021916908373ffffffffffffffffffffffffffffffffffffffff160217905550614662806100b46000396000f3fe608060405234801561001057600080fd5b50600436106101cf5760003560e01c8063a515797a11610104578063d064d63f116100a2578063f00070f511610071578063f00070f514610592578063f11f6e94146105c2578063f2500368146105e0578063f851a440146105fc576101cf565b8063d064d63f1461050c578063d4094ab614610528578063d84f55ee14610546578063d906559614610576576101cf565b8063aec37eb3116100de578063aec37eb31461045f578063c93f63f61461048f578063c9768315146104ab578063ca1f8c6e146104db576101cf565b8063a515797a146103f7578063a850c18014610427578063ab87e6d714610443576101cf565b80633954d58b116101715780637f2816351161014b5780637f28163514610343578063817dbe9f14610373578063973a814e146103a95780639a8d8955146103c7576101cf565b80633954d58b146102ed5780634d7db89b1461030b57806375829def14610327576101cf565b80632b5914fe116101ad5780632b5914fe14610268578063301c82f3146102845780633359da49146102a057806335603440146102bc576101cf565b80630212081c146101d45780630b104eee1461020457806313a3c48214610237575b600080fd5b6101ee60048036038101906101e9919061307e565b61061a565b6040516101fb91906139e5565b60405180910390f35b61021e60048036038101906102199190612ea1565b610668565b60405161022e9493929190613a29565b60405180910390f35b610251600480360381019061024c9190612e65565b6106e5565b60405161025f929190613e3d565b60405180910390f35b610282600480360381019061027d9190612eca565b610888565b005b61029e60048036038101906102999190612eca565b610931565b005b6102ba60048036038101906102b59190613017565b610a4f565b005b6102d660048036038101906102d19190612f0b565b610d53565b6040516102e4929190613e0d565b60405180910390f35b6102f5610dff565b6040516103029190613df2565b60405180910390f35b610325600480360381019061032091906130ba565b610e05565b005b610341600480360381019061033c9190612e3c565b6110e2565b005b61035d60048036038101906103589190612e3c565b611223565b60405161036a9190613af0565b60405180910390f35b61038d60048036038101906103889190612f0b565b6112c3565b6040516103a09796959493929190613e66565b60405180910390f35b6103b1611312565b6040516103be9190613df2565b60405180910390f35b6103e160048036038101906103dc9190612e65565b611318565b6040516103ee9190613a90565b60405180910390f35b610411600480360381019061040c9190612ea1565b611347565b60405161041e9190613a90565b60405180910390f35b610441600480360381019061043c9190612f34565b611367565b005b61045d60048036038101906104589190612f34565b611560565b005b61047960048036038101906104749190612e3c565b611758565b6040516104869190613a90565b60405180910390f35b6104a960048036038101906104a49190612ea1565b61188b565b005b6104c560048036038101906104c09190612f34565b611b99565b6040516104d29190613a90565b60405180910390f35b6104f560048036038101906104f09190612f0b565b611bc8565b604051610503929190613e3d565b60405180910390f35b61052660048036038101906105219190612f34565b611bf0565b005b610530611e34565b60405161053d9190613df2565b60405180910390f35b610560600480360381019061055b9190612e3c565b611e39565b60405161056d9190613af0565b60405180910390f35b610590600480360381019061058b9190612f70565b611f0a565b005b6105ac60048036038101906105a79190612eca565b6123ea565b6040516105b99190613a6e565b60405180910390f35b6105ca612723565b6040516105d79190613df2565b60405180910390f35b6105fa60048036038101906105f59190612f0b565b612729565b005b610604612821565b60405161061191906139e5565b60405180910390f35b6009602052816000526040600020818154811061063657600080fd5b906000526020600020016000915091509054906101000a900473ffffffffffffffffffffffffffffffffffffffff1681565b60066020528060005260406000206000915090508060000160009054906101000a900473ffffffffffffffffffffffffffffffffffffffff16908060010154908060020160009054906101000a900473ffffffffffffffffffffffffffffffffffffffff16908060020160149054906101000a900460ff16905084565b6000806000600560008581526020019081526020016000209050600091506000925060005b816003018054905081101561087f576000826003018281548110610757577f4e487b7100000000000000000000000000000000000000000000000000000000600052603260045260246000fd5b90600052602060002001549050600083600201600083815260200190815260200160002060030190508080549050856107909190614085565b945060005b818054905081101561086957600860008a73ffffffffffffffffffffffffffffffffffffffff1673ffffffffffffffffffffffffffffffffffffffff168152602001908152602001600020600083838154811061081b577f4e487b7100000000000000000000000000000000000000000000000000000000600052603260045260246000fd5b9060005260206000200154815260200190815260200160002060009054906101000a900460ff16156108565786806108529061448c565b9750505b80806108619061448c565b915050610795565b50505080806108779061448c565b91505061070a565b50509250929050565b6000815111801561089b57506020815111155b6108da576040517f08c379a00000000000000000000000000000000000000000000000000000000081526004016108d190613d12565b60405180910390fd5b80600460003373ffffffffffffffffffffffffffffffffffffffff1673ffffffffffffffffffffffffffffffffffffffff168152602001908152602001600020908051906020019061092d929190612c3d565b5050565b60008054906101000a900473ffffffffffffffffffffffffffffffffffffffff1673ffffffffffffffffffffffffffffffffffffffff163373ffffffffffffffffffffffffffffffffffffffff16146109bf576040517f08c379a00000000000000000000000000000000000000000000000000000000081526004016109b690613c52565b60405180910390fd5b6000600160008154809291906109d49061448c565b919050559050600060056000838152602001908152602001600020905081816000018190555082816001019080519060200190610a12929190612c3d565b50817e4736eea0f1f8d3b949033af6dbb0fdea6fc371bd8f2d0436eedb58961659e584604051610a429190613af0565b60405180910390a2505050565b60008054906101000a900473ffffffffffffffffffffffffffffffffffffffff1673ffffffffffffffffffffffffffffffffffffffff163373ffffffffffffffffffffffffffffffffffffffff1614610add576040517f08c379a0000000000000000000000000000000000000000000000000000000008152600401610ad490613c52565b60405180910390fd5b600060056000858152602001908152602001600020905060005b8160030180549050811015610b955760008260020160008381526020019081526020016000209050848051906020012081600101604051610b38919061396b565b60405180910390201415610b81576040517f08c379a0000000000000000000000000000000000000000000000000000000008152600401610b7890613cb2565b60405180910390fd5b508080610b8d9061448c565b915050610af7565b5060006005600086815260200190815260200160002060030180549050905060405180608001604052808281526020018581526020018473ffffffffffffffffffffffffffffffffffffffff168152602001600067ffffffffffffffff811115610c28577f4e487b7100000000000000000000000000000000000000000000000000000000600052604160045260246000fd5b604051908082528060200260200182016040528015610c565781602001602082028036833780820191505090505b50815250600560008781526020019081526020016000206002016000838152602001908152602001600020600082015181600001556020820151816001019080519060200190610ca7929190612c3d565b5060408201518160020160006101000a81548173ffffffffffffffffffffffffffffffffffffffff021916908373ffffffffffffffffffffffffffffffffffffffff1602179055506060820151816003019080519060200190610d0b929190612cc3565b50905050600560008681526020019081526020016000206003018190806001815401808255809150506001900390600052602060002001600090919091909150555050505050565b6005602052806000526040600020600091509050806000015490806001018054610d7c9061445a565b80601f0160208091040260200160405190810160405280929190818152602001828054610da89061445a565b8015610df55780601f10610dca57610100808354040283529160200191610df5565b820191906000526020600020905b815481529060010190602001808311610dd857829003601f168201915b5050505050905082565b60025481565b8380600560008381526020019081526020016000206000015414610e5e576040517f08c379a0000000000000000000000000000000000000000000000000000000008152600401610e5590613dd2565b60405180910390fd5b848460056000838152602001908152602001600020600301805490508110610ebb576040517f08c379a0000000000000000000000000000000000000000000000000000000008152600401610eb290613b12565b60405180910390fd5b60056000838152602001908152602001600020600201600082815260200190815260200160002060020160009054906101000a900473ffffffffffffffffffffffffffffffffffffffff1673ffffffffffffffffffffffffffffffffffffffff163373ffffffffffffffffffffffffffffffffffffffff1614610f73576040517f08c379a0000000000000000000000000000000000000000000000000000000008152600401610f6a90613cd2565b60405180910390fd5b600060026000815480929190610f889061448c565b9190505590506040518060e00160405280828152602001898152602001888152602001878152602001428152602001603c87610fc4919061428d565b42610fcf9190614085565b81526020016000151581525060076000838152602001908152602001600020600082015181600001556020820151816001015560408201518160020155606082015181600301556080820151816004015560a0820151816005015560c08201518160060160006101000a81548160ff021916908315150217905550905050600560008981526020019081526020016000206002016000888152602001908152602001600020600301819080600181540180825580915050600190039060005260206000200160009091909190915055877f20e697ee2e8310db3b8b0d28937a1d05bc2cdd1b0698c3699f16a6c9387534e888836040516110d0929190613e3d565b60405180910390a25050505050505050565b60008054906101000a900473ffffffffffffffffffffffffffffffffffffffff1673ffffffffffffffffffffffffffffffffffffffff163373ffffffffffffffffffffffffffffffffffffffff1614611170576040517f08c379a000000000000000000000000000000000000000000000000000000000815260040161116790613c52565b60405180910390fd5b600073ffffffffffffffffffffffffffffffffffffffff168173ffffffffffffffffffffffffffffffffffffffff1614156111e0576040517f08c379a00000000000000000000000000000000000000000000000000000000081526004016111d790613b72565b60405180910390fd5b806000806101000a81548173ffffffffffffffffffffffffffffffffffffffff021916908373ffffffffffffffffffffffffffffffffffffffff16021790555050565b600460205280600052604060002060009150905080546112429061445a565b80601f016020809104026020016040519081016040528092919081815260200182805461126e9061445a565b80156112bb5780601f10611290576101008083540402835291602001916112bb565b820191906000526020600020905b81548152906001019060200180831161129e57829003601f168201915b505050505081565b60076020528060005260406000206000915090508060000154908060010154908060020154908060030154908060040154908060050154908060060160009054906101000a900460ff16905087565b60035481565b60086020528160005260406000206020528060005260406000206000915091509054906101000a900460ff1681565b600b6020528060005260406000206000915054906101000a900460ff1681565b81806005600083815260200190815260200160002060000154146113c0576040517f08c379a00000000000000000000000000000000000000000000000000000000081526004016113b790613dd2565b60405180910390fd5b60008054906101000a900473ffffffffffffffffffffffffffffffffffffffff1673ffffffffffffffffffffffffffffffffffffffff163373ffffffffffffffffffffffffffffffffffffffff161461144e576040517f08c379a000000000000000000000000000000000000000000000000000000000815260040161144590613c52565b60405180910390fd5b6005600084815260200190815260200160002060050160008373ffffffffffffffffffffffffffffffffffffffff1673ffffffffffffffffffffffffffffffffffffffff16815260200190815260200160002060009054906101000a900460ff16156114ef576040517f08c379a00000000000000000000000000000000000000000000000000000000081526004016114e690613c12565b60405180910390fd5b60016005600085815260200190815260200160002060050160008473ffffffffffffffffffffffffffffffffffffffff1673ffffffffffffffffffffffffffffffffffffffff16815260200190815260200160002060006101000a81548160ff021916908315150217905550505050565b81806005600083815260200190815260200160002060000154146115b9576040517f08c379a00000000000000000000000000000000000000000000000000000000081526004016115b090613dd2565b60405180910390fd5b60008054906101000a900473ffffffffffffffffffffffffffffffffffffffff1673ffffffffffffffffffffffffffffffffffffffff163373ffffffffffffffffffffffffffffffffffffffff1614611647576040517f08c379a000000000000000000000000000000000000000000000000000000000815260040161163e90613c52565b60405180910390fd5b6005600084815260200190815260200160002060050160008373ffffffffffffffffffffffffffffffffffffffff1673ffffffffffffffffffffffffffffffffffffffff16815260200190815260200160002060009054906101000a900460ff166116e7576040517f08c379a00000000000000000000000000000000000000000000000000000000081526004016116de90613d32565b60405180910390fd5b60006005600085815260200190815260200160002060050160008473ffffffffffffffffffffffffffffffffffffffff1673ffffffffffffffffffffffffffffffffffffffff16815260200190815260200160002060006101000a81548160ff021916908315150217905550505050565b600080600090505b60015481101561188057600060056000838152602001908152602001600020905060005b816003018054905081101561186b5760008260030182815481106117d1577f4e487b7100000000000000000000000000000000000000000000000000000000600052603260045260246000fd5b906000526020600020015490508573ffffffffffffffffffffffffffffffffffffffff1683600201600083815260200190815260200160002060020160009054906101000a900473ffffffffffffffffffffffffffffffffffffffff1673ffffffffffffffffffffffffffffffffffffffff161415611857576001945050505050611886565b5080806118639061448c565b915050611784565b505080806118789061448c565b915050611760565b50600090505b919050565b6000600660008381526020019081526020016000209050600073ffffffffffffffffffffffffffffffffffffffff168160000160009054906101000a900473ffffffffffffffffffffffffffffffffffffffff1673ffffffffffffffffffffffffffffffffffffffff161415611936576040517f08c379a000000000000000000000000000000000000000000000000000000000815260040161192d90613b52565b60405180910390fd5b8060020160149054906101000a900460ff1615611988576040517f08c379a000000000000000000000000000000000000000000000000000000000815260040161197f90613b92565b60405180910390fd5b8060020160009054906101000a900473ffffffffffffffffffffffffffffffffffffffff1673ffffffffffffffffffffffffffffffffffffffff163373ffffffffffffffffffffffffffffffffffffffff161480611a31575060008054906101000a900473ffffffffffffffffffffffffffffffffffffffff1673ffffffffffffffffffffffffffffffffffffffff163373ffffffffffffffffffffffffffffffffffffffff16145b611a70576040517f08c379a0000000000000000000000000000000000000000000000000000000008152600401611a6790613bb2565b60405180910390fd5b60018160020160146101000a81548160ff0219169083151502179055506001600860008360020160009054906101000a900473ffffffffffffffffffffffffffffffffffffffff1673ffffffffffffffffffffffffffffffffffffffff1673ffffffffffffffffffffffffffffffffffffffff16815260200190815260200160002060008360010154815260200190815260200160002060006101000a81548160ff0219169083151502179055508060020160009054906101000a900473ffffffffffffffffffffffffffffffffffffffff1673ffffffffffffffffffffffffffffffffffffffff16827f189199877ac49c708164c69193136769411baaedcc0ffc4660ad59cc1111c0308360010154604051611b8d9190613df2565b60405180910390a35050565b600a6020528160005260406000206020528060005260406000206000915091509054906101000a900460ff1681565b600080611be26201518084611bdd9190614145565b612845565b508092508193505050915091565b6000600760008481526020019081526020016000209050600560008260010154815260200190815260200160002060020160008260020154815260200190815260200160002060020160009054906101000a900473ffffffffffffffffffffffffffffffffffffffff1673ffffffffffffffffffffffffffffffffffffffff163373ffffffffffffffffffffffffffffffffffffffff1614611cc7576040517f08c379a0000000000000000000000000000000000000000000000000000000008152600401611cbe90613bb2565b60405180910390fd5b60008383600354604051602001611ce0939291906139a8565b60405160208183030381529060405280519060200120905060405180608001604052803373ffffffffffffffffffffffffffffffffffffffff1681526020018581526020018473ffffffffffffffffffffffffffffffffffffffff168152602001600015158152506006600083815260200190815260200160002060008201518160000160006101000a81548173ffffffffffffffffffffffffffffffffffffffff021916908373ffffffffffffffffffffffffffffffffffffffff1602179055506020820151816001015560408201518160020160006101000a81548173ffffffffffffffffffffffffffffffffffffffff021916908373ffffffffffffffffffffffffffffffffffffffff16021790555060608201518160020160146101000a81548160ff02191690831515021790555090505060036000815480929190611e299061448c565b919050555050505050565b600881565b6060600460008373ffffffffffffffffffffffffffffffffffffffff1673ffffffffffffffffffffffffffffffffffffffff1681526020019081526020016000208054611e859061445a565b80601f0160208091040260200160405190810160405280929190818152602001828054611eb19061445a565b8015611efe5780601f10611ed357610100808354040283529160200191611efe565b820191906000526020600020905b815481529060010190602001808311611ee157829003601f168201915b50505050509050919050565b60006007600087815260200190815260200160002090506000600560008360010154815260200190815260200160002090508060050160003373ffffffffffffffffffffffffffffffffffffffff1673ffffffffffffffffffffffffffffffffffffffff16815260200190815260200160002060009054906101000a900460ff16611fca576040517f08c379a0000000000000000000000000000000000000000000000000000000008152600401611fc190613d32565b60405180910390fd5b8160060160009054906101000a900460ff161561201c576040517f08c379a000000000000000000000000000000000000000000000000000000000815260040161201390613b32565b60405180910390fd5b8160050154421115612063576040517f08c379a000000000000000000000000000000000000000000000000000000000815260040161205a90613db2565b60405180910390fd5b600860003373ffffffffffffffffffffffffffffffffffffffff1673ffffffffffffffffffffffffffffffffffffffff168152602001908152602001600020600088815260200190815260200160002060009054906101000a900460ff1615612101576040517f08c379a00000000000000000000000000000000000000000000000000000000081526004016120f890613d92565b60405180910390fd5b61211186836003015460086129d8565b612150576040517f08c379a000000000000000000000000000000000000000000000000000000000815260040161214790613cf2565b60405180910390fd5b60008260030154836004015460405160200161216d92919061391b565b6040516020818303038152906040528051906020012090506121cc81868460020160008760020154815260200190815260200160002060020160009054906101000a900473ffffffffffffffffffffffffffffffffffffffff16612b0b565b61220b576040517f08c379a000000000000000000000000000000000000000000000000000000000815260040161220290613c32565b60405180910390fd5b6000878760405160200161222092919061391b565b604051602081830303815290604052805190602001209050612243818633612b0b565b612282576040517f08c379a000000000000000000000000000000000000000000000000000000000815260040161227990613d72565b60405180910390fd5b60008686604051602001612297929190613947565b604051602081830303815290604052805190602001209050600b600082815260200190815260200160002060009054906101000a900460ff1615612310576040517f08c379a000000000000000000000000000000000000000000000000000000000815260040161230790613bf2565b60405180910390fd5b6001600b600083815260200190815260200160002060006101000a81548160ff0219169083151502179055506001600860003373ffffffffffffffffffffffffffffffffffffffff1673ffffffffffffffffffffffffffffffffffffffff16815260200190815260200160002060008c815260200190815260200160002060006101000a81548160ff0219169083151502179055507f8841d9f49345d61efc842e9624f59b54162b3c8acf4e384fd425957a2be55d86338b6040516123d6929190613a00565b60405180910390a150505050505050505050565b6060600080600090505b6001548110156124f257600060056000838152602001908152602001600020905060005b81600301805490508110156124dd576000826003018281548110612465577f4e487b7100000000000000000000000000000000000000000000000000000000600052603260045260246000fd5b90600052602060002001549050600083600201600083815260200190815260200160002090508780519060200120816001016040516124a4919061396b565b604051809103902014156124c8578060030180549050866124c59190614085565b95505b505080806124d59061448c565b915050612418565b505080806124ea9061448c565b9150506123f4565b5060008167ffffffffffffffff811115612535577f4e487b7100000000000000000000000000000000000000000000000000000000600052604160045260246000fd5b6040519080825280602002602001820160405280156125635781602001602082028036833780820191505090505b509050600080600090505b60015481101561271757600060056000838152602001908152602001600020905060005b81600301805490508110156127025760008260030182815481106125df577f4e487b7100000000000000000000000000000000000000000000000000000000600052603260045260246000fd5b906000526020600020015490506000836002016000838152602001908152602001600020905089805190602001208160010160405161261e919061396b565b604051809103902014156126ed5760005b81600301805490508110156126eb5781600301818154811061267a577f4e487b7100000000000000000000000000000000000000000000000000000000600052603260045260246000fd5b90600052602060002001548888815181106126be577f4e487b7100000000000000000000000000000000000000000000000000000000600052603260045260246000fd5b60200260200101818152505086806126d59061448c565b97505080806126e39061448c565b91505061262f565b505b505080806126fa9061448c565b915050612592565b5050808061270f9061448c565b91505061256e565b50819350505050919050565b60015481565b6000600760008381526020019081526020016000209050600560008260010154815260200190815260200160002060020160008260020154815260200190815260200160002060020160009054906101000a900473ffffffffffffffffffffffffffffffffffffffff1673ffffffffffffffffffffffffffffffffffffffff163373ffffffffffffffffffffffffffffffffffffffff1614612800576040517f08c379a00000000000000000000000000000000000000000000000000000000081526004016127f790613bb2565b60405180910390fd5b60018160060160006101000a81548160ff0219169083151502179055505050565b60008054906101000a900473ffffffffffffffffffffffffffffffffffffffff1681565b600080600080849050600062253d8c62010bd9836128639190613ff1565b61286d9190613ff1565b9050600062023ab18260046128829190614176565b61288c91906140db565b9050600460038262023ab16128a19190614176565b6128ab9190613ff1565b6128b591906140db565b826128c091906142e7565b9150600062164b096001846128d59190613ff1565b610fa06128e29190614176565b6128ec91906140db565b9050601f6004826105b56129009190614176565b61290a91906140db565b8461291591906142e7565b61291f9190613ff1565b9250600061098f8460506129339190614176565b61293d91906140db565b905060508161098f61294f9190614176565b61295991906140db565b8461296491906142e7565b9550600b8161297391906140db565b935083600c6129829190614176565b60028261298f9190613ff1565b61299991906142e7565b965083826031856129aa91906142e7565b60646129b69190614176565b6129c09190613ff1565b6129ca9190613ff1565b975050505050509193909250565b6000808211612a1c576040517f08c379a0000000000000000000000000000000000000000000000000000000008152600401612a1390613bd2565b60405180910390fd5b6020821115612a60576040517f08c379a0000000000000000000000000000000000000000000000000000000008152600401612a5790613c92565b60405180910390fd5b6008821015612aa4576040517f08c379a0000000000000000000000000000000000000000000000000000000008152600401612a9b90613c72565b60405180910390fd5b60007fffffffffffffffffffffffffffffffffffffffffffffffffffffffffffffffff60001b6001600885612ad9919061428d565b610100612ae6919061437b565b6001901b612af4919061437b565b60001b189050808416818616149150509392505050565b60008084604051602001612b1f9190613982565b6040516020818303038152906040528051906020012090506000806000612b4587612bd5565b9250925092508573ffffffffffffffffffffffffffffffffffffffff1660018583868660405160008152602001604052604051612b859493929190613aab565b6020604051602081039080840390855afa158015612ba7573d6000803e3d6000fd5b5050506020604051035173ffffffffffffffffffffffffffffffffffffffff16149450505050509392505050565b60008060006041845114612c1e576040517f08c379a0000000000000000000000000000000000000000000000000000000008152600401612c1590613d52565b60405180910390fd5b6020840151925060408401519150606084015160001a90509193909250565b828054612c499061445a565b90600052602060002090601f016020900481019282612c6b5760008555612cb2565b82601f10612c8457805160ff1916838001178555612cb2565b82800160010185558215612cb2579182015b82811115612cb1578251825591602001919060010190612c96565b5b509050612cbf9190612d10565b5090565b828054828255906000526020600020908101928215612cff579160200282015b82811115612cfe578251825591602001919060010190612ce3565b5b509050612d0c9190612d10565b5090565b5b80821115612d29576000816000905550600101612d11565b5090565b6000612d40612d3b84613f06565b613ed5565b905082815260208101848484011115612d5857600080fd5b612d63848285614418565b509392505050565b6000612d7e612d7984613f36565b613ed5565b905082815260208101848484011115612d9657600080fd5b612da1848285614418565b509392505050565b600081359050612db8816145e7565b92915050565b600081359050612dcd816145fe565b92915050565b600082601f830112612de457600080fd5b8135612df4848260208601612d2d565b91505092915050565b600082601f830112612e0e57600080fd5b8135612e1e848260208601612d6b565b91505092915050565b600081359050612e3681614615565b92915050565b600060208284031215612e4e57600080fd5b6000612e5c84828501612da9565b91505092915050565b60008060408385031215612e7857600080fd5b6000612e8685828601612da9565b9250506020612e9785828601612e27565b9150509250929050565b600060208284031215612eb357600080fd5b6000612ec184828501612dbe565b91505092915050565b600060208284031215612edc57600080fd5b600082013567ffffffffffffffff811115612ef657600080fd5b612f0284828501612dfd565b91505092915050565b600060208284031215612f1d57600080fd5b6000612f2b84828501612e27565b91505092915050565b60008060408385031215612f4757600080fd5b6000612f5585828601612e27565b9250506020612f6685828601612da9565b9150509250929050565b600080600080600060a08688031215612f8857600080fd5b6000612f9688828901612e27565b9550506020612fa788828901612dbe565b9450506040612fb888828901612e27565b935050606086013567ffffffffffffffff811115612fd557600080fd5b612fe188828901612dd3565b925050608086013567ffffffffffffffff811115612ffe57600080fd5b61300a88828901612dd3565b9150509295509295909350565b60008060006060848603121561302c57600080fd5b600061303a86828701612e27565b935050602084013567ffffffffffffffff81111561305757600080fd5b61306386828701612dfd565b925050604061307486828701612da9565b9150509250925092565b6000806040838503121561309157600080fd5b600061309f85828601612e27565b92505060206130b085828601612e27565b9150509250929050565b600080600080608085870312156130d057600080fd5b60006130de87828801612e27565b94505060206130ef87828801612e27565b935050604061310087828801612dbe565b925050606061311187828801612e27565b91505092959194509250565b600061312983836138d7565b60208301905092915050565b61313e816143af565b82525050565b613155613150826143af565b6144d5565b82525050565b600061316682613f8b565b6131708185613fb9565b935061317b83613f66565b8060005b838110156131ac578151613193888261311d565b975061319e83613fac565b92505060018101905061317f565b5085935050505092915050565b6131c2816143c1565b82525050565b6131d1816143cd565b82525050565b6131e86131e3826143cd565b6144e7565b82525050565b60006131f982613f96565b6132038185613fca565b9350613213818560208601614427565b80840191505092915050565b6000815461322c8161445a565b6132368186613fca565b94506001821660008114613251576001811461326257613295565b60ff19831686528186019350613295565b61326b85613f76565b60005b8381101561328d5781548189015260018201915060208101905061326e565b838801955050505b50505092915050565b60006132a982613fa1565b6132b38185613fd5565b93506132c3818560208601614427565b6132cc816145c9565b840191505092915050565b60006132e4601283613fd5565b91507f496e76616c6964207375626a65637420494400000000000000000000000000006000830152602082019050919050565b6000613324601183613fd5565b91507f417474656e64616e636520636c6f7365640000000000000000000000000000006000830152602082019050919050565b6000613364600f83613fd5565b91507f496e76616c6964207265717565737400000000000000000000000000000000006000830152602082019050919050565b60006133a4600f83613fd5565b91507f496e76616c6964206164647265737300000000000000000000000000000000006000830152602082019050919050565b60006133e4601083613fd5565b91507f416c726561647920617070726f766564000000000000000000000000000000006000830152602082019050919050565b6000613424601c83613fe6565b91507f19457468657265756d205369676e6564204d6573736167653a0a3332000000006000830152601c82019050919050565b6000613464600c83613fd5565b91507f556e617574686f72697a656400000000000000000000000000000000000000006000830152602082019050919050565b60006134a4601783613fd5565b91507f5a65726f20707265666978206e6f7420616c6c6f7765640000000000000000006000830152602082019050919050565b60006134e4600d83613fd5565b91507f50726f6f667320726575736564000000000000000000000000000000000000006000830152602082019050919050565b6000613524601083613fd5565b91507f416c726561647920656e726f6c6c6564000000000000000000000000000000006000830152602082019050919050565b6000613564601583613fd5565b91507f496e76616c696420746561636865722070726f6f6600000000000000000000006000830152602082019050919050565b60006135a4600a83613fd5565b91507f4f6e6c792061646d696e000000000000000000000000000000000000000000006000830152602082019050919050565b60006135e4602083613fd5565b91507f507265636973696f6e20746f6f206c6f7720666f7220617474656e64616e63656000830152602082019050919050565b6000613624601083613fd5565b91507f50726566697820746f6f206c61726765000000000000000000000000000000006000830152602082019050919050565b6000613664600e83613fd5565b91507f5375626a656374206578697374730000000000000000000000000000000000006000830152602082019050919050565b60006136a4601d83613fd5565b91507f4e6f742073656374696f6e2773207375626a65637420746561636865720000006000830152602082019050919050565b60006136e4601183613fd5565b91507f4c6f636174696f6e206d69736d617463680000000000000000000000000000006000830152602082019050919050565b6000613724601383613fd5565b91507f496e76616c6964206e616d65206c656e677468000000000000000000000000006000830152602082019050919050565b6000613764600c83613fd5565b91507f4e6f7420656e726f6c6c656400000000000000000000000000000000000000006000830152602082019050919050565b60006137a4601883613fd5565b91507f496e76616c6964207369676e6174757265206c656e67746800000000000000006000830152602082019050919050565b60006137e4601583613fd5565b91507f496e76616c69642073747564656e742070726f6f6600000000000000000000006000830152602082019050919050565b6000613824600e83613fd5565b91507f416c7265616479206d61726b65640000000000000000000000000000000000006000830152602082019050919050565b6000613864600b83613fd5565b91507f436c61737320656e6465640000000000000000000000000000000000000000006000830152602082019050919050565b60006138a4600f83613fd5565b91507f496e76616c69642073656374696f6e00000000000000000000000000000000006000830152602082019050919050565b6138e081614401565b82525050565b6138ef81614401565b82525050565b61390661390182614401565b614503565b82525050565b6139158161440b565b82525050565b600061392782856131d7565b60208201915061393782846138f5565b6020820191508190509392505050565b600061395382856131ee565b915061395f82846131ee565b91508190509392505050565b6000613977828461321f565b915081905092915050565b600061398d82613417565b915061399982846131d7565b60208201915081905092915050565b60006139b482866138f5565b6020820191506139c48285613144565b6014820191506139d482846138f5565b602082019150819050949350505050565b60006020820190506139fa6000830184613135565b92915050565b6000604082019050613a156000830185613135565b613a2260208301846138e6565b9392505050565b6000608082019050613a3e6000830187613135565b613a4b60208301866138e6565b613a586040830185613135565b613a6560608301846131b9565b95945050505050565b60006020820190508181036000830152613a88818461315b565b905092915050565b6000602082019050613aa560008301846131b9565b92915050565b6000608082019050613ac060008301876131c8565b613acd602083018661390c565b613ada60408301856131c8565b613ae760608301846131c8565b95945050505050565b60006020820190508181036000830152613b0a818461329e565b905092915050565b60006020820190508181036000830152613b2b816132d7565b9050919050565b60006020820190508181036000830152613b4b81613317565b9050919050565b60006020820190508181036000830152613b6b81613357565b9050919050565b60006020820190508181036000830152613b8b81613397565b9050919050565b60006020820190508181036000830152613bab816133d7565b9050919050565b60006020820190508181036000830152613bcb81613457565b9050919050565b60006020820190508181036000830152613beb81613497565b9050919050565b60006020820190508181036000830152613c0b816134d7565b9050919050565b60006020820190508181036000830152613c2b81613517565b9050919050565b60006020820190508181036000830152613c4b81613557565b9050919050565b60006020820190508181036000830152613c6b81613597565b9050919050565b60006020820190508181036000830152613c8b816135d7565b9050919050565b60006020820190508181036000830152613cab81613617565b9050919050565b60006020820190508181036000830152613ccb81613657565b9050919050565b60006020820190508181036000830152613ceb81613697565b9050919050565b60006020820190508181036000830152613d0b816136d7565b9050919050565b60006020820190508181036000830152613d2b81613717565b9050919050565b60006020820190508181036000830152613d4b81613757565b9050919050565b60006020820190508181036000830152613d6b81613797565b9050919050565b60006020820190508181036000830152613d8b816137d7565b9050919050565b60006020820190508181036000830152613dab81613817565b9050919050565b60006020820190508181036000830152613dcb81613857565b9050919050565b60006020820190508181036000830152613deb81613897565b9050919050565b6000602082019050613e0760008301846138e6565b92915050565b6000604082019050613e2260008301856138e6565b8181036020830152613e34818461329e565b90509392505050565b6000604082019050613e5260008301856138e6565b613e5f60208301846138e6565b9392505050565b600060e082019050613e7b600083018a6138e6565b613e8860208301896138e6565b613e9560408301886138e6565b613ea260608301876131c8565b613eaf60808301866138e6565b613ebc60a08301856138e6565b613ec960c08301846131b9565b98975050505050505050565b6000604051905081810181811067ffffffffffffffff82111715613efc57613efb61459a565b5b8060405250919050565b600067ffffffffffffffff821115613f2157613f2061459a565b5b601f19601f8301169050602081019050919050565b600067ffffffffffffffff821115613f5157613f5061459a565b5b601f19601f8301169050602081019050919050565b6000819050602082019050919050565b60008190508160005260206000209050919050565b600081519050919050565b600081519050919050565b600081519050919050565b6000602082019050919050565b600082825260208201905092915050565b600081905092915050565b600082825260208201905092915050565b600081905092915050565b6000613ffc826143d7565b9150614007836143d7565b9250817f7fffffffffffffffffffffffffffffffffffffffffffffffffffffffffffffff038313600083121516156140425761404161450d565b5b817f800000000000000000000000000000000000000000000000000000000000000003831260008312161561407a5761407961450d565b5b828201905092915050565b600061409082614401565b915061409b83614401565b9250827fffffffffffffffffffffffffffffffffffffffffffffffffffffffffffffffff038211156140d0576140cf61450d565b5b828201905092915050565b60006140e6826143d7565b91506140f1836143d7565b9250826141015761410061453c565b5b600160000383147f80000000000000000000000000000000000000000000000000000000000000008314161561413a5761413961450d565b5b828205905092915050565b600061415082614401565b915061415b83614401565b92508261416b5761416a61453c565b5b828204905092915050565b6000614181826143d7565b915061418c836143d7565b9250827f7fffffffffffffffffffffffffffffffffffffffffffffffffffffffffffffff04821160008413600084131616156141cb576141ca61450d565b5b817f800000000000000000000000000000000000000000000000000000000000000005831260008412600084131616156142085761420761450d565b5b827f800000000000000000000000000000000000000000000000000000000000000005821260008413600084121616156142455761424461450d565b5b827f7fffffffffffffffffffffffffffffffffffffffffffffffffffffffffffffff05821260008412600084121616156142825761428161450d565b5b828202905092915050565b600061429882614401565b91506142a383614401565b9250817fffffffffffffffffffffffffffffffffffffffffffffffffffffffffffffffff04831182151516156142dc576142db61450d565b5b828202905092915050565b60006142f2826143d7565b91506142fd836143d7565b9250827f8000000000000000000000000000000000000000000000000000000000000000018212600084121516156143385761433761450d565b5b827f7fffffffffffffffffffffffffffffffffffffffffffffffffffffffffffffff0182136000841216156143705761436f61450d565b5b828203905092915050565b600061438682614401565b915061439183614401565b9250828210156143a4576143a361450d565b5b828203905092915050565b60006143ba826143e1565b9050919050565b60008115159050919050565b6000819050919050565b6000819050919050565b600073ffffffffffffffffffffffffffffffffffffffff82169050919050565b6000819050919050565b600060ff82169050919050565b82818337600083830152505050565b60005b8381101561444557808201518184015260208101905061442a565b83811115614454576000848401525b50505050565b6000600282049050600182168061447257607f821691505b602082108114156144865761448561456b565b5b50919050565b600061449782614401565b91507fffffffffffffffffffffffffffffffffffffffffffffffffffffffffffffffff8214156144ca576144c961450d565b5b600182019050919050565b60006144e0826144f1565b9050919050565b6000819050919050565b60006144fc826145da565b9050919050565b6000819050919050565b7f4e487b7100000000000000000000000000000000000000000000000000000000600052601160045260246000fd5b7f4e487b7100000000000000000000000000000000000000000000000000000000600052601260045260246000fd5b7f4e487b7100000000000000000000000000000000000000000000000000000000600052602260045260246000fd5b7f4e487b7100000000000000000000000000000000000000000000000000000000600052604160045260246000fd5b6000601f19601f8301169050919050565b60008160601b9050919050565b6145f0816143af565b81146145fb57600080fd5b50565b614607816143cd565b811461461257600080fd5b50565b61461e81614401565b811461462957600080fd5b5056fea264697066735822122070dfd318ab84bfca07f98ff5215cf8ba8521456ee0f98fd478cc17b8d34d60e364736f6c63430008000033","opcodes":"PUSH1 0x80 PUSH1 0x40 MSTORE CALLVALUE DUP1 ISZERO PUSH2 0x10 JUMPI PUSH1 0x0 DUP1 REVERT JUMPDEST POP PUSH20 0x850692CE85850278B754695FA4EB69D6840745D5 PUSH1 0x0 DUP1 PUSH2 0x100 EXP DUP2 SLOAD DUP2 PUSH20 0xFFFFFFFFFFFFFFFFFFFFFFFFFFFFFFFFFFFFFFFF MUL NOT AND SWAP1 DUP4 PUSH20 0xFFFFFFFFFFFFFFFFFFFFFFFFFFFFFFFFFFFFFFFF AND MUL OR SWAP1 SSTORE POP CALLER PUSH1 0x0 DUP1 PUSH2 0x100 EXP DUP2 SLOAD DUP2 PUSH20 0xFFFFFFFFFFFFFFFFFFFFFFFFFFFFFFFFFFFFFFFF MUL NOT AND SWAP1 DUP4 PUSH20 0xFFFFFFFFFFFFFFFFFFFFFFFFFFFFFFFFFFFFFFFF AND MUL OR SWAP1 SSTORE POP PUSH2 0x4662 DUP1 PUSH2 0xB4 PUSH1 0x0 CODECOPY PUSH1 0x0 RETURN INVALID PUSH1 0x80 PUSH1 0x40 MSTORE CALLVALUE DUP1 ISZERO PUSH2 0x10 JUMPI PUSH1 0x0 DUP1 REVERT JUMPDEST POP PUSH1 0x4 CALLDATASIZE LT PUSH2 0x1CF JUMPI PUSH1 0x0 CALLDATALOAD PUSH1 0xE0 SHR DUP1 PUSH4 0xA515797A GT PUSH2 0x104 JUMPI DUP1 PUSH4 0xD064D63F GT PUSH2 0xA2 JUMPI DUP1 PUSH4 0xF00070F5 GT PUSH2 0x71 JUMPI DUP1 PUSH4 0xF00070F5 EQ PUSH2 0x592 JUMPI DUP1 PUSH4 0xF11F6E94 EQ PUSH2 0x5C2 JUMPI DUP1 PUSH4 0xF2500368 EQ PUSH2 0x5E0 JUMPI DUP1 PUSH4 0xF851A440 EQ PUSH2 0x5FC JUMPI PUSH2 0x1CF JUMP JUMPDEST DUP1 PUSH4 0xD064D63F EQ PUSH2 0x50C JUMPI DUP1 PUSH4 0xD4094AB6 EQ PUSH2 0x528 JUMPI DUP1 PUSH4 0xD84F55EE EQ PUSH2 0x546 JUMPI DUP1 PUSH4 0xD9065596 EQ PUSH2 0x576 JUMPI PUSH2 0x1CF JUMP JUMPDEST DUP1 PUSH4 0xAEC37EB3 GT PUSH2 0xDE JUMPI DUP1 PUSH4 0xAEC37EB3 EQ PUSH2 0x45F JUMPI DUP1 PUSH4 0xC93F63F6 EQ PUSH2 0x48F JUMPI DUP1 PUSH4 0xC9768315 EQ PUSH2 0x4AB JUMPI DUP1 PUSH4 0xCA1F8C6E EQ PUSH2 0x4DB JUMPI PUSH2 0x1CF JUMP JUMPDEST DUP1 PUSH4 0xA515797A EQ PUSH2 0x3F7 JUMPI DUP1 PUSH4 0xA850C180 EQ PUSH2 0x427 JUMPI DUP1 PUSH4 0xAB87E6D7 EQ PUSH2 0x443 JUMPI PUSH2 0x1CF JUMP JUMPDEST DUP1 PUSH4 0x3954D58B GT PUSH2 0x171 JUMPI DUP1 PUSH4 0x7F281635 GT PUSH2 0x14B JUMPI DUP1 PUSH4 0x7F281635 EQ PUSH2 0x343 JUMPI DUP1 PUSH4 0x817DBE9F EQ PUSH2 0x373 JUMPI DUP1 PUSH4 0x973A814E EQ PUSH2 0x3A9 JUMPI DUP1 PUSH4 0x9A8D8955 EQ PUSH2 0x3C7 JUMPI PUSH2 0x1CF JUMP JUMPDEST DUP1 PUSH4 0x3954D58B EQ PUSH2 0x2ED JUMPI DUP1 PUSH4 0x4D7DB89B EQ PUSH2 0x30B JUMPI DUP1 PUSH4 0x75829DEF EQ PUSH2 0x327 JUMPI PUSH2 0x1CF JUMP JUMPDEST DUP1 PUSH4 0x2B5914FE GT PUSH2 0x1AD JUMPI DUP1 PUSH4 0x2B5914FE EQ PUSH2 0x268 JUMPI DUP1 PUSH4 0x301C82F3 EQ PUSH2 0x284 JUMPI DUP1 PUSH4 0x3359DA49 EQ PUSH2 0x2A0 JUMPI DUP1 PUSH4 0x35603440 EQ PUSH2 0x2BC JUMPI PUSH2 0x1CF JUMP JUMPDEST DUP1 PUSH4 0x212081C EQ PUSH2 0x1D4 JUMPI DUP1 PUSH4 0xB104EEE EQ PUSH2 0x204 JUMPI DUP1 PUSH4 0x13A3C482 EQ PUSH2 0x237 JUMPI JUMPDEST PUSH1 0x0 DUP1 REVERT JUMPDEST PUSH2 0x1EE PUSH1 0x4 DUP1 CALLDATASIZE SUB DUP2 ADD SWAP1 PUSH2 0x1E9 SWAP2 SWAP1 PUSH2 0x307E JUMP JUMPDEST PUSH2 0x61A JUMP JUMPDEST PUSH1 0x40 MLOAD PUSH2 0x1FB SWAP2 SWAP1 PUSH2 0x39E5 JUMP JUMPDEST PUSH1 0x40 MLOAD DUP1 SWAP2 SUB SWAP1 RETURN JUMPDEST PUSH2 0x21E PUSH1 0x4 DUP1 CALLDATASIZE SUB DUP2 ADD SWAP1 PUSH2 0x219 SWAP2 SWAP1 PUSH2 0x2EA1 JUMP JUMPDEST PUSH2 0x668 JUMP JUMPDEST PUSH1 0x40 MLOAD PUSH2 0x22E SWAP5 SWAP4 SWAP3 SWAP2 SWAP1 PUSH2 0x3A29 JUMP JUMPDEST PUSH1 0x40 MLOAD DUP1 SWAP2 SUB SWAP1 RETURN JUMPDEST PUSH2 0x251 PUSH1 0x4 DUP1 CALLDATASIZE SUB DUP2 ADD SWAP1 PUSH2 0x24C SWAP2 SWAP1 PUSH2 0x2E65 JUMP JUMPDEST PUSH2 0x6E5 JUMP JUMPDEST PUSH1 0x40 MLOAD PUSH2 0x25F SWAP3 SWAP2 SWAP1 PUSH2 0x3E3D JUMP JUMPDEST PUSH1 0x40 MLOAD DUP1 SWAP2 SUB SWAP1 RETURN JUMPDEST PUSH2 0x282 PUSH1 0x4 DUP1 CALLDATASIZE SUB DUP2 ADD SWAP1 PUSH2 0x27D SWAP2 SWAP1 PUSH2 0x2ECA JUMP JUMPDEST PUSH2 0x888 JUMP JUMPDEST STOP JUMPDEST PUSH2 0x29E PUSH1 0x4 DUP1 CALLDATASIZE SUB DUP2 ADD SWAP1 PUSH2 0x299 SWAP2 SWAP1 PUSH2 0x2ECA JUMP JUMPDEST PUSH2 0x931 JUMP JUMPDEST STOP JUMPDEST PUSH2 0x2BA PUSH1 0x4 DUP1 CALLDATASIZE SUB DUP2 ADD SWAP1 PUSH2 0x2B5 SWAP2 SWAP1 PUSH2 0x3017 JUMP JUMPDEST PUSH2 0xA4F JUMP JUMPDEST STOP JUMPDEST PUSH2 0x2D6 PUSH1 0x4 DUP1 CALLDATASIZE SUB DUP2 ADD SWAP1 PUSH2 0x2D1 SWAP2 SWAP1 PUSH2 0x2F0B JUMP JUMPDEST PUSH2 0xD53 JUMP JUMPDEST PUSH1 0x40 MLOAD PUSH2 0x2E4 SWAP3 SWAP2 SWAP1 PUSH2 0x3E0D JUMP JUMPDEST PUSH1 0x40 MLOAD DUP1 SWAP2 SUB SWAP1 RETURN JUMPDEST PUSH2 0x2F5 PUSH2 0xDFF JUMP JUMPDEST PUSH1 0x40 MLOAD PUSH2 0x302 SWAP2 SWAP1 PUSH2 0x3DF2 JUMP JUMPDEST PUSH1 0x40 MLOAD DUP1 SWAP2 SUB SWAP1 RETURN JUMPDEST PUSH2 0x325 PUSH1 0x4 DUP1 CALLDATASIZE SUB DUP2 ADD SWAP1 PUSH2 0x320 SWAP2 SWAP1 PUSH2 0x30BA JUMP JUMPDEST PUSH2 0xE05 JUMP JUMPDEST STOP JUMPDEST PUSH2 0x341 PUSH1 0x4 DUP1 CALLDATASIZE SUB DUP2 ADD SWAP1 PUSH2 0x33C SWAP2 SWAP1 PUSH2 0x2E3C JUMP JUMPDEST PUSH2 0x10E2 JUMP JUMPDEST STOP JUMPDEST PUSH2 0x35D PUSH1 0x4 DUP1 CALLDATASIZE SUB DUP2 ADD SWAP1 PUSH2 0x358 SWAP2 SWAP1 PUSH2 0x2E3C JUMP JUMPDEST PUSH2 0x1223 JUMP JUMPDEST PUSH1 0x40 MLOAD PUSH2 0x36A SWAP2 SWAP1 PUSH2 0x3AF0 JUMP JUMPDEST PUSH1 0x40 MLOAD DUP1 SWAP2 SUB SWAP1 RETURN JUMPDEST PUSH2 0x38D PUSH1 0x4 DUP1 CALLDATASIZE SUB DUP2 ADD SWAP1 PUSH2 0x388 SWAP2 SWAP1 PUSH2 0x2F0B JUMP JUMPDEST PUSH2 0x12C3 JUMP JUMPDEST PUSH1 0x40 MLOAD PUSH2 0x3A0 SWAP8 SWAP7 SWAP6 SWAP5 SWAP4 SWAP3 SWAP2 SWAP1 PUSH2 0x3E66 JUMP JUMPDEST PUSH1 0x40 MLOAD DUP1 SWAP2 SUB SWAP1 RETURN JUMPDEST PUSH2 0x3B1 PUSH2 0x1312 JUMP JUMPDEST PUSH1 0x40 MLOAD PUSH2 0x3BE SWAP2 SWAP1 PUSH2 0x3DF2 JUMP JUMPDEST PUSH1 0x40 MLOAD DUP1 SWAP2 SUB SWAP1 RETURN JUMPDEST PUSH2 0x3E1 PUSH1 0x4 DUP1 CALLDATASIZE SUB DUP2 ADD SWAP1 PUSH2 0x3DC SWAP2 SWAP1 PUSH2 0x2E65 JUMP JUMPDEST PUSH2 0x1318 JUMP JUMPDEST PUSH1 0x40 MLOAD PUSH2 0x3EE SWAP2 SWAP1 PUSH2 0x3A90 JUMP JUMPDEST PUSH1 0x40 MLOAD DUP1 SWAP2 SUB SWAP1 RETURN JUMPDEST PUSH2 0x411 PUSH1 0x4 DUP1 CALLDATASIZE SUB DUP2 ADD SWAP1 PUSH2 0x40C SWAP2 SWAP1 PUSH2 0x2EA1 JUMP JUMPDEST PUSH2 0x1347 JUMP JUMPDEST PUSH1 0x40 MLOAD PUSH2 0x41E SWAP2 SWAP1 PUSH2 0x3A90 JUMP JUMPDEST PUSH1 0x40 MLOAD DUP1 SWAP2 SUB SWAP1 RETURN JUMPDEST PUSH2 0x441 PUSH1 0x4 DUP1 CALLDATASIZE SUB DUP2 ADD SWAP1 PUSH2 0x43C SWAP2 SWAP1 PUSH2 0x2F34 JUMP JUMPDEST PUSH2 0x1367 JUMP JUMPDEST STOP JUMPDEST PUSH2 0x45D PUSH1 0x4 DUP1 CALLDATASIZE SUB DUP2 ADD SWAP1 PUSH2 0x458 SWAP2 SWAP1 PUSH2 0x2F34 JUMP JUMPDEST PUSH2 0x1560 JUMP JUMPDEST STOP JUMPDEST PUSH2 0x479 PUSH1 0x4 DUP1 CALLDATASIZE SUB DUP2 ADD SWAP1 PUSH2 0x474 SWAP2 SWAP1 PUSH2 0x2E3C JUMP JUMPDEST PUSH2 0x1758 JUMP JUMPDEST PUSH1 0x40 MLOAD PUSH2 0x486 SWAP2 SWAP1 PUSH2 0x3A90 JUMP JUMPDEST PUSH1 0x40 MLOAD DUP1 SWAP2 SUB SWAP1 RETURN JUMPDEST PUSH2 0x4A9 PUSH1 0x4 DUP1 CALLDATASIZE SUB DUP2 ADD SWAP1 PUSH2 0x4A4 SWAP2 SWAP1 PUSH2 0x2EA1 JUMP JUMPDEST PUSH2 0x188B JUMP JUMPDEST STOP JUMPDEST PUSH2 0x4C5 PUSH1 0x4 DUP1 CALLDATASIZE SUB DUP2 ADD SWAP1 PUSH2 0x4C0 SWAP2 SWAP1 PUSH2 0x2F34 JUMP JUMPDEST PUSH2 0x1B99 JUMP JUMPDEST PUSH1 0x40 MLOAD PUSH2 0x4D2 SWAP2 SWAP1 PUSH2 0x3A90 JUMP JUMPDEST PUSH1 0x40 MLOAD DUP1 SWAP2 SUB SWAP1 RETURN JUMPDEST PUSH2 0x4F5 PUSH1 0x4 DUP1 CALLDATASIZE SUB DUP2 ADD SWAP1 PUSH2 0x4F0 SWAP2 SWAP1 PUSH2 0x2F0B JUMP JUMPDEST PUSH2 0x1BC8 JUMP JUMPDEST PUSH1 0x40 MLOAD PUSH2 0x503 SWAP3 SWAP2 SWAP1 PUSH2 0x3E3D JUMP JUMPDEST PUSH1 0x40 MLOAD DUP1 SWAP2 SUB SWAP1 RETURN JUMPDEST PUSH2 0x526 PUSH1 0x4 DUP1 CALLDATASIZE SUB DUP2 ADD SWAP1 PUSH2 0x521 SWAP2 SWAP1 PUSH2 0x2F34 JUMP JUMPDEST PUSH2 0x1BF0 JUMP JUMPDEST STOP JUMPDEST PUSH2 0x530 PUSH2 0x1E34 JUMP JUMPDEST PUSH1 0x40 MLOAD PUSH2 0x53D SWAP2 SWAP1 PUSH2 0x3DF2 JUMP JUMPDEST PUSH1 0x40 MLOAD DUP1 SWAP2 SUB SWAP1 RETURN JUMPDEST PUSH2 0x560 PUSH1 0x4 DUP1 CALLDATASIZE SUB DUP2 ADD SWAP1 PUSH2 0x55B SWAP2 SWAP1 PUSH2 0x2E3C JUMP JUMPDEST PUSH2 0x1E39 JUMP JUMPDEST PUSH1 0x40 MLOAD PUSH2 0x56D SWAP2 SWAP1 PUSH2 0x3AF0 JUMP JUMPDEST PUSH1 0x40 MLOAD DUP1 SWAP2 SUB SWAP1 RETURN JUMPDEST PUSH2 0x590 PUSH1 0x4 DUP1 CALLDATASIZE SUB DUP2 ADD SWAP1 PUSH2 0x58B SWAP2 SWAP1 PUSH2 0x2F70 JUMP JUMPDEST PUSH2 0x1F0A JUMP JUMPDEST STOP JUMPDEST PUSH2 0x5AC PUSH1 0x4 DUP1 CALLDATASIZE SUB DUP2 ADD SWAP1 PUSH2 0x5A7 SWAP2 SWAP1 PUSH2 0x2ECA JUMP JUMPDEST PUSH2 0x23EA JUMP JUMPDEST PUSH1 0x40 MLOAD PUSH2 0x5B9 SWAP2 SWAP1 PUSH2 0x3A6E JUMP JUMPDEST PUSH1 0x40 MLOAD DUP1 SWAP2 SUB SWAP1 RETURN JUMPDEST PUSH2 0x5CA PUSH2 0x2723 JUMP JUMPDEST PUSH1 0x40 MLOAD PUSH2 0x5D7 SWAP2 SWAP1 PUSH2 0x3DF2 JUMP JUMPDEST PUSH1 0x40 MLOAD DUP1 SWAP2 SUB SWAP1 RETURN JUMPDEST PUSH2 0x5FA PUSH1 0x4 DUP1 CALLDATASIZE SUB DUP2 ADD SWAP1 PUSH2 0x5F5 SWAP2 SWAP1 PUSH2 0x2F0B JUMP JUMPDEST PUSH2 0x2729 JUMP JUMPDEST STOP JUMPDEST PUSH2 0x604 PUSH2 0x2821 JUMP JUMPDEST PUSH1 0x40 MLOAD PUSH2 0x611 SWAP2 SWAP1 PUSH2 0x39E5 JUMP JUMPDEST PUSH1 0x40 MLOAD DUP1 SWAP2 SUB SWAP1 RETURN JUMPDEST PUSH1 0x9 PUSH1 0x20 MSTORE DUP2 PUSH1 0x0 MSTORE PUSH1 0x40 PUSH1 0x0 KECCAK256 DUP2 DUP2 SLOAD DUP2 LT PUSH2 0x636 JUMPI PUSH1 0x0 DUP1 REVERT JUMPDEST SWAP1 PUSH1 0x0 MSTORE PUSH1 0x20 PUSH1 0x0 KECCAK256 ADD PUSH1 0x0 SWAP2 POP SWAP2 POP SWAP1 SLOAD SWAP1 PUSH2 0x100 EXP SWAP1 DIV PUSH20 0xFFFFFFFFFFFFFFFFFFFFFFFFFFFFFFFFFFFFFFFF AND DUP2 JUMP JUMPDEST PUSH1 0x6 PUSH1 0x20 MSTORE DUP1 PUSH1 0x0 MSTORE PUSH1 0x40 PUSH1 0x0 KECCAK256 PUSH1 0x0 SWAP2 POP SWAP1 POP DUP1 PUSH1 0x0 ADD PUSH1 0x0 SWAP1 SLOAD SWAP1 PUSH2 0x100 EXP SWAP1 DIV PUSH20 0xFFFFFFFFFFFFFFFFFFFFFFFFFFFFFFFFFFFFFFFF AND SWAP1 DUP1 PUSH1 0x1 ADD SLOAD SWAP1 DUP1 PUSH1 0x2 ADD PUSH1 0x0 SWAP1 SLOAD SWAP1 PUSH2 0x100 EXP SWAP1 DIV PUSH20 0xFFFFFFFFFFFFFFFFFFFFFFFFFFFFFFFFFFFFFFFF AND SWAP1 DUP1 PUSH1 0x2 ADD PUSH1 0x14 SWAP1 SLOAD SWAP1 PUSH2 0x100 EXP SWAP1 DIV PUSH1 0xFF AND SWAP1 POP DUP5 JUMP JUMPDEST PUSH1 0x0 DUP1 PUSH1 0x0 PUSH1 0x5 PUSH1 0x0 DUP6 DUP2 MSTORE PUSH1 0x20 ADD SWAP1 DUP2 MSTORE PUSH1 0x20 ADD PUSH1 0x0 KECCAK256 SWAP1 POP PUSH1 0x0 SWAP2 POP PUSH1 0x0 SWAP3 POP PUSH1 0x0 JUMPDEST DUP2 PUSH1 0x3 ADD DUP1 SLOAD SWAP1 POP DUP2 LT ISZERO PUSH2 0x87F JUMPI PUSH1 0x0 DUP3 PUSH1 0x3 ADD DUP3 DUP2 SLOAD DUP2 LT PUSH2 0x757 JUMPI PUSH32 0x4E487B7100000000000000000000000000000000000000000000000000000000 PUSH1 0x0 MSTORE PUSH1 0x32 PUSH1 0x4 MSTORE PUSH1 0x24 PUSH1 0x0 REVERT JUMPDEST SWAP1 PUSH1 0x0 MSTORE PUSH1 0x20 PUSH1 0x0 KECCAK256 ADD SLOAD SWAP1 POP PUSH1 0x0 DUP4 PUSH1 0x2 ADD PUSH1 0x0 DUP4 DUP2 MSTORE PUSH1 0x20 ADD SWAP1 DUP2 MSTORE PUSH1 0x20 ADD PUSH1 0x0 KECCAK256 PUSH1 0x3 ADD SWAP1 POP DUP1 DUP1 SLOAD SWAP1 POP DUP6 PUSH2 0x790 SWAP2 SWAP1 PUSH2 0x4085 JUMP JUMPDEST SWAP5 POP PUSH1 0x0 JUMPDEST DUP2 DUP1 SLOAD SWAP1 POP DUP2 LT ISZERO PUSH2 0x869 JUMPI PUSH1 0x8 PUSH1 0x0 DUP11 PUSH20 0xFFFFFFFFFFFFFFFFFFFFFFFFFFFFFFFFFFFFFFFF AND PUSH20 0xFFFFFFFFFFFFFFFFFFFFFFFFFFFFFFFFFFFFFFFF AND DUP2 MSTORE PUSH1 0x20 ADD SWAP1 DUP2 MSTORE PUSH1 0x20 ADD PUSH1 0x0 KECCAK256 PUSH1 0x0 DUP4 DUP4 DUP2 SLOAD DUP2 LT PUSH2 0x81B JUMPI PUSH32 0x4E487B7100000000000000000000000000000000000000000000000000000000 PUSH1 0x0 MSTORE PUSH1 0x32 PUSH1 0x4 MSTORE PUSH1 0x24 PUSH1 0x0 REVERT JUMPDEST SWAP1 PUSH1 0x0 MSTORE PUSH1 0x20 PUSH1 0x0 KECCAK256 ADD SLOAD DUP2 MSTORE PUSH1 0x20 ADD SWAP1 DUP2 MSTORE PUSH1 0x20 ADD PUSH1 0x0 KECCAK256 PUSH1 0x0 SWAP1 SLOAD SWAP1 PUSH2 0x100 EXP SWAP1 DIV PUSH1 0xFF AND ISZERO PUSH2 0x856 JUMPI DUP7 DUP1 PUSH2 0x852 SWAP1 PUSH2 0x448C JUMP JUMPDEST SWAP8 POP POP JUMPDEST DUP1 DUP1 PUSH2 0x861 SWAP1 PUSH2 0x448C JUMP JUMPDEST SWAP2 POP POP PUSH2 0x795 JUMP JUMPDEST POP POP POP DUP1 DUP1 PUSH2 0x877 SWAP1 PUSH2 0x448C JUMP JUMPDEST SWAP2 POP POP PUSH2 0x70A JUMP JUMPDEST POP POP SWAP3 POP SWAP3 SWAP1 POP JUMP JUMPDEST PUSH1 0x0 DUP2 MLOAD GT DUP1 ISZERO PUSH2 0x89B JUMPI POP PUSH1 0x20 DUP2 MLOAD GT ISZERO JUMPDEST PUSH2 0x8DA JUMPI PUSH1 0x40 MLOAD PUSH32 0x8C379A000000000000000000000000000000000000000000000000000000000 DUP2 MSTORE PUSH1 0x4 ADD PUSH2 0x8D1 SWAP1 PUSH2 0x3D12 JUMP JUMPDEST PUSH1 0x40 MLOAD DUP1 SWAP2 SUB SWAP1 REVERT JUMPDEST DUP1 PUSH1 0x4 PUSH1 0x0 CALLER PUSH20 0xFFFFFFFFFFFFFFFFFFFFFFFFFFFFFFFFFFFFFFFF AND PUSH20 0xFFFFFFFFFFFFFFFFFFFFFFFFFFFFFFFFFFFFFFFF AND DUP2 MSTORE PUSH1 0x20 ADD SWAP1 DUP2 MSTORE PUSH1 0x20 ADD PUSH1 0x0 KECCAK256 SWAP1 DUP1 MLOAD SWAP1 PUSH1 0x20 ADD SWAP1 PUSH2 0x92D SWAP3 SWAP2 SWAP1 PUSH2 0x2C3D JUMP JUMPDEST POP POP JUMP JUMPDEST PUSH1 0x0 DUP1 SLOAD SWAP1 PUSH2 0x100 EXP SWAP1 DIV PUSH20 0xFFFFFFFFFFFFFFFFFFFFFFFFFFFFFFFFFFFFFFFF AND PUSH20 0xFFFFFFFFFFFFFFFFFFFFFFFFFFFFFFFFFFFFFFFF AND CALLER PUSH20 0xFFFFFFFFFFFFFFFFFFFFFFFFFFFFFFFFFFFFFFFF AND EQ PUSH2 0x9BF JUMPI PUSH1 0x40 MLOAD PUSH32 0x8C379A000000000000000000000000000000000000000000000000000000000 DUP2 MSTORE PUSH1 0x4 ADD PUSH2 0x9B6 SWAP1 PUSH2 0x3C52 JUMP JUMPDEST PUSH1 0x40 MLOAD DUP1 SWAP2 SUB SWAP1 REVERT JUMPDEST PUSH1 0x0 PUSH1 0x1 PUSH1 0x0 DUP2 SLOAD DUP1 SWAP3 SWAP2 SWAP1 PUSH2 0x9D4 SWAP1 PUSH2 0x448C JUMP JUMPDEST SWAP2 SWAP1 POP SSTORE SWAP1 POP PUSH1 0x0 PUSH1 0x5 PUSH1 0x0 DUP4 DUP2 MSTORE PUSH1 0x20 ADD SWAP1 DUP2 MSTORE PUSH1 0x20 ADD PUSH1 0x0 KECCAK256 SWAP1 POP DUP2 DUP2 PUSH1 0x0 ADD DUP2 SWAP1 SSTORE POP DUP3 DUP2 PUSH1 0x1 ADD SWAP1 DUP1 MLOAD SWAP1 PUSH1 0x20 ADD SWAP1 PUSH2 0xA12 SWAP3 SWAP2 SWAP1 PUSH2 0x2C3D JUMP JUMPDEST POP DUP2 PUSH31 0x4736EEA0F1F8D3B949033AF6DBB0FDEA6FC371BD8F2D0436EEDB58961659E5 DUP5 PUSH1 0x40 MLOAD PUSH2 0xA42 SWAP2 SWAP1 PUSH2 0x3AF0 JUMP JUMPDEST PUSH1 0x40 MLOAD DUP1 SWAP2 SUB SWAP1 LOG2 POP POP POP JUMP JUMPDEST PUSH1 0x0 DUP1 SLOAD SWAP1 PUSH2 0x100 EXP SWAP1 DIV PUSH20 0xFFFFFFFFFFFFFFFFFFFFFFFFFFFFFFFFFFFFFFFF AND PUSH20 0xFFFFFFFFFFFFFFFFFFFFFFFFFFFFFFFFFFFFFFFF AND CALLER PUSH20 0xFFFFFFFFFFFFFFFFFFFFFFFFFFFFFFFFFFFFFFFF AND EQ PUSH2 0xADD JUMPI PUSH1 0x40 MLOAD PUSH32 0x8C379A000000000000000000000000000000000000000000000000000000000 DUP2 MSTORE PUSH1 0x4 ADD PUSH2 0xAD4 SWAP1 PUSH2 0x3C52 JUMP JUMPDEST PUSH1 0x40 MLOAD DUP1 SWAP2 SUB SWAP1 REVERT JUMPDEST PUSH1 0x0 PUSH1 0x5 PUSH1 0x0 DUP6 DUP2 MSTORE PUSH1 0x20 ADD SWAP1 DUP2 MSTORE PUSH1 0x20 ADD PUSH1 0x0 KECCAK256 SWAP1 POP PUSH1 0x0 JUMPDEST DUP2 PUSH1 0x3 ADD DUP1 SLOAD SWAP1 POP DUP2 LT ISZERO PUSH2 0xB95 JUMPI PUSH1 0x0 DUP3 PUSH1 0x2 ADD PUSH1 0x0 DUP4 DUP2 MSTORE PUSH1 0x20 ADD SWAP1 DUP2 MSTORE PUSH1 0x20 ADD PUSH1 0x0 KECCAK256 SWAP1 POP DUP5 DUP1 MLOAD SWAP1 PUSH1 0x20 ADD KECCAK256 DUP2 PUSH1 0x1 ADD PUSH1 0x40 MLOAD PUSH2 0xB38 SWAP2 SWAP1 PUSH2 0x396B JUMP JUMPDEST PUSH1 0x40 MLOAD DUP1 SWAP2 SUB SWAP1 KECCAK256 EQ ISZERO PUSH2 0xB81 JUMPI PUSH1 0x40 MLOAD PUSH32 0x8C379A000000000000000000000000000000000000000000000000000000000 DUP2 MSTORE PUSH1 0x4 ADD PUSH2 0xB78 SWAP1 PUSH2 0x3CB2 JUMP JUMPDEST PUSH1 0x40 MLOAD DUP1 SWAP2 SUB SWAP1 REVERT JUMPDEST POP DUP1 DUP1 PUSH2 0xB8D SWAP1 PUSH2 0x448C JUMP JUMPDEST SWAP2 POP POP PUSH2 0xAF7 JUMP JUMPDEST POP PUSH1 0x0 PUSH1 0x5 PUSH1 0x0 DUP7 DUP2 MSTORE PUSH1 0x20 ADD SWAP1 DUP2 MSTORE PUSH1 0x20 ADD PUSH1 0x0 KECCAK256 PUSH1 0x3 ADD DUP1 SLOAD SWAP1 POP SWAP1 POP PUSH1 0x40 MLOAD DUP1 PUSH1 0x80 ADD PUSH1 0x40 MSTORE DUP1 DUP3 DUP2 MSTORE PUSH1 0x20 ADD DUP6 DUP2 MSTORE PUSH1 0x20 ADD DUP5 PUSH20 0xFFFFFFFFFFFFFFFFFFFFFFFFFFFFFFFFFFFFFFFF AND DUP2 MSTORE PUSH1 0x20 ADD PUSH1 0x0 PUSH8 0xFFFFFFFFFFFFFFFF DUP2 GT ISZERO PUSH2 0xC28 JUMPI PUSH32 0x4E487B7100000000000000000000000000000000000000000000000000000000 PUSH1 0x0 MSTORE PUSH1 0x41 PUSH1 0x4 MSTORE PUSH1 0x24 PUSH1 0x0 REVERT JUMPDEST PUSH1 0x40 MLOAD SWAP1 DUP1 DUP3 MSTORE DUP1 PUSH1 0x20 MUL PUSH1 0x20 ADD DUP3 ADD PUSH1 0x40 MSTORE DUP1 ISZERO PUSH2 0xC56 JUMPI DUP2 PUSH1 0x20 ADD PUSH1 0x20 DUP3 MUL DUP1 CALLDATASIZE DUP4 CALLDATACOPY DUP1 DUP3 ADD SWAP2 POP POP SWAP1 POP JUMPDEST POP DUP2 MSTORE POP PUSH1 0x5 PUSH1 0x0 DUP8 DUP2 MSTORE PUSH1 0x20 ADD SWAP1 DUP2 MSTORE PUSH1 0x20 ADD PUSH1 0x0 KECCAK256 PUSH1 0x2 ADD PUSH1 0x0 DUP4 DUP2 MSTORE PUSH1 0x20 ADD SWAP1 DUP2 MSTORE PUSH1 0x20 ADD PUSH1 0x0 KECCAK256 PUSH1 0x0 DUP3 ADD MLOAD DUP2 PUSH1 0x0 ADD SSTORE PUSH1 0x20 DUP3 ADD MLOAD DUP2 PUSH1 0x1 ADD SWAP1 DUP1 MLOAD SWAP1 PUSH1 0x20 ADD SWAP1 PUSH2 0xCA7 SWAP3 SWAP2 SWAP1 PUSH2 0x2C3D JUMP JUMPDEST POP PUSH1 0x40 DUP3 ADD MLOAD DUP2 PUSH1 0x2 ADD PUSH1 0x0 PUSH2 0x100 EXP DUP2 SLOAD DUP2 PUSH20 0xFFFFFFFFFFFFFFFFFFFFFFFFFFFFFFFFFFFFFFFF MUL NOT AND SWAP1 DUP4 PUSH20 0xFFFFFFFFFFFFFFFFFFFFFFFFFFFFFFFFFFFFFFFF AND MUL OR SWAP1 SSTORE POP PUSH1 0x60 DUP3 ADD MLOAD DUP2 PUSH1 0x3 ADD SWAP1 DUP1 MLOAD SWAP1 PUSH1 0x20 ADD SWAP1 PUSH2 0xD0B SWAP3 SWAP2 SWAP1 PUSH2 0x2CC3 JUMP JUMPDEST POP SWAP1 POP POP PUSH1 0x5 PUSH1 0x0 DUP7 DUP2 MSTORE PUSH1 0x20 ADD SWAP1 DUP2 MSTORE PUSH1 0x20 ADD PUSH1 0x0 KECCAK256 PUSH1 0x3 ADD DUP2 SWAP1 DUP1 PUSH1 0x1 DUP2 SLOAD ADD DUP1 DUP3 SSTORE DUP1 SWAP2 POP POP PUSH1 0x1 SWAP1 SUB SWAP1 PUSH1 0x0 MSTORE PUSH1 0x20 PUSH1 0x0 KECCAK256 ADD PUSH1 0x0 SWAP1 SWAP2 SWAP1 SWAP2 SWAP1 SWAP2 POP SSTORE POP POP POP POP POP JUMP JUMPDEST PUSH1 0x5 PUSH1 0x20 MSTORE DUP1 PUSH1 0x0 MSTORE PUSH1 0x40 PUSH1 0x0 KECCAK256 PUSH1 0x0 SWAP2 POP SWAP1 POP DUP1 PUSH1 0x0 ADD SLOAD SWAP1 DUP1 PUSH1 0x1 ADD DUP1 SLOAD PUSH2 0xD7C SWAP1 PUSH2 0x445A JUMP JUMPDEST DUP1 PUSH1 0x1F ADD PUSH1 0x20 DUP1 SWAP2 DIV MUL PUSH1 0x20 ADD PUSH1 0x40 MLOAD SWAP1 DUP2 ADD PUSH1 0x40 MSTORE DUP1 SWAP3 SWAP2 SWAP1 DUP2 DUP2 MSTORE PUSH1 0x20 ADD DUP3 DUP1 SLOAD PUSH2 0xDA8 SWAP1 PUSH2 0x445A JUMP JUMPDEST DUP1 ISZERO PUSH2 0xDF5 JUMPI DUP1 PUSH1 0x1F LT PUSH2 0xDCA JUMPI PUSH2 0x100 DUP1 DUP4 SLOAD DIV MUL DUP4 MSTORE SWAP2 PUSH1 0x20 ADD SWAP2 PUSH2 0xDF5 JUMP JUMPDEST DUP3 ADD SWAP2 SWAP1 PUSH1 0x0 MSTORE PUSH1 0x20 PUSH1 0x0 KECCAK256 SWAP1 JUMPDEST DUP2 SLOAD DUP2 MSTORE SWAP1 PUSH1 0x1 ADD SWAP1 PUSH1 0x20 ADD DUP1 DUP4 GT PUSH2 0xDD8 JUMPI DUP3 SWAP1 SUB PUSH1 0x1F AND DUP3 ADD SWAP2 JUMPDEST POP POP POP POP POP SWAP1 POP DUP3 JUMP JUMPDEST PUSH1 0x2 SLOAD DUP2 JUMP JUMPDEST DUP4 DUP1 PUSH1 0x5 PUSH1 0x0 DUP4 DUP2 MSTORE PUSH1 0x20 ADD SWAP1 DUP2 MSTORE PUSH1 0x20 ADD PUSH1 0x0 KECCAK256 PUSH1 0x0 ADD SLOAD EQ PUSH2 0xE5E JUMPI PUSH1 0x40 MLOAD PUSH32 0x8C379A000000000000000000000000000000000000000000000000000000000 DUP2 MSTORE PUSH1 0x4 ADD PUSH2 0xE55 SWAP1 PUSH2 0x3DD2 JUMP JUMPDEST PUSH1 0x40 MLOAD DUP1 SWAP2 SUB SWAP1 REVERT JUMPDEST DUP5 DUP5 PUSH1 0x5 PUSH1 0x0 DUP4 DUP2 MSTORE PUSH1 0x20 ADD SWAP1 DUP2 MSTORE PUSH1 0x20 ADD PUSH1 0x0 KECCAK256 PUSH1 0x3 ADD DUP1 SLOAD SWAP1 POP DUP2 LT PUSH2 0xEBB JUMPI PUSH1 0x40 MLOAD PUSH32 0x8C379A000000000000000000000000000000000000000000000000000000000 DUP2 MSTORE PUSH1 0x4 ADD PUSH2 0xEB2 SWAP1 PUSH2 0x3B12 JUMP JUMPDEST PUSH1 0x40 MLOAD DUP1 SWAP2 SUB SWAP1 REVERT JUMPDEST PUSH1 0x5 PUSH1 0x0 DUP4 DUP2 MSTORE PUSH1 0x20 ADD SWAP1 DUP2 MSTORE PUSH1 0x20 ADD PUSH1 0x0 KECCAK256 PUSH1 0x2 ADD PUSH1 0x0 DUP3 DUP2 MSTORE PUSH1 0x20 ADD SWAP1 DUP2 MSTORE PUSH1 0x20 ADD PUSH1 0x0 KECCAK256 PUSH1 0x2 ADD PUSH1 0x0 SWAP1 SLOAD SWAP1 PUSH2 0x100 EXP SWAP1 DIV PUSH20 0xFFFFFFFFFFFFFFFFFFFFFFFFFFFFFFFFFFFFFFFF AND PUSH20 0xFFFFFFFFFFFFFFFFFFFFFFFFFFFFFFFFFFFFFFFF AND CALLER PUSH20 0xFFFFFFFFFFFFFFFFFFFFFFFFFFFFFFFFFFFFFFFF AND EQ PUSH2 0xF73 JUMPI PUSH1 0x40 MLOAD PUSH32 0x8C379A000000000000000000000000000000000000000000000000000000000 DUP2 MSTORE PUSH1 0x4 ADD PUSH2 0xF6A SWAP1 PUSH2 0x3CD2 JUMP JUMPDEST PUSH1 0x40 MLOAD DUP1 SWAP2 SUB SWAP1 REVERT JUMPDEST PUSH1 0x0 PUSH1 0x2 PUSH1 0x0 DUP2 SLOAD DUP1 SWAP3 SWAP2 SWAP1 PUSH2 0xF88 SWAP1 PUSH2 0x448C JUMP JUMPDEST SWAP2 SWAP1 POP SSTORE SWAP1 POP PUSH1 0x40 MLOAD DUP1 PUSH1 0xE0 ADD PUSH1 0x40 MSTORE DUP1 DUP3 DUP2 MSTORE PUSH1 0x20 ADD DUP10 DUP2 MSTORE PUSH1 0x20 ADD DUP9 DUP2 MSTORE PUSH1 0x20 ADD DUP8 DUP2 MSTORE PUSH1 0x20 ADD TIMESTAMP DUP2 MSTORE PUSH1 0x20 ADD PUSH1 0x3C DUP8 PUSH2 0xFC4 SWAP2 SWAP1 PUSH2 0x428D JUMP JUMPDEST TIMESTAMP PUSH2 0xFCF SWAP2 SWAP1 PUSH2 0x4085 JUMP JUMPDEST DUP2 MSTORE PUSH1 0x20 ADD PUSH1 0x0 ISZERO ISZERO DUP2 MSTORE POP PUSH1 0x7 PUSH1 0x0 DUP4 DUP2 MSTORE PUSH1 0x20 ADD SWAP1 DUP2 MSTORE PUSH1 0x20 ADD PUSH1 0x0 KECCAK256 PUSH1 0x0 DUP3 ADD MLOAD DUP2 PUSH1 0x0 ADD SSTORE PUSH1 0x20 DUP3 ADD MLOAD DUP2 PUSH1 0x1 ADD SSTORE PUSH1 0x40 DUP3 ADD MLOAD DUP2 PUSH1 0x2 ADD SSTORE PUSH1 0x60 DUP3 ADD MLOAD DUP2 PUSH1 0x3 ADD SSTORE PUSH1 0x80 DUP3 ADD MLOAD DUP2 PUSH1 0x4 ADD SSTORE PUSH1 0xA0 DUP3 ADD MLOAD DUP2 PUSH1 0x5 ADD SSTORE PUSH1 0xC0 DUP3 ADD MLOAD DUP2 PUSH1 0x6 ADD PUSH1 0x0 PUSH2 0x100 EXP DUP2 SLOAD DUP2 PUSH1 0xFF MUL NOT AND SWAP1 DUP4 ISZERO ISZERO MUL OR SWAP1 SSTORE POP SWAP1 POP POP PUSH1 0x5 PUSH1 0x0 DUP10 DUP2 MSTORE PUSH1 0x20 ADD SWAP1 DUP2 MSTORE PUSH1 0x20 ADD PUSH1 0x0 KECCAK256 PUSH1 0x2 ADD PUSH1 0x0 DUP9 DUP2 MSTORE PUSH1 0x20 ADD SWAP1 DUP2 MSTORE PUSH1 0x20 ADD PUSH1 0x0 KECCAK256 PUSH1 0x3 ADD DUP2 SWAP1 DUP1 PUSH1 0x1 DUP2 SLOAD ADD DUP1 DUP3 SSTORE DUP1 SWAP2 POP POP PUSH1 0x1 SWAP1 SUB SWAP1 PUSH1 0x0 MSTORE PUSH1 0x20 PUSH1 0x0 KECCAK256 ADD PUSH1 0x0 SWAP1 SWAP2 SWAP1 SWAP2 SWAP1 SWAP2 POP SSTORE DUP8 PUSH32 0x20E697EE2E8310DB3B8B0D28937A1D05BC2CDD1B0698C3699F16A6C9387534E8 DUP9 DUP4 PUSH1 0x40 MLOAD PUSH2 0x10D0 SWAP3 SWAP2 SWAP1 PUSH2 0x3E3D JUMP JUMPDEST PUSH1 0x40 MLOAD DUP1 SWAP2 SUB SWAP1 LOG2 POP POP POP POP POP POP POP POP JUMP JUMPDEST PUSH1 0x0 DUP1 SLOAD SWAP1 PUSH2 0x100 EXP SWAP1 DIV PUSH20 0xFFFFFFFFFFFFFFFFFFFFFFFFFFFFFFFFFFFFFFFF AND PUSH20 0xFFFFFFFFFFFFFFFFFFFFFFFFFFFFFFFFFFFFFFFF AND CALLER PUSH20 0xFFFFFFFFFFFFFFFFFFFFFFFFFFFFFFFFFFFFFFFF AND EQ PUSH2 0x1170 JUMPI PUSH1 0x40 MLOAD PUSH32 0x8C379A000000000000000000000000000000000000000000000000000000000 DUP2 MSTORE PUSH1 0x4 ADD PUSH2 0x1167 SWAP1 PUSH2 0x3C52 JUMP JUMPDEST PUSH1 0x40 MLOAD DUP1 SWAP2 SUB SWAP1 REVERT JUMPDEST PUSH1 0x0 PUSH20 0xFFFFFFFFFFFFFFFFFFFFFFFFFFFFFFFFFFFFFFFF AND DUP2 PUSH20 0xFFFFFFFFFFFFFFFFFFFFFFFFFFFFFFFFFFFFFFFF AND EQ ISZERO PUSH2 0x11E0 JUMPI PUSH1 0x40 MLOAD PUSH32 0x8C379A000000000000000000000000000000000000000000000000000000000 DUP2 MSTORE PUSH1 0x4 ADD PUSH2 0x11D7 SWAP1 PUSH2 0x3B72 JUMP JUMPDEST PUSH1 0x40 MLOAD DUP1 SWAP2 SUB SWAP1 REVERT JUMPDEST DUP1 PUSH1 0x0 DUP1 PUSH2 0x100 EXP DUP2 SLOAD DUP2 PUSH20 0xFFFFFFFFFFFFFFFFFFFFFFFFFFFFFFFFFFFFFFFF MUL NOT AND SWAP1 DUP4 PUSH20 0xFFFFFFFFFFFFFFFFFFFFFFFFFFFFFFFFFFFFFFFF AND MUL OR SWAP1 SSTORE POP POP JUMP JUMPDEST PUSH1 0x4 PUSH1 0x20 MSTORE DUP1 PUSH1 0x0 MSTORE PUSH1 0x40 PUSH1 0x0 KECCAK256 PUSH1 0x0 SWAP2 POP SWAP1 POP DUP1 SLOAD PUSH2 0x1242 SWAP1 PUSH2 0x445A JUMP JUMPDEST DUP1 PUSH1 0x1F ADD PUSH1 0x20 DUP1 SWAP2 DIV MUL PUSH1 0x20 ADD PUSH1 0x40 MLOAD SWAP1 DUP2 ADD PUSH1 0x40 MSTORE DUP1 SWAP3 SWAP2 SWAP1 DUP2 DUP2 MSTORE PUSH1 0x20 ADD DUP3 DUP1 SLOAD PUSH2 0x126E SWAP1 PUSH2 0x445A JUMP JUMPDEST DUP1 ISZERO PUSH2 0x12BB JUMPI DUP1 PUSH1 0x1F LT PUSH2 0x1290 JUMPI PUSH2 0x100 DUP1 DUP4 SLOAD DIV MUL DUP4 MSTORE SWAP2 PUSH1 0x20 ADD SWAP2 PUSH2 0x12BB JUMP JUMPDEST DUP3 ADD SWAP2 SWAP1 PUSH1 0x0 MSTORE PUSH1 0x20 PUSH1 0x0 KECCAK256 SWAP1 JUMPDEST DUP2 SLOAD DUP2 MSTORE SWAP1 PUSH1 0x1 ADD SWAP1 PUSH1 0x20 ADD DUP1 DUP4 GT PUSH2 0x129E JUMPI DUP3 SWAP1 SUB PUSH1 0x1F AND DUP3 ADD SWAP2 JUMPDEST POP POP POP POP POP DUP2 JUMP JUMPDEST PUSH1 0x7 PUSH1 0x20 MSTORE DUP1 PUSH1 0x0 MSTORE PUSH1 0x40 PUSH1 0x0 KECCAK256 PUSH1 0x0 SWAP2 POP SWAP1 POP DUP1 PUSH1 0x0 ADD SLOAD SWAP1 DUP1 PUSH1 0x1 ADD SLOAD SWAP1 DUP1 PUSH1 0x2 ADD SLOAD SWAP1 DUP1 PUSH1 0x3 ADD SLOAD SWAP1 DUP1 PUSH1 0x4 ADD SLOAD SWAP1 DUP1 PUSH1 0x5 ADD SLOAD SWAP1 DUP1 PUSH1 0x6 ADD PUSH1 0x0 SWAP1 SLOAD SWAP1 PUSH2 0x100 EXP SWAP1 DIV PUSH1 0xFF AND SWAP1 POP DUP8 JUMP JUMPDEST PUSH1 0x3 SLOAD DUP2 JUMP JUMPDEST PUSH1 0x8 PUSH1 0x20 MSTORE DUP2 PUSH1 0x0 MSTORE PUSH1 0x40 PUSH1 0x0 KECCAK256 PUSH1 0x20 MSTORE DUP1 PUSH1 0x0 MSTORE PUSH1 0x40 PUSH1 0x0 KECCAK256 PUSH1 0x0 SWAP2 POP SWAP2 POP SWAP1 SLOAD SWAP1 PUSH2 0x100 EXP SWAP1 DIV PUSH1 0xFF AND DUP2 JUMP JUMPDEST PUSH1 0xB PUSH1 0x20 MSTORE DUP1 PUSH1 0x0 MSTORE PUSH1 0x40 PUSH1 0x0 KECCAK256 PUSH1 0x0 SWAP2 POP SLOAD SWAP1 PUSH2 0x100 EXP SWAP1 DIV PUSH1 0xFF AND DUP2 JUMP JUMPDEST DUP2 DUP1 PUSH1 0x5 PUSH1 0x0 DUP4 DUP2 MSTORE PUSH1 0x20 ADD SWAP1 DUP2 MSTORE PUSH1 0x20 ADD PUSH1 0x0 KECCAK256 PUSH1 0x0 ADD SLOAD EQ PUSH2 0x13C0 JUMPI PUSH1 0x40 MLOAD PUSH32 0x8C379A000000000000000000000000000000000000000000000000000000000 DUP2 MSTORE PUSH1 0x4 ADD PUSH2 0x13B7 SWAP1 PUSH2 0x3DD2 JUMP JUMPDEST PUSH1 0x40 MLOAD DUP1 SWAP2 SUB SWAP1 REVERT JUMPDEST PUSH1 0x0 DUP1 SLOAD SWAP1 PUSH2 0x100 EXP SWAP1 DIV PUSH20 0xFFFFFFFFFFFFFFFFFFFFFFFFFFFFFFFFFFFFFFFF AND PUSH20 0xFFFFFFFFFFFFFFFFFFFFFFFFFFFFFFFFFFFFFFFF AND CALLER PUSH20 0xFFFFFFFFFFFFFFFFFFFFFFFFFFFFFFFFFFFFFFFF AND EQ PUSH2 0x144E JUMPI PUSH1 0x40 MLOAD PUSH32 0x8C379A000000000000000000000000000000000000000000000000000000000 DUP2 MSTORE PUSH1 0x4 ADD PUSH2 0x1445 SWAP1 PUSH2 0x3C52 JUMP JUMPDEST PUSH1 0x40 MLOAD DUP1 SWAP2 SUB SWAP1 REVERT JUMPDEST PUSH1 0x5 PUSH1 0x0 DUP5 DUP2 MSTORE PUSH1 0x20 ADD SWAP1 DUP2 MSTORE PUSH1 0x20 ADD PUSH1 0x0 KECCAK256 PUSH1 0x5 ADD PUSH1 0x0 DUP4 PUSH20 0xFFFFFFFFFFFFFFFFFFFFFFFFFFFFFFFFFFFFFFFF AND PUSH20 0xFFFFFFFFFFFFFFFFFFFFFFFFFFFFFFFFFFFFFFFF AND DUP2 MSTORE PUSH1 0x20 ADD SWAP1 DUP2 MSTORE PUSH1 0x20 ADD PUSH1 0x0 KECCAK256 PUSH1 0x0 SWAP1 SLOAD SWAP1 PUSH2 0x100 EXP SWAP1 DIV PUSH1 0xFF AND ISZERO PUSH2 0x14EF JUMPI PUSH1 0x40 MLOAD PUSH32 0x8C379A000000000000000000000000000000000000000000000000000000000 DUP2 MSTORE PUSH1 0x4 ADD PUSH2 0x14E6 SWAP1 PUSH2 0x3C12 JUMP JUMPDEST PUSH1 0x40 MLOAD DUP1 SWAP2 SUB SWAP1 REVERT JUMPDEST PUSH1 0x1 PUSH1 0x5 PUSH1 0x0 DUP6 DUP2 MSTORE PUSH1 0x20 ADD SWAP1 DUP2 MSTORE PUSH1 0x20 ADD PUSH1 0x0 KECCAK256 PUSH1 0x5 ADD PUSH1 0x0 DUP5 PUSH20 0xFFFFFFFFFFFFFFFFFFFFFFFFFFFFFFFFFFFFFFFF AND PUSH20 0xFFFFFFFFFFFFFFFFFFFFFFFFFFFFFFFFFFFFFFFF AND DUP2 MSTORE PUSH1 0x20 ADD SWAP1 DUP2 MSTORE PUSH1 0x20 ADD PUSH1 0x0 KECCAK256 PUSH1 0x0 PUSH2 0x100 EXP DUP2 SLOAD DUP2 PUSH1 0xFF MUL NOT AND SWAP1 DUP4 ISZERO ISZERO MUL OR SWAP1 SSTORE POP POP POP POP JUMP JUMPDEST DUP2 DUP1 PUSH1 0x5 PUSH1 0x0 DUP4 DUP2 MSTORE PUSH1 0x20 ADD SWAP1 DUP2 MSTORE PUSH1 0x20 ADD PUSH1 0x0 KECCAK256 PUSH1 0x0 ADD SLOAD EQ PUSH2 0x15B9 JUMPI PUSH1 0x40 MLOAD PUSH32 0x8C379A000000000000000000000000000000000000000000000000000000000 DUP2 MSTORE PUSH1 0x4 ADD PUSH2 0x15B0 SWAP1 PUSH2 0x3DD2 JUMP JUMPDEST PUSH1 0x40 MLOAD DUP1 SWAP2 SUB SWAP1 REVERT JUMPDEST PUSH1 0x0 DUP1 SLOAD SWAP1 PUSH2 0x100 EXP SWAP1 DIV PUSH20 0xFFFFFFFFFFFFFFFFFFFFFFFFFFFFFFFFFFFFFFFF AND PUSH20 0xFFFFFFFFFFFFFFFFFFFFFFFFFFFFFFFFFFFFFFFF AND CALLER PUSH20 0xFFFFFFFFFFFFFFFFFFFFFFFFFFFFFFFFFFFFFFFF AND EQ PUSH2 0x1647 JUMPI PUSH1 0x40 MLOAD PUSH32 0x8C379A000000000000000000000000000000000000000000000000000000000 DUP2 MSTORE PUSH1 0x4 ADD PUSH2 0x163E SWAP1 PUSH2 0x3C52 JUMP JUMPDEST PUSH1 0x40 MLOAD DUP1 SWAP2 SUB SWAP1 REVERT JUMPDEST PUSH1 0x5 PUSH1 0x0 DUP5 DUP2 MSTORE PUSH1 0x20 ADD SWAP1 DUP2 MSTORE PUSH1 0x20 ADD PUSH1 0x0 KECCAK256 PUSH1 0x5 ADD PUSH1 0x0 DUP4 PUSH20 0xFFFFFFFFFFFFFFFFFFFFFFFFFFFFFFFFFFFFFFFF AND PUSH20 0xFFFFFFFFFFFFFFFFFFFFFFFFFFFFFFFFFFFFFFFF AND DUP2 MSTORE PUSH1 0x20 ADD SWAP1 DUP2 MSTORE PUSH1 0x20 ADD PUSH1 0x0 KECCAK256 PUSH1 0x0 SWAP1 SLOAD SWAP1 PUSH2 0x100 EXP SWAP1 DIV PUSH1 0xFF AND PUSH2 0x16E7 JUMPI PUSH1 0x40 MLOAD PUSH32 0x8C379A000000000000000000000000000000000000000000000000000000000 DUP2 MSTORE PUSH1 0x4 ADD PUSH2 0x16DE SWAP1 PUSH2 0x3D32 JUMP JUMPDEST PUSH1 0x40 MLOAD DUP1 SWAP2 SUB SWAP1 REVERT JUMPDEST PUSH1 0x0 PUSH1 0x5 PUSH1 0x0 DUP6 DUP2 MSTORE PUSH1 0x20 ADD SWAP1 DUP2 MSTORE PUSH1 0x20 ADD PUSH1 0x0 KECCAK256 PUSH1 0x5 ADD PUSH1 0x0 DUP5 PUSH20 0xFFFFFFFFFFFFFFFFFFFFFFFFFFFFFFFFFFFFFFFF AND PUSH20 0xFFFFFFFFFFFFFFFFFFFFFFFFFFFFFFFFFFFFFFFF AND DUP2 MSTORE PUSH1 0x20 ADD SWAP1 DUP2 MSTORE PUSH1 0x20 ADD PUSH1 0x0 KECCAK256 PUSH1 0x0 PUSH2 0x100 EXP DUP2 SLOAD DUP2 PUSH1 0xFF MUL NOT AND SWAP1 DUP4 ISZERO ISZERO MUL OR SWAP1 SSTORE POP POP POP POP JUMP JUMPDEST PUSH1 0x0 DUP1 PUSH1 0x0 SWAP1 POP JUMPDEST PUSH1 0x1 SLOAD DUP2 LT ISZERO PUSH2 0x1880 JUMPI PUSH1 0x0 PUSH1 0x5 PUSH1 0x0 DUP4 DUP2 MSTORE PUSH1 0x20 ADD SWAP1 DUP2 MSTORE PUSH1 0x20 ADD PUSH1 0x0 KECCAK256 SWAP1 POP PUSH1 0x0 JUMPDEST DUP2 PUSH1 0x3 ADD DUP1 SLOAD SWAP1 POP DUP2 LT ISZERO PUSH2 0x186B JUMPI PUSH1 0x0 DUP3 PUSH1 0x3 ADD DUP3 DUP2 SLOAD DUP2 LT PUSH2 0x17D1 JUMPI PUSH32 0x4E487B7100000000000000000000000000000000000000000000000000000000 PUSH1 0x0 MSTORE PUSH1 0x32 PUSH1 0x4 MSTORE PUSH1 0x24 PUSH1 0x0 REVERT JUMPDEST SWAP1 PUSH1 0x0 MSTORE PUSH1 0x20 PUSH1 0x0 KECCAK256 ADD SLOAD SWAP1 POP DUP6 PUSH20 0xFFFFFFFFFFFFFFFFFFFFFFFFFFFFFFFFFFFFFFFF AND DUP4 PUSH1 0x2 ADD PUSH1 0x0 DUP4 DUP2 MSTORE PUSH1 0x20 ADD SWAP1 DUP2 MSTORE PUSH1 0x20 ADD PUSH1 0x0 KECCAK256 PUSH1 0x2 ADD PUSH1 0x0 SWAP1 SLOAD SWAP1 PUSH2 0x100 EXP SWAP1 DIV PUSH20 0xFFFFFFFFFFFFFFFFFFFFFFFFFFFFFFFFFFFFFFFF AND PUSH20 0xFFFFFFFFFFFFFFFFFFFFFFFFFFFFFFFFFFFFFFFF AND EQ ISZERO PUSH2 0x1857 JUMPI PUSH1 0x1 SWAP5 POP POP POP POP POP PUSH2 0x1886 JUMP JUMPDEST POP DUP1 DUP1 PUSH2 0x1863 SWAP1 PUSH2 0x448C JUMP JUMPDEST SWAP2 POP POP PUSH2 0x1784 JUMP JUMPDEST POP POP DUP1 DUP1 PUSH2 0x1878 SWAP1 PUSH2 0x448C JUMP JUMPDEST SWAP2 POP POP PUSH2 0x1760 JUMP JUMPDEST POP PUSH1 0x0 SWAP1 POP JUMPDEST SWAP2 SWAP1 POP JUMP JUMPDEST PUSH1 0x0 PUSH1 0x6 PUSH1 0x0 DUP4 DUP2 MSTORE PUSH1 0x20 ADD SWAP1 DUP2 MSTORE PUSH1 0x20 ADD PUSH1 0x0 KECCAK256 SWAP1 POP PUSH1 0x0 PUSH20 0xFFFFFFFFFFFFFFFFFFFFFFFFFFFFFFFFFFFFFFFF AND DUP2 PUSH1 0x0 ADD PUSH1 0x0 SWAP1 SLOAD SWAP1 PUSH2 0x100 EXP SWAP1 DIV PUSH20 0xFFFFFFFFFFFFFFFFFFFFFFFFFFFFFFFFFFFFFFFF AND PUSH20 0xFFFFFFFFFFFFFFFFFFFFFFFFFFFFFFFFFFFFFFFF AND EQ ISZERO PUSH2 0x1936 JUMPI PUSH1 0x40 MLOAD PUSH32 0x8C379A000000000000000000000000000000000000000000000000000000000 DUP2 MSTORE PUSH1 0x4 ADD PUSH2 0x192D SWAP1 PUSH2 0x3B52 JUMP JUMPDEST PUSH1 0x40 MLOAD DUP1 SWAP2 SUB SWAP1 REVERT JUMPDEST DUP1 PUSH1 0x2 ADD PUSH1 0x14 SWAP1 SLOAD SWAP1 PUSH2 0x100 EXP SWAP1 DIV PUSH1 0xFF AND ISZERO PUSH2 0x1988 JUMPI PUSH1 0x40 MLOAD PUSH32 0x8C379A000000000000000000000000000000000000000000000000000000000 DUP2 MSTORE PUSH1 0x4 ADD PUSH2 0x197F SWAP1 PUSH2 0x3B92 JUMP JUMPDEST PUSH1 0x40 MLOAD DUP1 SWAP2 SUB SWAP1 REVERT JUMPDEST DUP1 PUSH1 0x2 ADD PUSH1 0x0 SWAP1 SLOAD SWAP1 PUSH2 0x100 EXP SWAP1 DIV PUSH20 0xFFFFFFFFFFFFFFFFFFFFFFFFFFFFFFFFFFFFFFFF AND PUSH20 0xFFFFFFFFFFFFFFFFFFFFFFFFFFFFFFFFFFFFFFFF AND CALLER PUSH20 0xFFFFFFFFFFFFFFFFFFFFFFFFFFFFFFFFFFFFFFFF AND EQ DUP1 PUSH2 0x1A31 JUMPI POP PUSH1 0x0 DUP1 SLOAD SWAP1 PUSH2 0x100 EXP SWAP1 DIV PUSH20 0xFFFFFFFFFFFFFFFFFFFFFFFFFFFFFFFFFFFFFFFF AND PUSH20 0xFFFFFFFFFFFFFFFFFFFFFFFFFFFFFFFFFFFFFFFF AND CALLER PUSH20 0xFFFFFFFFFFFFFFFFFFFFFFFFFFFFFFFFFFFFFFFF AND EQ JUMPDEST PUSH2 0x1A70 JUMPI PUSH1 0x40 MLOAD PUSH32 0x8C379A000000000000000000000000000000000000000000000000000000000 DUP2 MSTORE PUSH1 0x4 ADD PUSH2 0x1A67 SWAP1 PUSH2 0x3BB2 JUMP JUMPDEST PUSH1 0x40 MLOAD DUP1 SWAP2 SUB SWAP1 REVERT JUMPDEST PUSH1 0x1 DUP2 PUSH1 0x2 ADD PUSH1 0x14 PUSH2 0x100 EXP DUP2 SLOAD DUP2 PUSH1 0xFF MUL NOT AND SWAP1 DUP4 ISZERO ISZERO MUL OR SWAP1 SSTORE POP PUSH1 0x1 PUSH1 0x8 PUSH1 0x0 DUP4 PUSH1 0x2 ADD PUSH1 0x0 SWAP1 SLOAD SWAP1 PUSH2 0x100 EXP SWAP1 DIV PUSH20 0xFFFFFFFFFFFFFFFFFFFFFFFFFFFFFFFFFFFFFFFF AND PUSH20 0xFFFFFFFFFFFFFFFFFFFFFFFFFFFFFFFFFFFFFFFF AND PUSH20 0xFFFFFFFFFFFFFFFFFFFFFFFFFFFFFFFFFFFFFFFF AND DUP2 MSTORE PUSH1 0x20 ADD SWAP1 DUP2 MSTORE PUSH1 0x20 ADD PUSH1 0x0 KECCAK256 PUSH1 0x0 DUP4 PUSH1 0x1 ADD SLOAD DUP2 MSTORE PUSH1 0x20 ADD SWAP1 DUP2 MSTORE PUSH1 0x20 ADD PUSH1 0x0 KECCAK256 PUSH1 0x0 PUSH2 0x100 EXP DUP2 SLOAD DUP2 PUSH1 0xFF MUL NOT AND SWAP1 DUP4 ISZERO ISZERO MUL OR SWAP1 SSTORE POP DUP1 PUSH1 0x2 ADD PUSH1 0x0 SWAP1 SLOAD SWAP1 PUSH2 0x100 EXP SWAP1 DIV PUSH20 0xFFFFFFFFFFFFFFFFFFFFFFFFFFFFFFFFFFFFFFFF AND PUSH20 0xFFFFFFFFFFFFFFFFFFFFFFFFFFFFFFFFFFFFFFFF AND DUP3 PUSH32 0x189199877AC49C708164C69193136769411BAAEDCC0FFC4660AD59CC1111C030 DUP4 PUSH1 0x1 ADD SLOAD PUSH1 0x40 MLOAD PUSH2 0x1B8D SWAP2 SWAP1 PUSH2 0x3DF2 JUMP JUMPDEST PUSH1 0x40 MLOAD DUP1 SWAP2 SUB SWAP1 LOG3 POP POP JUMP JUMPDEST PUSH1 0xA PUSH1 0x20 MSTORE DUP2 PUSH1 0x0 MSTORE PUSH1 0x40 PUSH1 0x0 KECCAK256 PUSH1 0x20 MSTORE DUP1 PUSH1 0x0 MSTORE PUSH1 0x40 PUSH1 0x0 KECCAK256 PUSH1 0x0 SWAP2 POP SWAP2 POP SWAP1 SLOAD SWAP1 PUSH2 0x100 EXP SWAP1 DIV PUSH1 0xFF AND DUP2 JUMP JUMPDEST PUSH1 0x0 DUP1 PUSH2 0x1BE2 PUSH3 0x15180 DUP5 PUSH2 0x1BDD SWAP2 SWAP1 PUSH2 0x4145 JUMP JUMPDEST PUSH2 0x2845 JUMP JUMPDEST POP DUP1 SWAP3 POP DUP2 SWAP4 POP POP POP SWAP2 POP SWAP2 JUMP JUMPDEST PUSH1 0x0 PUSH1 0x7 PUSH1 0x0 DUP5 DUP2 MSTORE PUSH1 0x20 ADD SWAP1 DUP2 MSTORE PUSH1 0x20 ADD PUSH1 0x0 KECCAK256 SWAP1 POP PUSH1 0x5 PUSH1 0x0 DUP3 PUSH1 0x1 ADD SLOAD DUP2 MSTORE PUSH1 0x20 ADD SWAP1 DUP2 MSTORE PUSH1 0x20 ADD PUSH1 0x0 KECCAK256 PUSH1 0x2 ADD PUSH1 0x0 DUP3 PUSH1 0x2 ADD SLOAD DUP2 MSTORE PUSH1 0x20 ADD SWAP1 DUP2 MSTORE PUSH1 0x20 ADD PUSH1 0x0 KECCAK256 PUSH1 0x2 ADD PUSH1 0x0 SWAP1 SLOAD SWAP1 PUSH2 0x100 EXP SWAP1 DIV PUSH20 0xFFFFFFFFFFFFFFFFFFFFFFFFFFFFFFFFFFFFFFFF AND PUSH20 0xFFFFFFFFFFFFFFFFFFFFFFFFFFFFFFFFFFFFFFFF AND CALLER PUSH20 0xFFFFFFFFFFFFFFFFFFFFFFFFFFFFFFFFFFFFFFFF AND EQ PUSH2 0x1CC7 JUMPI PUSH1 0x40 MLOAD PUSH32 0x8C379A000000000000000000000000000000000000000000000000000000000 DUP2 MSTORE PUSH1 0x4 ADD PUSH2 0x1CBE SWAP1 PUSH2 0x3BB2 JUMP JUMPDEST PUSH1 0x40 MLOAD DUP1 SWAP2 SUB SWAP1 REVERT JUMPDEST PUSH1 0x0 DUP4 DUP4 PUSH1 0x3 SLOAD PUSH1 0x40 MLOAD PUSH1 0x20 ADD PUSH2 0x1CE0 SWAP4 SWAP3 SWAP2 SWAP1 PUSH2 0x39A8 JUMP JUMPDEST PUSH1 0x40 MLOAD PUSH1 0x20 DUP2 DUP4 SUB SUB DUP2 MSTORE SWAP1 PUSH1 0x40 MSTORE DUP1 MLOAD SWAP1 PUSH1 0x20 ADD KECCAK256 SWAP1 POP PUSH1 0x40 MLOAD DUP1 PUSH1 0x80 ADD PUSH1 0x40 MSTORE DUP1 CALLER PUSH20 0xFFFFFFFFFFFFFFFFFFFFFFFFFFFFFFFFFFFFFFFF AND DUP2 MSTORE PUSH1 0x20 ADD DUP6 DUP2 MSTORE PUSH1 0x20 ADD DUP5 PUSH20 0xFFFFFFFFFFFFFFFFFFFFFFFFFFFFFFFFFFFFFFFF AND DUP2 MSTORE PUSH1 0x20 ADD PUSH1 0x0 ISZERO ISZERO DUP2 MSTORE POP PUSH1 0x6 PUSH1 0x0 DUP4 DUP2 MSTORE PUSH1 0x20 ADD SWAP1 DUP2 MSTORE PUSH1 0x20 ADD PUSH1 0x0 KECCAK256 PUSH1 0x0 DUP3 ADD MLOAD DUP2 PUSH1 0x0 ADD PUSH1 0x0 PUSH2 0x100 EXP DUP2 SLOAD DUP2 PUSH20 0xFFFFFFFFFFFFFFFFFFFFFFFFFFFFFFFFFFFFFFFF MUL NOT AND SWAP1 DUP4 PUSH20 0xFFFFFFFFFFFFFFFFFFFFFFFFFFFFFFFFFFFFFFFF AND MUL OR SWAP1 SSTORE POP PUSH1 0x20 DUP3 ADD MLOAD DUP2 PUSH1 0x1 ADD SSTORE PUSH1 0x40 DUP3 ADD MLOAD DUP2 PUSH1 0x2 ADD PUSH1 0x0 PUSH2 0x100 EXP DUP2 SLOAD DUP2 PUSH20 0xFFFFFFFFFFFFFFFFFFFFFFFFFFFFFFFFFFFFFFFF MUL NOT AND SWAP1 DUP4 PUSH20 0xFFFFFFFFFFFFFFFFFFFFFFFFFFFFFFFFFFFFFFFF AND MUL OR SWAP1 SSTORE POP PUSH1 0x60 DUP3 ADD MLOAD DUP2 PUSH1 0x2 ADD PUSH1 0x14 PUSH2 0x100 EXP DUP2 SLOAD DUP2 PUSH1 0xFF MUL NOT AND SWAP1 DUP4 ISZERO ISZERO MUL OR SWAP1 SSTORE POP SWAP1 POP POP PUSH1 0x3 PUSH1 0x0 DUP2 SLOAD DUP1 SWAP3 SWAP2 SWAP1 PUSH2 0x1E29 SWAP1 PUSH2 0x448C JUMP JUMPDEST SWAP2 SWAP1 POP SSTORE POP POP POP POP POP JUMP JUMPDEST PUSH1 0x8 DUP2 JUMP JUMPDEST PUSH1 0x60 PUSH1 0x4 PUSH1 0x0 DUP4 PUSH20 0xFFFFFFFFFFFFFFFFFFFFFFFFFFFFFFFFFFFFFFFF AND PUSH20 0xFFFFFFFFFFFFFFFFFFFFFFFFFFFFFFFFFFFFFFFF AND DUP2 MSTORE PUSH1 0x20 ADD SWAP1 DUP2 MSTORE PUSH1 0x20 ADD PUSH1 0x0 KECCAK256 DUP1 SLOAD PUSH2 0x1E85 SWAP1 PUSH2 0x445A JUMP JUMPDEST DUP1 PUSH1 0x1F ADD PUSH1 0x20 DUP1 SWAP2 DIV MUL PUSH1 0x20 ADD PUSH1 0x40 MLOAD SWAP1 DUP2 ADD PUSH1 0x40 MSTORE DUP1 SWAP3 SWAP2 SWAP1 DUP2 DUP2 MSTORE PUSH1 0x20 ADD DUP3 DUP1 SLOAD PUSH2 0x1EB1 SWAP1 PUSH2 0x445A JUMP JUMPDEST DUP1 ISZERO PUSH2 0x1EFE JUMPI DUP1 PUSH1 0x1F LT PUSH2 0x1ED3 JUMPI PUSH2 0x100 DUP1 DUP4 SLOAD DIV MUL DUP4 MSTORE SWAP2 PUSH1 0x20 ADD SWAP2 PUSH2 0x1EFE JUMP JUMPDEST DUP3 ADD SWAP2 SWAP1 PUSH1 0x0 MSTORE PUSH1 0x20 PUSH1 0x0 KECCAK256 SWAP1 JUMPDEST DUP2 SLOAD DUP2 MSTORE SWAP1 PUSH1 0x1 ADD SWAP1 PUSH1 0x20 ADD DUP1 DUP4 GT PUSH2 0x1EE1 JUMPI DUP3 SWAP1 SUB PUSH1 0x1F AND DUP3 ADD SWAP2 JUMPDEST POP POP POP POP POP SWAP1 POP SWAP2 SWAP1 POP JUMP JUMPDEST PUSH1 0x0 PUSH1 0x7 PUSH1 0x0 DUP8 DUP2 MSTORE PUSH1 0x20 ADD SWAP1 DUP2 MSTORE PUSH1 0x20 ADD PUSH1 0x0 KECCAK256 SWAP1 POP PUSH1 0x0 PUSH1 0x5 PUSH1 0x0 DUP4 PUSH1 0x1 ADD SLOAD DUP2 MSTORE PUSH1 0x20 ADD SWAP1 DUP2 MSTORE PUSH1 0x20 ADD PUSH1 0x0 KECCAK256 SWAP1 POP DUP1 PUSH1 0x5 ADD PUSH1 0x0 CALLER PUSH20 0xFFFFFFFFFFFFFFFFFFFFFFFFFFFFFFFFFFFFFFFF AND PUSH20 0xFFFFFFFFFFFFFFFFFFFFFFFFFFFFFFFFFFFFFFFF AND DUP2 MSTORE PUSH1 0x20 ADD SWAP1 DUP2 MSTORE PUSH1 0x20 ADD PUSH1 0x0 KECCAK256 PUSH1 0x0 SWAP1 SLOAD SWAP1 PUSH2 0x100 EXP SWAP1 DIV PUSH1 0xFF AND PUSH2 0x1FCA JUMPI PUSH1 0x40 MLOAD PUSH32 0x8C379A000000000000000000000000000000000000000000000000000000000 DUP2 MSTORE PUSH1 0x4 ADD PUSH2 0x1FC1 SWAP1 PUSH2 0x3D32 JUMP JUMPDEST PUSH1 0x40 MLOAD DUP1 SWAP2 SUB SWAP1 REVERT JUMPDEST DUP2 PUSH1 0x6 ADD PUSH1 0x0 SWAP1 SLOAD SWAP1 PUSH2 0x100 EXP SWAP1 DIV PUSH1 0xFF AND ISZERO PUSH2 0x201C JUMPI PUSH1 0x40 MLOAD PUSH32 0x8C379A000000000000000000000000000000000000000000000000000000000 DUP2 MSTORE PUSH1 0x4 ADD PUSH2 0x2013 SWAP1 PUSH2 0x3B32 JUMP JUMPDEST PUSH1 0x40 MLOAD DUP1 SWAP2 SUB SWAP1 REVERT JUMPDEST DUP2 PUSH1 0x5 ADD SLOAD TIMESTAMP GT ISZERO PUSH2 0x2063 JUMPI PUSH1 0x40 MLOAD PUSH32 0x8C379A000000000000000000000000000000000000000000000000000000000 DUP2 MSTORE PUSH1 0x4 ADD PUSH2 0x205A SWAP1 PUSH2 0x3DB2 JUMP JUMPDEST PUSH1 0x40 MLOAD DUP1 SWAP2 SUB SWAP1 REVERT JUMPDEST PUSH1 0x8 PUSH1 0x0 CALLER PUSH20 0xFFFFFFFFFFFFFFFFFFFFFFFFFFFFFFFFFFFFFFFF AND PUSH20 0xFFFFFFFFFFFFFFFFFFFFFFFFFFFFFFFFFFFFFFFF AND DUP2 MSTORE PUSH1 0x20 ADD SWAP1 DUP2 MSTORE PUSH1 0x20 ADD PUSH1 0x0 KECCAK256 PUSH1 0x0 DUP9 DUP2 MSTORE PUSH1 0x20 ADD SWAP1 DUP2 MSTORE PUSH1 0x20 ADD PUSH1 0x0 KECCAK256 PUSH1 0x0 SWAP1 SLOAD SWAP1 PUSH2 0x100 EXP SWAP1 DIV PUSH1 0xFF AND ISZERO PUSH2 0x2101 JUMPI PUSH1 0x40 MLOAD PUSH32 0x8C379A000000000000000000000000000000000000000000000000000000000 DUP2 MSTORE PUSH1 0x4 ADD PUSH2 0x20F8 SWAP1 PUSH2 0x3D92 JUMP JUMPDEST PUSH1 0x40 MLOAD DUP1 SWAP2 SUB SWAP1 REVERT JUMPDEST PUSH2 0x2111 DUP7 DUP4 PUSH1 0x3 ADD SLOAD PUSH1 0x8 PUSH2 0x29D8 JUMP JUMPDEST PUSH2 0x2150 JUMPI PUSH1 0x40 MLOAD PUSH32 0x8C379A000000000000000000000000000000000000000000000000000000000 DUP2 MSTORE PUSH1 0x4 ADD PUSH2 0x2147 SWAP1 PUSH2 0x3CF2 JUMP JUMPDEST PUSH1 0x40 MLOAD DUP1 SWAP2 SUB SWAP1 REVERT JUMPDEST PUSH1 0x0 DUP3 PUSH1 0x3 ADD SLOAD DUP4 PUSH1 0x4 ADD SLOAD PUSH1 0x40 MLOAD PUSH1 0x20 ADD PUSH2 0x216D SWAP3 SWAP2 SWAP1 PUSH2 0x391B JUMP JUMPDEST PUSH1 0x40 MLOAD PUSH1 0x20 DUP2 DUP4 SUB SUB DUP2 MSTORE SWAP1 PUSH1 0x40 MSTORE DUP1 MLOAD SWAP1 PUSH1 0x20 ADD KECCAK256 SWAP1 POP PUSH2 0x21CC DUP2 DUP7 DUP5 PUSH1 0x2 ADD PUSH1 0x0 DUP8 PUSH1 0x2 ADD SLOAD DUP2 MSTORE PUSH1 0x20 ADD SWAP1 DUP2 MSTORE PUSH1 0x20 ADD PUSH1 0x0 KECCAK256 PUSH1 0x2 ADD PUSH1 0x0 SWAP1 SLOAD SWAP1 PUSH2 0x100 EXP SWAP1 DIV PUSH20 0xFFFFFFFFFFFFFFFFFFFFFFFFFFFFFFFFFFFFFFFF AND PUSH2 0x2B0B JUMP JUMPDEST PUSH2 0x220B JUMPI PUSH1 0x40 MLOAD PUSH32 0x8C379A000000000000000000000000000000000000000000000000000000000 DUP2 MSTORE PUSH1 0x4 ADD PUSH2 0x2202 SWAP1 PUSH2 0x3C32 JUMP JUMPDEST PUSH1 0x40 MLOAD DUP1 SWAP2 SUB SWAP1 REVERT JUMPDEST PUSH1 0x0 DUP8 DUP8 PUSH1 0x40 MLOAD PUSH1 0x20 ADD PUSH2 0x2220 SWAP3 SWAP2 SWAP1 PUSH2 0x391B JUMP JUMPDEST PUSH1 0x40 MLOAD PUSH1 0x20 DUP2 DUP4 SUB SUB DUP2 MSTORE SWAP1 PUSH1 0x40 MSTORE DUP1 MLOAD SWAP1 PUSH1 0x20 ADD KECCAK256 SWAP1 POP PUSH2 0x2243 DUP2 DUP7 CALLER PUSH2 0x2B0B JUMP JUMPDEST PUSH2 0x2282 JUMPI PUSH1 0x40 MLOAD PUSH32 0x8C379A000000000000000000000000000000000000000000000000000000000 DUP2 MSTORE PUSH1 0x4 ADD PUSH2 0x2279 SWAP1 PUSH2 0x3D72 JUMP JUMPDEST PUSH1 0x40 MLOAD DUP1 SWAP2 SUB SWAP1 REVERT JUMPDEST PUSH1 0x0 DUP7 DUP7 PUSH1 0x40 MLOAD PUSH1 0x20 ADD PUSH2 0x2297 SWAP3 SWAP2 SWAP1 PUSH2 0x3947 JUMP JUMPDEST PUSH1 0x40 MLOAD PUSH1 0x20 DUP2 DUP4 SUB SUB DUP2 MSTORE SWAP1 PUSH1 0x40 MSTORE DUP1 MLOAD SWAP1 PUSH1 0x20 ADD KECCAK256 SWAP1 POP PUSH1 0xB PUSH1 0x0 DUP3 DUP2 MSTORE PUSH1 0x20 ADD SWAP1 DUP2 MSTORE PUSH1 0x20 ADD PUSH1 0x0 KECCAK256 PUSH1 0x0 SWAP1 SLOAD SWAP1 PUSH2 0x100 EXP SWAP1 DIV PUSH1 0xFF AND ISZERO PUSH2 0x2310 JUMPI PUSH1 0x40 MLOAD PUSH32 0x8C379A000000000000000000000000000000000000000000000000000000000 DUP2 MSTORE PUSH1 0x4 ADD PUSH2 0x2307 SWAP1 PUSH2 0x3BF2 JUMP JUMPDEST PUSH1 0x40 MLOAD DUP1 SWAP2 SUB SWAP1 REVERT JUMPDEST PUSH1 0x1 PUSH1 0xB PUSH1 0x0 DUP4 DUP2 MSTORE PUSH1 0x20 ADD SWAP1 DUP2 MSTORE PUSH1 0x20 ADD PUSH1 0x0 KECCAK256 PUSH1 0x0 PUSH2 0x100 EXP DUP2 SLOAD DUP2 PUSH1 0xFF MUL NOT AND SWAP1 DUP4 ISZERO ISZERO MUL OR SWAP1 SSTORE POP PUSH1 0x1 PUSH1 0x8 PUSH1 0x0 CALLER PUSH20 0xFFFFFFFFFFFFFFFFFFFFFFFFFFFFFFFFFFFFFFFF AND PUSH20 0xFFFFFFFFFFFFFFFFFFFFFFFFFFFFFFFFFFFFFFFF AND DUP2 MSTORE PUSH1 0x20 ADD SWAP1 DUP2 MSTORE PUSH1 0x20 ADD PUSH1 0x0 KECCAK256 PUSH1 0x0 DUP13 DUP2 MSTORE PUSH1 0x20 ADD SWAP1 DUP2 MSTORE PUSH1 0x20 ADD PUSH1 0x0 KECCAK256 PUSH1 0x0 PUSH2 0x100 EXP DUP2 SLOAD DUP2 PUSH1 0xFF MUL NOT AND SWAP1 DUP4 ISZERO ISZERO MUL OR SWAP1 SSTORE POP PUSH32 0x8841D9F49345D61EFC842E9624F59B54162B3C8ACF4E384FD425957A2BE55D86 CALLER DUP12 PUSH1 0x40 MLOAD PUSH2 0x23D6 SWAP3 SWAP2 SWAP1 PUSH2 0x3A00 JUMP JUMPDEST PUSH1 0x40 MLOAD DUP1 SWAP2 SUB SWAP1 LOG1 POP POP POP POP POP POP POP POP POP POP JUMP JUMPDEST PUSH1 0x60 PUSH1 0x0 DUP1 PUSH1 0x0 SWAP1 POP JUMPDEST PUSH1 0x1 SLOAD DUP2 LT ISZERO PUSH2 0x24F2 JUMPI PUSH1 0x0 PUSH1 0x5 PUSH1 0x0 DUP4 DUP2 MSTORE PUSH1 0x20 ADD SWAP1 DUP2 MSTORE PUSH1 0x20 ADD PUSH1 0x0 KECCAK256 SWAP1 POP PUSH1 0x0 JUMPDEST DUP2 PUSH1 0x3 ADD DUP1 SLOAD SWAP1 POP DUP2 LT ISZERO PUSH2 0x24DD JUMPI PUSH1 0x0 DUP3 PUSH1 0x3 ADD DUP3 DUP2 SLOAD DUP2 LT PUSH2 0x2465 JUMPI PUSH32 0x4E487B7100000000000000000000000000000000000000000000000000000000 PUSH1 0x0 MSTORE PUSH1 0x32 PUSH1 0x4 MSTORE PUSH1 0x24 PUSH1 0x0 REVERT JUMPDEST SWAP1 PUSH1 0x0 MSTORE PUSH1 0x20 PUSH1 0x0 KECCAK256 ADD SLOAD SWAP1 POP PUSH1 0x0 DUP4 PUSH1 0x2 ADD PUSH1 0x0 DUP4 DUP2 MSTORE PUSH1 0x20 ADD SWAP1 DUP2 MSTORE PUSH1 0x20 ADD PUSH1 0x0 KECCAK256 SWAP1 POP DUP8 DUP1 MLOAD SWAP1 PUSH1 0x20 ADD KECCAK256 DUP2 PUSH1 0x1 ADD PUSH1 0x40 MLOAD PUSH2 0x24A4 SWAP2 SWAP1 PUSH2 0x396B JUMP JUMPDEST PUSH1 0x40 MLOAD DUP1 SWAP2 SUB SWAP1 KECCAK256 EQ ISZERO PUSH2 0x24C8 JUMPI DUP1 PUSH1 0x3 ADD DUP1 SLOAD SWAP1 POP DUP7 PUSH2 0x24C5 SWAP2 SWAP1 PUSH2 0x4085 JUMP JUMPDEST SWAP6 POP JUMPDEST POP POP DUP1 DUP1 PUSH2 0x24D5 SWAP1 PUSH2 0x448C JUMP JUMPDEST SWAP2 POP POP PUSH2 0x2418 JUMP JUMPDEST POP POP DUP1 DUP1 PUSH2 0x24EA SWAP1 PUSH2 0x448C JUMP JUMPDEST SWAP2 POP POP PUSH2 0x23F4 JUMP JUMPDEST POP PUSH1 0x0 DUP2 PUSH8 0xFFFFFFFFFFFFFFFF DUP2 GT ISZERO PUSH2 0x2535 JUMPI PUSH32 0x4E487B7100000000000000000000000000000000000000000000000000000000 PUSH1 0x0 MSTORE PUSH1 0x41 PUSH1 0x4 MSTORE PUSH1 0x24 PUSH1 0x0 REVERT JUMPDEST PUSH1 0x40 MLOAD SWAP1 DUP1 DUP3 MSTORE DUP1 PUSH1 0x20 MUL PUSH1 0x20 ADD DUP3 ADD PUSH1 0x40 MSTORE DUP1 ISZERO PUSH2 0x2563 JUMPI DUP2 PUSH1 0x20 ADD PUSH1 0x20 DUP3 MUL DUP1 CALLDATASIZE DUP4 CALLDATACOPY DUP1 DUP3 ADD SWAP2 POP POP SWAP1 POP JUMPDEST POP SWAP1 POP PUSH1 0x0 DUP1 PUSH1 0x0 SWAP1 POP JUMPDEST PUSH1 0x1 SLOAD DUP2 LT ISZERO PUSH2 0x2717 JUMPI PUSH1 0x0 PUSH1 0x5 PUSH1 0x0 DUP4 DUP2 MSTORE PUSH1 0x20 ADD SWAP1 DUP2 MSTORE PUSH1 0x20 ADD PUSH1 0x0 KECCAK256 SWAP1 POP PUSH1 0x0 JUMPDEST DUP2 PUSH1 0x3 ADD DUP1 SLOAD SWAP1 POP DUP2 LT ISZERO PUSH2 0x2702 JUMPI PUSH1 0x0 DUP3 PUSH1 0x3 ADD DUP3 DUP2 SLOAD DUP2 LT PUSH2 0x25DF JUMPI PUSH32 0x4E487B7100000000000000000000000000000000000000000000000000000000 PUSH1 0x0 MSTORE PUSH1 0x32 PUSH1 0x4 MSTORE PUSH1 0x24 PUSH1 0x0 REVERT JUMPDEST SWAP1 PUSH1 0x0 MSTORE PUSH1 0x20 PUSH1 0x0 KECCAK256 ADD SLOAD SWAP1 POP PUSH1 0x0 DUP4 PUSH1 0x2 ADD PUSH1 0x0 DUP4 DUP2 MSTORE PUSH1 0x20 ADD SWAP1 DUP2 MSTORE PUSH1 0x20 ADD PUSH1 0x0 KECCAK256 SWAP1 POP DUP10 DUP1 MLOAD SWAP1 PUSH1 0x20 ADD KECCAK256 DUP2 PUSH1 0x1 ADD PUSH1 0x40 MLOAD PUSH2 0x261E SWAP2 SWAP1 PUSH2 0x396B JUMP JUMPDEST PUSH1 0x40 MLOAD DUP1 SWAP2 SUB SWAP1 KECCAK256 EQ ISZERO PUSH2 0x26ED JUMPI PUSH1 0x0 JUMPDEST DUP2 PUSH1 0x3 ADD DUP1 SLOAD SWAP1 POP DUP2 LT ISZERO PUSH2 0x26EB JUMPI DUP2 PUSH1 0x3 ADD DUP2 DUP2 SLOAD DUP2 LT PUSH2 0x267A JUMPI PUSH32 0x4E487B7100000000000000000000000000000000000000000000000000000000 PUSH1 0x0 MSTORE PUSH1 0x32 PUSH1 0x4 MSTORE PUSH1 0x24 PUSH1 0x0 REVERT JUMPDEST SWAP1 PUSH1 0x0 MSTORE PUSH1 0x20 PUSH1 0x0 KECCAK256 ADD SLOAD DUP9 DUP9 DUP2 MLOAD DUP2 LT PUSH2 0x26BE JUMPI PUSH32 0x4E487B7100000000000000000000000000000000000000000000000000000000 PUSH1 0x0 MSTORE PUSH1 0x32 PUSH1 0x4 MSTORE PUSH1 0x24 PUSH1 0x0 REVERT JUMPDEST PUSH1 0x20 MUL PUSH1 0x20 ADD ADD DUP2 DUP2 MSTORE POP POP DUP7 DUP1 PUSH2 0x26D5 SWAP1 PUSH2 0x448C JUMP JUMPDEST SWAP8 POP POP DUP1 DUP1 PUSH2 0x26E3 SWAP1 PUSH2 0x448C JUMP JUMPDEST SWAP2 POP POP PUSH2 0x262F JUMP JUMPDEST POP JUMPDEST POP POP DUP1 DUP1 PUSH2 0x26FA SWAP1 PUSH2 0x448C JUMP JUMPDEST SWAP2 POP POP PUSH2 0x2592 JUMP JUMPDEST POP POP DUP1 DUP1 PUSH2 0x270F SWAP1 PUSH2 0x448C JUMP JUMPDEST SWAP2 POP POP PUSH2 0x256E JUMP JUMPDEST POP DUP2 SWAP4 POP POP POP POP SWAP2 SWAP1 POP JUMP JUMPDEST PUSH1 0x1 SLOAD DUP2 JUMP JUMPDEST PUSH1 0x0 PUSH1 0x7 PUSH1 0x0 DUP4 DUP2 MSTORE PUSH1 0x20 ADD SWAP1 DUP2 MSTORE PUSH1 0x20 ADD PUSH1 0x0 KECCAK256 SWAP1 POP PUSH1 0x5 PUSH1 0x0 DUP3 PUSH1 0x1 ADD SLOAD DUP2 MSTORE PUSH1 0x20 ADD SWAP1 DUP2 MSTORE PUSH1 0x20 ADD PUSH1 0x0 KECCAK256 PUSH1 0x2 ADD PUSH1 0x0 DUP3 PUSH1 0x2 ADD SLOAD DUP2 MSTORE PUSH1 0x20 ADD SWAP1 DUP2 MSTORE PUSH1 0x20 ADD PUSH1 0x0 KECCAK256 PUSH1 0x2 ADD PUSH1 0x0 SWAP1 SLOAD SWAP1 PUSH2 0x100 EXP SWAP1 DIV PUSH20 0xFFFFFFFFFFFFFFFFFFFFFFFFFFFFFFFFFFFFFFFF AND PUSH20 0xFFFFFFFFFFFFFFFFFFFFFFFFFFFFFFFFFFFFFFFF AND CALLER PUSH20 0xFFFFFFFFFFFFFFFFFFFFFFFFFFFFFFFFFFFFFFFF AND EQ PUSH2 0x2800 JUMPI PUSH1 0x40 MLOAD PUSH32 0x8C379A000000000000000000000000000000000000000000000000000000000 DUP2 MSTORE PUSH1 0x4 ADD PUSH2 0x27F7 SWAP1 PUSH2 0x3BB2 JUMP JUMPDEST PUSH1 0x40 MLOAD DUP1 SWAP2 SUB SWAP1 REVERT JUMPDEST PUSH1 0x1 DUP2 PUSH1 0x6 ADD PUSH1 0x0 PUSH2 0x100 EXP DUP2 SLOAD DUP2 PUSH1 0xFF MUL NOT AND SWAP1 DUP4 ISZERO ISZERO MUL OR SWAP1 SSTORE POP POP POP JUMP JUMPDEST PUSH1 0x0 DUP1 SLOAD SWAP1 PUSH2 0x100 EXP SWAP1 DIV PUSH20 0xFFFFFFFFFFFFFFFFFFFFFFFFFFFFFFFFFFFFFFFF AND DUP2 JUMP JUMPDEST PUSH1 0x0 DUP1 PUSH1 0x0 DUP1 DUP5 SWAP1 POP PUSH1 0x0 PUSH3 0x253D8C PUSH3 0x10BD9 DUP4 PUSH2 0x2863 SWAP2 SWAP1 PUSH2 0x3FF1 JUMP JUMPDEST PUSH2 0x286D SWAP2 SWAP1 PUSH2 0x3FF1 JUMP JUMPDEST SWAP1 POP PUSH1 0x0 PUSH3 0x23AB1 DUP3 PUSH1 0x4 PUSH2 0x2882 SWAP2 SWAP1 PUSH2 0x4176 JUMP JUMPDEST PUSH2 0x288C SWAP2 SWAP1 PUSH2 0x40DB JUMP JUMPDEST SWAP1 POP PUSH1 0x4 PUSH1 0x3 DUP3 PUSH3 0x23AB1 PUSH2 0x28A1 SWAP2 SWAP1 PUSH2 0x4176 JUMP JUMPDEST PUSH2 0x28AB SWAP2 SWAP1 PUSH2 0x3FF1 JUMP JUMPDEST PUSH2 0x28B5 SWAP2 SWAP1 PUSH2 0x40DB JUMP JUMPDEST DUP3 PUSH2 0x28C0 SWAP2 SWAP1 PUSH2 0x42E7 JUMP JUMPDEST SWAP2 POP PUSH1 0x0 PUSH3 0x164B09 PUSH1 0x1 DUP5 PUSH2 0x28D5 SWAP2 SWAP1 PUSH2 0x3FF1 JUMP JUMPDEST PUSH2 0xFA0 PUSH2 0x28E2 SWAP2 SWAP1 PUSH2 0x4176 JUMP JUMPDEST PUSH2 0x28EC SWAP2 SWAP1 PUSH2 0x40DB JUMP JUMPDEST SWAP1 POP PUSH1 0x1F PUSH1 0x4 DUP3 PUSH2 0x5B5 PUSH2 0x2900 SWAP2 SWAP1 PUSH2 0x4176 JUMP JUMPDEST PUSH2 0x290A SWAP2 SWAP1 PUSH2 0x40DB JUMP JUMPDEST DUP5 PUSH2 0x2915 SWAP2 SWAP1 PUSH2 0x42E7 JUMP JUMPDEST PUSH2 0x291F SWAP2 SWAP1 PUSH2 0x3FF1 JUMP JUMPDEST SWAP3 POP PUSH1 0x0 PUSH2 0x98F DUP5 PUSH1 0x50 PUSH2 0x2933 SWAP2 SWAP1 PUSH2 0x4176 JUMP JUMPDEST PUSH2 0x293D SWAP2 SWAP1 PUSH2 0x40DB JUMP JUMPDEST SWAP1 POP PUSH1 0x50 DUP2 PUSH2 0x98F PUSH2 0x294F SWAP2 SWAP1 PUSH2 0x4176 JUMP JUMPDEST PUSH2 0x2959 SWAP2 SWAP1 PUSH2 0x40DB JUMP JUMPDEST DUP5 PUSH2 0x2964 SWAP2 SWAP1 PUSH2 0x42E7 JUMP JUMPDEST SWAP6 POP PUSH1 0xB DUP2 PUSH2 0x2973 SWAP2 SWAP1 PUSH2 0x40DB JUMP JUMPDEST SWAP4 POP DUP4 PUSH1 0xC PUSH2 0x2982 SWAP2 SWAP1 PUSH2 0x4176 JUMP JUMPDEST PUSH1 0x2 DUP3 PUSH2 0x298F SWAP2 SWAP1 PUSH2 0x3FF1 JUMP JUMPDEST PUSH2 0x2999 SWAP2 SWAP1 PUSH2 0x42E7 JUMP JUMPDEST SWAP7 POP DUP4 DUP3 PUSH1 0x31 DUP6 PUSH2 0x29AA SWAP2 SWAP1 PUSH2 0x42E7 JUMP JUMPDEST PUSH1 0x64 PUSH2 0x29B6 SWAP2 SWAP1 PUSH2 0x4176 JUMP JUMPDEST PUSH2 0x29C0 SWAP2 SWAP1 PUSH2 0x3FF1 JUMP JUMPDEST PUSH2 0x29CA SWAP2 SWAP1 PUSH2 0x3FF1 JUMP JUMPDEST SWAP8 POP POP POP POP POP POP SWAP2 SWAP4 SWAP1 SWAP3 POP JUMP JUMPDEST PUSH1 0x0 DUP1 DUP3 GT PUSH2 0x2A1C JUMPI PUSH1 0x40 MLOAD PUSH32 0x8C379A000000000000000000000000000000000000000000000000000000000 DUP2 MSTORE PUSH1 0x4 ADD PUSH2 0x2A13 SWAP1 PUSH2 0x3BD2 JUMP JUMPDEST PUSH1 0x40 MLOAD DUP1 SWAP2 SUB SWAP1 REVERT JUMPDEST PUSH1 0x20 DUP3 GT ISZERO PUSH2 0x2A60 JUMPI PUSH1 0x40 MLOAD PUSH32 0x8C379A000000000000000000000000000000000000000000000000000000000 DUP2 MSTORE PUSH1 0x4 ADD PUSH2 0x2A57 SWAP1 PUSH2 0x3C92 JUMP JUMPDEST PUSH1 0x40 MLOAD DUP1 SWAP2 SUB SWAP1 REVERT JUMPDEST PUSH1 0x8 DUP3 LT ISZERO PUSH2 0x2AA4 JUMPI PUSH1 0x40 MLOAD PUSH32 0x8C379A000000000000000000000000000000000000000000000000000000000 DUP2 MSTORE PUSH1 0x4 ADD PUSH2 0x2A9B SWAP1 PUSH2 0x3C72 JUMP JUMPDEST PUSH1 0x40 MLOAD DUP1 SWAP2 SUB SWAP1 REVERT JUMPDEST PUSH1 0x0 PUSH32 0xFFFFFFFFFFFFFFFFFFFFFFFFFFFFFFFFFFFFFFFFFFFFFFFFFFFFFFFFFFFFFFFF PUSH1 0x0 SHL PUSH1 0x1 PUSH1 0x8 DUP6 PUSH2 0x2AD9 SWAP2 SWAP1 PUSH2 0x428D JUMP JUMPDEST PUSH2 0x100 PUSH2 0x2AE6 SWAP2 SWAP1 PUSH2 0x437B JUMP JUMPDEST PUSH1 0x1 SWAP1 SHL PUSH2 0x2AF4 SWAP2 SWAP1 PUSH2 0x437B JUMP JUMPDEST PUSH1 0x0 SHL XOR SWAP1 POP DUP1 DUP5 AND DUP2 DUP7 AND EQ SWAP2 POP POP SWAP4 SWAP3 POP POP POP JUMP JUMPDEST PUSH1 0x0 DUP1 DUP5 PUSH1 0x40 MLOAD PUSH1 0x20 ADD PUSH2 0x2B1F SWAP2 SWAP1 PUSH2 0x3982 JUMP JUMPDEST PUSH1 0x40 MLOAD PUSH1 0x20 DUP2 DUP4 SUB SUB DUP2 MSTORE SWAP1 PUSH1 0x40 MSTORE DUP1 MLOAD SWAP1 PUSH1 0x20 ADD KECCAK256 SWAP1 POP PUSH1 0x0 DUP1 PUSH1 0x0 PUSH2 0x2B45 DUP8 PUSH2 0x2BD5 JUMP JUMPDEST SWAP3 POP SWAP3 POP SWAP3 POP DUP6 PUSH20 0xFFFFFFFFFFFFFFFFFFFFFFFFFFFFFFFFFFFFFFFF AND PUSH1 0x1 DUP6 DUP4 DUP7 DUP7 PUSH1 0x40 MLOAD PUSH1 0x0 DUP2 MSTORE PUSH1 0x20 ADD PUSH1 0x40 MSTORE PUSH1 0x40 MLOAD PUSH2 0x2B85 SWAP5 SWAP4 SWAP3 SWAP2 SWAP1 PUSH2 0x3AAB JUMP JUMPDEST PUSH1 0x20 PUSH1 0x40 MLOAD PUSH1 0x20 DUP2 SUB SWAP1 DUP1 DUP5 SUB SWAP1 DUP6 GAS STATICCALL ISZERO DUP1 ISZERO PUSH2 0x2BA7 JUMPI RETURNDATASIZE PUSH1 0x0 DUP1 RETURNDATACOPY RETURNDATASIZE PUSH1 0x0 REVERT JUMPDEST POP POP POP PUSH1 0x20 PUSH1 0x40 MLOAD SUB MLOAD PUSH20 0xFFFFFFFFFFFFFFFFFFFFFFFFFFFFFFFFFFFFFFFF AND EQ SWAP5 POP POP POP POP POP SWAP4 SWAP3 POP POP POP JUMP JUMPDEST PUSH1 0x0 DUP1 PUSH1 0x0 PUSH1 0x41 DUP5 MLOAD EQ PUSH2 0x2C1E JUMPI PUSH1 0x40 MLOAD PUSH32 0x8C379A000000000000000000000000000000000000000000000000000000000 DUP2 MSTORE PUSH1 0x4 ADD PUSH2 0x2C15 SWAP1 PUSH2 0x3D52 JUMP JUMPDEST PUSH1 0x40 MLOAD DUP1 SWAP2 SUB SWAP1 REVERT JUMPDEST PUSH1 0x20 DUP5 ADD MLOAD SWAP3 POP PUSH1 0x40 DUP5 ADD MLOAD SWAP2 POP PUSH1 0x60 DUP5 ADD MLOAD PUSH1 0x0 BYTE SWAP1 POP SWAP2 SWAP4 SWAP1 SWAP3 POP JUMP JUMPDEST DUP3 DUP1 SLOAD PUSH2 0x2C49 SWAP1 PUSH2 0x445A JUMP JUMPDEST SWAP1 PUSH1 0x0 MSTORE PUSH1 0x20 PUSH1 0x0 KECCAK256 SWAP1 PUSH1 0x1F ADD PUSH1 0x20 SWAP1 DIV DUP2 ADD SWAP3 DUP3 PUSH2 0x2C6B JUMPI PUSH1 0x0 DUP6 SSTORE PUSH2 0x2CB2 JUMP JUMPDEST DUP3 PUSH1 0x1F LT PUSH2 0x2C84 JUMPI DUP1 MLOAD PUSH1 0xFF NOT AND DUP4 DUP1 ADD OR DUP6 SSTORE PUSH2 0x2CB2 JUMP JUMPDEST DUP3 DUP1 ADD PUSH1 0x1 ADD DUP6 SSTORE DUP3 ISZERO PUSH2 0x2CB2 JUMPI SWAP2 DUP3 ADD JUMPDEST DUP3 DUP2 GT ISZERO PUSH2 0x2CB1 JUMPI DUP3 MLOAD DUP3 SSTORE SWAP2 PUSH1 0x20 ADD SWAP2 SWAP1 PUSH1 0x1 ADD SWAP1 PUSH2 0x2C96 JUMP JUMPDEST JUMPDEST POP SWAP1 POP PUSH2 0x2CBF SWAP2 SWAP1 PUSH2 0x2D10 JUMP JUMPDEST POP SWAP1 JUMP JUMPDEST DUP3 DUP1 SLOAD DUP3 DUP3 SSTORE SWAP1 PUSH1 0x0 MSTORE PUSH1 0x20 PUSH1 0x0 KECCAK256 SWAP1 DUP2 ADD SWAP3 DUP3 ISZERO PUSH2 0x2CFF JUMPI SWAP2 PUSH1 0x20 MUL DUP3 ADD JUMPDEST DUP3 DUP2 GT ISZERO PUSH2 0x2CFE JUMPI DUP3 MLOAD DUP3 SSTORE SWAP2 PUSH1 0x20 ADD SWAP2 SWAP1 PUSH1 0x1 ADD SWAP1 PUSH2 0x2CE3 JUMP JUMPDEST JUMPDEST POP SWAP1 POP PUSH2 0x2D0C SWAP2 SWAP1 PUSH2 0x2D10 JUMP JUMPDEST POP SWAP1 JUMP JUMPDEST JUMPDEST DUP1 DUP3 GT ISZERO PUSH2 0x2D29 JUMPI PUSH1 0x0 DUP2 PUSH1 0x0 SWAP1 SSTORE POP PUSH1 0x1 ADD PUSH2 0x2D11 JUMP JUMPDEST POP SWAP1 JUMP JUMPDEST PUSH1 0x0 PUSH2 0x2D40 PUSH2 0x2D3B DUP5 PUSH2 0x3F06 JUMP JUMPDEST PUSH2 0x3ED5 JUMP JUMPDEST SWAP1 POP DUP3 DUP2 MSTORE PUSH1 0x20 DUP2 ADD DUP5 DUP5 DUP5 ADD GT ISZERO PUSH2 0x2D58 JUMPI PUSH1 0x0 DUP1 REVERT JUMPDEST PUSH2 0x2D63 DUP5 DUP3 DUP6 PUSH2 0x4418 JUMP JUMPDEST POP SWAP4 SWAP3 POP POP POP JUMP JUMPDEST PUSH1 0x0 PUSH2 0x2D7E PUSH2 0x2D79 DUP5 PUSH2 0x3F36 JUMP JUMPDEST PUSH2 0x3ED5 JUMP JUMPDEST SWAP1 POP DUP3 DUP2 MSTORE PUSH1 0x20 DUP2 ADD DUP5 DUP5 DUP5 ADD GT ISZERO PUSH2 0x2D96 JUMPI PUSH1 0x0 DUP1 REVERT JUMPDEST PUSH2 0x2DA1 DUP5 DUP3 DUP6 PUSH2 0x4418 JUMP JUMPDEST POP SWAP4 SWAP3 POP POP POP JUMP JUMPDEST PUSH1 0x0 DUP2 CALLDATALOAD SWAP1 POP PUSH2 0x2DB8 DUP2 PUSH2 0x45E7 JUMP JUMPDEST SWAP3 SWAP2 POP POP JUMP JUMPDEST PUSH1 0x0 DUP2 CALLDATALOAD SWAP1 POP PUSH2 0x2DCD DUP2 PUSH2 0x45FE JUMP JUMPDEST SWAP3 SWAP2 POP POP JUMP JUMPDEST PUSH1 0x0 DUP3 PUSH1 0x1F DUP4 ADD SLT PUSH2 0x2DE4 JUMPI PUSH1 0x0 DUP1 REVERT JUMPDEST DUP2 CALLDATALOAD PUSH2 0x2DF4 DUP5 DUP3 PUSH1 0x20 DUP7 ADD PUSH2 0x2D2D JUMP JUMPDEST SWAP2 POP POP SWAP3 SWAP2 POP POP JUMP JUMPDEST PUSH1 0x0 DUP3 PUSH1 0x1F DUP4 ADD SLT PUSH2 0x2E0E JUMPI PUSH1 0x0 DUP1 REVERT JUMPDEST DUP2 CALLDATALOAD PUSH2 0x2E1E DUP5 DUP3 PUSH1 0x20 DUP7 ADD PUSH2 0x2D6B JUMP JUMPDEST SWAP2 POP POP SWAP3 SWAP2 POP POP JUMP JUMPDEST PUSH1 0x0 DUP2 CALLDATALOAD SWAP1 POP PUSH2 0x2E36 DUP2 PUSH2 0x4615 JUMP JUMPDEST SWAP3 SWAP2 POP POP JUMP JUMPDEST PUSH1 0x0 PUSH1 0x20 DUP3 DUP5 SUB SLT ISZERO PUSH2 0x2E4E JUMPI PUSH1 0x0 DUP1 REVERT JUMPDEST PUSH1 0x0 PUSH2 0x2E5C DUP5 DUP3 DUP6 ADD PUSH2 0x2DA9 JUMP JUMPDEST SWAP2 POP POP SWAP3 SWAP2 POP POP JUMP JUMPDEST PUSH1 0x0 DUP1 PUSH1 0x40 DUP4 DUP6 SUB SLT ISZERO PUSH2 0x2E78 JUMPI PUSH1 0x0 DUP1 REVERT JUMPDEST PUSH1 0x0 PUSH2 0x2E86 DUP6 DUP3 DUP7 ADD PUSH2 0x2DA9 JUMP JUMPDEST SWAP3 POP POP PUSH1 0x20 PUSH2 0x2E97 DUP6 DUP3 DUP7 ADD PUSH2 0x2E27 JUMP JUMPDEST SWAP2 POP POP SWAP3 POP SWAP3 SWAP1 POP JUMP JUMPDEST PUSH1 0x0 PUSH1 0x20 DUP3 DUP5 SUB SLT ISZERO PUSH2 0x2EB3 JUMPI PUSH1 0x0 DUP1 REVERT JUMPDEST PUSH1 0x0 PUSH2 0x2EC1 DUP5 DUP3 DUP6 ADD PUSH2 0x2DBE JUMP JUMPDEST SWAP2 POP POP SWAP3 SWAP2 POP POP JUMP JUMPDEST PUSH1 0x0 PUSH1 0x20 DUP3 DUP5 SUB SLT ISZERO PUSH2 0x2EDC JUMPI PUSH1 0x0 DUP1 REVERT JUMPDEST PUSH1 0x0 DUP3 ADD CALLDATALOAD PUSH8 0xFFFFFFFFFFFFFFFF DUP2 GT ISZERO PUSH2 0x2EF6 JUMPI PUSH1 0x0 DUP1 REVERT JUMPDEST PUSH2 0x2F02 DUP5 DUP3 DUP6 ADD PUSH2 0x2DFD JUMP JUMPDEST SWAP2 POP POP SWAP3 SWAP2 POP POP JUMP JUMPDEST PUSH1 0x0 PUSH1 0x20 DUP3 DUP5 SUB SLT ISZERO PUSH2 0x2F1D JUMPI PUSH1 0x0 DUP1 REVERT JUMPDEST PUSH1 0x0 PUSH2 0x2F2B DUP5 DUP3 DUP6 ADD PUSH2 0x2E27 JUMP JUMPDEST SWAP2 POP POP SWAP3 SWAP2 POP POP JUMP JUMPDEST PUSH1 0x0 DUP1 PUSH1 0x40 DUP4 DUP6 SUB SLT ISZERO PUSH2 0x2F47 JUMPI PUSH1 0x0 DUP1 REVERT JUMPDEST PUSH1 0x0 PUSH2 0x2F55 DUP6 DUP3 DUP7 ADD PUSH2 0x2E27 JUMP JUMPDEST SWAP3 POP POP PUSH1 0x20 PUSH2 0x2F66 DUP6 DUP3 DUP7 ADD PUSH2 0x2DA9 JUMP JUMPDEST SWAP2 POP POP SWAP3 POP SWAP3 SWAP1 POP JUMP JUMPDEST PUSH1 0x0 DUP1 PUSH1 0x0 DUP1 PUSH1 0x0 PUSH1 0xA0 DUP7 DUP9 SUB SLT ISZERO PUSH2 0x2F88 JUMPI PUSH1 0x0 DUP1 REVERT JUMPDEST PUSH1 0x0 PUSH2 0x2F96 DUP9 DUP3 DUP10 ADD PUSH2 0x2E27 JUMP JUMPDEST SWAP6 POP POP PUSH1 0x20 PUSH2 0x2FA7 DUP9 DUP3 DUP10 ADD PUSH2 0x2DBE JUMP JUMPDEST SWAP5 POP POP PUSH1 0x40 PUSH2 0x2FB8 DUP9 DUP3 DUP10 ADD PUSH2 0x2E27 JUMP JUMPDEST SWAP4 POP POP PUSH1 0x60 DUP7 ADD CALLDATALOAD PUSH8 0xFFFFFFFFFFFFFFFF DUP2 GT ISZERO PUSH2 0x2FD5 JUMPI PUSH1 0x0 DUP1 REVERT JUMPDEST PUSH2 0x2FE1 DUP9 DUP3 DUP10 ADD PUSH2 0x2DD3 JUMP JUMPDEST SWAP3 POP POP PUSH1 0x80 DUP7 ADD CALLDATALOAD PUSH8 0xFFFFFFFFFFFFFFFF DUP2 GT ISZERO PUSH2 0x2FFE JUMPI PUSH1 0x0 DUP1 REVERT JUMPDEST PUSH2 0x300A DUP9 DUP3 DUP10 ADD PUSH2 0x2DD3 JUMP JUMPDEST SWAP2 POP POP SWAP3 SWAP6 POP SWAP3 SWAP6 SWAP1 SWAP4 POP JUMP JUMPDEST PUSH1 0x0 DUP1 PUSH1 0x0 PUSH1 0x60 DUP5 DUP7 SUB SLT ISZERO PUSH2 0x302C JUMPI PUSH1 0x0 DUP1 REVERT JUMPDEST PUSH1 0x0 PUSH2 0x303A DUP7 DUP3 DUP8 ADD PUSH2 0x2E27 JUMP JUMPDEST SWAP4 POP POP PUSH1 0x20 DUP5 ADD CALLDATALOAD PUSH8 0xFFFFFFFFFFFFFFFF DUP2 GT ISZERO PUSH2 0x3057 JUMPI PUSH1 0x0 DUP1 REVERT JUMPDEST PUSH2 0x3063 DUP7 DUP3 DUP8 ADD PUSH2 0x2DFD JUMP JUMPDEST SWAP3 POP POP PUSH1 0x40 PUSH2 0x3074 DUP7 DUP3 DUP8 ADD PUSH2 0x2DA9 JUMP JUMPDEST SWAP2 POP POP SWAP3 POP SWAP3 POP SWAP3 JUMP JUMPDEST PUSH1 0x0 DUP1 PUSH1 0x40 DUP4 DUP6 SUB SLT ISZERO PUSH2 0x3091 JUMPI PUSH1 0x0 DUP1 REVERT JUMPDEST PUSH1 0x0 PUSH2 0x309F DUP6 DUP3 DUP7 ADD PUSH2 0x2E27 JUMP JUMPDEST SWAP3 POP POP PUSH1 0x20 PUSH2 0x30B0 DUP6 DUP3 DUP7 ADD PUSH2 0x2E27 JUMP JUMPDEST SWAP2 POP POP SWAP3 POP SWAP3 SWAP1 POP JUMP JUMPDEST PUSH1 0x0 DUP1 PUSH1 0x0 DUP1 PUSH1 0x80 DUP6 DUP8 SUB SLT ISZERO PUSH2 0x30D0 JUMPI PUSH1 0x0 DUP1 REVERT JUMPDEST PUSH1 0x0 PUSH2 0x30DE DUP8 DUP3 DUP9 ADD PUSH2 0x2E27 JUMP JUMPDEST SWAP5 POP POP PUSH1 0x20 PUSH2 0x30EF DUP8 DUP3 DUP9 ADD PUSH2 0x2E27 JUMP JUMPDEST SWAP4 POP POP PUSH1 0x40 PUSH2 0x3100 DUP8 DUP3 DUP9 ADD PUSH2 0x2DBE JUMP JUMPDEST SWAP3 POP POP PUSH1 0x60 PUSH2 0x3111 DUP8 DUP3 DUP9 ADD PUSH2 0x2E27 JUMP JUMPDEST SWAP2 POP POP SWAP3 SWAP6 SWAP2 SWAP5 POP SWAP3 POP JUMP JUMPDEST PUSH1 0x0 PUSH2 0x3129 DUP4 DUP4 PUSH2 0x38D7 JUMP JUMPDEST PUSH1 0x20 DUP4 ADD SWAP1 POP SWAP3 SWAP2 POP POP JUMP JUMPDEST PUSH2 0x313E DUP2 PUSH2 0x43AF JUMP JUMPDEST DUP3 MSTORE POP POP JUMP JUMPDEST PUSH2 0x3155 PUSH2 0x3150 DUP3 PUSH2 0x43AF JUMP JUMPDEST PUSH2 0x44D5 JUMP JUMPDEST DUP3 MSTORE POP POP JUMP JUMPDEST PUSH1 0x0 PUSH2 0x3166 DUP3 PUSH2 0x3F8B JUMP JUMPDEST PUSH2 0x3170 DUP2 DUP6 PUSH2 0x3FB9 JUMP JUMPDEST SWAP4 POP PUSH2 0x317B DUP4 PUSH2 0x3F66 JUMP JUMPDEST DUP1 PUSH1 0x0 JUMPDEST DUP4 DUP2 LT ISZERO PUSH2 0x31AC JUMPI DUP2 MLOAD PUSH2 0x3193 DUP9 DUP3 PUSH2 0x311D JUMP JUMPDEST SWAP8 POP PUSH2 0x319E DUP4 PUSH2 0x3FAC JUMP JUMPDEST SWAP3 POP POP PUSH1 0x1 DUP2 ADD SWAP1 POP PUSH2 0x317F JUMP JUMPDEST POP DUP6 SWAP4 POP POP POP POP SWAP3 SWAP2 POP POP JUMP JUMPDEST PUSH2 0x31C2 DUP2 PUSH2 0x43C1 JUMP JUMPDEST DUP3 MSTORE POP POP JUMP JUMPDEST PUSH2 0x31D1 DUP2 PUSH2 0x43CD JUMP JUMPDEST DUP3 MSTORE POP POP JUMP JUMPDEST PUSH2 0x31E8 PUSH2 0x31E3 DUP3 PUSH2 0x43CD JUMP JUMPDEST PUSH2 0x44E7 JUMP JUMPDEST DUP3 MSTORE POP POP JUMP JUMPDEST PUSH1 0x0 PUSH2 0x31F9 DUP3 PUSH2 0x3F96 JUMP JUMPDEST PUSH2 0x3203 DUP2 DUP6 PUSH2 0x3FCA JUMP JUMPDEST SWAP4 POP PUSH2 0x3213 DUP2 DUP6 PUSH1 0x20 DUP7 ADD PUSH2 0x4427 JUMP JUMPDEST DUP1 DUP5 ADD SWAP2 POP POP SWAP3 SWAP2 POP POP JUMP JUMPDEST PUSH1 0x0 DUP2 SLOAD PUSH2 0x322C DUP2 PUSH2 0x445A JUMP JUMPDEST PUSH2 0x3236 DUP2 DUP7 PUSH2 0x3FCA JUMP JUMPDEST SWAP5 POP PUSH1 0x1 DUP3 AND PUSH1 0x0 DUP2 EQ PUSH2 0x3251 JUMPI PUSH1 0x1 DUP2 EQ PUSH2 0x3262 JUMPI PUSH2 0x3295 JUMP JUMPDEST PUSH1 0xFF NOT DUP4 AND DUP7 MSTORE DUP2 DUP7 ADD SWAP4 POP PUSH2 0x3295 JUMP JUMPDEST PUSH2 0x326B DUP6 PUSH2 0x3F76 JUMP JUMPDEST PUSH1 0x0 JUMPDEST DUP4 DUP2 LT ISZERO PUSH2 0x328D JUMPI DUP2 SLOAD DUP2 DUP10 ADD MSTORE PUSH1 0x1 DUP3 ADD SWAP2 POP PUSH1 0x20 DUP2 ADD SWAP1 POP PUSH2 0x326E JUMP JUMPDEST DUP4 DUP9 ADD SWAP6 POP POP POP JUMPDEST POP POP POP SWAP3 SWAP2 POP POP JUMP JUMPDEST PUSH1 0x0 PUSH2 0x32A9 DUP3 PUSH2 0x3FA1 JUMP JUMPDEST PUSH2 0x32B3 DUP2 DUP6 PUSH2 0x3FD5 JUMP JUMPDEST SWAP4 POP PUSH2 0x32C3 DUP2 DUP6 PUSH1 0x20 DUP7 ADD PUSH2 0x4427 JUMP JUMPDEST PUSH2 0x32CC DUP2 PUSH2 0x45C9 JUMP JUMPDEST DUP5 ADD SWAP2 POP POP SWAP3 SWAP2 POP POP JUMP JUMPDEST PUSH1 0x0 PUSH2 0x32E4 PUSH1 0x12 DUP4 PUSH2 0x3FD5 JUMP JUMPDEST SWAP2 POP PUSH32 0x496E76616C6964207375626A6563742049440000000000000000000000000000 PUSH1 0x0 DUP4 ADD MSTORE PUSH1 0x20 DUP3 ADD SWAP1 POP SWAP2 SWAP1 POP JUMP JUMPDEST PUSH1 0x0 PUSH2 0x3324 PUSH1 0x11 DUP4 PUSH2 0x3FD5 JUMP JUMPDEST SWAP2 POP PUSH32 0x417474656E64616E636520636C6F736564000000000000000000000000000000 PUSH1 0x0 DUP4 ADD MSTORE PUSH1 0x20 DUP3 ADD SWAP1 POP SWAP2 SWAP1 POP JUMP JUMPDEST PUSH1 0x0 PUSH2 0x3364 PUSH1 0xF DUP4 PUSH2 0x3FD5 JUMP JUMPDEST SWAP2 POP PUSH32 0x496E76616C696420726571756573740000000000000000000000000000000000 PUSH1 0x0 DUP4 ADD MSTORE PUSH1 0x20 DUP3 ADD SWAP1 POP SWAP2 SWAP1 POP JUMP JUMPDEST PUSH1 0x0 PUSH2 0x33A4 PUSH1 0xF DUP4 PUSH2 0x3FD5 JUMP JUMPDEST SWAP2 POP PUSH32 0x496E76616C696420616464726573730000000000000000000000000000000000 PUSH1 0x0 DUP4 ADD MSTORE PUSH1 0x20 DUP3 ADD SWAP1 POP SWAP2 SWAP1 POP JUMP JUMPDEST PUSH1 0x0 PUSH2 0x33E4 PUSH1 0x10 DUP4 PUSH2 0x3FD5 JUMP JUMPDEST SWAP2 POP PUSH32 0x416C726561647920617070726F76656400000000000000000000000000000000 PUSH1 0x0 DUP4 ADD MSTORE PUSH1 0x20 DUP3 ADD SWAP1 POP SWAP2 SWAP1 POP JUMP JUMPDEST PUSH1 0x0 PUSH2 0x3424 PUSH1 0x1C DUP4 PUSH2 0x3FE6 JUMP JUMPDEST SWAP2 POP PUSH32 0x19457468657265756D205369676E6564204D6573736167653A0A333200000000 PUSH1 0x0 DUP4 ADD MSTORE PUSH1 0x1C DUP3 ADD SWAP1 POP SWAP2 SWAP1 POP JUMP JUMPDEST PUSH1 0x0 PUSH2 0x3464 PUSH1 0xC DUP4 PUSH2 0x3FD5 JUMP JUMPDEST SWAP2 POP PUSH32 0x556E617574686F72697A65640000000000000000000000000000000000000000 PUSH1 0x0 DUP4 ADD MSTORE PUSH1 0x20 DUP3 ADD SWAP1 POP SWAP2 SWAP1 POP JUMP JUMPDEST PUSH1 0x0 PUSH2 0x34A4 PUSH1 0x17 DUP4 PUSH2 0x3FD5 JUMP JUMPDEST SWAP2 POP PUSH32 0x5A65726F20707265666978206E6F7420616C6C6F776564000000000000000000 PUSH1 0x0 DUP4 ADD MSTORE PUSH1 0x20 DUP3 ADD SWAP1 POP SWAP2 SWAP1 POP JUMP JUMPDEST PUSH1 0x0 PUSH2 0x34E4 PUSH1 0xD DUP4 PUSH2 0x3FD5 JUMP JUMPDEST SWAP2 POP PUSH32 0x50726F6F66732072657573656400000000000000000000000000000000000000 PUSH1 0x0 DUP4 ADD MSTORE PUSH1 0x20 DUP3 ADD SWAP1 POP SWAP2 SWAP1 POP JUMP JUMPDEST PUSH1 0x0 PUSH2 0x3524 PUSH1 0x10 DUP4 PUSH2 0x3FD5 JUMP JUMPDEST SWAP2 POP PUSH32 0x416C726561647920656E726F6C6C656400000000000000000000000000000000 PUSH1 0x0 DUP4 ADD MSTORE PUSH1 0x20 DUP3 ADD SWAP1 POP SWAP2 SWAP1 POP JUMP JUMPDEST PUSH1 0x0 PUSH2 0x3564 PUSH1 0x15 DUP4 PUSH2 0x3FD5 JUMP JUMPDEST SWAP2 POP PUSH32 0x496E76616C696420746561636865722070726F6F660000000000000000000000 PUSH1 0x0 DUP4 ADD MSTORE PUSH1 0x20 DUP3 ADD SWAP1 POP SWAP2 SWAP1 POP JUMP JUMPDEST PUSH1 0x0 PUSH2 0x35A4 PUSH1 0xA DUP4 PUSH2 0x3FD5 JUMP JUMPDEST SWAP2 POP PUSH32 0x4F6E6C792061646D696E00000000000000000000000000000000000000000000 PUSH1 0x0 DUP4 ADD MSTORE PUSH1 0x20 DUP3 ADD SWAP1 POP SWAP2 SWAP1 POP JUMP JUMPDEST PUSH1 0x0 PUSH2 0x35E4 PUSH1 0x20 DUP4 PUSH2 0x3FD5 JUMP JUMPDEST SWAP2 POP PUSH32 0x507265636973696F6E20746F6F206C6F7720666F7220617474656E64616E6365 PUSH1 0x0 DUP4 ADD MSTORE PUSH1 0x20 DUP3 ADD SWAP1 POP SWAP2 SWAP1 POP JUMP JUMPDEST PUSH1 0x0 PUSH2 0x3624 PUSH1 0x10 DUP4 PUSH2 0x3FD5 JUMP JUMPDEST SWAP2 POP PUSH32 0x50726566697820746F6F206C6172676500000000000000000000000000000000 PUSH1 0x0 DUP4 ADD MSTORE PUSH1 0x20 DUP3 ADD SWAP1 POP SWAP2 SWAP1 POP JUMP JUMPDEST PUSH1 0x0 PUSH2 0x3664 PUSH1 0xE DUP4 PUSH2 0x3FD5 JUMP JUMPDEST SWAP2 POP PUSH32 0x5375626A65637420657869737473000000000000000000000000000000000000 PUSH1 0x0 DUP4 ADD MSTORE PUSH1 0x20 DUP3 ADD SWAP1 POP SWAP2 SWAP1 POP JUMP JUMPDEST PUSH1 0x0 PUSH2 0x36A4 PUSH1 0x1D DUP4 PUSH2 0x3FD5 JUMP JUMPDEST SWAP2 POP PUSH32 0x4E6F742073656374696F6E2773207375626A6563742074656163686572000000 PUSH1 0x0 DUP4 ADD MSTORE PUSH1 0x20 DUP3 ADD SWAP1 POP SWAP2 SWAP1 POP JUMP JUMPDEST PUSH1 0x0 PUSH2 0x36E4 PUSH1 0x11 DUP4 PUSH2 0x3FD5 JUMP JUMPDEST SWAP2 POP PUSH32 0x4C6F636174696F6E206D69736D61746368000000000000000000000000000000 PUSH1 0x0 DUP4 ADD MSTORE PUSH1 0x20 DUP3 ADD SWAP1 POP SWAP2 SWAP1 POP JUMP JUMPDEST PUSH1 0x0 PUSH2 0x3724 PUSH1 0x13 DUP4 PUSH2 0x3FD5 JUMP JUMPDEST SWAP2 POP PUSH32 0x496E76616C6964206E616D65206C656E67746800000000000000000000000000 PUSH1 0x0 DUP4 ADD MSTORE PUSH1 0x20 DUP3 ADD SWAP1 POP SWAP2 SWAP1 POP JUMP JUMPDEST PUSH1 0x0 PUSH2 0x3764 PUSH1 0xC DUP4 PUSH2 0x3FD5 JUMP JUMPDEST SWAP2 POP PUSH32 0x4E6F7420656E726F6C6C65640000000000000000000000000000000000000000 PUSH1 0x0 DUP4 ADD MSTORE PUSH1 0x20 DUP3 ADD SWAP1 POP SWAP2 SWAP1 POP JUMP JUMPDEST PUSH1 0x0 PUSH2 0x37A4 PUSH1 0x18 DUP4 PUSH2 0x3FD5 JUMP JUMPDEST SWAP2 POP PUSH32 0x496E76616C6964207369676E6174757265206C656E6774680000000000000000 PUSH1 0x0 DUP4 ADD MSTORE PUSH1 0x20 DUP3 ADD SWAP1 POP SWAP2 SWAP1 POP JUMP JUMPDEST PUSH1 0x0 PUSH2 0x37E4 PUSH1 0x15 DUP4 PUSH2 0x3FD5 JUMP JUMPDEST SWAP2 POP PUSH32 0x496E76616C69642073747564656E742070726F6F660000000000000000000000 PUSH1 0x0 DUP4 ADD MSTORE PUSH1 0x20 DUP3 ADD SWAP1 POP SWAP2 SWAP1 POP JUMP JUMPDEST PUSH1 0x0 PUSH2 0x3824 PUSH1 0xE DUP4 PUSH2 0x3FD5 JUMP JUMPDEST SWAP2 POP PUSH32 0x416C7265616479206D61726B6564000000000000000000000000000000000000 PUSH1 0x0 DUP4 ADD MSTORE PUSH1 0x20 DUP3 ADD SWAP1 POP SWAP2 SWAP1 POP JUMP JUMPDEST PUSH1 0x0 PUSH2 0x3864 PUSH1 0xB DUP4 PUSH2 0x3FD5 JUMP JUMPDEST SWAP2 POP PUSH32 0x436C61737320656E646564000000000000000000000000000000000000000000 PUSH1 0x0 DUP4 ADD MSTORE PUSH1 0x20 DUP3 ADD SWAP1 POP SWAP2 SWAP1 POP JUMP JUMPDEST PUSH1 0x0 PUSH2 0x38A4 PUSH1 0xF DUP4 PUSH2 0x3FD5 JUMP JUMPDEST SWAP2 POP PUSH32 0x496E76616C69642073656374696F6E0000000000000000000000000000000000 PUSH1 0x0 DUP4 ADD MSTORE PUSH1 0x20 DUP3 ADD SWAP1 POP SWAP2 SWAP1 POP JUMP JUMPDEST PUSH2 0x38E0 DUP2 PUSH2 0x4401 JUMP JUMPDEST DUP3 MSTORE POP POP JUMP JUMPDEST PUSH2 0x38EF DUP2 PUSH2 0x4401 JUMP JUMPDEST DUP3 MSTORE POP POP JUMP JUMPDEST PUSH2 0x3906 PUSH2 0x3901 DUP3 PUSH2 0x4401 JUMP JUMPDEST PUSH2 0x4503 JUMP JUMPDEST DUP3 MSTORE POP POP JUMP JUMPDEST PUSH2 0x3915 DUP2 PUSH2 0x440B JUMP JUMPDEST DUP3 MSTORE POP POP JUMP JUMPDEST PUSH1 0x0 PUSH2 0x3927 DUP3 DUP6 PUSH2 0x31D7 JUMP JUMPDEST PUSH1 0x20 DUP3 ADD SWAP2 POP PUSH2 0x3937 DUP3 DUP5 PUSH2 0x38F5 JUMP JUMPDEST PUSH1 0x20 DUP3 ADD SWAP2 POP DUP2 SWAP1 POP SWAP4 SWAP3 POP POP POP JUMP JUMPDEST PUSH1 0x0 PUSH2 0x3953 DUP3 DUP6 PUSH2 0x31EE JUMP JUMPDEST SWAP2 POP PUSH2 0x395F DUP3 DUP5 PUSH2 0x31EE JUMP JUMPDEST SWAP2 POP DUP2 SWAP1 POP SWAP4 SWAP3 POP POP POP JUMP JUMPDEST PUSH1 0x0 PUSH2 0x3977 DUP3 DUP5 PUSH2 0x321F JUMP JUMPDEST SWAP2 POP DUP2 SWAP1 POP SWAP3 SWAP2 POP POP JUMP JUMPDEST PUSH1 0x0 PUSH2 0x398D DUP3 PUSH2 0x3417 JUMP JUMPDEST SWAP2 POP PUSH2 0x3999 DUP3 DUP5 PUSH2 0x31D7 JUMP JUMPDEST PUSH1 0x20 DUP3 ADD SWAP2 POP DUP2 SWAP1 POP SWAP3 SWAP2 POP POP JUMP JUMPDEST PUSH1 0x0 PUSH2 0x39B4 DUP3 DUP7 PUSH2 0x38F5 JUMP JUMPDEST PUSH1 0x20 DUP3 ADD SWAP2 POP PUSH2 0x39C4 DUP3 DUP6 PUSH2 0x3144 JUMP JUMPDEST PUSH1 0x14 DUP3 ADD SWAP2 POP PUSH2 0x39D4 DUP3 DUP5 PUSH2 0x38F5 JUMP JUMPDEST PUSH1 0x20 DUP3 ADD SWAP2 POP DUP2 SWAP1 POP SWAP5 SWAP4 POP POP POP POP JUMP JUMPDEST PUSH1 0x0 PUSH1 0x20 DUP3 ADD SWAP1 POP PUSH2 0x39FA PUSH1 0x0 DUP4 ADD DUP5 PUSH2 0x3135 JUMP JUMPDEST SWAP3 SWAP2 POP POP JUMP JUMPDEST PUSH1 0x0 PUSH1 0x40 DUP3 ADD SWAP1 POP PUSH2 0x3A15 PUSH1 0x0 DUP4 ADD DUP6 PUSH2 0x3135 JUMP JUMPDEST PUSH2 0x3A22 PUSH1 0x20 DUP4 ADD DUP5 PUSH2 0x38E6 JUMP JUMPDEST SWAP4 SWAP3 POP POP POP JUMP JUMPDEST PUSH1 0x0 PUSH1 0x80 DUP3 ADD SWAP1 POP PUSH2 0x3A3E PUSH1 0x0 DUP4 ADD DUP8 PUSH2 0x3135 JUMP JUMPDEST PUSH2 0x3A4B PUSH1 0x20 DUP4 ADD DUP7 PUSH2 0x38E6 JUMP JUMPDEST PUSH2 0x3A58 PUSH1 0x40 DUP4 ADD DUP6 PUSH2 0x3135 JUMP JUMPDEST PUSH2 0x3A65 PUSH1 0x60 DUP4 ADD DUP5 PUSH2 0x31B9 JUMP JUMPDEST SWAP6 SWAP5 POP POP POP POP POP JUMP JUMPDEST PUSH1 0x0 PUSH1 0x20 DUP3 ADD SWAP1 POP DUP2 DUP2 SUB PUSH1 0x0 DUP4 ADD MSTORE PUSH2 0x3A88 DUP2 DUP5 PUSH2 0x315B JUMP JUMPDEST SWAP1 POP SWAP3 SWAP2 POP POP JUMP JUMPDEST PUSH1 0x0 PUSH1 0x20 DUP3 ADD SWAP1 POP PUSH2 0x3AA5 PUSH1 0x0 DUP4 ADD DUP5 PUSH2 0x31B9 JUMP JUMPDEST SWAP3 SWAP2 POP POP JUMP JUMPDEST PUSH1 0x0 PUSH1 0x80 DUP3 ADD SWAP1 POP PUSH2 0x3AC0 PUSH1 0x0 DUP4 ADD DUP8 PUSH2 0x31C8 JUMP JUMPDEST PUSH2 0x3ACD PUSH1 0x20 DUP4 ADD DUP7 PUSH2 0x390C JUMP JUMPDEST PUSH2 0x3ADA PUSH1 0x40 DUP4 ADD DUP6 PUSH2 0x31C8 JUMP JUMPDEST PUSH2 0x3AE7 PUSH1 0x60 DUP4 ADD DUP5 PUSH2 0x31C8 JUMP JUMPDEST SWAP6 SWAP5 POP POP POP POP POP JUMP JUMPDEST PUSH1 0x0 PUSH1 0x20 DUP3 ADD SWAP1 POP DUP2 DUP2 SUB PUSH1 0x0 DUP4 ADD MSTORE PUSH2 0x3B0A DUP2 DUP5 PUSH2 0x329E JUMP JUMPDEST SWAP1 POP SWAP3 SWAP2 POP POP JUMP JUMPDEST PUSH1 0x0 PUSH1 0x20 DUP3 ADD SWAP1 POP DUP2 DUP2 SUB PUSH1 0x0 DUP4 ADD MSTORE PUSH2 0x3B2B DUP2 PUSH2 0x32D7 JUMP JUMPDEST SWAP1 POP SWAP2 SWAP1 POP JUMP JUMPDEST PUSH1 0x0 PUSH1 0x20 DUP3 ADD SWAP1 POP DUP2 DUP2 SUB PUSH1 0x0 DUP4 ADD MSTORE PUSH2 0x3B4B DUP2 PUSH2 0x3317 JUMP JUMPDEST SWAP1 POP SWAP2 SWAP1 POP JUMP JUMPDEST PUSH1 0x0 PUSH1 0x20 DUP3 ADD SWAP1 POP DUP2 DUP2 SUB PUSH1 0x0 DUP4 ADD MSTORE PUSH2 0x3B6B DUP2 PUSH2 0x3357 JUMP JUMPDEST SWAP1 POP SWAP2 SWAP1 POP JUMP JUMPDEST PUSH1 0x0 PUSH1 0x20 DUP3 ADD SWAP1 POP DUP2 DUP2 SUB PUSH1 0x0 DUP4 ADD MSTORE PUSH2 0x3B8B DUP2 PUSH2 0x3397 JUMP JUMPDEST SWAP1 POP SWAP2 SWAP1 POP JUMP JUMPDEST PUSH1 0x0 PUSH1 0x20 DUP3 ADD SWAP1 POP DUP2 DUP2 SUB PUSH1 0x0 DUP4 ADD MSTORE PUSH2 0x3BAB DUP2 PUSH2 0x33D7 JUMP JUMPDEST SWAP1 POP SWAP2 SWAP1 POP JUMP JUMPDEST PUSH1 0x0 PUSH1 0x20 DUP3 ADD SWAP1 POP DUP2 DUP2 SUB PUSH1 0x0 DUP4 ADD MSTORE PUSH2 0x3BCB DUP2 PUSH2 0x3457 JUMP JUMPDEST SWAP1 POP SWAP2 SWAP1 POP JUMP JUMPDEST PUSH1 0x0 PUSH1 0x20 DUP3 ADD SWAP1 POP DUP2 DUP2 SUB PUSH1 0x0 DUP4 ADD MSTORE PUSH2 0x3BEB DUP2 PUSH2 0x3497 JUMP JUMPDEST SWAP1 POP SWAP2 SWAP1 POP JUMP JUMPDEST PUSH1 0x0 PUSH1 0x20 DUP3 ADD SWAP1 POP DUP2 DUP2 SUB PUSH1 0x0 DUP4 ADD MSTORE PUSH2 0x3C0B DUP2 PUSH2 0x34D7 JUMP JUMPDEST SWAP1 POP SWAP2 SWAP1 POP JUMP JUMPDEST PUSH1 0x0 PUSH1 0x20 DUP3 ADD SWAP1 POP DUP2 DUP2 SUB PUSH1 0x0 DUP4 ADD MSTORE PUSH2 0x3C2B DUP2 PUSH2 0x3517 JUMP JUMPDEST SWAP1 POP SWAP2 SWAP1 POP JUMP JUMPDEST PUSH1 0x0 PUSH1 0x20 DUP3 ADD SWAP1 POP DUP2 DUP2 SUB PUSH1 0x0 DUP4 ADD MSTORE PUSH2 0x3C4B DUP2 PUSH2 0x3557 JUMP JUMPDEST SWAP1 POP SWAP2 SWAP1 POP JUMP JUMPDEST PUSH1 0x0 PUSH1 0x20 DUP3 ADD SWAP1 POP DUP2 DUP2 SUB PUSH1 0x0 DUP4 ADD MSTORE PUSH2 0x3C6B DUP2 PUSH2 0x3597 JUMP JUMPDEST SWAP1 POP SWAP2 SWAP1 POP JUMP JUMPDEST PUSH1 0x0 PUSH1 0x20 DUP3 ADD SWAP1 POP DUP2 DUP2 SUB PUSH1 0x0 DUP4 ADD MSTORE PUSH2 0x3C8B DUP2 PUSH2 0x35D7 JUMP JUMPDEST SWAP1 POP SWAP2 SWAP1 POP JUMP JUMPDEST PUSH1 0x0 PUSH1 0x20 DUP3 ADD SWAP1 POP DUP2 DUP2 SUB PUSH1 0x0 DUP4 ADD MSTORE PUSH2 0x3CAB DUP2 PUSH2 0x3617 JUMP JUMPDEST SWAP1 POP SWAP2 SWAP1 POP JUMP JUMPDEST PUSH1 0x0 PUSH1 0x20 DUP3 ADD SWAP1 POP DUP2 DUP2 SUB PUSH1 0x0 DUP4 ADD MSTORE PUSH2 0x3CCB DUP2 PUSH2 0x3657 JUMP JUMPDEST SWAP1 POP SWAP2 SWAP1 POP JUMP JUMPDEST PUSH1 0x0 PUSH1 0x20 DUP3 ADD SWAP1 POP DUP2 DUP2 SUB PUSH1 0x0 DUP4 ADD MSTORE PUSH2 0x3CEB DUP2 PUSH2 0x3697 JUMP JUMPDEST SWAP1 POP SWAP2 SWAP1 POP JUMP JUMPDEST PUSH1 0x0 PUSH1 0x20 DUP3 ADD SWAP1 POP DUP2 DUP2 SUB PUSH1 0x0 DUP4 ADD MSTORE PUSH2 0x3D0B DUP2 PUSH2 0x36D7 JUMP JUMPDEST SWAP1 POP SWAP2 SWAP1 POP JUMP JUMPDEST PUSH1 0x0 PUSH1 0x20 DUP3 ADD SWAP1 POP DUP2 DUP2 SUB PUSH1 0x0 DUP4 ADD MSTORE PUSH2 0x3D2B DUP2 PUSH2 0x3717 JUMP JUMPDEST SWAP1 POP SWAP2 SWAP1 POP JUMP JUMPDEST PUSH1 0x0 PUSH1 0x20 DUP3 ADD SWAP1 POP DUP2 DUP2 SUB PUSH1 0x0 DUP4 ADD MSTORE PUSH2 0x3D4B DUP2 PUSH2 0x3757 JUMP JUMPDEST SWAP1 POP SWAP2 SWAP1 POP JUMP JUMPDEST PUSH1 0x0 PUSH1 0x20 DUP3 ADD SWAP1 POP DUP2 DUP2 SUB PUSH1 0x0 DUP4 ADD MSTORE PUSH2 0x3D6B DUP2 PUSH2 0x3797 JUMP JUMPDEST SWAP1 POP SWAP2 SWAP1 POP JUMP JUMPDEST PUSH1 0x0 PUSH1 0x20 DUP3 ADD SWAP1 POP DUP2 DUP2 SUB PUSH1 0x0 DUP4 ADD MSTORE PUSH2 0x3D8B DUP2 PUSH2 0x37D7 JUMP JUMPDEST SWAP1 POP SWAP2 SWAP1 POP JUMP JUMPDEST PUSH1 0x0 PUSH1 0x20 DUP3 ADD SWAP1 POP DUP2 DUP2 SUB PUSH1 0x0 DUP4 ADD MSTORE PUSH2 0x3DAB DUP2 PUSH2 0x3817 JUMP JUMPDEST SWAP1 POP SWAP2 SWAP1 POP JUMP JUMPDEST PUSH1 0x0 PUSH1 0x20 DUP3 ADD SWAP1 POP DUP2 DUP2 SUB PUSH1 0x0 DUP4 ADD MSTORE PUSH2 0x3DCB DUP2 PUSH2 0x3857 JUMP JUMPDEST SWAP1 POP SWAP2 SWAP1 POP JUMP JUMPDEST PUSH1 0x0 PUSH1 0x20 DUP3 ADD SWAP1 POP DUP2 DUP2 SUB PUSH1 0x0 DUP4 ADD MSTORE PUSH2 0x3DEB DUP2 PUSH2 0x3897 JUMP JUMPDEST SWAP1 POP SWAP2 SWAP1 POP JUMP JUMPDEST PUSH1 0x0 PUSH1 0x20 DUP3 ADD SWAP1 POP PUSH2 0x3E07 PUSH1 0x0 DUP4 ADD DUP5 PUSH2 0x38E6 JUMP JUMPDEST SWAP3 SWAP2 POP POP JUMP JUMPDEST PUSH1 0x0 PUSH1 0x40 DUP3 ADD SWAP1 POP PUSH2 0x3E22 PUSH1 0x0 DUP4 ADD DUP6 PUSH2 0x38E6 JUMP JUMPDEST DUP2 DUP2 SUB PUSH1 0x20 DUP4 ADD MSTORE PUSH2 0x3E34 DUP2 DUP5 PUSH2 0x329E JUMP JUMPDEST SWAP1 POP SWAP4 SWAP3 POP POP POP JUMP JUMPDEST PUSH1 0x0 PUSH1 0x40 DUP3 ADD SWAP1 POP PUSH2 0x3E52 PUSH1 0x0 DUP4 ADD DUP6 PUSH2 0x38E6 JUMP JUMPDEST PUSH2 0x3E5F PUSH1 0x20 DUP4 ADD DUP5 PUSH2 0x38E6 JUMP JUMPDEST SWAP4 SWAP3 POP POP POP JUMP JUMPDEST PUSH1 0x0 PUSH1 0xE0 DUP3 ADD SWAP1 POP PUSH2 0x3E7B PUSH1 0x0 DUP4 ADD DUP11 PUSH2 0x38E6 JUMP JUMPDEST PUSH2 0x3E88 PUSH1 0x20 DUP4 ADD DUP10 PUSH2 0x38E6 JUMP JUMPDEST PUSH2 0x3E95 PUSH1 0x40 DUP4 ADD DUP9 PUSH2 0x38E6 JUMP JUMPDEST PUSH2 0x3EA2 PUSH1 0x60 DUP4 ADD DUP8 PUSH2 0x31C8 JUMP JUMPDEST PUSH2 0x3EAF PUSH1 0x80 DUP4 ADD DUP7 PUSH2 0x38E6 JUMP JUMPDEST PUSH2 0x3EBC PUSH1 0xA0 DUP4 ADD DUP6 PUSH2 0x38E6 JUMP JUMPDEST PUSH2 0x3EC9 PUSH1 0xC0 DUP4 ADD DUP5 PUSH2 0x31B9 JUMP JUMPDEST SWAP9 SWAP8 POP POP POP POP POP POP POP POP JUMP JUMPDEST PUSH1 0x0 PUSH1 0x40 MLOAD SWAP1 POP DUP2 DUP2 ADD DUP2 DUP2 LT PUSH8 0xFFFFFFFFFFFFFFFF DUP3 GT OR ISZERO PUSH2 0x3EFC JUMPI PUSH2 0x3EFB PUSH2 0x459A JUMP JUMPDEST JUMPDEST DUP1 PUSH1 0x40 MSTORE POP SWAP2 SWAP1 POP JUMP JUMPDEST PUSH1 0x0 PUSH8 0xFFFFFFFFFFFFFFFF DUP3 GT ISZERO PUSH2 0x3F21 JUMPI PUSH2 0x3F20 PUSH2 0x459A JUMP JUMPDEST JUMPDEST PUSH1 0x1F NOT PUSH1 0x1F DUP4 ADD AND SWAP1 POP PUSH1 0x20 DUP2 ADD SWAP1 POP SWAP2 SWAP1 POP JUMP JUMPDEST PUSH1 0x0 PUSH8 0xFFFFFFFFFFFFFFFF DUP3 GT ISZERO PUSH2 0x3F51 JUMPI PUSH2 0x3F50 PUSH2 0x459A JUMP JUMPDEST JUMPDEST PUSH1 0x1F NOT PUSH1 0x1F DUP4 ADD AND SWAP1 POP PUSH1 0x20 DUP2 ADD SWAP1 POP SWAP2 SWAP1 POP JUMP JUMPDEST PUSH1 0x0 DUP2 SWAP1 POP PUSH1 0x20 DUP3 ADD SWAP1 POP SWAP2 SWAP1 POP JUMP JUMPDEST PUSH1 0x0 DUP2 SWAP1 POP DUP2 PUSH1 0x0 MSTORE PUSH1 0x20 PUSH1 0x0 KECCAK256 SWAP1 POP SWAP2 SWAP1 POP JUMP JUMPDEST PUSH1 0x0 DUP2 MLOAD SWAP1 POP SWAP2 SWAP1 POP JUMP JUMPDEST PUSH1 0x0 DUP2 MLOAD SWAP1 POP SWAP2 SWAP1 POP JUMP JUMPDEST PUSH1 0x0 DUP2 MLOAD SWAP1 POP SWAP2 SWAP1 POP JUMP JUMPDEST PUSH1 0x0 PUSH1 0x20 DUP3 ADD SWAP1 POP SWAP2 SWAP1 POP JUMP JUMPDEST PUSH1 0x0 DUP3 DUP3 MSTORE PUSH1 0x20 DUP3 ADD SWAP1 POP SWAP3 SWAP2 POP POP JUMP JUMPDEST PUSH1 0x0 DUP2 SWAP1 POP SWAP3 SWAP2 POP POP JUMP JUMPDEST PUSH1 0x0 DUP3 DUP3 MSTORE PUSH1 0x20 DUP3 ADD SWAP1 POP SWAP3 SWAP2 POP POP JUMP JUMPDEST PUSH1 0x0 DUP2 SWAP1 POP SWAP3 SWAP2 POP POP JUMP JUMPDEST PUSH1 0x0 PUSH2 0x3FFC DUP3 PUSH2 0x43D7 JUMP JUMPDEST SWAP2 POP PUSH2 0x4007 DUP4 PUSH2 0x43D7 JUMP JUMPDEST SWAP3 POP DUP2 PUSH32 0x7FFFFFFFFFFFFFFFFFFFFFFFFFFFFFFFFFFFFFFFFFFFFFFFFFFFFFFFFFFFFFFF SUB DUP4 SGT PUSH1 0x0 DUP4 SLT ISZERO AND ISZERO PUSH2 0x4042 JUMPI PUSH2 0x4041 PUSH2 0x450D JUMP JUMPDEST JUMPDEST DUP2 PUSH32 0x8000000000000000000000000000000000000000000000000000000000000000 SUB DUP4 SLT PUSH1 0x0 DUP4 SLT AND ISZERO PUSH2 0x407A JUMPI PUSH2 0x4079 PUSH2 0x450D JUMP JUMPDEST JUMPDEST DUP3 DUP3 ADD SWAP1 POP SWAP3 SWAP2 POP POP JUMP JUMPDEST PUSH1 0x0 PUSH2 0x4090 DUP3 PUSH2 0x4401 JUMP JUMPDEST SWAP2 POP PUSH2 0x409B DUP4 PUSH2 0x4401 JUMP JUMPDEST SWAP3 POP DUP3 PUSH32 0xFFFFFFFFFFFFFFFFFFFFFFFFFFFFFFFFFFFFFFFFFFFFFFFFFFFFFFFFFFFFFFFF SUB DUP3 GT ISZERO PUSH2 0x40D0 JUMPI PUSH2 0x40CF PUSH2 0x450D JUMP JUMPDEST JUMPDEST DUP3 DUP3 ADD SWAP1 POP SWAP3 SWAP2 POP POP JUMP JUMPDEST PUSH1 0x0 PUSH2 0x40E6 DUP3 PUSH2 0x43D7 JUMP JUMPDEST SWAP2 POP PUSH2 0x40F1 DUP4 PUSH2 0x43D7 JUMP JUMPDEST SWAP3 POP DUP3 PUSH2 0x4101 JUMPI PUSH2 0x4100 PUSH2 0x453C JUMP JUMPDEST JUMPDEST PUSH1 0x1 PUSH1 0x0 SUB DUP4 EQ PUSH32 0x8000000000000000000000000000000000000000000000000000000000000000 DUP4 EQ AND ISZERO PUSH2 0x413A JUMPI PUSH2 0x4139 PUSH2 0x450D JUMP JUMPDEST JUMPDEST DUP3 DUP3 SDIV SWAP1 POP SWAP3 SWAP2 POP POP JUMP JUMPDEST PUSH1 0x0 PUSH2 0x4150 DUP3 PUSH2 0x4401 JUMP JUMPDEST SWAP2 POP PUSH2 0x415B DUP4 PUSH2 0x4401 JUMP JUMPDEST SWAP3 POP DUP3 PUSH2 0x416B JUMPI PUSH2 0x416A PUSH2 0x453C JUMP JUMPDEST JUMPDEST DUP3 DUP3 DIV SWAP1 POP SWAP3 SWAP2 POP POP JUMP JUMPDEST PUSH1 0x0 PUSH2 0x4181 DUP3 PUSH2 0x43D7 JUMP JUMPDEST SWAP2 POP PUSH2 0x418C DUP4 PUSH2 0x43D7 JUMP JUMPDEST SWAP3 POP DUP3 PUSH32 0x7FFFFFFFFFFFFFFFFFFFFFFFFFFFFFFFFFFFFFFFFFFFFFFFFFFFFFFFFFFFFFFF DIV DUP3 GT PUSH1 0x0 DUP5 SGT PUSH1 0x0 DUP5 SGT AND AND ISZERO PUSH2 0x41CB JUMPI PUSH2 0x41CA PUSH2 0x450D JUMP JUMPDEST JUMPDEST DUP2 PUSH32 0x8000000000000000000000000000000000000000000000000000000000000000 SDIV DUP4 SLT PUSH1 0x0 DUP5 SLT PUSH1 0x0 DUP5 SGT AND AND ISZERO PUSH2 0x4208 JUMPI PUSH2 0x4207 PUSH2 0x450D JUMP JUMPDEST JUMPDEST DUP3 PUSH32 0x8000000000000000000000000000000000000000000000000000000000000000 SDIV DUP3 SLT PUSH1 0x0 DUP5 SGT PUSH1 0x0 DUP5 SLT AND AND ISZERO PUSH2 0x4245 JUMPI PUSH2 0x4244 PUSH2 0x450D JUMP JUMPDEST JUMPDEST DUP3 PUSH32 0x7FFFFFFFFFFFFFFFFFFFFFFFFFFFFFFFFFFFFFFFFFFFFFFFFFFFFFFFFFFFFFFF SDIV DUP3 SLT PUSH1 0x0 DUP5 SLT PUSH1 0x0 DUP5 SLT AND AND ISZERO PUSH2 0x4282 JUMPI PUSH2 0x4281 PUSH2 0x450D JUMP JUMPDEST JUMPDEST DUP3 DUP3 MUL SWAP1 POP SWAP3 SWAP2 POP POP JUMP JUMPDEST PUSH1 0x0 PUSH2 0x4298 DUP3 PUSH2 0x4401 JUMP JUMPDEST SWAP2 POP PUSH2 0x42A3 DUP4 PUSH2 0x4401 JUMP JUMPDEST SWAP3 POP DUP2 PUSH32 0xFFFFFFFFFFFFFFFFFFFFFFFFFFFFFFFFFFFFFFFFFFFFFFFFFFFFFFFFFFFFFFFF DIV DUP4 GT DUP3 ISZERO ISZERO AND ISZERO PUSH2 0x42DC JUMPI PUSH2 0x42DB PUSH2 0x450D JUMP JUMPDEST JUMPDEST DUP3 DUP3 MUL SWAP1 POP SWAP3 SWAP2 POP POP JUMP JUMPDEST PUSH1 0x0 PUSH2 0x42F2 DUP3 PUSH2 0x43D7 JUMP JUMPDEST SWAP2 POP PUSH2 0x42FD DUP4 PUSH2 0x43D7 JUMP JUMPDEST SWAP3 POP DUP3 PUSH32 0x8000000000000000000000000000000000000000000000000000000000000000 ADD DUP3 SLT PUSH1 0x0 DUP5 SLT ISZERO AND ISZERO PUSH2 0x4338 JUMPI PUSH2 0x4337 PUSH2 0x450D JUMP JUMPDEST JUMPDEST DUP3 PUSH32 0x7FFFFFFFFFFFFFFFFFFFFFFFFFFFFFFFFFFFFFFFFFFFFFFFFFFFFFFFFFFFFFFF ADD DUP3 SGT PUSH1 0x0 DUP5 SLT AND ISZERO PUSH2 0x4370 JUMPI PUSH2 0x436F PUSH2 0x450D JUMP JUMPDEST JUMPDEST DUP3 DUP3 SUB SWAP1 POP SWAP3 SWAP2 POP POP JUMP JUMPDEST PUSH1 0x0 PUSH2 0x4386 DUP3 PUSH2 0x4401 JUMP JUMPDEST SWAP2 POP PUSH2 0x4391 DUP4 PUSH2 0x4401 JUMP JUMPDEST SWAP3 POP DUP3 DUP3 LT ISZERO PUSH2 0x43A4 JUMPI PUSH2 0x43A3 PUSH2 0x450D JUMP JUMPDEST JUMPDEST DUP3 DUP3 SUB SWAP1 POP SWAP3 SWAP2 POP POP JUMP JUMPDEST PUSH1 0x0 PUSH2 0x43BA DUP3 PUSH2 0x43E1 JUMP JUMPDEST SWAP1 POP SWAP2 SWAP1 POP JUMP JUMPDEST PUSH1 0x0 DUP2 ISZERO ISZERO SWAP1 POP SWAP2 SWAP1 POP JUMP JUMPDEST PUSH1 0x0 DUP2 SWAP1 POP SWAP2 SWAP1 POP JUMP JUMPDEST PUSH1 0x0 DUP2 SWAP1 POP SWAP2 SWAP1 POP JUMP JUMPDEST PUSH1 0x0 PUSH20 0xFFFFFFFFFFFFFFFFFFFFFFFFFFFFFFFFFFFFFFFF DUP3 AND SWAP1 POP SWAP2 SWAP1 POP JUMP JUMPDEST PUSH1 0x0 DUP2 SWAP1 POP SWAP2 SWAP1 POP JUMP JUMPDEST PUSH1 0x0 PUSH1 0xFF DUP3 AND SWAP1 POP SWAP2 SWAP1 POP JUMP JUMPDEST DUP3 DUP2 DUP4 CALLDATACOPY PUSH1 0x0 DUP4 DUP4 ADD MSTORE POP POP POP JUMP JUMPDEST PUSH1 0x0 JUMPDEST DUP4 DUP2 LT ISZERO PUSH2 0x4445 JUMPI DUP1 DUP3 ADD MLOAD DUP2 DUP5 ADD MSTORE PUSH1 0x20 DUP2 ADD SWAP1 POP PUSH2 0x442A JUMP JUMPDEST DUP4 DUP2 GT ISZERO PUSH2 0x4454 JUMPI PUSH1 0x0 DUP5 DUP5 ADD MSTORE JUMPDEST POP POP POP POP JUMP JUMPDEST PUSH1 0x0 PUSH1 0x2 DUP3 DIV SWAP1 POP PUSH1 0x1 DUP3 AND DUP1 PUSH2 0x4472 JUMPI PUSH1 0x7F DUP3 AND SWAP2 POP JUMPDEST PUSH1 0x20 DUP3 LT DUP2 EQ ISZERO PUSH2 0x4486 JUMPI PUSH2 0x4485 PUSH2 0x456B JUMP JUMPDEST JUMPDEST POP SWAP2 SWAP1 POP JUMP JUMPDEST PUSH1 0x0 PUSH2 0x4497 DUP3 PUSH2 0x4401 JUMP JUMPDEST SWAP2 POP PUSH32 0xFFFFFFFFFFFFFFFFFFFFFFFFFFFFFFFFFFFFFFFFFFFFFFFFFFFFFFFFFFFFFFFF DUP3 EQ ISZERO PUSH2 0x44CA JUMPI PUSH2 0x44C9 PUSH2 0x450D JUMP JUMPDEST JUMPDEST PUSH1 0x1 DUP3 ADD SWAP1 POP SWAP2 SWAP1 POP JUMP JUMPDEST PUSH1 0x0 PUSH2 0x44E0 DUP3 PUSH2 0x44F1 JUMP JUMPDEST SWAP1 POP SWAP2 SWAP1 POP JUMP JUMPDEST PUSH1 0x0 DUP2 SWAP1 POP SWAP2 SWAP1 POP JUMP JUMPDEST PUSH1 0x0 PUSH2 0x44FC DUP3 PUSH2 0x45DA JUMP JUMPDEST SWAP1 POP SWAP2 SWAP1 POP JUMP JUMPDEST PUSH1 0x0 DUP2 SWAP1 POP SWAP2 SWAP1 POP JUMP JUMPDEST PUSH32 0x4E487B7100000000000000000000000000000000000000000000000000000000 PUSH1 0x0 MSTORE PUSH1 0x11 PUSH1 0x4 MSTORE PUSH1 0x24 PUSH1 0x0 REVERT JUMPDEST PUSH32 0x4E487B7100000000000000000000000000000000000000000000000000000000 PUSH1 0x0 MSTORE PUSH1 0x12 PUSH1 0x4 MSTORE PUSH1 0x24 PUSH1 0x0 REVERT JUMPDEST PUSH32 0x4E487B7100000000000000000000000000000000000000000000000000000000 PUSH1 0x0 MSTORE PUSH1 0x22 PUSH1 0x4 MSTORE PUSH1 0x24 PUSH1 0x0 REVERT JUMPDEST PUSH32 0x4E487B7100000000000000000000000000000000000000000000000000000000 PUSH1 0x0 MSTORE PUSH1 0x41 PUSH1 0x4 MSTORE PUSH1 0x24 PUSH1 0x0 REVERT JUMPDEST PUSH1 0x0 PUSH1 0x1F NOT PUSH1 0x1F DUP4 ADD AND SWAP1 POP SWAP2 SWAP1 POP JUMP JUMPDEST PUSH1 0x0 DUP2 PUSH1 0x60 SHL SWAP1 POP SWAP2 SWAP1 POP JUMP JUMPDEST PUSH2 0x45F0 DUP2 PUSH2 0x43AF JUMP JUMPDEST DUP2 EQ PUSH2 0x45FB JUMPI PUSH1 0x0 DUP1 REVERT JUMPDEST POP JUMP JUMPDEST PUSH2 0x4607 DUP2 PUSH2 0x43CD JUMP JUMPDEST DUP2 EQ PUSH2 0x4612 JUMPI PUSH1 0x0 DUP1 REVERT JUMPDEST POP JUMP JUMPDEST PUSH2 0x461E DUP2 PUSH2 0x4401 JUMP JUMPDEST DUP2 EQ PUSH2 0x4629 JUMPI PUSH1 0x0 DUP1 REVERT JUMPDEST POP JUMP INVALID LOG2 PUSH5 0x6970667358 0x22 SLT KECCAK256 PUSH17 0xDFD318AB84BFCA07F98FF5215CF8BA8521 GASLIMIT PUSH15 0xE0F98FD478CC17B8D34D60E364736F PUSH13 0x63430008000033000000000000 "},"methodIdentifiers":{"GEOHASH_TOLERANCE_BYTES()":"d4094ab6","addStudent(uint256,address)":"a850c180","addSubjectToSection(uint256,string,address)":"3359da49","adjustmentRequests(bytes32)":"0b104eee","admin()":"f851a440","approveAdjustment(bytes32)":"c93f63f6","attendance(address,uint256)":"9a8d8955","classCounter()":"3954d58b","classes(uint256)":"817dbe9f","closeAttendance(uint256)":"f2500368","createSection(string)":"301c82f3","getCombinedAttendance(address,uint256)":"13a3c482","getSubjectClasses(string)":"f00070f5","getUserName(address)":"d84f55ee","getYearMonth(uint256)":"ca1f8c6e","isEnrolled(uint256,address)":"c9768315","isTeacher(address)":"aec37eb3","markAttendance(uint256,bytes32,uint256,bytes,bytes)":"d9065596","removeStudent(uint256,address)":"ab87e6d7","requestAdjustment(uint256,address)":"d064d63f","requestCounter()":"973a814e","sectionCounter()":"f11f6e94","sectionStudents(uint256,uint256)":"0212081c","sections(uint256)":"35603440","setUserName(string)":"2b5914fe","startClass(uint256,uint256,bytes32,uint256)":"4d7db89b","transferAdmin(address)":"75829def","usedLocationProofs(bytes32)":"a515797a","userNames(address)":"7f281635"}}}}}