{"contracts/CollegeAttendance.sol":{"CollegeAttendance":{"abi":[{"anonymous":false,"inputs":[{"indexed":true,"internalType":"bytes32","name":"requestId","type":"bytes32"},{"indexed":true,"internalType":"address","name":"student","type":"address"},{"indexed":false,"internalType":"uint256","name":"classId","type":"uint256"}],"name":"AdjustmentApproved","type":"event"},{"anonymous":false,"inputs":[{"indexed":false,"internalType":"bytes32","name":"requestId","type":"bytes32"},{"indexed":false,"internalType":"uint256","name":"classId","type":"uint256"},{"indexed":false,"internalType":"address","name":"student","type":"address"}],"name":"AdjustmentRequested","type":"event"},{"anonymous":false,"inputs":[{"indexed":false,"internalType":"address","name":"student","type":"address"},{"indexed":false,"internalType":"uint256","name":"classId","type":"uint256"}],"name":"AttendanceMarked","type":"event"},{"anonymous":false,"inputs":[{"indexed":true,"internalType":"uint256","name":"sectionId","type":"uint256"},{"indexed":false,"internalType":"uint256","name":"subjectId","type":"uint256"},{"indexed":false,"internalType":"uint256","name":"classId","type":"uint256"}],"name":"ClassStarted","type":"event"},{"anonymous":false,"inputs":[{"indexed":true,"internalType":"uint256","name":"sectionId","type":"uint256"},{"indexed":false,"internalType":"string","name":"name","type":"string"}],"name":"SectionCreated","type":"event"},{"inputs":[],"name":"GEOHASH_TOLERANCE_BYTES","outputs":[{"internalType":"uint256","name":"","type":"uint256"}],"stateMutability":"view","type":"function"},{"inputs":[{"internalType":"uint256","name":"sectionId","type":"uint256"},{"internalType":"address","name":"student","type":"address"}],"name":"addStudent","outputs":[],"stateMutability":"nonpayable","type":"function"},{"inputs":[{"internalType":"uint256","name":"sectionId","type":"uint256"},{"internalType":"string","name":"subjectName","type":"string"},{"internalType":"address","name":"teacher","type":"address"}],"name":"addSubjectToSection","outputs":[],"stateMutability":"nonpayable","type":"function"},{"inputs":[{"internalType":"bytes32","name":"","type":"bytes32"}],"name":"adjustmentRequests","outputs":[{"internalType":"address","name":"teacher","type":"address"},{"internalType":"uint256","name":"classId","type":"uint256"},{"internalType":"address","name":"student","type":"address"},{"internalType":"bool","name":"approved","type":"bool"}],"stateMutability":"view","type":"function"},{"inputs":[],"name":"admin","outputs":[{"internalType":"address","name":"","type":"address"}],"stateMutability":"view","type":"function"},{"inputs":[{"internalType":"bytes32","name":"requestId","type":"bytes32"}],"name":"approveAdjustment","outputs":[],"stateMutability":"nonpayable","type":"function"},{"inputs":[{"internalType":"address","name":"","type":"address"},{"internalType":"uint256","name":"","type":"uint256"}],"name":"attendance","outputs":[{"internalType":"bool","name":"","type":"bool"}],"stateMutability":"view","type":"function"},{"inputs":[],"name":"classCounter","outputs":[{"internalType":"uint256","name":"","type":"uint256"}],"stateMutability":"view","type":"function"},{"inputs":[{"internalType":"uint256","name":"","type":"uint256"}],"name":"classes","outputs":[{"internalType":"uint256","name":"id","type":"uint256"},{"internalType":"uint256","name":"sectionId","type":"uint256"},{"internalType":"uint256","name":"subjectId","type":"uint256"},{"internalType":"bytes32","name":"geohash","type":"bytes32"},{"internalType":"uint256","name":"startTime","type":"uint256"},{"internalType":"uint256","name":"endTime","type":"uint256"},{"internalType":"bool","name":"attendanceClosed","type":"bool"}],"stateMutability":"view","type":"function"},{"inputs":[{"internalType":"uint256","name":"classId","type":"uint256"}],"name":"closeAttendance","outputs":[],"stateMutability":"nonpayable","type":"function"},{"inputs":[{"internalType":"string","name":"name","type":"string"}],"name":"createSection","outputs":[],"stateMutability":"nonpayable","type":"function"},{"inputs":[{"internalType":"address","name":"student","type":"address"},{"internalType":"uint256","name":"sectionId","type":"uint256"}],"name":"getCombinedAttendance","outputs":[{"internalType":"uint256","name":"attended","type":"uint256"},{"internalType":"uint256","name":"total","type":"uint256"}],"stateMutability":"view","type":"function"},{"inputs":[{"internalType":"string","name":"subjectName","type":"string"}],"name":"getSubjectClasses","outputs":[{"internalType":"uint256[]","name":"","type":"uint256[]"}],"stateMutability":"view","type":"function"},{"inputs":[{"internalType":"uint256","name":"timestamp","type":"uint256"}],"name":"getYearMonth","outputs":[{"internalType":"uint256","name":"year","type":"uint256"},{"internalType":"uint256","name":"month","type":"uint256"}],"stateMutability":"pure","type":"function"},{"inputs":[{"internalType":"uint256","name":"","type":"uint256"},{"internalType":"address","name":"","type":"address"}],"name":"isEnrolled","outputs":[{"internalType":"bool","name":"","type":"bool"}],"stateMutability":"view","type":"function"},{"inputs":[{"internalType":"address","name":"_address","type":"address"}],"name":"isTeacher","outputs":[{"internalType":"bool","name":"","type":"bool"}],"stateMutability":"view","type":"function"},{"inputs":[{"internalType":"uint256","name":"classId","type":"uint256"},{"internalType":"bytes32","name":"studentGeohash","type":"bytes32"},{"internalType":"uint256","name":"studentTimestamp","type":"uint256"},{"internalType":"bytes","name":"teacherSig","type":"bytes"},{"internalType":"bytes","name":"studentSig","type":"bytes"}],"name":"markAttendance","outputs":[],"stateMutability":"nonpayable","type":"function"},{"inputs":[{"internalType":"uint256","name":"sectionId","type":"uint256"},{"internalType":"address","name":"student","type":"address"}],"name":"removeStudent","outputs":[],"stateMutability":"nonpayable","type":"function"},{"inputs":[{"internalType":"uint256","name":"classId","type":"uint256"},{"internalType":"address","name":"student","type":"address"}],"name":"requestAdjustment","outputs":[],"stateMutability":"nonpayable","type":"function"},{"inputs":[],"name":"requestCounter","outputs":[{"internalType":"uint256","name":"","type":"uint256"}],"stateMutability":"view","type":"function"},{"inputs":[],"name":"sectionCounter","outputs":[{"internalType":"uint256","name":"","type":"uint256"}],"stateMutability":"view","type":"function"},{"inputs":[{"internalType":"uint256","name":"","type":"uint256"},{"internalType":"uint256","name":"","type":"uint256"}],"name":"sectionStudents","outputs":[{"internalType":"address","name":"","type":"address"}],"stateMutability":"view","type":"function"},{"inputs":[{"internalType":"uint256","name":"","type":"uint256"}],"name":"sections","outputs":[{"internalType":"uint256","name":"id","type":"uint256"},{"internalType":"string","name":"name","type":"string"}],"stateMutability":"view","type":"function"},{"inputs":[{"internalType":"uint256","name":"sectionId","type":"uint256"},{"internalType":"uint256","name":"subjectId","type":"uint256"},{"internalType":"bytes32","name":"geohash","type":"bytes32"},{"internalType":"uint256","name":"durationMinutes","type":"uint256"}],"name":"startClass","outputs":[],"stateMutability":"nonpayable","type":"function"},{"inputs":[{"internalType":"address","name":"newAdmin","type":"address"}],"name":"transferAdmin","outputs":[],"stateMutability":"nonpayable","type":"function"},{"inputs":[{"internalType":"bytes32","name":"","type":"bytes32"}],"name":"usedLocationProofs","outputs":[{"internalType":"bool","name":"","type":"bool"}],"stateMutability":"view","type":"function"}],"evm":{"bytecode":{"linkReferences":{},"object":"608060405234801561001057600080fd5b506141f8806100206000396000f3fe608060405234801561001057600080fd5b506004361061018e5760003560e01c8063a850c180116100de578063d064d63f11610097578063f00070f511610071578063f00070f5146104d5578063f11f6e9414610505578063f250036814610523578063f851a4401461053f5761018e565b8063d064d63f1461047f578063d4094ab61461049b578063d9065596146104b95761018e565b8063a850c1801461039a578063ab87e6d7146103b6578063aec37eb3146103d2578063c93f63f614610402578063c97683151461041e578063ca1f8c6e1461044e5761018e565b80633954d58b1161014b578063817dbe9f11610125578063817dbe9f146102e6578063973a814e1461031c5780639a8d89551461033a578063a515797a1461036a5761018e565b80633954d58b146102905780634d7db89b146102ae57806375829def146102ca5761018e565b80630212081c146101935780630b104eee146101c357806313a3c482146101f6578063301c82f3146102275780633359da4914610243578063356034401461025f575b600080fd5b6101ad60048036038101906101a89190612d34565b61055d565b6040516101ba91906135db565b60405180910390f35b6101dd60048036038101906101d89190612b57565b6105ab565b6040516101ed949392919061361f565b60405180910390f35b610210600480360381019061020b9190612b1b565b610628565b60405161021e9291906139d3565b60405180910390f35b610241600480360381019061023c9190612b80565b6107cb565b005b61025d60048036038101906102589190612ccd565b6108e9565b005b61027960048036038101906102749190612bc1565b610bed565b6040516102879291906139a3565b60405180910390f35b610298610c99565b6040516102a59190613988565b60405180910390f35b6102c860048036038101906102c39190612d70565b610c9f565b005b6102e460048036038101906102df9190612af2565b610f7c565b005b61030060048036038101906102fb9190612bc1565b6110bd565b60405161031397969594939291906139fc565b60405180910390f35b61032461110c565b6040516103319190613988565b60405180910390f35b610354600480360381019061034f9190612b1b565b611112565b6040516103619190613686565b60405180910390f35b610384600480360381019061037f9190612b57565b611141565b6040516103919190613686565b60405180910390f35b6103b460048036038101906103af9190612bea565b611161565b005b6103d060048036038101906103cb9190612bea565b61135a565b005b6103ec60048036038101906103e79190612af2565b611552565b6040516103f99190613686565b60405180910390f35b61041c60048036038101906104179190612b57565b611685565b005b61043860048036038101906104339190612bea565b611993565b6040516104459190613686565b60405180910390f35b61046860048036038101906104639190612bc1565b6119c2565b6040516104769291906139d3565b60405180910390f35b61049960048036038101906104949190612bea565b6119ea565b005b6104a3611c2e565b6040516104b09190613988565b60405180910390f35b6104d360048036038101906104ce9190612c26565b611c33565b005b6104ef60048036038101906104ea9190612b80565b612113565b6040516104fc9190613664565b60405180910390f35b61050d61244c565b60405161051a9190613988565b60405180910390f35b61053d60048036038101906105389190612bc1565b612452565b005b61054761254a565b60405161055491906135db565b60405180910390f35b6008602052816000526040600020818154811061057957600080fd5b906000526020600020016000915091509054906101000a900473ffffffffffffffffffffffffffffffffffffffff1681565b60056020528060005260406000206000915090508060000160009054906101000a900473ffffffffffffffffffffffffffffffffffffffff16908060010154908060020160009054906101000a900473ffffffffffffffffffffffffffffffffffffffff16908060020160149054906101000a900460ff16905084565b6000806000600460008581526020019081526020016000209050600091506000925060005b81600301805490508110156107c257600082600301828154811061069a577f4e487b7100000000000000000000000000000000000000000000000000000000600052603260045260246000fd5b90600052602060002001549050600083600201600083815260200190815260200160002060030190508080549050856106d39190613c1b565b945060005b81805490508110156107ac57600760008a73ffffffffffffffffffffffffffffffffffffffff1673ffffffffffffffffffffffffffffffffffffffff168152602001908152602001600020600083838154811061075e577f4e487b7100000000000000000000000000000000000000000000000000000000600052603260045260246000fd5b9060005260206000200154815260200190815260200160002060009054906101000a900460ff161561079957868061079590614022565b9750505b80806107a490614022565b9150506106d8565b50505080806107ba90614022565b91505061064d565b50509250929050565b60008054906101000a900473ffffffffffffffffffffffffffffffffffffffff1673ffffffffffffffffffffffffffffffffffffffff163373ffffffffffffffffffffffffffffffffffffffff1614610859576040517f08c379a000000000000000000000000000000000000000000000000000000000815260040161085090613828565b60405180910390fd5b60006001600081548092919061086e90614022565b9190505590506000600460008381526020019081526020016000209050818160000181905550828160010190805190602001906108ac9291906128f3565b50817e4736eea0f1f8d3b949033af6dbb0fdea6fc371bd8f2d0436eedb58961659e5846040516108dc91906136e6565b60405180910390a2505050565b60008054906101000a900473ffffffffffffffffffffffffffffffffffffffff1673ffffffffffffffffffffffffffffffffffffffff163373ffffffffffffffffffffffffffffffffffffffff1614610977576040517f08c379a000000000000000000000000000000000000000000000000000000000815260040161096e90613828565b60405180910390fd5b600060046000858152602001908152602001600020905060005b8160030180549050811015610a2f57600082600201600083815260200190815260200160002090508480519060200120816001016040516109d29190613561565b60405180910390201415610a1b576040517f08c379a0000000000000000000000000000000000000000000000000000000008152600401610a1290613868565b60405180910390fd5b508080610a2790614022565b915050610991565b5060006004600086815260200190815260200160002060030180549050905060405180608001604052808281526020018581526020018473ffffffffffffffffffffffffffffffffffffffff168152602001600067ffffffffffffffff811115610ac2577f4e487b7100000000000000000000000000000000000000000000000000000000600052604160045260246000fd5b604051908082528060200260200182016040528015610af05781602001602082028036833780820191505090505b50815250600460008781526020019081526020016000206002016000838152602001908152602001600020600082015181600001556020820151816001019080519060200190610b419291906128f3565b5060408201518160020160006101000a81548173ffffffffffffffffffffffffffffffffffffffff021916908373ffffffffffffffffffffffffffffffffffffffff1602179055506060820151816003019080519060200190610ba5929190612979565b50905050600460008681526020019081526020016000206003018190806001815401808255809150506001900390600052602060002001600090919091909150555050505050565b6004602052806000526040600020600091509050806000015490806001018054610c1690613ff0565b80601f0160208091040260200160405190810160405280929190818152602001828054610c4290613ff0565b8015610c8f5780601f10610c6457610100808354040283529160200191610c8f565b820191906000526020600020905b815481529060010190602001808311610c7257829003601f168201915b5050505050905082565b60025481565b8380600460008381526020019081526020016000206000015414610cf8576040517f08c379a0000000000000000000000000000000000000000000000000000000008152600401610cef90613968565b60405180910390fd5b848460046000838152602001908152602001600020600301805490508110610d55576040517f08c379a0000000000000000000000000000000000000000000000000000000008152600401610d4c90613708565b60405180910390fd5b60046000838152602001908152602001600020600201600082815260200190815260200160002060020160009054906101000a900473ffffffffffffffffffffffffffffffffffffffff1673ffffffffffffffffffffffffffffffffffffffff163373ffffffffffffffffffffffffffffffffffffffff1614610e0d576040517f08c379a0000000000000000000000000000000000000000000000000000000008152600401610e0490613888565b60405180910390fd5b600060026000815480929190610e2290614022565b9190505590506040518060e00160405280828152602001898152602001888152602001878152602001428152602001603c87610e5e9190613e23565b42610e699190613c1b565b81526020016000151581525060066000838152602001908152602001600020600082015181600001556020820151816001015560408201518160020155606082015181600301556080820151816004015560a0820151816005015560c08201518160060160006101000a81548160ff021916908315150217905550905050600460008981526020019081526020016000206002016000888152602001908152602001600020600301819080600181540180825580915050600190039060005260206000200160009091909190915055877f20e697ee2e8310db3b8b0d28937a1d05bc2cdd1b0698c3699f16a6c9387534e88883604051610f6a9291906139d3565b60405180910390a25050505050505050565b60008054906101000a900473ffffffffffffffffffffffffffffffffffffffff1673ffffffffffffffffffffffffffffffffffffffff163373ffffffffffffffffffffffffffffffffffffffff161461100a576040517f08c379a000000000000000000000000000000000000000000000000000000000815260040161100190613828565b60405180910390fd5b600073ffffffffffffffffffffffffffffffffffffffff168173ffffffffffffffffffffffffffffffffffffffff16141561107a576040517f08c379a000000000000000000000000000000000000000000000000000000000815260040161107190613768565b60405180910390fd5b806000806101000a81548173ffffffffffffffffffffffffffffffffffffffff021916908373ffffffffffffffffffffffffffffffffffffffff16021790555050565b60066020528060005260406000206000915090508060000154908060010154908060020154908060030154908060040154908060050154908060060160009054906101000a900460ff16905087565b60035481565b60076020528160005260406000206020528060005260406000206000915091509054906101000a900460ff1681565b600a6020528060005260406000206000915054906101000a900460ff1681565b81806004600083815260200190815260200160002060000154146111ba576040517f08c379a00000000000000000000000000000000000000000000000000000000081526004016111b190613968565b60405180910390fd5b60008054906101000a900473ffffffffffffffffffffffffffffffffffffffff1673ffffffffffffffffffffffffffffffffffffffff163373ffffffffffffffffffffffffffffffffffffffff1614611248576040517f08c379a000000000000000000000000000000000000000000000000000000000815260040161123f90613828565b60405180910390fd5b6004600084815260200190815260200160002060050160008373ffffffffffffffffffffffffffffffffffffffff1673ffffffffffffffffffffffffffffffffffffffff16815260200190815260200160002060009054906101000a900460ff16156112e9576040517f08c379a00000000000000000000000000000000000000000000000000000000081526004016112e0906137e8565b60405180910390fd5b60016004600085815260200190815260200160002060050160008473ffffffffffffffffffffffffffffffffffffffff1673ffffffffffffffffffffffffffffffffffffffff16815260200190815260200160002060006101000a81548160ff021916908315150217905550505050565b81806004600083815260200190815260200160002060000154146113b3576040517f08c379a00000000000000000000000000000000000000000000000000000000081526004016113aa90613968565b60405180910390fd5b60008054906101000a900473ffffffffffffffffffffffffffffffffffffffff1673ffffffffffffffffffffffffffffffffffffffff163373ffffffffffffffffffffffffffffffffffffffff1614611441576040517f08c379a000000000000000000000000000000000000000000000000000000000815260040161143890613828565b60405180910390fd5b6004600084815260200190815260200160002060050160008373ffffffffffffffffffffffffffffffffffffffff1673ffffffffffffffffffffffffffffffffffffffff16815260200190815260200160002060009054906101000a900460ff166114e1576040517f08c379a00000000000000000000000000000000000000000000000000000000081526004016114d8906138c8565b60405180910390fd5b60006004600085815260200190815260200160002060050160008473ffffffffffffffffffffffffffffffffffffffff1673ffffffffffffffffffffffffffffffffffffffff16815260200190815260200160002060006101000a81548160ff021916908315150217905550505050565b600080600090505b60015481101561167a57600060046000838152602001908152602001600020905060005b81600301805490508110156116655760008260030182815481106115cb577f4e487b7100000000000000000000000000000000000000000000000000000000600052603260045260246000fd5b906000526020600020015490508573ffffffffffffffffffffffffffffffffffffffff1683600201600083815260200190815260200160002060020160009054906101000a900473ffffffffffffffffffffffffffffffffffffffff1673ffffffffffffffffffffffffffffffffffffffff161415611651576001945050505050611680565b50808061165d90614022565b91505061157e565b5050808061167290614022565b91505061155a565b50600090505b919050565b6000600560008381526020019081526020016000209050600073ffffffffffffffffffffffffffffffffffffffff168160000160009054906101000a900473ffffffffffffffffffffffffffffffffffffffff1673ffffffffffffffffffffffffffffffffffffffff161415611730576040517f08c379a000000000000000000000000000000000000000000000000000000000815260040161172790613748565b60405180910390fd5b8060020160149054906101000a900460ff1615611782576040517f08c379a000000000000000000000000000000000000000000000000000000000815260040161177990613788565b60405180910390fd5b8060020160009054906101000a900473ffffffffffffffffffffffffffffffffffffffff1673ffffffffffffffffffffffffffffffffffffffff163373ffffffffffffffffffffffffffffffffffffffff16148061182b575060008054906101000a900473ffffffffffffffffffffffffffffffffffffffff1673ffffffffffffffffffffffffffffffffffffffff163373ffffffffffffffffffffffffffffffffffffffff16145b61186a576040517f08c379a0000000000000000000000000000000000000000000000000000000008152600401611861906137a8565b60405180910390fd5b60018160020160146101000a81548160ff0219169083151502179055506001600760008360020160009054906101000a900473ffffffffffffffffffffffffffffffffffffffff1673ffffffffffffffffffffffffffffffffffffffff1673ffffffffffffffffffffffffffffffffffffffff16815260200190815260200160002060008360010154815260200190815260200160002060006101000a81548160ff0219169083151502179055508060020160009054906101000a900473ffffffffffffffffffffffffffffffffffffffff1673ffffffffffffffffffffffffffffffffffffffff16827f189199877ac49c708164c69193136769411baaedcc0ffc4660ad59cc1111c03083600101546040516119879190613988565b60405180910390a35050565b60096020528160005260406000206020528060005260406000206000915091509054906101000a900460ff1681565b6000806119dc62015180846119d79190613cdb565b61256e565b508092508193505050915091565b6000600660008481526020019081526020016000209050600460008260010154815260200190815260200160002060020160008260020154815260200190815260200160002060020160009054906101000a900473ffffffffffffffffffffffffffffffffffffffff1673ffffffffffffffffffffffffffffffffffffffff163373ffffffffffffffffffffffffffffffffffffffff1614611ac1576040517f08c379a0000000000000000000000000000000000000000000000000000000008152600401611ab8906137a8565b60405180910390fd5b60008383600354604051602001611ada9392919061359e565b60405160208183030381529060405280519060200120905060405180608001604052803373ffffffffffffffffffffffffffffffffffffffff1681526020018581526020018473ffffffffffffffffffffffffffffffffffffffff168152602001600015158152506005600083815260200190815260200160002060008201518160000160006101000a81548173ffffffffffffffffffffffffffffffffffffffff021916908373ffffffffffffffffffffffffffffffffffffffff1602179055506020820151816001015560408201518160020160006101000a81548173ffffffffffffffffffffffffffffffffffffffff021916908373ffffffffffffffffffffffffffffffffffffffff16021790555060608201518160020160146101000a81548160ff02191690831515021790555090505060036000815480929190611c2390614022565b919050555050505050565b600581565b60006006600087815260200190815260200160002090506000600460008360010154815260200190815260200160002090508060050160003373ffffffffffffffffffffffffffffffffffffffff1673ffffffffffffffffffffffffffffffffffffffff16815260200190815260200160002060009054906101000a900460ff16611cf3576040517f08c379a0000000000000000000000000000000000000000000000000000000008152600401611cea906138c8565b60405180910390fd5b8160060160009054906101000a900460ff1615611d45576040517f08c379a0000000000000000000000000000000000000000000000000000000008152600401611d3c90613728565b60405180910390fd5b8160050154421115611d8c576040517f08c379a0000000000000000000000000000000000000000000000000000000008152600401611d8390613948565b60405180910390fd5b600760003373ffffffffffffffffffffffffffffffffffffffff1673ffffffffffffffffffffffffffffffffffffffff168152602001908152602001600020600088815260200190815260200160002060009054906101000a900460ff1615611e2a576040517f08c379a0000000000000000000000000000000000000000000000000000000008152600401611e2190613928565b60405180910390fd5b611e3a8683600301546005612701565b611e79576040517f08c379a0000000000000000000000000000000000000000000000000000000008152600401611e70906138a8565b60405180910390fd5b600082600301548360040154604051602001611e96929190613511565b604051602081830303815290604052805190602001209050611ef581868460020160008760020154815260200190815260200160002060020160009054906101000a900473ffffffffffffffffffffffffffffffffffffffff166127c1565b611f34576040517f08c379a0000000000000000000000000000000000000000000000000000000008152600401611f2b90613808565b60405180910390fd5b60008787604051602001611f49929190613511565b604051602081830303815290604052805190602001209050611f6c8186336127c1565b611fab576040517f08c379a0000000000000000000000000000000000000000000000000000000008152600401611fa290613908565b60405180910390fd5b60008686604051602001611fc092919061353d565b604051602081830303815290604052805190602001209050600a600082815260200190815260200160002060009054906101000a900460ff1615612039576040517f08c379a0000000000000000000000000000000000000000000000000000000008152600401612030906137c8565b60405180910390fd5b6001600a600083815260200190815260200160002060006101000a81548160ff0219169083151502179055506001600760003373ffffffffffffffffffffffffffffffffffffffff1673ffffffffffffffffffffffffffffffffffffffff16815260200190815260200160002060008c815260200190815260200160002060006101000a81548160ff0219169083151502179055507f8841d9f49345d61efc842e9624f59b54162b3c8acf4e384fd425957a2be55d86338b6040516120ff9291906135f6565b60405180910390a150505050505050505050565b6060600080600090505b60015481101561221b57600060046000838152602001908152602001600020905060005b816003018054905081101561220657600082600301828154811061218e577f4e487b7100000000000000000000000000000000000000000000000000000000600052603260045260246000fd5b90600052602060002001549050600083600201600083815260200190815260200160002090508780519060200120816001016040516121cd9190613561565b604051809103902014156121f1578060030180549050866121ee9190613c1b565b95505b505080806121fe90614022565b915050612141565b5050808061221390614022565b91505061211d565b5060008167ffffffffffffffff81111561225e577f4e487b7100000000000000000000000000000000000000000000000000000000600052604160045260246000fd5b60405190808252806020026020018201604052801561228c5781602001602082028036833780820191505090505b509050600080600090505b60015481101561244057600060046000838152602001908152602001600020905060005b816003018054905081101561242b576000826003018281548110612308577f4e487b7100000000000000000000000000000000000000000000000000000000600052603260045260246000fd5b90600052602060002001549050600083600201600083815260200190815260200160002090508980519060200120816001016040516123479190613561565b604051809103902014156124165760005b8160030180549050811015612414578160030181815481106123a3577f4e487b7100000000000000000000000000000000000000000000000000000000600052603260045260246000fd5b90600052602060002001548888815181106123e7577f4e487b7100000000000000000000000000000000000000000000000000000000600052603260045260246000fd5b60200260200101818152505086806123fe90614022565b975050808061240c90614022565b915050612358565b505b5050808061242390614022565b9150506122bb565b5050808061243890614022565b915050612297565b50819350505050919050565b60015481565b6000600660008381526020019081526020016000209050600460008260010154815260200190815260200160002060020160008260020154815260200190815260200160002060020160009054906101000a900473ffffffffffffffffffffffffffffffffffffffff1673ffffffffffffffffffffffffffffffffffffffff163373ffffffffffffffffffffffffffffffffffffffff1614612529576040517f08c379a0000000000000000000000000000000000000000000000000000000008152600401612520906137a8565b60405180910390fd5b60018160060160006101000a81548160ff0219169083151502179055505050565b60008054906101000a900473ffffffffffffffffffffffffffffffffffffffff1681565b600080600080849050600062253d8c62010bd98361258c9190613b87565b6125969190613b87565b9050600062023ab18260046125ab9190613d0c565b6125b59190613c71565b9050600460038262023ab16125ca9190613d0c565b6125d49190613b87565b6125de9190613c71565b826125e99190613e7d565b9150600062164b096001846125fe9190613b87565b610fa061260b9190613d0c565b6126159190613c71565b9050601f6004826105b56126299190613d0c565b6126339190613c71565b8461263e9190613e7d565b6126489190613b87565b9250600061098f84605061265c9190613d0c565b6126669190613c71565b905060508161098f6126789190613d0c565b6126829190613c71565b8461268d9190613e7d565b9550600b8161269c9190613c71565b935083600c6126ab9190613d0c565b6002826126b89190613b87565b6126c29190613e7d565b965083826031856126d39190613e7d565b60646126df9190613d0c565b6126e99190613b87565b6126f39190613b87565b975050505050509193909250565b60006020821115612747576040517f08c379a000000000000000000000000000000000000000000000000000000000815260040161273e90613848565b60405180910390fd5b600082141561275957600190506127ba565b60007fffffffffffffffffffffffffffffffffffffffffffffffffffffffffffffffff60001b600160088561278e9190613e23565b61010061279b9190613f11565b6001901b6127a99190613f11565b60001b189050808416818616149150505b9392505050565b600080846040516020016127d59190613578565b60405160208183030381529060405280519060200120905060008060006127fb8761288b565b9250925092508573ffffffffffffffffffffffffffffffffffffffff166001858386866040516000815260200160405260405161283b94939291906136a1565b6020604051602081039080840390855afa15801561285d573d6000803e3d6000fd5b5050506020604051035173ffffffffffffffffffffffffffffffffffffffff16149450505050509392505050565b600080600060418451146128d4576040517f08c379a00000000000000000000000000000000000000000000000000000000081526004016128cb906138e8565b60405180910390fd5b6020840151925060408401519150606084015160001a90509193909250565b8280546128ff90613ff0565b90600052602060002090601f0160209004810192826129215760008555612968565b82601f1061293a57805160ff1916838001178555612968565b82800160010185558215612968579182015b8281111561296757825182559160200191906001019061294c565b5b50905061297591906129c6565b5090565b8280548282559060005260206000209081019282156129b5579160200282015b828111156129b4578251825591602001919060010190612999565b5b5090506129c291906129c6565b5090565b5b808211156129df5760008160009055506001016129c7565b5090565b60006129f66129f184613a9c565b613a6b565b905082815260208101848484011115612a0e57600080fd5b612a19848285613fae565b509392505050565b6000612a34612a2f84613acc565b613a6b565b905082815260208101848484011115612a4c57600080fd5b612a57848285613fae565b509392505050565b600081359050612a6e8161417d565b92915050565b600081359050612a8381614194565b92915050565b600082601f830112612a9a57600080fd5b8135612aaa8482602086016129e3565b91505092915050565b600082601f830112612ac457600080fd5b8135612ad4848260208601612a21565b91505092915050565b600081359050612aec816141ab565b92915050565b600060208284031215612b0457600080fd5b6000612b1284828501612a5f565b91505092915050565b60008060408385031215612b2e57600080fd5b6000612b3c85828601612a5f565b9250506020612b4d85828601612add565b9150509250929050565b600060208284031215612b6957600080fd5b6000612b7784828501612a74565b91505092915050565b600060208284031215612b9257600080fd5b600082013567ffffffffffffffff811115612bac57600080fd5b612bb884828501612ab3565b91505092915050565b600060208284031215612bd357600080fd5b6000612be184828501612add565b91505092915050565b60008060408385031215612bfd57600080fd5b6000612c0b85828601612add565b9250506020612c1c85828601612a5f565b9150509250929050565b600080600080600060a08688031215612c3e57600080fd5b6000612c4c88828901612add565b9550506020612c5d88828901612a74565b9450506040612c6e88828901612add565b935050606086013567ffffffffffffffff811115612c8b57600080fd5b612c9788828901612a89565b925050608086013567ffffffffffffffff811115612cb457600080fd5b612cc088828901612a89565b9150509295509295909350565b600080600060608486031215612ce257600080fd5b6000612cf086828701612add565b935050602084013567ffffffffffffffff811115612d0d57600080fd5b612d1986828701612ab3565b9250506040612d2a86828701612a5f565b9150509250925092565b60008060408385031215612d4757600080fd5b6000612d5585828601612add565b9250506020612d6685828601612add565b9150509250929050565b60008060008060808587031215612d8657600080fd5b6000612d9487828801612add565b9450506020612da587828801612add565b9350506040612db687828801612a74565b9250506060612dc787828801612add565b91505092959194509250565b6000612ddf83836134cd565b60208301905092915050565b612df481613f45565b82525050565b612e0b612e0682613f45565b61406b565b82525050565b6000612e1c82613b21565b612e268185613b4f565b9350612e3183613afc565b8060005b83811015612e62578151612e498882612dd3565b9750612e5483613b42565b925050600181019050612e35565b5085935050505092915050565b612e7881613f57565b82525050565b612e8781613f63565b82525050565b612e9e612e9982613f63565b61407d565b82525050565b6000612eaf82613b2c565b612eb98185613b60565b9350612ec9818560208601613fbd565b80840191505092915050565b60008154612ee281613ff0565b612eec8186613b60565b94506001821660008114612f075760018114612f1857612f4b565b60ff19831686528186019350612f4b565b612f2185613b0c565b60005b83811015612f4357815481890152600182019150602081019050612f24565b838801955050505b50505092915050565b6000612f5f82613b37565b612f698185613b6b565b9350612f79818560208601613fbd565b612f828161415f565b840191505092915050565b6000612f9a601283613b6b565b91507f496e76616c6964207375626a65637420494400000000000000000000000000006000830152602082019050919050565b6000612fda601183613b6b565b91507f417474656e64616e636520636c6f7365640000000000000000000000000000006000830152602082019050919050565b600061301a600f83613b6b565b91507f496e76616c6964207265717565737400000000000000000000000000000000006000830152602082019050919050565b600061305a600f83613b6b565b91507f496e76616c6964206164647265737300000000000000000000000000000000006000830152602082019050919050565b600061309a601083613b6b565b91507f416c726561647920617070726f766564000000000000000000000000000000006000830152602082019050919050565b60006130da601c83613b7c565b91507f19457468657265756d205369676e6564204d6573736167653a0a3332000000006000830152601c82019050919050565b600061311a600c83613b6b565b91507f556e617574686f72697a656400000000000000000000000000000000000000006000830152602082019050919050565b600061315a600d83613b6b565b91507f50726f6f667320726575736564000000000000000000000000000000000000006000830152602082019050919050565b600061319a601083613b6b565b91507f416c726561647920656e726f6c6c6564000000000000000000000000000000006000830152602082019050919050565b60006131da601583613b6b565b91507f496e76616c696420746561636865722070726f6f6600000000000000000000006000830152602082019050919050565b600061321a600a83613b6b565b91507f4f6e6c792061646d696e000000000000000000000000000000000000000000006000830152602082019050919050565b600061325a601083613b6b565b91507f50726566697820746f6f206c61726765000000000000000000000000000000006000830152602082019050919050565b600061329a600e83613b6b565b91507f5375626a656374206578697374730000000000000000000000000000000000006000830152602082019050919050565b60006132da601d83613b6b565b91507f4e6f742073656374696f6e2773207375626a65637420746561636865720000006000830152602082019050919050565b600061331a601183613b6b565b91507f4c6f636174696f6e206d69736d617463680000000000000000000000000000006000830152602082019050919050565b600061335a600c83613b6b565b91507f4e6f7420656e726f6c6c656400000000000000000000000000000000000000006000830152602082019050919050565b600061339a601883613b6b565b91507f496e76616c6964207369676e6174757265206c656e67746800000000000000006000830152602082019050919050565b60006133da601583613b6b565b91507f496e76616c69642073747564656e742070726f6f6600000000000000000000006000830152602082019050919050565b600061341a600e83613b6b565b91507f416c7265616479206d61726b65640000000000000000000000000000000000006000830152602082019050919050565b600061345a600b83613b6b565b91507f436c61737320656e6465640000000000000000000000000000000000000000006000830152602082019050919050565b600061349a600f83613b6b565b91507f496e76616c69642073656374696f6e00000000000000000000000000000000006000830152602082019050919050565b6134d681613f97565b82525050565b6134e581613f97565b82525050565b6134fc6134f782613f97565b614099565b82525050565b61350b81613fa1565b82525050565b600061351d8285612e8d565b60208201915061352d82846134eb565b6020820191508190509392505050565b60006135498285612ea4565b91506135558284612ea4565b91508190509392505050565b600061356d8284612ed5565b915081905092915050565b6000613583826130cd565b915061358f8284612e8d565b60208201915081905092915050565b60006135aa82866134eb565b6020820191506135ba8285612dfa565b6014820191506135ca82846134eb565b602082019150819050949350505050565b60006020820190506135f06000830184612deb565b92915050565b600060408201905061360b6000830185612deb565b61361860208301846134dc565b9392505050565b60006080820190506136346000830187612deb565b61364160208301866134dc565b61364e6040830185612deb565b61365b6060830184612e6f565b95945050505050565b6000602082019050818103600083015261367e8184612e11565b905092915050565b600060208201905061369b6000830184612e6f565b92915050565b60006080820190506136b66000830187612e7e565b6136c36020830186613502565b6136d06040830185612e7e565b6136dd6060830184612e7e565b95945050505050565b600060208201905081810360008301526137008184612f54565b905092915050565b6000602082019050818103600083015261372181612f8d565b9050919050565b6000602082019050818103600083015261374181612fcd565b9050919050565b600060208201905081810360008301526137618161300d565b9050919050565b600060208201905081810360008301526137818161304d565b9050919050565b600060208201905081810360008301526137a18161308d565b9050919050565b600060208201905081810360008301526137c18161310d565b9050919050565b600060208201905081810360008301526137e18161314d565b9050919050565b600060208201905081810360008301526138018161318d565b9050919050565b60006020820190508181036000830152613821816131cd565b9050919050565b600060208201905081810360008301526138418161320d565b9050919050565b600060208201905081810360008301526138618161324d565b9050919050565b600060208201905081810360008301526138818161328d565b9050919050565b600060208201905081810360008301526138a1816132cd565b9050919050565b600060208201905081810360008301526138c18161330d565b9050919050565b600060208201905081810360008301526138e18161334d565b9050919050565b600060208201905081810360008301526139018161338d565b9050919050565b60006020820190508181036000830152613921816133cd565b9050919050565b600060208201905081810360008301526139418161340d565b9050919050565b600060208201905081810360008301526139618161344d565b9050919050565b600060208201905081810360008301526139818161348d565b9050919050565b600060208201905061399d60008301846134dc565b92915050565b60006040820190506139b860008301856134dc565b81810360208301526139ca8184612f54565b90509392505050565b60006040820190506139e860008301856134dc565b6139f560208301846134dc565b9392505050565b600060e082019050613a11600083018a6134dc565b613a1e60208301896134dc565b613a2b60408301886134dc565b613a386060830187612e7e565b613a4560808301866134dc565b613a5260a08301856134dc565b613a5f60c0830184612e6f565b98975050505050505050565b6000604051905081810181811067ffffffffffffffff82111715613a9257613a91614130565b5b8060405250919050565b600067ffffffffffffffff821115613ab757613ab6614130565b5b601f19601f8301169050602081019050919050565b600067ffffffffffffffff821115613ae757613ae6614130565b5b601f19601f8301169050602081019050919050565b6000819050602082019050919050565b60008190508160005260206000209050919050565b600081519050919050565b600081519050919050565b600081519050919050565b6000602082019050919050565b600082825260208201905092915050565b600081905092915050565b600082825260208201905092915050565b600081905092915050565b6000613b9282613f6d565b9150613b9d83613f6d565b9250817f7fffffffffffffffffffffffffffffffffffffffffffffffffffffffffffffff03831360008312151615613bd857613bd76140a3565b5b817f8000000000000000000000000000000000000000000000000000000000000000038312600083121615613c1057613c0f6140a3565b5b828201905092915050565b6000613c2682613f97565b9150613c3183613f97565b9250827fffffffffffffffffffffffffffffffffffffffffffffffffffffffffffffffff03821115613c6657613c656140a3565b5b828201905092915050565b6000613c7c82613f6d565b9150613c8783613f6d565b925082613c9757613c966140d2565b5b600160000383147f800000000000000000000000000000000000000000000000000000000000000083141615613cd057613ccf6140a3565b5b828205905092915050565b6000613ce682613f97565b9150613cf183613f97565b925082613d0157613d006140d2565b5b828204905092915050565b6000613d1782613f6d565b9150613d2283613f6d565b9250827f7fffffffffffffffffffffffffffffffffffffffffffffffffffffffffffffff0482116000841360008413161615613d6157613d606140a3565b5b817f80000000000000000000000000000000000000000000000000000000000000000583126000841260008413161615613d9e57613d9d6140a3565b5b827f80000000000000000000000000000000000000000000000000000000000000000582126000841360008412161615613ddb57613dda6140a3565b5b827f7fffffffffffffffffffffffffffffffffffffffffffffffffffffffffffffff0582126000841260008412161615613e1857613e176140a3565b5b828202905092915050565b6000613e2e82613f97565b9150613e3983613f97565b9250817fffffffffffffffffffffffffffffffffffffffffffffffffffffffffffffffff0483118215151615613e7257613e716140a3565b5b828202905092915050565b6000613e8882613f6d565b9150613e9383613f6d565b9250827f800000000000000000000000000000000000000000000000000000000000000001821260008412151615613ece57613ecd6140a3565b5b827f7fffffffffffffffffffffffffffffffffffffffffffffffffffffffffffffff018213600084121615613f0657613f056140a3565b5b828203905092915050565b6000613f1c82613f97565b9150613f2783613f97565b925082821015613f3a57613f396140a3565b5b828203905092915050565b6000613f5082613f77565b9050919050565b60008115159050919050565b6000819050919050565b6000819050919050565b600073ffffffffffffffffffffffffffffffffffffffff82169050919050565b6000819050919050565b600060ff82169050919050565b82818337600083830152505050565b60005b83811015613fdb578082015181840152602081019050613fc0565b83811115613fea576000848401525b50505050565b6000600282049050600182168061400857607f821691505b6020821081141561401c5761401b614101565b5b50919050565b600061402d82613f97565b91507fffffffffffffffffffffffffffffffffffffffffffffffffffffffffffffffff8214156140605761405f6140a3565b5b600182019050919050565b600061407682614087565b9050919050565b6000819050919050565b600061409282614170565b9050919050565b6000819050919050565b7f4e487b7100000000000000000000000000000000000000000000000000000000600052601160045260246000fd5b7f4e487b7100000000000000000000000000000000000000000000000000000000600052601260045260246000fd5b7f4e487b7100000000000000000000000000000000000000000000000000000000600052602260045260246000fd5b7f4e487b7100000000000000000000000000000000000000000000000000000000600052604160045260246000fd5b6000601f19601f8301169050919050565b60008160601b9050919050565b61418681613f45565b811461419157600080fd5b50565b61419d81613f63565b81146141a857600080fd5b50565b6141b481613f97565b81146141bf57600080fd5b5056fea2646970667358221220d10d8b83aa2b7d9192f666afb83306a4c36d01a29abfc665f06d20fc33c96f0b64736f6c63430008000033","opcodes":"PUSH1 0x80 PUSH1 0x40 MSTORE CALLVALUE DUP1 ISZERO PUSH2 0x10 JUMPI PUSH1 0x0 DUP1 REVERT JUMPDEST POP PUSH2 0x41F8 DUP1 PUSH2 0x20 PUSH1 0x0 CODECOPY PUSH1 0x0 RETURN INVALID PUSH1 0x80 PUSH1 0x40 MSTORE CALLVALUE DUP1 ISZERO PUSH2 0x10 JUMPI PUSH1 0x0 DUP1 REVERT JUMPDEST POP PUSH1 0x4 CALLDATASIZE LT PUSH2 0x18E JUMPI PUSH1 0x0 CALLDATALOAD PUSH1 0xE0 SHR DUP1 PUSH4 0xA850C180 GT PUSH2 0xDE JUMPI DUP1 PUSH4 0xD064D63F GT PUSH2 0x97 JUMPI DUP1 PUSH4 0xF00070F5 GT PUSH2 0x71 JUMPI DUP1 PUSH4 0xF00070F5 EQ PUSH2 0x4D5 JUMPI DUP1 PUSH4 0xF11F6E94 EQ PUSH2 0x505 JUMPI DUP1 PUSH4 0xF2500368 EQ PUSH2 0x523 JUMPI DUP1 PUSH4 0xF851A440 EQ PUSH2 0x53F JUMPI PUSH2 0x18E JUMP JUMPDEST DUP1 PUSH4 0xD064D63F EQ PUSH2 0x47F JUMPI DUP1 PUSH4 0xD4094AB6 EQ PUSH2 0x49B JUMPI DUP1 PUSH4 0xD9065596 EQ PUSH2 0x4B9 JUMPI PUSH2 0x18E JUMP JUMPDEST DUP1 PUSH4 0xA850C180 EQ PUSH2 0x39A JUMPI DUP1 PUSH4 0xAB87E6D7 EQ PUSH2 0x3B6 JUMPI DUP1 PUSH4 0xAEC37EB3 EQ PUSH2 0x3D2 JUMPI DUP1 PUSH4 0xC93F63F6 EQ PUSH2 0x402 JUMPI DUP1 PUSH4 0xC9768315 EQ PUSH2 0x41E JUMPI DUP1 PUSH4 0xCA1F8C6E EQ PUSH2 0x44E JUMPI PUSH2 0x18E JUMP JUMPDEST DUP1 PUSH4 0x3954D58B GT PUSH2 0x14B JUMPI DUP1 PUSH4 0x817DBE9F GT PUSH2 0x125 JUMPI DUP1 PUSH4 0x817DBE9F EQ PUSH2 0x2E6 JUMPI DUP1 PUSH4 0x973A814E EQ PUSH2 0x31C JUMPI DUP1 PUSH4 0x9A8D8955 EQ PUSH2 0x33A JUMPI DUP1 PUSH4 0xA515797A EQ PUSH2 0x36A JUMPI PUSH2 0x18E JUMP JUMPDEST DUP1 PUSH4 0x3954D58B EQ PUSH2 0x290 JUMPI DUP1 PUSH4 0x4D7DB89B EQ PUSH2 0x2AE JUMPI DUP1 PUSH4 0x75829DEF EQ PUSH2 0x2CA JUMPI PUSH2 0x18E JUMP JUMPDEST DUP1 PUSH4 0x212081C EQ PUSH2 0x193 JUMPI DUP1 PUSH4 0xB104EEE EQ PUSH2 0x1C3 JUMPI DUP1 PUSH4 0x13A3C482 EQ PUSH2 0x1F6 JUMPI DUP1 PUSH4 0x301C82F3 EQ PUSH2 0x227 JUMPI DUP1 PUSH4 0x3359DA49 EQ PUSH2 0x243 JUMPI DUP1 PUSH4 0x35603440 EQ PUSH2 0x25F JUMPI JUMPDEST PUSH1 0x0 DUP1 REVERT JUMPDEST PUSH2 0x1AD PUSH1 0x4 DUP1 CALLDATASIZE SUB DUP2 ADD SWAP1 PUSH2 0x1A8 SWAP2 SWAP1 PUSH2 0x2D34 JUMP JUMPDEST PUSH2 0x55D JUMP JUMPDEST PUSH1 0x40 MLOAD PUSH2 0x1BA SWAP2 SWAP1 PUSH2 0x35DB JUMP JUMPDEST PUSH1 0x40 MLOAD DUP1 SWAP2 SUB SWAP1 RETURN JUMPDEST PUSH2 0x1DD PUSH1 0x4 DUP1 CALLDATASIZE SUB DUP2 ADD SWAP1 PUSH2 0x1D8 SWAP2 SWAP1 PUSH2 0x2B57 JUMP JUMPDEST PUSH2 0x5AB JUMP JUMPDEST PUSH1 0x40 MLOAD PUSH2 0x1ED SWAP5 SWAP4 SWAP3 SWAP2 SWAP1 PUSH2 0x361F JUMP JUMPDEST PUSH1 0x40 MLOAD DUP1 SWAP2 SUB SWAP1 RETURN JUMPDEST PUSH2 0x210 PUSH1 0x4 DUP1 CALLDATASIZE SUB DUP2 ADD SWAP1 PUSH2 0x20B SWAP2 SWAP1 PUSH2 0x2B1B JUMP JUMPDEST PUSH2 0x628 JUMP JUMPDEST PUSH1 0x40 MLOAD PUSH2 0x21E SWAP3 SWAP2 SWAP1 PUSH2 0x39D3 JUMP JUMPDEST PUSH1 0x40 MLOAD DUP1 SWAP2 SUB SWAP1 RETURN JUMPDEST PUSH2 0x241 PUSH1 0x4 DUP1 CALLDATASIZE SUB DUP2 ADD SWAP1 PUSH2 0x23C SWAP2 SWAP1 PUSH2 0x2B80 JUMP JUMPDEST PUSH2 0x7CB JUMP JUMPDEST STOP JUMPDEST PUSH2 0x25D PUSH1 0x4 DUP1 CALLDATASIZE SUB DUP2 ADD SWAP1 PUSH2 0x258 SWAP2 SWAP1 PUSH2 0x2CCD JUMP JUMPDEST PUSH2 0x8E9 JUMP JUMPDEST STOP JUMPDEST PUSH2 0x279 PUSH1 0x4 DUP1 CALLDATASIZE SUB DUP2 ADD SWAP1 PUSH2 0x274 SWAP2 SWAP1 PUSH2 0x2BC1 JUMP JUMPDEST PUSH2 0xBED JUMP JUMPDEST PUSH1 0x40 MLOAD PUSH2 0x287 SWAP3 SWAP2 SWAP1 PUSH2 0x39A3 JUMP JUMPDEST PUSH1 0x40 MLOAD DUP1 SWAP2 SUB SWAP1 RETURN JUMPDEST PUSH2 0x298 PUSH2 0xC99 JUMP JUMPDEST PUSH1 0x40 MLOAD PUSH2 0x2A5 SWAP2 SWAP1 PUSH2 0x3988 JUMP JUMPDEST PUSH1 0x40 MLOAD DUP1 SWAP2 SUB SWAP1 RETURN JUMPDEST PUSH2 0x2C8 PUSH1 0x4 DUP1 CALLDATASIZE SUB DUP2 ADD SWAP1 PUSH2 0x2C3 SWAP2 SWAP1 PUSH2 0x2D70 JUMP JUMPDEST PUSH2 0xC9F JUMP JUMPDEST STOP JUMPDEST PUSH2 0x2E4 PUSH1 0x4 DUP1 CALLDATASIZE SUB DUP2 ADD SWAP1 PUSH2 0x2DF SWAP2 SWAP1 PUSH2 0x2AF2 JUMP JUMPDEST PUSH2 0xF7C JUMP JUMPDEST STOP JUMPDEST PUSH2 0x300 PUSH1 0x4 DUP1 CALLDATASIZE SUB DUP2 ADD SWAP1 PUSH2 0x2FB SWAP2 SWAP1 PUSH2 0x2BC1 JUMP JUMPDEST PUSH2 0x10BD JUMP JUMPDEST PUSH1 0x40 MLOAD PUSH2 0x313 SWAP8 SWAP7 SWAP6 SWAP5 SWAP4 SWAP3 SWAP2 SWAP1 PUSH2 0x39FC JUMP JUMPDEST PUSH1 0x40 MLOAD DUP1 SWAP2 SUB SWAP1 RETURN JUMPDEST PUSH2 0x324 PUSH2 0x110C JUMP JUMPDEST PUSH1 0x40 MLOAD PUSH2 0x331 SWAP2 SWAP1 PUSH2 0x3988 JUMP JUMPDEST PUSH1 0x40 MLOAD DUP1 SWAP2 SUB SWAP1 RETURN JUMPDEST PUSH2 0x354 PUSH1 0x4 DUP1 CALLDATASIZE SUB DUP2 ADD SWAP1 PUSH2 0x34F SWAP2 SWAP1 PUSH2 0x2B1B JUMP JUMPDEST PUSH2 0x1112 JUMP JUMPDEST PUSH1 0x40 MLOAD PUSH2 0x361 SWAP2 SWAP1 PUSH2 0x3686 JUMP JUMPDEST PUSH1 0x40 MLOAD DUP1 SWAP2 SUB SWAP1 RETURN JUMPDEST PUSH2 0x384 PUSH1 0x4 DUP1 CALLDATASIZE SUB DUP2 ADD SWAP1 PUSH2 0x37F SWAP2 SWAP1 PUSH2 0x2B57 JUMP JUMPDEST PUSH2 0x1141 JUMP JUMPDEST PUSH1 0x40 MLOAD PUSH2 0x391 SWAP2 SWAP1 PUSH2 0x3686 JUMP JUMPDEST PUSH1 0x40 MLOAD DUP1 SWAP2 SUB SWAP1 RETURN JUMPDEST PUSH2 0x3B4 PUSH1 0x4 DUP1 CALLDATASIZE SUB DUP2 ADD SWAP1 PUSH2 0x3AF SWAP2 SWAP1 PUSH2 0x2BEA JUMP JUMPDEST PUSH2 0x1161 JUMP JUMPDEST STOP JUMPDEST PUSH2 0x3D0 PUSH1 0x4 DUP1 CALLDATASIZE SUB DUP2 ADD SWAP1 PUSH2 0x3CB SWAP2 SWAP1 PUSH2 0x2BEA JUMP JUMPDEST PUSH2 0x135A JUMP JUMPDEST STOP JUMPDEST PUSH2 0x3EC PUSH1 0x4 DUP1 CALLDATASIZE SUB DUP2 ADD SWAP1 PUSH2 0x3E7 SWAP2 SWAP1 PUSH2 0x2AF2 JUMP JUMPDEST PUSH2 0x1552 JUMP JUMPDEST PUSH1 0x40 MLOAD PUSH2 0x3F9 SWAP2 SWAP1 PUSH2 0x3686 JUMP JUMPDEST PUSH1 0x40 MLOAD DUP1 SWAP2 SUB SWAP1 RETURN JUMPDEST PUSH2 0x41C PUSH1 0x4 DUP1 CALLDATASIZE SUB DUP2 ADD SWAP1 PUSH2 0x417 SWAP2 SWAP1 PUSH2 0x2B57 JUMP JUMPDEST PUSH2 0x1685 JUMP JUMPDEST STOP JUMPDEST PUSH2 0x438 PUSH1 0x4 DUP1 CALLDATASIZE SUB DUP2 ADD SWAP1 PUSH2 0x433 SWAP2 SWAP1 PUSH2 0x2BEA JUMP JUMPDEST PUSH2 0x1993 JUMP JUMPDEST PUSH1 0x40 MLOAD PUSH2 0x445 SWAP2 SWAP1 PUSH2 0x3686 JUMP JUMPDEST PUSH1 0x40 MLOAD DUP1 SWAP2 SUB SWAP1 RETURN JUMPDEST PUSH2 0x468 PUSH1 0x4 DUP1 CALLDATASIZE SUB DUP2 ADD SWAP1 PUSH2 0x463 SWAP2 SWAP1 PUSH2 0x2BC1 JUMP JUMPDEST PUSH2 0x19C2 JUMP JUMPDEST PUSH1 0x40 MLOAD PUSH2 0x476 SWAP3 SWAP2 SWAP1 PUSH2 0x39D3 JUMP JUMPDEST PUSH1 0x40 MLOAD DUP1 SWAP2 SUB SWAP1 RETURN JUMPDEST PUSH2 0x499 PUSH1 0x4 DUP1 CALLDATASIZE SUB DUP2 ADD SWAP1 PUSH2 0x494 SWAP2 SWAP1 PUSH2 0x2BEA JUMP JUMPDEST PUSH2 0x19EA JUMP JUMPDEST STOP JUMPDEST PUSH2 0x4A3 PUSH2 0x1C2E JUMP JUMPDEST PUSH1 0x40 MLOAD PUSH2 0x4B0 SWAP2 SWAP1 PUSH2 0x3988 JUMP JUMPDEST PUSH1 0x40 MLOAD DUP1 SWAP2 SUB SWAP1 RETURN JUMPDEST PUSH2 0x4D3 PUSH1 0x4 DUP1 CALLDATASIZE SUB DUP2 ADD SWAP1 PUSH2 0x4CE SWAP2 SWAP1 PUSH2 0x2C26 JUMP JUMPDEST PUSH2 0x1C33 JUMP JUMPDEST STOP JUMPDEST PUSH2 0x4EF PUSH1 0x4 DUP1 CALLDATASIZE SUB DUP2 ADD SWAP1 PUSH2 0x4EA SWAP2 SWAP1 PUSH2 0x2B80 JUMP JUMPDEST PUSH2 0x2113 JUMP JUMPDEST PUSH1 0x40 MLOAD PUSH2 0x4FC SWAP2 SWAP1 PUSH2 0x3664 JUMP JUMPDEST PUSH1 0x40 MLOAD DUP1 SWAP2 SUB SWAP1 RETURN JUMPDEST PUSH2 0x50D PUSH2 0x244C JUMP JUMPDEST PUSH1 0x40 MLOAD PUSH2 0x51A SWAP2 SWAP1 PUSH2 0x3988 JUMP JUMPDEST PUSH1 0x40 MLOAD DUP1 SWAP2 SUB SWAP1 RETURN JUMPDEST PUSH2 0x53D PUSH1 0x4 DUP1 CALLDATASIZE SUB DUP2 ADD SWAP1 PUSH2 0x538 SWAP2 SWAP1 PUSH2 0x2BC1 JUMP JUMPDEST PUSH2 0x2452 JUMP JUMPDEST STOP JUMPDEST PUSH2 0x547 PUSH2 0x254A JUMP JUMPDEST PUSH1 0x40 MLOAD PUSH2 0x554 SWAP2 SWAP1 PUSH2 0x35DB JUMP JUMPDEST PUSH1 0x40 MLOAD DUP1 SWAP2 SUB SWAP1 RETURN JUMPDEST PUSH1 0x8 PUSH1 0x20 MSTORE DUP2 PUSH1 0x0 MSTORE PUSH1 0x40 PUSH1 0x0 KECCAK256 DUP2 DUP2 SLOAD DUP2 LT PUSH2 0x579 JUMPI PUSH1 0x0 DUP1 REVERT JUMPDEST SWAP1 PUSH1 0x0 MSTORE PUSH1 0x20 PUSH1 0x0 KECCAK256 ADD PUSH1 0x0 SWAP2 POP SWAP2 POP SWAP1 SLOAD SWAP1 PUSH2 0x100 EXP SWAP1 DIV PUSH20 0xFFFFFFFFFFFFFFFFFFFFFFFFFFFFFFFFFFFFFFFF AND DUP2 JUMP JUMPDEST PUSH1 0x5 PUSH1 0x20 MSTORE DUP1 PUSH1 0x0 MSTORE PUSH1 0x40 PUSH1 0x0 KECCAK256 PUSH1 0x0 SWAP2 POP SWAP1 POP DUP1 PUSH1 0x0 ADD PUSH1 0x0 SWAP1 SLOAD SWAP1 PUSH2 0x100 EXP SWAP1 DIV PUSH20 0xFFFFFFFFFFFFFFFFFFFFFFFFFFFFFFFFFFFFFFFF AND SWAP1 DUP1 PUSH1 0x1 ADD SLOAD SWAP1 DUP1 PUSH1 0x2 ADD PUSH1 0x0 SWAP1 SLOAD SWAP1 PUSH2 0x100 EXP SWAP1 DIV PUSH20 0xFFFFFFFFFFFFFFFFFFFFFFFFFFFFFFFFFFFFFFFF AND SWAP1 DUP1 PUSH1 0x2 ADD PUSH1 0x14 SWAP1 SLOAD SWAP1 PUSH2 0x100 EXP SWAP1 DIV PUSH1 0xFF AND SWAP1 POP DUP5 JUMP JUMPDEST PUSH1 0x0 DUP1 PUSH1 0x0 PUSH1 0x4 PUSH1 0x0 DUP6 DUP2 MSTORE PUSH1 0x20 ADD SWAP1 DUP2 MSTORE PUSH1 0x20 ADD PUSH1 0x0 KECCAK256 SWAP1 POP PUSH1 0x0 SWAP2 POP PUSH1 0x0 SWAP3 POP PUSH1 0x0 JUMPDEST DUP2 PUSH1 0x3 ADD DUP1 SLOAD SWAP1 POP DUP2 LT ISZERO PUSH2 0x7C2 JUMPI PUSH1 0x0 DUP3 PUSH1 0x3 ADD DUP3 DUP2 SLOAD DUP2 LT PUSH2 0x69A JUMPI PUSH32 0x4E487B7100000000000000000000000000000000000000000000000000000000 PUSH1 0x0 MSTORE PUSH1 0x32 PUSH1 0x4 MSTORE PUSH1 0x24 PUSH1 0x0 REVERT JUMPDEST SWAP1 PUSH1 0x0 MSTORE PUSH1 0x20 PUSH1 0x0 KECCAK256 ADD SLOAD SWAP1 POP PUSH1 0x0 DUP4 PUSH1 0x2 ADD PUSH1 0x0 DUP4 DUP2 MSTORE PUSH1 0x20 ADD SWAP1 DUP2 MSTORE PUSH1 0x20 ADD PUSH1 0x0 KECCAK256 PUSH1 0x3 ADD SWAP1 POP DUP1 DUP1 SLOAD SWAP1 POP DUP6 PUSH2 0x6D3 SWAP2 SWAP1 PUSH2 0x3C1B JUMP JUMPDEST SWAP5 POP PUSH1 0x0 JUMPDEST DUP2 DUP1 SLOAD SWAP1 POP DUP2 LT ISZERO PUSH2 0x7AC JUMPI PUSH1 0x7 PUSH1 0x0 DUP11 PUSH20 0xFFFFFFFFFFFFFFFFFFFFFFFFFFFFFFFFFFFFFFFF AND PUSH20 0xFFFFFFFFFFFFFFFFFFFFFFFFFFFFFFFFFFFFFFFF AND DUP2 MSTORE PUSH1 0x20 ADD SWAP1 DUP2 MSTORE PUSH1 0x20 ADD PUSH1 0x0 KECCAK256 PUSH1 0x0 DUP4 DUP4 DUP2 SLOAD DUP2 LT PUSH2 0x75E JUMPI PUSH32 0x4E487B7100000000000000000000000000000000000000000000000000000000 PUSH1 0x0 MSTORE PUSH1 0x32 PUSH1 0x4 MSTORE PUSH1 0x24 PUSH1 0x0 REVERT JUMPDEST SWAP1 PUSH1 0x0 MSTORE PUSH1 0x20 PUSH1 0x0 KECCAK256 ADD SLOAD DUP2 MSTORE PUSH1 0x20 ADD SWAP1 DUP2 MSTORE PUSH1 0x20 ADD PUSH1 0x0 KECCAK256 PUSH1 0x0 SWAP1 SLOAD SWAP1 PUSH2 0x100 EXP SWAP1 DIV PUSH1 0xFF AND ISZERO PUSH2 0x799 JUMPI DUP7 DUP1 PUSH2 0x795 SWAP1 PUSH2 0x4022 JUMP JUMPDEST SWAP8 POP POP JUMPDEST DUP1 DUP1 PUSH2 0x7A4 SWAP1 PUSH2 0x4022 JUMP JUMPDEST SWAP2 POP POP PUSH2 0x6D8 JUMP JUMPDEST POP POP POP DUP1 DUP1 PUSH2 0x7BA SWAP1 PUSH2 0x4022 JUMP JUMPDEST SWAP2 POP POP PUSH2 0x64D JUMP JUMPDEST POP POP SWAP3 POP SWAP3 SWAP1 POP JUMP JUMPDEST PUSH1 0x0 DUP1 SLOAD SWAP1 PUSH2 0x100 EXP SWAP1 DIV PUSH20 0xFFFFFFFFFFFFFFFFFFFFFFFFFFFFFFFFFFFFFFFF AND PUSH20 0xFFFFFFFFFFFFFFFFFFFFFFFFFFFFFFFFFFFFFFFF AND CALLER PUSH20 0xFFFFFFFFFFFFFFFFFFFFFFFFFFFFFFFFFFFFFFFF AND EQ PUSH2 0x859 JUMPI PUSH1 0x40 MLOAD PUSH32 0x8C379A000000000000000000000000000000000000000000000000000000000 DUP2 MSTORE PUSH1 0x4 ADD PUSH2 0x850 SWAP1 PUSH2 0x3828 JUMP JUMPDEST PUSH1 0x40 MLOAD DUP1 SWAP2 SUB SWAP1 REVERT JUMPDEST PUSH1 0x0 PUSH1 0x1 PUSH1 0x0 DUP2 SLOAD DUP1 SWAP3 SWAP2 SWAP1 PUSH2 0x86E SWAP1 PUSH2 0x4022 JUMP JUMPDEST SWAP2 SWAP1 POP SSTORE SWAP1 POP PUSH1 0x0 PUSH1 0x4 PUSH1 0x0 DUP4 DUP2 MSTORE PUSH1 0x20 ADD SWAP1 DUP2 MSTORE PUSH1 0x20 ADD PUSH1 0x0 KECCAK256 SWAP1 POP DUP2 DUP2 PUSH1 0x0 ADD DUP2 SWAP1 SSTORE POP DUP3 DUP2 PUSH1 0x1 ADD SWAP1 DUP1 MLOAD SWAP1 PUSH1 0x20 ADD SWAP1 PUSH2 0x8AC SWAP3 SWAP2 SWAP1 PUSH2 0x28F3 JUMP JUMPDEST POP DUP2 PUSH31 0x4736EEA0F1F8D3B949033AF6DBB0FDEA6FC371BD8F2D0436EEDB58961659E5 DUP5 PUSH1 0x40 MLOAD PUSH2 0x8DC SWAP2 SWAP1 PUSH2 0x36E6 JUMP JUMPDEST PUSH1 0x40 MLOAD DUP1 SWAP2 SUB SWAP1 LOG2 POP POP POP JUMP JUMPDEST PUSH1 0x0 DUP1 SLOAD SWAP1 PUSH2 0x100 EXP SWAP1 DIV PUSH20 0xFFFFFFFFFFFFFFFFFFFFFFFFFFFFFFFFFFFFFFFF AND PUSH20 0xFFFFFFFFFFFFFFFFFFFFFFFFFFFFFFFFFFFFFFFF AND CALLER PUSH20 0xFFFFFFFFFFFFFFFFFFFFFFFFFFFFFFFFFFFFFFFF AND EQ PUSH2 0x977 JUMPI PUSH1 0x40 MLOAD PUSH32 0x8C379A000000000000000000000000000000000000000000000000000000000 DUP2 MSTORE PUSH1 0x4 ADD PUSH2 0x96E SWAP1 PUSH2 0x3828 JUMP JUMPDEST PUSH1 0x40 MLOAD DUP1 SWAP2 SUB SWAP1 REVERT JUMPDEST PUSH1 0x0 PUSH1 0x4 PUSH1 0x0 DUP6 DUP2 MSTORE PUSH1 0x20 ADD SWAP1 DUP2 MSTORE PUSH1 0x20 ADD PUSH1 0x0 KECCAK256 SWAP1 POP PUSH1 0x0 JUMPDEST DUP2 PUSH1 0x3 ADD DUP1 SLOAD SWAP1 POP DUP2 LT ISZERO PUSH2 0xA2F JUMPI PUSH1 0x0 DUP3 PUSH1 0x2 ADD PUSH1 0x0 DUP4 DUP2 MSTORE PUSH1 0x20 ADD SWAP1 DUP2 MSTORE PUSH1 0x20 ADD PUSH1 0x0 KECCAK256 SWAP1 POP DUP5 DUP1 MLOAD SWAP1 PUSH1 0x20 ADD KECCAK256 DUP2 PUSH1 0x1 ADD PUSH1 0x40 MLOAD PUSH2 0x9D2 SWAP2 SWAP1 PUSH2 0x3561 JUMP JUMPDEST PUSH1 0x40 MLOAD DUP1 SWAP2 SUB SWAP1 KECCAK256 EQ ISZERO PUSH2 0xA1B JUMPI PUSH1 0x40 MLOAD PUSH32 0x8C379A000000000000000000000000000000000000000000000000000000000 DUP2 MSTORE PUSH1 0x4 ADD PUSH2 0xA12 SWAP1 PUSH2 0x3868 JUMP JUMPDEST PUSH1 0x40 MLOAD DUP1 SWAP2 SUB SWAP1 REVERT JUMPDEST POP DUP1 DUP1 PUSH2 0xA27 SWAP1 PUSH2 0x4022 JUMP JUMPDEST SWAP2 POP POP PUSH2 0x991 JUMP JUMPDEST POP PUSH1 0x0 PUSH1 0x4 PUSH1 0x0 DUP7 DUP2 MSTORE PUSH1 0x20 ADD SWAP1 DUP2 MSTORE PUSH1 0x20 ADD PUSH1 0x0 KECCAK256 PUSH1 0x3 ADD DUP1 SLOAD SWAP1 POP SWAP1 POP PUSH1 0x40 MLOAD DUP1 PUSH1 0x80 ADD PUSH1 0x40 MSTORE DUP1 DUP3 DUP2 MSTORE PUSH1 0x20 ADD DUP6 DUP2 MSTORE PUSH1 0x20 ADD DUP5 PUSH20 0xFFFFFFFFFFFFFFFFFFFFFFFFFFFFFFFFFFFFFFFF AND DUP2 MSTORE PUSH1 0x20 ADD PUSH1 0x0 PUSH8 0xFFFFFFFFFFFFFFFF DUP2 GT ISZERO PUSH2 0xAC2 JUMPI PUSH32 0x4E487B7100000000000000000000000000000000000000000000000000000000 PUSH1 0x0 MSTORE PUSH1 0x41 PUSH1 0x4 MSTORE PUSH1 0x24 PUSH1 0x0 REVERT JUMPDEST PUSH1 0x40 MLOAD SWAP1 DUP1 DUP3 MSTORE DUP1 PUSH1 0x20 MUL PUSH1 0x20 ADD DUP3 ADD PUSH1 0x40 MSTORE DUP1 ISZERO PUSH2 0xAF0 JUMPI DUP2 PUSH1 0x20 ADD PUSH1 0x20 DUP3 MUL DUP1 CALLDATASIZE DUP4 CALLDATACOPY DUP1 DUP3 ADD SWAP2 POP POP SWAP1 POP JUMPDEST POP DUP2 MSTORE POP PUSH1 0x4 PUSH1 0x0 DUP8 DUP2 MSTORE PUSH1 0x20 ADD SWAP1 DUP2 MSTORE PUSH1 0x20 ADD PUSH1 0x0 KECCAK256 PUSH1 0x2 ADD PUSH1 0x0 DUP4 DUP2 MSTORE PUSH1 0x20 ADD SWAP1 DUP2 MSTORE PUSH1 0x20 ADD PUSH1 0x0 KECCAK256 PUSH1 0x0 DUP3 ADD MLOAD DUP2 PUSH1 0x0 ADD SSTORE PUSH1 0x20 DUP3 ADD MLOAD DUP2 PUSH1 0x1 ADD SWAP1 DUP1 MLOAD SWAP1 PUSH1 0x20 ADD SWAP1 PUSH2 0xB41 SWAP3 SWAP2 SWAP1 PUSH2 0x28F3 JUMP JUMPDEST POP PUSH1 0x40 DUP3 ADD MLOAD DUP2 PUSH1 0x2 ADD PUSH1 0x0 PUSH2 0x100 EXP DUP2 SLOAD DUP2 PUSH20 0xFFFFFFFFFFFFFFFFFFFFFFFFFFFFFFFFFFFFFFFF MUL NOT AND SWAP1 DUP4 PUSH20 0xFFFFFFFFFFFFFFFFFFFFFFFFFFFFFFFFFFFFFFFF AND MUL OR SWAP1 SSTORE POP PUSH1 0x60 DUP3 ADD MLOAD DUP2 PUSH1 0x3 ADD SWAP1 DUP1 MLOAD SWAP1 PUSH1 0x20 ADD SWAP1 PUSH2 0xBA5 SWAP3 SWAP2 SWAP1 PUSH2 0x2979 JUMP JUMPDEST POP SWAP1 POP POP PUSH1 0x4 PUSH1 0x0 DUP7 DUP2 MSTORE PUSH1 0x20 ADD SWAP1 DUP2 MSTORE PUSH1 0x20 ADD PUSH1 0x0 KECCAK256 PUSH1 0x3 ADD DUP2 SWAP1 DUP1 PUSH1 0x1 DUP2 SLOAD ADD DUP1 DUP3 SSTORE DUP1 SWAP2 POP POP PUSH1 0x1 SWAP1 SUB SWAP1 PUSH1 0x0 MSTORE PUSH1 0x20 PUSH1 0x0 KECCAK256 ADD PUSH1 0x0 SWAP1 SWAP2 SWAP1 SWAP2 SWAP1 SWAP2 POP SSTORE POP POP POP POP POP JUMP JUMPDEST PUSH1 0x4 PUSH1 0x20 MSTORE DUP1 PUSH1 0x0 MSTORE PUSH1 0x40 PUSH1 0x0 KECCAK256 PUSH1 0x0 SWAP2 POP SWAP1 POP DUP1 PUSH1 0x0 ADD SLOAD SWAP1 DUP1 PUSH1 0x1 ADD DUP1 SLOAD PUSH2 0xC16 SWAP1 PUSH2 0x3FF0 JUMP JUMPDEST DUP1 PUSH1 0x1F ADD PUSH1 0x20 DUP1 SWAP2 DIV MUL PUSH1 0x20 ADD PUSH1 0x40 MLOAD SWAP1 DUP2 ADD PUSH1 0x40 MSTORE DUP1 SWAP3 SWAP2 SWAP1 DUP2 DUP2 MSTORE PUSH1 0x20 ADD DUP3 DUP1 SLOAD PUSH2 0xC42 SWAP1 PUSH2 0x3FF0 JUMP JUMPDEST DUP1 ISZERO PUSH2 0xC8F JUMPI DUP1 PUSH1 0x1F LT PUSH2 0xC64 JUMPI PUSH2 0x100 DUP1 DUP4 SLOAD DIV MUL DUP4 MSTORE SWAP2 PUSH1 0x20 ADD SWAP2 PUSH2 0xC8F JUMP JUMPDEST DUP3 ADD SWAP2 SWAP1 PUSH1 0x0 MSTORE PUSH1 0x20 PUSH1 0x0 KECCAK256 SWAP1 JUMPDEST DUP2 SLOAD DUP2 MSTORE SWAP1 PUSH1 0x1 ADD SWAP1 PUSH1 0x20 ADD DUP1 DUP4 GT PUSH2 0xC72 JUMPI DUP3 SWAP1 SUB PUSH1 0x1F AND DUP3 ADD SWAP2 JUMPDEST POP POP POP POP POP SWAP1 POP DUP3 JUMP JUMPDEST PUSH1 0x2 SLOAD DUP2 JUMP JUMPDEST DUP4 DUP1 PUSH1 0x4 PUSH1 0x0 DUP4 DUP2 MSTORE PUSH1 0x20 ADD SWAP1 DUP2 MSTORE PUSH1 0x20 ADD PUSH1 0x0 KECCAK256 PUSH1 0x0 ADD SLOAD EQ PUSH2 0xCF8 JUMPI PUSH1 0x40 MLOAD PUSH32 0x8C379A000000000000000000000000000000000000000000000000000000000 DUP2 MSTORE PUSH1 0x4 ADD PUSH2 0xCEF SWAP1 PUSH2 0x3968 JUMP JUMPDEST PUSH1 0x40 MLOAD DUP1 SWAP2 SUB SWAP1 REVERT JUMPDEST DUP5 DUP5 PUSH1 0x4 PUSH1 0x0 DUP4 DUP2 MSTORE PUSH1 0x20 ADD SWAP1 DUP2 MSTORE PUSH1 0x20 ADD PUSH1 0x0 KECCAK256 PUSH1 0x3 ADD DUP1 SLOAD SWAP1 POP DUP2 LT PUSH2 0xD55 JUMPI PUSH1 0x40 MLOAD PUSH32 0x8C379A000000000000000000000000000000000000000000000000000000000 DUP2 MSTORE PUSH1 0x4 ADD PUSH2 0xD4C SWAP1 PUSH2 0x3708 JUMP JUMPDEST PUSH1 0x40 MLOAD DUP1 SWAP2 SUB SWAP1 REVERT JUMPDEST PUSH1 0x4 PUSH1 0x0 DUP4 DUP2 MSTORE PUSH1 0x20 ADD SWAP1 DUP2 MSTORE PUSH1 0x20 ADD PUSH1 0x0 KECCAK256 PUSH1 0x2 ADD PUSH1 0x0 DUP3 DUP2 MSTORE PUSH1 0x20 ADD SWAP1 DUP2 MSTORE PUSH1 0x20 ADD PUSH1 0x0 KECCAK256 PUSH1 0x2 ADD PUSH1 0x0 SWAP1 SLOAD SWAP1 PUSH2 0x100 EXP SWAP1 DIV PUSH20 0xFFFFFFFFFFFFFFFFFFFFFFFFFFFFFFFFFFFFFFFF AND PUSH20 0xFFFFFFFFFFFFFFFFFFFFFFFFFFFFFFFFFFFFFFFF AND CALLER PUSH20 0xFFFFFFFFFFFFFFFFFFFFFFFFFFFFFFFFFFFFFFFF AND EQ PUSH2 0xE0D JUMPI PUSH1 0x40 MLOAD PUSH32 0x8C379A000000000000000000000000000000000000000000000000000000000 DUP2 MSTORE PUSH1 0x4 ADD PUSH2 0xE04 SWAP1 PUSH2 0x3888 JUMP JUMPDEST PUSH1 0x40 MLOAD DUP1 SWAP2 SUB SWAP1 REVERT JUMPDEST PUSH1 0x0 PUSH1 0x2 PUSH1 0x0 DUP2 SLOAD DUP1 SWAP3 SWAP2 SWAP1 PUSH2 0xE22 SWAP1 PUSH2 0x4022 JUMP JUMPDEST SWAP2 SWAP1 POP SSTORE SWAP1 POP PUSH1 0x40 MLOAD DUP1 PUSH1 0xE0 ADD PUSH1 0x40 MSTORE DUP1 DUP3 DUP2 MSTORE PUSH1 0x20 ADD DUP10 DUP2 MSTORE PUSH1 0x20 ADD DUP9 DUP2 MSTORE PUSH1 0x20 ADD DUP8 DUP2 MSTORE PUSH1 0x20 ADD TIMESTAMP DUP2 MSTORE PUSH1 0x20 ADD PUSH1 0x3C DUP8 PUSH2 0xE5E SWAP2 SWAP1 PUSH2 0x3E23 JUMP JUMPDEST TIMESTAMP PUSH2 0xE69 SWAP2 SWAP1 PUSH2 0x3C1B JUMP JUMPDEST DUP2 MSTORE PUSH1 0x20 ADD PUSH1 0x0 ISZERO ISZERO DUP2 MSTORE POP PUSH1 0x6 PUSH1 0x0 DUP4 DUP2 MSTORE PUSH1 0x20 ADD SWAP1 DUP2 MSTORE PUSH1 0x20 ADD PUSH1 0x0 KECCAK256 PUSH1 0x0 DUP3 ADD MLOAD DUP2 PUSH1 0x0 ADD SSTORE PUSH1 0x20 DUP3 ADD MLOAD DUP2 PUSH1 0x1 ADD SSTORE PUSH1 0x40 DUP3 ADD MLOAD DUP2 PUSH1 0x2 ADD SSTORE PUSH1 0x60 DUP3 ADD MLOAD DUP2 PUSH1 0x3 ADD SSTORE PUSH1 0x80 DUP3 ADD MLOAD DUP2 PUSH1 0x4 ADD SSTORE PUSH1 0xA0 DUP3 ADD MLOAD DUP2 PUSH1 0x5 ADD SSTORE PUSH1 0xC0 DUP3 ADD MLOAD DUP2 PUSH1 0x6 ADD PUSH1 0x0 PUSH2 0x100 EXP DUP2 SLOAD DUP2 PUSH1 0xFF MUL NOT AND SWAP1 DUP4 ISZERO ISZERO MUL OR SWAP1 SSTORE POP SWAP1 POP POP PUSH1 0x4 PUSH1 0x0 DUP10 DUP2 MSTORE PUSH1 0x20 ADD SWAP1 DUP2 MSTORE PUSH1 0x20 ADD PUSH1 0x0 KECCAK256 PUSH1 0x2 ADD PUSH1 0x0 DUP9 DUP2 MSTORE PUSH1 0x20 ADD SWAP1 DUP2 MSTORE PUSH1 0x20 ADD PUSH1 0x0 KECCAK256 PUSH1 0x3 ADD DUP2 SWAP1 DUP1 PUSH1 0x1 DUP2 SLOAD ADD DUP1 DUP3 SSTORE DUP1 SWAP2 POP POP PUSH1 0x1 SWAP1 SUB SWAP1 PUSH1 0x0 MSTORE PUSH1 0x20 PUSH1 0x0 KECCAK256 ADD PUSH1 0x0 SWAP1 SWAP2 SWAP1 SWAP2 SWAP1 SWAP2 POP SSTORE DUP8 PUSH32 0x20E697EE2E8310DB3B8B0D28937A1D05BC2CDD1B0698C3699F16A6C9387534E8 DUP9 DUP4 PUSH1 0x40 MLOAD PUSH2 0xF6A SWAP3 SWAP2 SWAP1 PUSH2 0x39D3 JUMP JUMPDEST PUSH1 0x40 MLOAD DUP1 SWAP2 SUB SWAP1 LOG2 POP POP POP POP POP POP POP POP JUMP JUMPDEST PUSH1 0x0 DUP1 SLOAD SWAP1 PUSH2 0x100 EXP SWAP1 DIV PUSH20 0xFFFFFFFFFFFFFFFFFFFFFFFFFFFFFFFFFFFFFFFF AND PUSH20 0xFFFFFFFFFFFFFFFFFFFFFFFFFFFFFFFFFFFFFFFF AND CALLER PUSH20 0xFFFFFFFFFFFFFFFFFFFFFFFFFFFFFFFFFFFFFFFF AND EQ PUSH2 0x100A JUMPI PUSH1 0x40 MLOAD PUSH32 0x8C379A000000000000000000000000000000000000000000000000000000000 DUP2 MSTORE PUSH1 0x4 ADD PUSH2 0x1001 SWAP1 PUSH2 0x3828 JUMP JUMPDEST PUSH1 0x40 MLOAD DUP1 SWAP2 SUB SWAP1 REVERT JUMPDEST PUSH1 0x0 PUSH20 0xFFFFFFFFFFFFFFFFFFFFFFFFFFFFFFFFFFFFFFFF AND DUP2 PUSH20 0xFFFFFFFFFFFFFFFFFFFFFFFFFFFFFFFFFFFFFFFF AND EQ ISZERO PUSH2 0x107A JUMPI PUSH1 0x40 MLOAD PUSH32 0x8C379A000000000000000000000000000000000000000000000000000000000 DUP2 MSTORE PUSH1 0x4 ADD PUSH2 0x1071 SWAP1 PUSH2 0x3768 JUMP JUMPDEST PUSH1 0x40 MLOAD DUP1 SWAP2 SUB SWAP1 REVERT JUMPDEST DUP1 PUSH1 0x0 DUP1 PUSH2 0x100 EXP DUP2 SLOAD DUP2 PUSH20 0xFFFFFFFFFFFFFFFFFFFFFFFFFFFFFFFFFFFFFFFF MUL NOT AND SWAP1 DUP4 PUSH20 0xFFFFFFFFFFFFFFFFFFFFFFFFFFFFFFFFFFFFFFFF AND MUL OR SWAP1 SSTORE POP POP JUMP JUMPDEST PUSH1 0x6 PUSH1 0x20 MSTORE DUP1 PUSH1 0x0 MSTORE PUSH1 0x40 PUSH1 0x0 KECCAK256 PUSH1 0x0 SWAP2 POP SWAP1 POP DUP1 PUSH1 0x0 ADD SLOAD SWAP1 DUP1 PUSH1 0x1 ADD SLOAD SWAP1 DUP1 PUSH1 0x2 ADD SLOAD SWAP1 DUP1 PUSH1 0x3 ADD SLOAD SWAP1 DUP1 PUSH1 0x4 ADD SLOAD SWAP1 DUP1 PUSH1 0x5 ADD SLOAD SWAP1 DUP1 PUSH1 0x6 ADD PUSH1 0x0 SWAP1 SLOAD SWAP1 PUSH2 0x100 EXP SWAP1 DIV PUSH1 0xFF AND SWAP1 POP DUP8 JUMP JUMPDEST PUSH1 0x3 SLOAD DUP2 JUMP JUMPDEST PUSH1 0x7 PUSH1 0x20 MSTORE DUP2 PUSH1 0x0 MSTORE PUSH1 0x40 PUSH1 0x0 KECCAK256 PUSH1 0x20 MSTORE DUP1 PUSH1 0x0 MSTORE PUSH1 0x40 PUSH1 0x0 KECCAK256 PUSH1 0x0 SWAP2 POP SWAP2 POP SWAP1 SLOAD SWAP1 PUSH2 0x100 EXP SWAP1 DIV PUSH1 0xFF AND DUP2 JUMP JUMPDEST PUSH1 0xA PUSH1 0x20 MSTORE DUP1 PUSH1 0x0 MSTORE PUSH1 0x40 PUSH1 0x0 KECCAK256 PUSH1 0x0 SWAP2 POP SLOAD SWAP1 PUSH2 0x100 EXP SWAP1 DIV PUSH1 0xFF AND DUP2 JUMP JUMPDEST DUP2 DUP1 PUSH1 0x4 PUSH1 0x0 DUP4 DUP2 MSTORE PUSH1 0x20 ADD SWAP1 DUP2 MSTORE PUSH1 0x20 ADD PUSH1 0x0 KECCAK256 PUSH1 0x0 ADD SLOAD EQ PUSH2 0x11BA JUMPI PUSH1 0x40 MLOAD PUSH32 0x8C379A000000000000000000000000000000000000000000000000000000000 DUP2 MSTORE PUSH1 0x4 ADD PUSH2 0x11B1 SWAP1 PUSH2 0x3968 JUMP JUMPDEST PUSH1 0x40 MLOAD DUP1 SWAP2 SUB SWAP1 REVERT JUMPDEST PUSH1 0x0 DUP1 SLOAD SWAP1 PUSH2 0x100 EXP SWAP1 DIV PUSH20 0xFFFFFFFFFFFFFFFFFFFFFFFFFFFFFFFFFFFFFFFF AND PUSH20 0xFFFFFFFFFFFFFFFFFFFFFFFFFFFFFFFFFFFFFFFF AND CALLER PUSH20 0xFFFFFFFFFFFFFFFFFFFFFFFFFFFFFFFFFFFFFFFF AND EQ PUSH2 0x1248 JUMPI PUSH1 0x40 MLOAD PUSH32 0x8C379A000000000000000000000000000000000000000000000000000000000 DUP2 MSTORE PUSH1 0x4 ADD PUSH2 0x123F SWAP1 PUSH2 0x3828 JUMP JUMPDEST PUSH1 0x40 MLOAD DUP1 SWAP2 SUB SWAP1 REVERT JUMPDEST PUSH1 0x4 PUSH1 0x0 DUP5 DUP2 MSTORE PUSH1 0x20 ADD SWAP1 DUP2 MSTORE PUSH1 0x20 ADD PUSH1 0x0 KECCAK256 PUSH1 0x5 ADD PUSH1 0x0 DUP4 PUSH20 0xFFFFFFFFFFFFFFFFFFFFFFFFFFFFFFFFFFFFFFFF AND PUSH20 0xFFFFFFFFFFFFFFFFFFFFFFFFFFFFFFFFFFFFFFFF AND DUP2 MSTORE PUSH1 0x20 ADD SWAP1 DUP2 MSTORE PUSH1 0x20 ADD PUSH1 0x0 KECCAK256 PUSH1 0x0 SWAP1 SLOAD SWAP1 PUSH2 0x100 EXP SWAP1 DIV PUSH1 0xFF AND ISZERO PUSH2 0x12E9 JUMPI PUSH1 0x40 MLOAD PUSH32 0x8C379A000000000000000000000000000000000000000000000000000000000 DUP2 MSTORE PUSH1 0x4 ADD PUSH2 0x12E0 SWAP1 PUSH2 0x37E8 JUMP JUMPDEST PUSH1 0x40 MLOAD DUP1 SWAP2 SUB SWAP1 REVERT JUMPDEST PUSH1 0x1 PUSH1 0x4 PUSH1 0x0 DUP6 DUP2 MSTORE PUSH1 0x20 ADD SWAP1 DUP2 MSTORE PUSH1 0x20 ADD PUSH1 0x0 KECCAK256 PUSH1 0x5 ADD PUSH1 0x0 DUP5 PUSH20 0xFFFFFFFFFFFFFFFFFFFFFFFFFFFFFFFFFFFFFFFF AND PUSH20 0xFFFFFFFFFFFFFFFFFFFFFFFFFFFFFFFFFFFFFFFF AND DUP2 MSTORE PUSH1 0x20 ADD SWAP1 DUP2 MSTORE PUSH1 0x20 ADD PUSH1 0x0 KECCAK256 PUSH1 0x0 PUSH2 0x100 EXP DUP2 SLOAD DUP2 PUSH1 0xFF MUL NOT AND SWAP1 DUP4 ISZERO ISZERO MUL OR SWAP1 SSTORE POP POP POP POP JUMP JUMPDEST DUP2 DUP1 PUSH1 0x4 PUSH1 0x0 DUP4 DUP2 MSTORE PUSH1 0x20 ADD SWAP1 DUP2 MSTORE PUSH1 0x20 ADD PUSH1 0x0 KECCAK256 PUSH1 0x0 ADD SLOAD EQ PUSH2 0x13B3 JUMPI PUSH1 0x40 MLOAD PUSH32 0x8C379A000000000000000000000000000000000000000000000000000000000 DUP2 MSTORE PUSH1 0x4 ADD PUSH2 0x13AA SWAP1 PUSH2 0x3968 JUMP JUMPDEST PUSH1 0x40 MLOAD DUP1 SWAP2 SUB SWAP1 REVERT JUMPDEST PUSH1 0x0 DUP1 SLOAD SWAP1 PUSH2 0x100 EXP SWAP1 DIV PUSH20 0xFFFFFFFFFFFFFFFFFFFFFFFFFFFFFFFFFFFFFFFF AND PUSH20 0xFFFFFFFFFFFFFFFFFFFFFFFFFFFFFFFFFFFFFFFF AND CALLER PUSH20 0xFFFFFFFFFFFFFFFFFFFFFFFFFFFFFFFFFFFFFFFF AND EQ PUSH2 0x1441 JUMPI PUSH1 0x40 MLOAD PUSH32 0x8C379A000000000000000000000000000000000000000000000000000000000 DUP2 MSTORE PUSH1 0x4 ADD PUSH2 0x1438 SWAP1 PUSH2 0x3828 JUMP JUMPDEST PUSH1 0x40 MLOAD DUP1 SWAP2 SUB SWAP1 REVERT JUMPDEST PUSH1 0x4 PUSH1 0x0 DUP5 DUP2 MSTORE PUSH1 0x20 ADD SWAP1 DUP2 MSTORE PUSH1 0x20 ADD PUSH1 0x0 KECCAK256 PUSH1 0x5 ADD PUSH1 0x0 DUP4 PUSH20 0xFFFFFFFFFFFFFFFFFFFFFFFFFFFFFFFFFFFFFFFF AND PUSH20 0xFFFFFFFFFFFFFFFFFFFFFFFFFFFFFFFFFFFFFFFF AND DUP2 MSTORE PUSH1 0x20 ADD SWAP1 DUP2 MSTORE PUSH1 0x20 ADD PUSH1 0x0 KECCAK256 PUSH1 0x0 SWAP1 SLOAD SWAP1 PUSH2 0x100 EXP SWAP1 DIV PUSH1 0xFF AND PUSH2 0x14E1 JUMPI PUSH1 0x40 MLOAD PUSH32 0x8C379A000000000000000000000000000000000000000000000000000000000 DUP2 MSTORE PUSH1 0x4 ADD PUSH2 0x14D8 SWAP1 PUSH2 0x38C8 JUMP JUMPDEST PUSH1 0x40 MLOAD DUP1 SWAP2 SUB SWAP1 REVERT JUMPDEST PUSH1 0x0 PUSH1 0x4 PUSH1 0x0 DUP6 DUP2 MSTORE PUSH1 0x20 ADD SWAP1 DUP2 MSTORE PUSH1 0x20 ADD PUSH1 0x0 KECCAK256 PUSH1 0x5 ADD PUSH1 0x0 DUP5 PUSH20 0xFFFFFFFFFFFFFFFFFFFFFFFFFFFFFFFFFFFFFFFF AND PUSH20 0xFFFFFFFFFFFFFFFFFFFFFFFFFFFFFFFFFFFFFFFF AND DUP2 MSTORE PUSH1 0x20 ADD SWAP1 DUP2 MSTORE PUSH1 0x20 ADD PUSH1 0x0 KECCAK256 PUSH1 0x0 PUSH2 0x100 EXP DUP2 SLOAD DUP2 PUSH1 0xFF MUL NOT AND SWAP1 DUP4 ISZERO ISZERO MUL OR SWAP1 SSTORE POP POP POP POP JUMP JUMPDEST PUSH1 0x0 DUP1 PUSH1 0x0 SWAP1 POP JUMPDEST PUSH1 0x1 SLOAD DUP2 LT ISZERO PUSH2 0x167A JUMPI PUSH1 0x0 PUSH1 0x4 PUSH1 0x0 DUP4 DUP2 MSTORE PUSH1 0x20 ADD SWAP1 DUP2 MSTORE PUSH1 0x20 ADD PUSH1 0x0 KECCAK256 SWAP1 POP PUSH1 0x0 JUMPDEST DUP2 PUSH1 0x3 ADD DUP1 SLOAD SWAP1 POP DUP2 LT ISZERO PUSH2 0x1665 JUMPI PUSH1 0x0 DUP3 PUSH1 0x3 ADD DUP3 DUP2 SLOAD DUP2 LT PUSH2 0x15CB JUMPI PUSH32 0x4E487B7100000000000000000000000000000000000000000000000000000000 PUSH1 0x0 MSTORE PUSH1 0x32 PUSH1 0x4 MSTORE PUSH1 0x24 PUSH1 0x0 REVERT JUMPDEST SWAP1 PUSH1 0x0 MSTORE PUSH1 0x20 PUSH1 0x0 KECCAK256 ADD SLOAD SWAP1 POP DUP6 PUSH20 0xFFFFFFFFFFFFFFFFFFFFFFFFFFFFFFFFFFFFFFFF AND DUP4 PUSH1 0x2 ADD PUSH1 0x0 DUP4 DUP2 MSTORE PUSH1 0x20 ADD SWAP1 DUP2 MSTORE PUSH1 0x20 ADD PUSH1 0x0 KECCAK256 PUSH1 0x2 ADD PUSH1 0x0 SWAP1 SLOAD SWAP1 PUSH2 0x100 EXP SWAP1 DIV PUSH20 0xFFFFFFFFFFFFFFFFFFFFFFFFFFFFFFFFFFFFFFFF AND PUSH20 0xFFFFFFFFFFFFFFFFFFFFFFFFFFFFFFFFFFFFFFFF AND EQ ISZERO PUSH2 0x1651 JUMPI PUSH1 0x1 SWAP5 POP POP POP POP POP PUSH2 0x1680 JUMP JUMPDEST POP DUP1 DUP1 PUSH2 0x165D SWAP1 PUSH2 0x4022 JUMP JUMPDEST SWAP2 POP POP PUSH2 0x157E JUMP JUMPDEST POP POP DUP1 DUP1 PUSH2 0x1672 SWAP1 PUSH2 0x4022 JUMP JUMPDEST SWAP2 POP POP PUSH2 0x155A JUMP JUMPDEST POP PUSH1 0x0 SWAP1 POP JUMPDEST SWAP2 SWAP1 POP JUMP JUMPDEST PUSH1 0x0 PUSH1 0x5 PUSH1 0x0 DUP4 DUP2 MSTORE PUSH1 0x20 ADD SWAP1 DUP2 MSTORE PUSH1 0x20 ADD PUSH1 0x0 KECCAK256 SWAP1 POP PUSH1 0x0 PUSH20 0xFFFFFFFFFFFFFFFFFFFFFFFFFFFFFFFFFFFFFFFF AND DUP2 PUSH1 0x0 ADD PUSH1 0x0 SWAP1 SLOAD SWAP1 PUSH2 0x100 EXP SWAP1 DIV PUSH20 0xFFFFFFFFFFFFFFFFFFFFFFFFFFFFFFFFFFFFFFFF AND PUSH20 0xFFFFFFFFFFFFFFFFFFFFFFFFFFFFFFFFFFFFFFFF AND EQ ISZERO PUSH2 0x1730 JUMPI PUSH1 0x40 MLOAD PUSH32 0x8C379A000000000000000000000000000000000000000000000000000000000 DUP2 MSTORE PUSH1 0x4 ADD PUSH2 0x1727 SWAP1 PUSH2 0x3748 JUMP JUMPDEST PUSH1 0x40 MLOAD DUP1 SWAP2 SUB SWAP1 REVERT JUMPDEST DUP1 PUSH1 0x2 ADD PUSH1 0x14 SWAP1 SLOAD SWAP1 PUSH2 0x100 EXP SWAP1 DIV PUSH1 0xFF AND ISZERO PUSH2 0x1782 JUMPI PUSH1 0x40 MLOAD PUSH32 0x8C379A000000000000000000000000000000000000000000000000000000000 DUP2 MSTORE PUSH1 0x4 ADD PUSH2 0x1779 SWAP1 PUSH2 0x3788 JUMP JUMPDEST PUSH1 0x40 MLOAD DUP1 SWAP2 SUB SWAP1 REVERT JUMPDEST DUP1 PUSH1 0x2 ADD PUSH1 0x0 SWAP1 SLOAD SWAP1 PUSH2 0x100 EXP SWAP1 DIV PUSH20 0xFFFFFFFFFFFFFFFFFFFFFFFFFFFFFFFFFFFFFFFF AND PUSH20 0xFFFFFFFFFFFFFFFFFFFFFFFFFFFFFFFFFFFFFFFF AND CALLER PUSH20 0xFFFFFFFFFFFFFFFFFFFFFFFFFFFFFFFFFFFFFFFF AND EQ DUP1 PUSH2 0x182B JUMPI POP PUSH1 0x0 DUP1 SLOAD SWAP1 PUSH2 0x100 EXP SWAP1 DIV PUSH20 0xFFFFFFFFFFFFFFFFFFFFFFFFFFFFFFFFFFFFFFFF AND PUSH20 0xFFFFFFFFFFFFFFFFFFFFFFFFFFFFFFFFFFFFFFFF AND CALLER PUSH20 0xFFFFFFFFFFFFFFFFFFFFFFFFFFFFFFFFFFFFFFFF AND EQ JUMPDEST PUSH2 0x186A JUMPI PUSH1 0x40 MLOAD PUSH32 0x8C379A000000000000000000000000000000000000000000000000000000000 DUP2 MSTORE PUSH1 0x4 ADD PUSH2 0x1861 SWAP1 PUSH2 0x37A8 JUMP JUMPDEST PUSH1 0x40 MLOAD DUP1 SWAP2 SUB SWAP1 REVERT JUMPDEST PUSH1 0x1 DUP2 PUSH1 0x2 ADD PUSH1 0x14 PUSH2 0x100 EXP DUP2 SLOAD DUP2 PUSH1 0xFF MUL NOT AND SWAP1 DUP4 ISZERO ISZERO MUL OR SWAP1 SSTORE POP PUSH1 0x1 PUSH1 0x7 PUSH1 0x0 DUP4 PUSH1 0x2 ADD PUSH1 0x0 SWAP1 SLOAD SWAP1 PUSH2 0x100 EXP SWAP1 DIV PUSH20 0xFFFFFFFFFFFFFFFFFFFFFFFFFFFFFFFFFFFFFFFF AND PUSH20 0xFFFFFFFFFFFFFFFFFFFFFFFFFFFFFFFFFFFFFFFF AND PUSH20 0xFFFFFFFFFFFFFFFFFFFFFFFFFFFFFFFFFFFFFFFF AND DUP2 MSTORE PUSH1 0x20 ADD SWAP1 DUP2 MSTORE PUSH1 0x20 ADD PUSH1 0x0 KECCAK256 PUSH1 0x0 DUP4 PUSH1 0x1 ADD SLOAD DUP2 MSTORE PUSH1 0x20 ADD SWAP1 DUP2 MSTORE PUSH1 0x20 ADD PUSH1 0x0 KECCAK256 PUSH1 0x0 PUSH2 0x100 EXP DUP2 SLOAD DUP2 PUSH1 0xFF MUL NOT AND SWAP1 DUP4 ISZERO ISZERO MUL OR SWAP1 SSTORE POP DUP1 PUSH1 0x2 ADD PUSH1 0x0 SWAP1 SLOAD SWAP1 PUSH2 0x100 EXP SWAP1 DIV PUSH20 0xFFFFFFFFFFFFFFFFFFFFFFFFFFFFFFFFFFFFFFFF AND PUSH20 0xFFFFFFFFFFFFFFFFFFFFFFFFFFFFFFFFFFFFFFFF AND DUP3 PUSH32 0x189199877AC49C708164C69193136769411BAAEDCC0FFC4660AD59CC1111C030 DUP4 PUSH1 0x1 ADD SLOAD PUSH1 0x40 MLOAD PUSH2 0x1987 SWAP2 SWAP1 PUSH2 0x3988 JUMP JUMPDEST PUSH1 0x40 MLOAD DUP1 SWAP2 SUB SWAP1 LOG3 POP POP JUMP JUMPDEST PUSH1 0x9 PUSH1 0x20 MSTORE DUP2 PUSH1 0x0 MSTORE PUSH1 0x40 PUSH1 0x0 KECCAK256 PUSH1 0x20 MSTORE DUP1 PUSH1 0x0 MSTORE PUSH1 0x40 PUSH1 0x0 KECCAK256 PUSH1 0x0 SWAP2 POP SWAP2 POP SWAP1 SLOAD SWAP1 PUSH2 0x100 EXP SWAP1 DIV PUSH1 0xFF AND DUP2 JUMP JUMPDEST PUSH1 0x0 DUP1 PUSH2 0x19DC PUSH3 0x15180 DUP5 PUSH2 0x19D7 SWAP2 SWAP1 PUSH2 0x3CDB JUMP JUMPDEST PUSH2 0x256E JUMP JUMPDEST POP DUP1 SWAP3 POP DUP2 SWAP4 POP POP POP SWAP2 POP SWAP2 JUMP JUMPDEST PUSH1 0x0 PUSH1 0x6 PUSH1 0x0 DUP5 DUP2 MSTORE PUSH1 0x20 ADD SWAP1 DUP2 MSTORE PUSH1 0x20 ADD PUSH1 0x0 KECCAK256 SWAP1 POP PUSH1 0x4 PUSH1 0x0 DUP3 PUSH1 0x1 ADD SLOAD DUP2 MSTORE PUSH1 0x20 ADD SWAP1 DUP2 MSTORE PUSH1 0x20 ADD PUSH1 0x0 KECCAK256 PUSH1 0x2 ADD PUSH1 0x0 DUP3 PUSH1 0x2 ADD SLOAD DUP2 MSTORE PUSH1 0x20 ADD SWAP1 DUP2 MSTORE PUSH1 0x20 ADD PUSH1 0x0 KECCAK256 PUSH1 0x2 ADD PUSH1 0x0 SWAP1 SLOAD SWAP1 PUSH2 0x100 EXP SWAP1 DIV PUSH20 0xFFFFFFFFFFFFFFFFFFFFFFFFFFFFFFFFFFFFFFFF AND PUSH20 0xFFFFFFFFFFFFFFFFFFFFFFFFFFFFFFFFFFFFFFFF AND CALLER PUSH20 0xFFFFFFFFFFFFFFFFFFFFFFFFFFFFFFFFFFFFFFFF AND EQ PUSH2 0x1AC1 JUMPI PUSH1 0x40 MLOAD PUSH32 0x8C379A000000000000000000000000000000000000000000000000000000000 DUP2 MSTORE PUSH1 0x4 ADD PUSH2 0x1AB8 SWAP1 PUSH2 0x37A8 JUMP JUMPDEST PUSH1 0x40 MLOAD DUP1 SWAP2 SUB SWAP1 REVERT JUMPDEST PUSH1 0x0 DUP4 DUP4 PUSH1 0x3 SLOAD PUSH1 0x40 MLOAD PUSH1 0x20 ADD PUSH2 0x1ADA SWAP4 SWAP3 SWAP2 SWAP1 PUSH2 0x359E JUMP JUMPDEST PUSH1 0x40 MLOAD PUSH1 0x20 DUP2 DUP4 SUB SUB DUP2 MSTORE SWAP1 PUSH1 0x40 MSTORE DUP1 MLOAD SWAP1 PUSH1 0x20 ADD KECCAK256 SWAP1 POP PUSH1 0x40 MLOAD DUP1 PUSH1 0x80 ADD PUSH1 0x40 MSTORE DUP1 CALLER PUSH20 0xFFFFFFFFFFFFFFFFFFFFFFFFFFFFFFFFFFFFFFFF AND DUP2 MSTORE PUSH1 0x20 ADD DUP6 DUP2 MSTORE PUSH1 0x20 ADD DUP5 PUSH20 0xFFFFFFFFFFFFFFFFFFFFFFFFFFFFFFFFFFFFFFFF AND DUP2 MSTORE PUSH1 0x20 ADD PUSH1 0x0 ISZERO ISZERO DUP2 MSTORE POP PUSH1 0x5 PUSH1 0x0 DUP4 DUP2 MSTORE PUSH1 0x20 ADD SWAP1 DUP2 MSTORE PUSH1 0x20 ADD PUSH1 0x0 KECCAK256 PUSH1 0x0 DUP3 ADD MLOAD DUP2 PUSH1 0x0 ADD PUSH1 0x0 PUSH2 0x100 EXP DUP2 SLOAD DUP2 PUSH20 0xFFFFFFFFFFFFFFFFFFFFFFFFFFFFFFFFFFFFFFFF MUL NOT AND SWAP1 DUP4 PUSH20 0xFFFFFFFFFFFFFFFFFFFFFFFFFFFFFFFFFFFFFFFF AND MUL OR SWAP1 SSTORE POP PUSH1 0x20 DUP3 ADD MLOAD DUP2 PUSH1 0x1 ADD SSTORE PUSH1 0x40 DUP3 ADD MLOAD DUP2 PUSH1 0x2 ADD PUSH1 0x0 PUSH2 0x100 EXP DUP2 SLOAD DUP2 PUSH20 0xFFFFFFFFFFFFFFFFFFFFFFFFFFFFFFFFFFFFFFFF MUL NOT AND SWAP1 DUP4 PUSH20 0xFFFFFFFFFFFFFFFFFFFFFFFFFFFFFFFFFFFFFFFF AND MUL OR SWAP1 SSTORE POP PUSH1 0x60 DUP3 ADD MLOAD DUP2 PUSH1 0x2 ADD PUSH1 0x14 PUSH2 0x100 EXP DUP2 SLOAD DUP2 PUSH1 0xFF MUL NOT AND SWAP1 DUP4 ISZERO ISZERO MUL OR SWAP1 SSTORE POP SWAP1 POP POP PUSH1 0x3 PUSH1 0x0 DUP2 SLOAD DUP1 SWAP3 SWAP2 SWAP1 PUSH2 0x1C23 SWAP1 PUSH2 0x4022 JUMP JUMPDEST SWAP2 SWAP1 POP SSTORE POP POP POP POP POP JUMP JUMPDEST PUSH1 0x5 DUP2 JUMP JUMPDEST PUSH1 0x0 PUSH1 0x6 PUSH1 0x0 DUP8 DUP2 MSTORE PUSH1 0x20 ADD SWAP1 DUP2 MSTORE PUSH1 0x20 ADD PUSH1 0x0 KECCAK256 SWAP1 POP PUSH1 0x0 PUSH1 0x4 PUSH1 0x0 DUP4 PUSH1 0x1 ADD SLOAD DUP2 MSTORE PUSH1 0x20 ADD SWAP1 DUP2 MSTORE PUSH1 0x20 ADD PUSH1 0x0 KECCAK256 SWAP1 POP DUP1 PUSH1 0x5 ADD PUSH1 0x0 CALLER PUSH20 0xFFFFFFFFFFFFFFFFFFFFFFFFFFFFFFFFFFFFFFFF AND PUSH20 0xFFFFFFFFFFFFFFFFFFFFFFFFFFFFFFFFFFFFFFFF AND DUP2 MSTORE PUSH1 0x20 ADD SWAP1 DUP2 MSTORE PUSH1 0x20 ADD PUSH1 0x0 KECCAK256 PUSH1 0x0 SWAP1 SLOAD SWAP1 PUSH2 0x100 EXP SWAP1 DIV PUSH1 0xFF AND PUSH2 0x1CF3 JUMPI PUSH1 0x40 MLOAD PUSH32 0x8C379A000000000000000000000000000000000000000000000000000000000 DUP2 MSTORE PUSH1 0x4 ADD PUSH2 0x1CEA SWAP1 PUSH2 0x38C8 JUMP JUMPDEST PUSH1 0x40 MLOAD DUP1 SWAP2 SUB SWAP1 REVERT JUMPDEST DUP2 PUSH1 0x6 ADD PUSH1 0x0 SWAP1 SLOAD SWAP1 PUSH2 0x100 EXP SWAP1 DIV PUSH1 0xFF AND ISZERO PUSH2 0x1D45 JUMPI PUSH1 0x40 MLOAD PUSH32 0x8C379A000000000000000000000000000000000000000000000000000000000 DUP2 MSTORE PUSH1 0x4 ADD PUSH2 0x1D3C SWAP1 PUSH2 0x3728 JUMP JUMPDEST PUSH1 0x40 MLOAD DUP1 SWAP2 SUB SWAP1 REVERT JUMPDEST DUP2 PUSH1 0x5 ADD SLOAD TIMESTAMP GT ISZERO PUSH2 0x1D8C JUMPI PUSH1 0x40 MLOAD PUSH32 0x8C379A000000000000000000000000000000000000000000000000000000000 DUP2 MSTORE PUSH1 0x4 ADD PUSH2 0x1D83 SWAP1 PUSH2 0x3948 JUMP JUMPDEST PUSH1 0x40 MLOAD DUP1 SWAP2 SUB SWAP1 REVERT JUMPDEST PUSH1 0x7 PUSH1 0x0 CALLER PUSH20 0xFFFFFFFFFFFFFFFFFFFFFFFFFFFFFFFFFFFFFFFF AND PUSH20 0xFFFFFFFFFFFFFFFFFFFFFFFFFFFFFFFFFFFFFFFF AND DUP2 MSTORE PUSH1 0x20 ADD SWAP1 DUP2 MSTORE PUSH1 0x20 ADD PUSH1 0x0 KECCAK256 PUSH1 0x0 DUP9 DUP2 MSTORE PUSH1 0x20 ADD SWAP1 DUP2 MSTORE PUSH1 0x20 ADD PUSH1 0x0 KECCAK256 PUSH1 0x0 SWAP1 SLOAD SWAP1 PUSH2 0x100 EXP SWAP1 DIV PUSH1 0xFF AND ISZERO PUSH2 0x1E2A JUMPI PUSH1 0x40 MLOAD PUSH32 0x8C379A000000000000000000000000000000000000000000000000000000000 DUP2 MSTORE PUSH1 0x4 ADD PUSH2 0x1E21 SWAP1 PUSH2 0x3928 JUMP JUMPDEST PUSH1 0x40 MLOAD DUP1 SWAP2 SUB SWAP1 REVERT JUMPDEST PUSH2 0x1E3A DUP7 DUP4 PUSH1 0x3 ADD SLOAD PUSH1 0x5 PUSH2 0x2701 JUMP JUMPDEST PUSH2 0x1E79 JUMPI PUSH1 0x40 MLOAD PUSH32 0x8C379A000000000000000000000000000000000000000000000000000000000 DUP2 MSTORE PUSH1 0x4 ADD PUSH2 0x1E70 SWAP1 PUSH2 0x38A8 JUMP JUMPDEST PUSH1 0x40 MLOAD DUP1 SWAP2 SUB SWAP1 REVERT JUMPDEST PUSH1 0x0 DUP3 PUSH1 0x3 ADD SLOAD DUP4 PUSH1 0x4 ADD SLOAD PUSH1 0x40 MLOAD PUSH1 0x20 ADD PUSH2 0x1E96 SWAP3 SWAP2 SWAP1 PUSH2 0x3511 JUMP JUMPDEST PUSH1 0x40 MLOAD PUSH1 0x20 DUP2 DUP4 SUB SUB DUP2 MSTORE SWAP1 PUSH1 0x40 MSTORE DUP1 MLOAD SWAP1 PUSH1 0x20 ADD KECCAK256 SWAP1 POP PUSH2 0x1EF5 DUP2 DUP7 DUP5 PUSH1 0x2 ADD PUSH1 0x0 DUP8 PUSH1 0x2 ADD SLOAD DUP2 MSTORE PUSH1 0x20 ADD SWAP1 DUP2 MSTORE PUSH1 0x20 ADD PUSH1 0x0 KECCAK256 PUSH1 0x2 ADD PUSH1 0x0 SWAP1 SLOAD SWAP1 PUSH2 0x100 EXP SWAP1 DIV PUSH20 0xFFFFFFFFFFFFFFFFFFFFFFFFFFFFFFFFFFFFFFFF AND PUSH2 0x27C1 JUMP JUMPDEST PUSH2 0x1F34 JUMPI PUSH1 0x40 MLOAD PUSH32 0x8C379A000000000000000000000000000000000000000000000000000000000 DUP2 MSTORE PUSH1 0x4 ADD PUSH2 0x1F2B SWAP1 PUSH2 0x3808 JUMP JUMPDEST PUSH1 0x40 MLOAD DUP1 SWAP2 SUB SWAP1 REVERT JUMPDEST PUSH1 0x0 DUP8 DUP8 PUSH1 0x40 MLOAD PUSH1 0x20 ADD PUSH2 0x1F49 SWAP3 SWAP2 SWAP1 PUSH2 0x3511 JUMP JUMPDEST PUSH1 0x40 MLOAD PUSH1 0x20 DUP2 DUP4 SUB SUB DUP2 MSTORE SWAP1 PUSH1 0x40 MSTORE DUP1 MLOAD SWAP1 PUSH1 0x20 ADD KECCAK256 SWAP1 POP PUSH2 0x1F6C DUP2 DUP7 CALLER PUSH2 0x27C1 JUMP JUMPDEST PUSH2 0x1FAB JUMPI PUSH1 0x40 MLOAD PUSH32 0x8C379A000000000000000000000000000000000000000000000000000000000 DUP2 MSTORE PUSH1 0x4 ADD PUSH2 0x1FA2 SWAP1 PUSH2 0x3908 JUMP JUMPDEST PUSH1 0x40 MLOAD DUP1 SWAP2 SUB SWAP1 REVERT JUMPDEST PUSH1 0x0 DUP7 DUP7 PUSH1 0x40 MLOAD PUSH1 0x20 ADD PUSH2 0x1FC0 SWAP3 SWAP2 SWAP1 PUSH2 0x353D JUMP JUMPDEST PUSH1 0x40 MLOAD PUSH1 0x20 DUP2 DUP4 SUB SUB DUP2 MSTORE SWAP1 PUSH1 0x40 MSTORE DUP1 MLOAD SWAP1 PUSH1 0x20 ADD KECCAK256 SWAP1 POP PUSH1 0xA PUSH1 0x0 DUP3 DUP2 MSTORE PUSH1 0x20 ADD SWAP1 DUP2 MSTORE PUSH1 0x20 ADD PUSH1 0x0 KECCAK256 PUSH1 0x0 SWAP1 SLOAD SWAP1 PUSH2 0x100 EXP SWAP1 DIV PUSH1 0xFF AND ISZERO PUSH2 0x2039 JUMPI PUSH1 0x40 MLOAD PUSH32 0x8C379A000000000000000000000000000000000000000000000000000000000 DUP2 MSTORE PUSH1 0x4 ADD PUSH2 0x2030 SWAP1 PUSH2 0x37C8 JUMP JUMPDEST PUSH1 0x40 MLOAD DUP1 SWAP2 SUB SWAP1 REVERT JUMPDEST PUSH1 0x1 PUSH1 0xA PUSH1 0x0 DUP4 DUP2 MSTORE PUSH1 0x20 ADD SWAP1 DUP2 MSTORE PUSH1 0x20 ADD PUSH1 0x0 KECCAK256 PUSH1 0x0 PUSH2 0x100 EXP DUP2 SLOAD DUP2 PUSH1 0xFF MUL NOT AND SWAP1 DUP4 ISZERO ISZERO MUL OR SWAP1 SSTORE POP PUSH1 0x1 PUSH1 0x7 PUSH1 0x0 CALLER PUSH20 0xFFFFFFFFFFFFFFFFFFFFFFFFFFFFFFFFFFFFFFFF AND PUSH20 0xFFFFFFFFFFFFFFFFFFFFFFFFFFFFFFFFFFFFFFFF AND DUP2 MSTORE PUSH1 0x20 ADD SWAP1 DUP2 MSTORE PUSH1 0x20 ADD PUSH1 0x0 KECCAK256 PUSH1 0x0 DUP13 DUP2 MSTORE PUSH1 0x20 ADD SWAP1 DUP2 MSTORE PUSH1 0x20 ADD PUSH1 0x0 KECCAK256 PUSH1 0x0 PUSH2 0x100 EXP DUP2 SLOAD DUP2 PUSH1 0xFF MUL NOT AND SWAP1 DUP4 ISZERO ISZERO MUL OR SWAP1 SSTORE POP PUSH32 0x8841D9F49345D61EFC842E9624F59B54162B3C8ACF4E384FD425957A2BE55D86 CALLER DUP12 PUSH1 0x40 MLOAD PUSH2 0x20FF SWAP3 SWAP2 SWAP1 PUSH2 0x35F6 JUMP JUMPDEST PUSH1 0x40 MLOAD DUP1 SWAP2 SUB SWAP1 LOG1 POP POP POP POP POP POP POP POP POP POP JUMP JUMPDEST PUSH1 0x60 PUSH1 0x0 DUP1 PUSH1 0x0 SWAP1 POP JUMPDEST PUSH1 0x1 SLOAD DUP2 LT ISZERO PUSH2 0x221B JUMPI PUSH1 0x0 PUSH1 0x4 PUSH1 0x0 DUP4 DUP2 MSTORE PUSH1 0x20 ADD SWAP1 DUP2 MSTORE PUSH1 0x20 ADD PUSH1 0x0 KECCAK256 SWAP1 POP PUSH1 0x0 JUMPDEST DUP2 PUSH1 0x3 ADD DUP1 SLOAD SWAP1 POP DUP2 LT ISZERO PUSH2 0x2206 JUMPI PUSH1 0x0 DUP3 PUSH1 0x3 ADD DUP3 DUP2 SLOAD DUP2 LT PUSH2 0x218E JUMPI PUSH32 0x4E487B7100000000000000000000000000000000000000000000000000000000 PUSH1 0x0 MSTORE PUSH1 0x32 PUSH1 0x4 MSTORE PUSH1 0x24 PUSH1 0x0 REVERT JUMPDEST SWAP1 PUSH1 0x0 MSTORE PUSH1 0x20 PUSH1 0x0 KECCAK256 ADD SLOAD SWAP1 POP PUSH1 0x0 DUP4 PUSH1 0x2 ADD PUSH1 0x0 DUP4 DUP2 MSTORE PUSH1 0x20 ADD SWAP1 DUP2 MSTORE PUSH1 0x20 ADD PUSH1 0x0 KECCAK256 SWAP1 POP DUP8 DUP1 MLOAD SWAP1 PUSH1 0x20 ADD KECCAK256 DUP2 PUSH1 0x1 ADD PUSH1 0x40 MLOAD PUSH2 0x21CD SWAP2 SWAP1 PUSH2 0x3561 JUMP JUMPDEST PUSH1 0x40 MLOAD DUP1 SWAP2 SUB SWAP1 KECCAK256 EQ ISZERO PUSH2 0x21F1 JUMPI DUP1 PUSH1 0x3 ADD DUP1 SLOAD SWAP1 POP DUP7 PUSH2 0x21EE SWAP2 SWAP1 PUSH2 0x3C1B JUMP JUMPDEST SWAP6 POP JUMPDEST POP POP DUP1 DUP1 PUSH2 0x21FE SWAP1 PUSH2 0x4022 JUMP JUMPDEST SWAP2 POP POP PUSH2 0x2141 JUMP JUMPDEST POP POP DUP1 DUP1 PUSH2 0x2213 SWAP1 PUSH2 0x4022 JUMP JUMPDEST SWAP2 POP POP PUSH2 0x211D JUMP JUMPDEST POP PUSH1 0x0 DUP2 PUSH8 0xFFFFFFFFFFFFFFFF DUP2 GT ISZERO PUSH2 0x225E JUMPI PUSH32 0x4E487B7100000000000000000000000000000000000000000000000000000000 PUSH1 0x0 MSTORE PUSH1 0x41 PUSH1 0x4 MSTORE PUSH1 0x24 PUSH1 0x0 REVERT JUMPDEST PUSH1 0x40 MLOAD SWAP1 DUP1 DUP3 MSTORE DUP1 PUSH1 0x20 MUL PUSH1 0x20 ADD DUP3 ADD PUSH1 0x40 MSTORE DUP1 ISZERO PUSH2 0x228C JUMPI DUP2 PUSH1 0x20 ADD PUSH1 0x20 DUP3 MUL DUP1 CALLDATASIZE DUP4 CALLDATACOPY DUP1 DUP3 ADD SWAP2 POP POP SWAP1 POP JUMPDEST POP SWAP1 POP PUSH1 0x0 DUP1 PUSH1 0x0 SWAP1 POP JUMPDEST PUSH1 0x1 SLOAD DUP2 LT ISZERO PUSH2 0x2440 JUMPI PUSH1 0x0 PUSH1 0x4 PUSH1 0x0 DUP4 DUP2 MSTORE PUSH1 0x20 ADD SWAP1 DUP2 MSTORE PUSH1 0x20 ADD PUSH1 0x0 KECCAK256 SWAP1 POP PUSH1 0x0 JUMPDEST DUP2 PUSH1 0x3 ADD DUP1 SLOAD SWAP1 POP DUP2 LT ISZERO PUSH2 0x242B JUMPI PUSH1 0x0 DUP3 PUSH1 0x3 ADD DUP3 DUP2 SLOAD DUP2 LT PUSH2 0x2308 JUMPI PUSH32 0x4E487B7100000000000000000000000000000000000000000000000000000000 PUSH1 0x0 MSTORE PUSH1 0x32 PUSH1 0x4 MSTORE PUSH1 0x24 PUSH1 0x0 REVERT JUMPDEST SWAP1 PUSH1 0x0 MSTORE PUSH1 0x20 PUSH1 0x0 KECCAK256 ADD SLOAD SWAP1 POP PUSH1 0x0 DUP4 PUSH1 0x2 ADD PUSH1 0x0 DUP4 DUP2 MSTORE PUSH1 0x20 ADD SWAP1 DUP2 MSTORE PUSH1 0x20 ADD PUSH1 0x0 KECCAK256 SWAP1 POP DUP10 DUP1 MLOAD SWAP1 PUSH1 0x20 ADD KECCAK256 DUP2 PUSH1 0x1 ADD PUSH1 0x40 MLOAD PUSH2 0x2347 SWAP2 SWAP1 PUSH2 0x3561 JUMP JUMPDEST PUSH1 0x40 MLOAD DUP1 SWAP2 SUB SWAP1 KECCAK256 EQ ISZERO PUSH2 0x2416 JUMPI PUSH1 0x0 JUMPDEST DUP2 PUSH1 0x3 ADD DUP1 SLOAD SWAP1 POP DUP2 LT ISZERO PUSH2 0x2414 JUMPI DUP2 PUSH1 0x3 ADD DUP2 DUP2 SLOAD DUP2 LT PUSH2 0x23A3 JUMPI PUSH32 0x4E487B7100000000000000000000000000000000000000000000000000000000 PUSH1 0x0 MSTORE PUSH1 0x32 PUSH1 0x4 MSTORE PUSH1 0x24 PUSH1 0x0 REVERT JUMPDEST SWAP1 PUSH1 0x0 MSTORE PUSH1 0x20 PUSH1 0x0 KECCAK256 ADD SLOAD DUP9 DUP9 DUP2 MLOAD DUP2 LT PUSH2 0x23E7 JUMPI PUSH32 0x4E487B7100000000000000000000000000000000000000000000000000000000 PUSH1 0x0 MSTORE PUSH1 0x32 PUSH1 0x4 MSTORE PUSH1 0x24 PUSH1 0x0 REVERT JUMPDEST PUSH1 0x20 MUL PUSH1 0x20 ADD ADD DUP2 DUP2 MSTORE POP POP DUP7 DUP1 PUSH2 0x23FE SWAP1 PUSH2 0x4022 JUMP JUMPDEST SWAP8 POP POP DUP1 DUP1 PUSH2 0x240C SWAP1 PUSH2 0x4022 JUMP JUMPDEST SWAP2 POP POP PUSH2 0x2358 JUMP JUMPDEST POP JUMPDEST POP POP DUP1 DUP1 PUSH2 0x2423 SWAP1 PUSH2 0x4022 JUMP JUMPDEST SWAP2 POP POP PUSH2 0x22BB JUMP JUMPDEST POP POP DUP1 DUP1 PUSH2 0x2438 SWAP1 PUSH2 0x4022 JUMP JUMPDEST SWAP2 POP POP PUSH2 0x2297 JUMP JUMPDEST POP DUP2 SWAP4 POP POP POP POP SWAP2 SWAP1 POP JUMP JUMPDEST PUSH1 0x1 SLOAD DUP2 JUMP JUMPDEST PUSH1 0x0 PUSH1 0x6 PUSH1 0x0 DUP4 DUP2 MSTORE PUSH1 0x20 ADD SWAP1 DUP2 MSTORE PUSH1 0x20 ADD PUSH1 0x0 KECCAK256 SWAP1 POP PUSH1 0x4 PUSH1 0x0 DUP3 PUSH1 0x1 ADD SLOAD DUP2 MSTORE PUSH1 0x20 ADD SWAP1 DUP2 MSTORE PUSH1 0x20 ADD PUSH1 0x0 KECCAK256 PUSH1 0x2 ADD PUSH1 0x0 DUP3 PUSH1 0x2 ADD SLOAD DUP2 MSTORE PUSH1 0x20 ADD SWAP1 DUP2 MSTORE PUSH1 0x20 ADD PUSH1 0x0 KECCAK256 PUSH1 0x2 ADD PUSH1 0x0 SWAP1 SLOAD SWAP1 PUSH2 0x100 EXP SWAP1 DIV PUSH20 0xFFFFFFFFFFFFFFFFFFFFFFFFFFFFFFFFFFFFFFFF AND PUSH20 0xFFFFFFFFFFFFFFFFFFFFFFFFFFFFFFFFFFFFFFFF AND CALLER PUSH20 0xFFFFFFFFFFFFFFFFFFFFFFFFFFFFFFFFFFFFFFFF AND EQ PUSH2 0x2529 JUMPI PUSH1 0x40 MLOAD PUSH32 0x8C379A000000000000000000000000000000000000000000000000000000000 DUP2 MSTORE PUSH1 0x4 ADD PUSH2 0x2520 SWAP1 PUSH2 0x37A8 JUMP JUMPDEST PUSH1 0x40 MLOAD DUP1 SWAP2 SUB SWAP1 REVERT JUMPDEST PUSH1 0x1 DUP2 PUSH1 0x6 ADD PUSH1 0x0 PUSH2 0x100 EXP DUP2 SLOAD DUP2 PUSH1 0xFF MUL NOT AND SWAP1 DUP4 ISZERO ISZERO MUL OR SWAP1 SSTORE POP POP POP JUMP JUMPDEST PUSH1 0x0 DUP1 SLOAD SWAP1 PUSH2 0x100 EXP SWAP1 DIV PUSH20 0xFFFFFFFFFFFFFFFFFFFFFFFFFFFFFFFFFFFFFFFF AND DUP2 JUMP JUMPDEST PUSH1 0x0 DUP1 PUSH1 0x0 DUP1 DUP5 SWAP1 POP PUSH1 0x0 PUSH3 0x253D8C PUSH3 0x10BD9 DUP4 PUSH2 0x258C SWAP2 SWAP1 PUSH2 0x3B87 JUMP JUMPDEST PUSH2 0x2596 SWAP2 SWAP1 PUSH2 0x3B87 JUMP JUMPDEST SWAP1 POP PUSH1 0x0 PUSH3 0x23AB1 DUP3 PUSH1 0x4 PUSH2 0x25AB SWAP2 SWAP1 PUSH2 0x3D0C JUMP JUMPDEST PUSH2 0x25B5 SWAP2 SWAP1 PUSH2 0x3C71 JUMP JUMPDEST SWAP1 POP PUSH1 0x4 PUSH1 0x3 DUP3 PUSH3 0x23AB1 PUSH2 0x25CA SWAP2 SWAP1 PUSH2 0x3D0C JUMP JUMPDEST PUSH2 0x25D4 SWAP2 SWAP1 PUSH2 0x3B87 JUMP JUMPDEST PUSH2 0x25DE SWAP2 SWAP1 PUSH2 0x3C71 JUMP JUMPDEST DUP3 PUSH2 0x25E9 SWAP2 SWAP1 PUSH2 0x3E7D JUMP JUMPDEST SWAP2 POP PUSH1 0x0 PUSH3 0x164B09 PUSH1 0x1 DUP5 PUSH2 0x25FE SWAP2 SWAP1 PUSH2 0x3B87 JUMP JUMPDEST PUSH2 0xFA0 PUSH2 0x260B SWAP2 SWAP1 PUSH2 0x3D0C JUMP JUMPDEST PUSH2 0x2615 SWAP2 SWAP1 PUSH2 0x3C71 JUMP JUMPDEST SWAP1 POP PUSH1 0x1F PUSH1 0x4 DUP3 PUSH2 0x5B5 PUSH2 0x2629 SWAP2 SWAP1 PUSH2 0x3D0C JUMP JUMPDEST PUSH2 0x2633 SWAP2 SWAP1 PUSH2 0x3C71 JUMP JUMPDEST DUP5 PUSH2 0x263E SWAP2 SWAP1 PUSH2 0x3E7D JUMP JUMPDEST PUSH2 0x2648 SWAP2 SWAP1 PUSH2 0x3B87 JUMP JUMPDEST SWAP3 POP PUSH1 0x0 PUSH2 0x98F DUP5 PUSH1 0x50 PUSH2 0x265C SWAP2 SWAP1 PUSH2 0x3D0C JUMP JUMPDEST PUSH2 0x2666 SWAP2 SWAP1 PUSH2 0x3C71 JUMP JUMPDEST SWAP1 POP PUSH1 0x50 DUP2 PUSH2 0x98F PUSH2 0x2678 SWAP2 SWAP1 PUSH2 0x3D0C JUMP JUMPDEST PUSH2 0x2682 SWAP2 SWAP1 PUSH2 0x3C71 JUMP JUMPDEST DUP5 PUSH2 0x268D SWAP2 SWAP1 PUSH2 0x3E7D JUMP JUMPDEST SWAP6 POP PUSH1 0xB DUP2 PUSH2 0x269C SWAP2 SWAP1 PUSH2 0x3C71 JUMP JUMPDEST SWAP4 POP DUP4 PUSH1 0xC PUSH2 0x26AB SWAP2 SWAP1 PUSH2 0x3D0C JUMP JUMPDEST PUSH1 0x2 DUP3 PUSH2 0x26B8 SWAP2 SWAP1 PUSH2 0x3B87 JUMP JUMPDEST PUSH2 0x26C2 SWAP2 SWAP1 PUSH2 0x3E7D JUMP JUMPDEST SWAP7 POP DUP4 DUP3 PUSH1 0x31 DUP6 PUSH2 0x26D3 SWAP2 SWAP1 PUSH2 0x3E7D JUMP JUMPDEST PUSH1 0x64 PUSH2 0x26DF SWAP2 SWAP1 PUSH2 0x3D0C JUMP JUMPDEST PUSH2 0x26E9 SWAP2 SWAP1 PUSH2 0x3B87 JUMP JUMPDEST PUSH2 0x26F3 SWAP2 SWAP1 PUSH2 0x3B87 JUMP JUMPDEST SWAP8 POP POP POP POP POP POP SWAP2 SWAP4 SWAP1 SWAP3 POP JUMP JUMPDEST PUSH1 0x0 PUSH1 0x20 DUP3 GT ISZERO PUSH2 0x2747 JUMPI PUSH1 0x40 MLOAD PUSH32 0x8C379A000000000000000000000000000000000000000000000000000000000 DUP2 MSTORE PUSH1 0x4 ADD PUSH2 0x273E SWAP1 PUSH2 0x3848 JUMP JUMPDEST PUSH1 0x40 MLOAD DUP1 SWAP2 SUB SWAP1 REVERT JUMPDEST PUSH1 0x0 DUP3 EQ ISZERO PUSH2 0x2759 JUMPI PUSH1 0x1 SWAP1 POP PUSH2 0x27BA JUMP JUMPDEST PUSH1 0x0 PUSH32 0xFFFFFFFFFFFFFFFFFFFFFFFFFFFFFFFFFFFFFFFFFFFFFFFFFFFFFFFFFFFFFFFF PUSH1 0x0 SHL PUSH1 0x1 PUSH1 0x8 DUP6 PUSH2 0x278E SWAP2 SWAP1 PUSH2 0x3E23 JUMP JUMPDEST PUSH2 0x100 PUSH2 0x279B SWAP2 SWAP1 PUSH2 0x3F11 JUMP JUMPDEST PUSH1 0x1 SWAP1 SHL PUSH2 0x27A9 SWAP2 SWAP1 PUSH2 0x3F11 JUMP JUMPDEST PUSH1 0x0 SHL XOR SWAP1 POP DUP1 DUP5 AND DUP2 DUP7 AND EQ SWAP2 POP POP JUMPDEST SWAP4 SWAP3 POP POP POP JUMP JUMPDEST PUSH1 0x0 DUP1 DUP5 PUSH1 0x40 MLOAD PUSH1 0x20 ADD PUSH2 0x27D5 SWAP2 SWAP1 PUSH2 0x3578 JUMP JUMPDEST PUSH1 0x40 MLOAD PUSH1 0x20 DUP2 DUP4 SUB SUB DUP2 MSTORE SWAP1 PUSH1 0x40 MSTORE DUP1 MLOAD SWAP1 PUSH1 0x20 ADD KECCAK256 SWAP1 POP PUSH1 0x0 DUP1 PUSH1 0x0 PUSH2 0x27FB DUP8 PUSH2 0x288B JUMP JUMPDEST SWAP3 POP SWAP3 POP SWAP3 POP DUP6 PUSH20 0xFFFFFFFFFFFFFFFFFFFFFFFFFFFFFFFFFFFFFFFF AND PUSH1 0x1 DUP6 DUP4 DUP7 DUP7 PUSH1 0x40 MLOAD PUSH1 0x0 DUP2 MSTORE PUSH1 0x20 ADD PUSH1 0x40 MSTORE PUSH1 0x40 MLOAD PUSH2 0x283B SWAP5 SWAP4 SWAP3 SWAP2 SWAP1 PUSH2 0x36A1 JUMP JUMPDEST PUSH1 0x20 PUSH1 0x40 MLOAD PUSH1 0x20 DUP2 SUB SWAP1 DUP1 DUP5 SUB SWAP1 DUP6 GAS STATICCALL ISZERO DUP1 ISZERO PUSH2 0x285D JUMPI RETURNDATASIZE PUSH1 0x0 DUP1 RETURNDATACOPY RETURNDATASIZE PUSH1 0x0 REVERT JUMPDEST POP POP POP PUSH1 0x20 PUSH1 0x40 MLOAD SUB MLOAD PUSH20 0xFFFFFFFFFFFFFFFFFFFFFFFFFFFFFFFFFFFFFFFF AND EQ SWAP5 POP POP POP POP POP SWAP4 SWAP3 POP POP POP JUMP JUMPDEST PUSH1 0x0 DUP1 PUSH1 0x0 PUSH1 0x41 DUP5 MLOAD EQ PUSH2 0x28D4 JUMPI PUSH1 0x40 MLOAD PUSH32 0x8C379A000000000000000000000000000000000000000000000000000000000 DUP2 MSTORE PUSH1 0x4 ADD PUSH2 0x28CB SWAP1 PUSH2 0x38E8 JUMP JUMPDEST PUSH1 0x40 MLOAD DUP1 SWAP2 SUB SWAP1 REVERT JUMPDEST PUSH1 0x20 DUP5 ADD MLOAD SWAP3 POP PUSH1 0x40 DUP5 ADD MLOAD SWAP2 POP PUSH1 0x60 DUP5 ADD MLOAD PUSH1 0x0 BYTE SWAP1 POP SWAP2 SWAP4 SWAP1 SWAP3 POP JUMP JUMPDEST DUP3 DUP1 SLOAD PUSH2 0x28FF SWAP1 PUSH2 0x3FF0 JUMP JUMPDEST SWAP1 PUSH1 0x0 MSTORE PUSH1 0x20 PUSH1 0x0 KECCAK256 SWAP1 PUSH1 0x1F ADD PUSH1 0x20 SWAP1 DIV DUP2 ADD SWAP3 DUP3 PUSH2 0x2921 JUMPI PUSH1 0x0 DUP6 SSTORE PUSH2 0x2968 JUMP JUMPDEST DUP3 PUSH1 0x1F LT PUSH2 0x293A JUMPI DUP1 MLOAD PUSH1 0xFF NOT AND DUP4 DUP1 ADD OR DUP6 SSTORE PUSH2 0x2968 JUMP JUMPDEST DUP3 DUP1 ADD PUSH1 0x1 ADD DUP6 SSTORE DUP3 ISZERO PUSH2 0x2968 JUMPI SWAP2 DUP3 ADD JUMPDEST DUP3 DUP2 GT ISZERO PUSH2 0x2967 JUMPI DUP3 MLOAD DUP3 SSTORE SWAP2 PUSH1 0x20 ADD SWAP2 SWAP1 PUSH1 0x1 ADD SWAP1 PUSH2 0x294C JUMP JUMPDEST JUMPDEST POP SWAP1 POP PUSH2 0x2975 SWAP2 SWAP1 PUSH2 0x29C6 JUMP JUMPDEST POP SWAP1 JUMP JUMPDEST DUP3 DUP1 SLOAD DUP3 DUP3 SSTORE SWAP1 PUSH1 0x0 MSTORE PUSH1 0x20 PUSH1 0x0 KECCAK256 SWAP1 DUP2 ADD SWAP3 DUP3 ISZERO PUSH2 0x29B5 JUMPI SWAP2 PUSH1 0x20 MUL DUP3 ADD JUMPDEST DUP3 DUP2 GT ISZERO PUSH2 0x29B4 JUMPI DUP3 MLOAD DUP3 SSTORE SWAP2 PUSH1 0x20 ADD SWAP2 SWAP1 PUSH1 0x1 ADD SWAP1 PUSH2 0x2999 JUMP JUMPDEST JUMPDEST POP SWAP1 POP PUSH2 0x29C2 SWAP2 SWAP1 PUSH2 0x29C6 JUMP JUMPDEST POP SWAP1 JUMP JUMPDEST JUMPDEST DUP1 DUP3 GT ISZERO PUSH2 0x29DF JUMPI PUSH1 0x0 DUP2 PUSH1 0x0 SWAP1 SSTORE POP PUSH1 0x1 ADD PUSH2 0x29C7 JUMP JUMPDEST POP SWAP1 JUMP JUMPDEST PUSH1 0x0 PUSH2 0x29F6 PUSH2 0x29F1 DUP5 PUSH2 0x3A9C JUMP JUMPDEST PUSH2 0x3A6B JUMP JUMPDEST SWAP1 POP DUP3 DUP2 MSTORE PUSH1 0x20 DUP2 ADD DUP5 DUP5 DUP5 ADD GT ISZERO PUSH2 0x2A0E JUMPI PUSH1 0x0 DUP1 REVERT JUMPDEST PUSH2 0x2A19 DUP5 DUP3 DUP6 PUSH2 0x3FAE JUMP JUMPDEST POP SWAP4 SWAP3 POP POP POP JUMP JUMPDEST PUSH1 0x0 PUSH2 0x2A34 PUSH2 0x2A2F DUP5 PUSH2 0x3ACC JUMP JUMPDEST PUSH2 0x3A6B JUMP JUMPDEST SWAP1 POP DUP3 DUP2 MSTORE PUSH1 0x20 DUP2 ADD DUP5 DUP5 DUP5 ADD GT ISZERO PUSH2 0x2A4C JUMPI PUSH1 0x0 DUP1 REVERT JUMPDEST PUSH2 0x2A57 DUP5 DUP3 DUP6 PUSH2 0x3FAE JUMP JUMPDEST POP SWAP4 SWAP3 POP POP POP JUMP JUMPDEST PUSH1 0x0 DUP2 CALLDATALOAD SWAP1 POP PUSH2 0x2A6E DUP2 PUSH2 0x417D JUMP JUMPDEST SWAP3 SWAP2 POP POP JUMP JUMPDEST PUSH1 0x0 DUP2 CALLDATALOAD SWAP1 POP PUSH2 0x2A83 DUP2 PUSH2 0x4194 JUMP JUMPDEST SWAP3 SWAP2 POP POP JUMP JUMPDEST PUSH1 0x0 DUP3 PUSH1 0x1F DUP4 ADD SLT PUSH2 0x2A9A JUMPI PUSH1 0x0 DUP1 REVERT JUMPDEST DUP2 CALLDATALOAD PUSH2 0x2AAA DUP5 DUP3 PUSH1 0x20 DUP7 ADD PUSH2 0x29E3 JUMP JUMPDEST SWAP2 POP POP SWAP3 SWAP2 POP POP JUMP JUMPDEST PUSH1 0x0 DUP3 PUSH1 0x1F DUP4 ADD SLT PUSH2 0x2AC4 JUMPI PUSH1 0x0 DUP1 REVERT JUMPDEST DUP2 CALLDATALOAD PUSH2 0x2AD4 DUP5 DUP3 PUSH1 0x20 DUP7 ADD PUSH2 0x2A21 JUMP JUMPDEST SWAP2 POP POP SWAP3 SWAP2 POP POP JUMP JUMPDEST PUSH1 0x0 DUP2 CALLDATALOAD SWAP1 POP PUSH2 0x2AEC DUP2 PUSH2 0x41AB JUMP JUMPDEST SWAP3 SWAP2 POP POP JUMP JUMPDEST PUSH1 0x0 PUSH1 0x20 DUP3 DUP5 SUB SLT ISZERO PUSH2 0x2B04 JUMPI PUSH1 0x0 DUP1 REVERT JUMPDEST PUSH1 0x0 PUSH2 0x2B12 DUP5 DUP3 DUP6 ADD PUSH2 0x2A5F JUMP JUMPDEST SWAP2 POP POP SWAP3 SWAP2 POP POP JUMP JUMPDEST PUSH1 0x0 DUP1 PUSH1 0x40 DUP4 DUP6 SUB SLT ISZERO PUSH2 0x2B2E JUMPI PUSH1 0x0 DUP1 REVERT JUMPDEST PUSH1 0x0 PUSH2 0x2B3C DUP6 DUP3 DUP7 ADD PUSH2 0x2A5F JUMP JUMPDEST SWAP3 POP POP PUSH1 0x20 PUSH2 0x2B4D DUP6 DUP3 DUP7 ADD PUSH2 0x2ADD JUMP JUMPDEST SWAP2 POP POP SWAP3 POP SWAP3 SWAP1 POP JUMP JUMPDEST PUSH1 0x0 PUSH1 0x20 DUP3 DUP5 SUB SLT ISZERO PUSH2 0x2B69 JUMPI PUSH1 0x0 DUP1 REVERT JUMPDEST PUSH1 0x0 PUSH2 0x2B77 DUP5 DUP3 DUP6 ADD PUSH2 0x2A74 JUMP JUMPDEST SWAP2 POP POP SWAP3 SWAP2 POP POP JUMP JUMPDEST PUSH1 0x0 PUSH1 0x20 DUP3 DUP5 SUB SLT ISZERO PUSH2 0x2B92 JUMPI PUSH1 0x0 DUP1 REVERT JUMPDEST PUSH1 0x0 DUP3 ADD CALLDATALOAD PUSH8 0xFFFFFFFFFFFFFFFF DUP2 GT ISZERO PUSH2 0x2BAC JUMPI PUSH1 0x0 DUP1 REVERT JUMPDEST PUSH2 0x2BB8 DUP5 DUP3 DUP6 ADD PUSH2 0x2AB3 JUMP JUMPDEST SWAP2 POP POP SWAP3 SWAP2 POP POP JUMP JUMPDEST PUSH1 0x0 PUSH1 0x20 DUP3 DUP5 SUB SLT ISZERO PUSH2 0x2BD3 JUMPI PUSH1 0x0 DUP1 REVERT JUMPDEST PUSH1 0x0 PUSH2 0x2BE1 DUP5 DUP3 DUP6 ADD PUSH2 0x2ADD JUMP JUMPDEST SWAP2 POP POP SWAP3 SWAP2 POP POP JUMP JUMPDEST PUSH1 0x0 DUP1 PUSH1 0x40 DUP4 DUP6 SUB SLT ISZERO PUSH2 0x2BFD JUMPI PUSH1 0x0 DUP1 REVERT JUMPDEST PUSH1 0x0 PUSH2 0x2C0B DUP6 DUP3 DUP7 ADD PUSH2 0x2ADD JUMP JUMPDEST SWAP3 POP POP PUSH1 0x20 PUSH2 0x2C1C DUP6 DUP3 DUP7 ADD PUSH2 0x2A5F JUMP JUMPDEST SWAP2 POP POP SWAP3 POP SWAP3 SWAP1 POP JUMP JUMPDEST PUSH1 0x0 DUP1 PUSH1 0x0 DUP1 PUSH1 0x0 PUSH1 0xA0 DUP7 DUP9 SUB SLT ISZERO PUSH2 0x2C3E JUMPI PUSH1 0x0 DUP1 REVERT JUMPDEST PUSH1 0x0 PUSH2 0x2C4C DUP9 DUP3 DUP10 ADD PUSH2 0x2ADD JUMP JUMPDEST SWAP6 POP POP PUSH1 0x20 PUSH2 0x2C5D DUP9 DUP3 DUP10 ADD PUSH2 0x2A74 JUMP JUMPDEST SWAP5 POP POP PUSH1 0x40 PUSH2 0x2C6E DUP9 DUP3 DUP10 ADD PUSH2 0x2ADD JUMP JUMPDEST SWAP4 POP POP PUSH1 0x60 DUP7 ADD CALLDATALOAD PUSH8 0xFFFFFFFFFFFFFFFF DUP2 GT ISZERO PUSH2 0x2C8B JUMPI PUSH1 0x0 DUP1 REVERT JUMPDEST PUSH2 0x2C97 DUP9 DUP3 DUP10 ADD PUSH2 0x2A89 JUMP JUMPDEST SWAP3 POP POP PUSH1 0x80 DUP7 ADD CALLDATALOAD PUSH8 0xFFFFFFFFFFFFFFFF DUP2 GT ISZERO PUSH2 0x2CB4 JUMPI PUSH1 0x0 DUP1 REVERT JUMPDEST PUSH2 0x2CC0 DUP9 DUP3 DUP10 ADD PUSH2 0x2A89 JUMP JUMPDEST SWAP2 POP POP SWAP3 SWAP6 POP SWAP3 SWAP6 SWAP1 SWAP4 POP JUMP JUMPDEST PUSH1 0x0 DUP1 PUSH1 0x0 PUSH1 0x60 DUP5 DUP7 SUB SLT ISZERO PUSH2 0x2CE2 JUMPI PUSH1 0x0 DUP1 REVERT JUMPDEST PUSH1 0x0 PUSH2 0x2CF0 DUP7 DUP3 DUP8 ADD PUSH2 0x2ADD JUMP JUMPDEST SWAP4 POP POP PUSH1 0x20 DUP5 ADD CALLDATALOAD PUSH8 0xFFFFFFFFFFFFFFFF DUP2 GT ISZERO PUSH2 0x2D0D JUMPI PUSH1 0x0 DUP1 REVERT JUMPDEST PUSH2 0x2D19 DUP7 DUP3 DUP8 ADD PUSH2 0x2AB3 JUMP JUMPDEST SWAP3 POP POP PUSH1 0x40 PUSH2 0x2D2A DUP7 DUP3 DUP8 ADD PUSH2 0x2A5F JUMP JUMPDEST SWAP2 POP POP SWAP3 POP SWAP3 POP SWAP3 JUMP JUMPDEST PUSH1 0x0 DUP1 PUSH1 0x40 DUP4 DUP6 SUB SLT ISZERO PUSH2 0x2D47 JUMPI PUSH1 0x0 DUP1 REVERT JUMPDEST PUSH1 0x0 PUSH2 0x2D55 DUP6 DUP3 DUP7 ADD PUSH2 0x2ADD JUMP JUMPDEST SWAP3 POP POP PUSH1 0x20 PUSH2 0x2D66 DUP6 DUP3 DUP7 ADD PUSH2 0x2ADD JUMP JUMPDEST SWAP2 POP POP SWAP3 POP SWAP3 SWAP1 POP JUMP JUMPDEST PUSH1 0x0 DUP1 PUSH1 0x0 DUP1 PUSH1 0x80 DUP6 DUP8 SUB SLT ISZERO PUSH2 0x2D86 JUMPI PUSH1 0x0 DUP1 REVERT JUMPDEST PUSH1 0x0 PUSH2 0x2D94 DUP8 DUP3 DUP9 ADD PUSH2 0x2ADD JUMP JUMPDEST SWAP5 POP POP PUSH1 0x20 PUSH2 0x2DA5 DUP8 DUP3 DUP9 ADD PUSH2 0x2ADD JUMP JUMPDEST SWAP4 POP POP PUSH1 0x40 PUSH2 0x2DB6 DUP8 DUP3 DUP9 ADD PUSH2 0x2A74 JUMP JUMPDEST SWAP3 POP POP PUSH1 0x60 PUSH2 0x2DC7 DUP8 DUP3 DUP9 ADD PUSH2 0x2ADD JUMP JUMPDEST SWAP2 POP POP SWAP3 SWAP6 SWAP2 SWAP5 POP SWAP3 POP JUMP JUMPDEST PUSH1 0x0 PUSH2 0x2DDF DUP4 DUP4 PUSH2 0x34CD JUMP JUMPDEST PUSH1 0x20 DUP4 ADD SWAP1 POP SWAP3 SWAP2 POP POP JUMP JUMPDEST PUSH2 0x2DF4 DUP2 PUSH2 0x3F45 JUMP JUMPDEST DUP3 MSTORE POP POP JUMP JUMPDEST PUSH2 0x2E0B PUSH2 0x2E06 DUP3 PUSH2 0x3F45 JUMP JUMPDEST PUSH2 0x406B JUMP JUMPDEST DUP3 MSTORE POP POP JUMP JUMPDEST PUSH1 0x0 PUSH2 0x2E1C DUP3 PUSH2 0x3B21 JUMP JUMPDEST PUSH2 0x2E26 DUP2 DUP6 PUSH2 0x3B4F JUMP JUMPDEST SWAP4 POP PUSH2 0x2E31 DUP4 PUSH2 0x3AFC JUMP JUMPDEST DUP1 PUSH1 0x0 JUMPDEST DUP4 DUP2 LT ISZERO PUSH2 0x2E62 JUMPI DUP2 MLOAD PUSH2 0x2E49 DUP9 DUP3 PUSH2 0x2DD3 JUMP JUMPDEST SWAP8 POP PUSH2 0x2E54 DUP4 PUSH2 0x3B42 JUMP JUMPDEST SWAP3 POP POP PUSH1 0x1 DUP2 ADD SWAP1 POP PUSH2 0x2E35 JUMP JUMPDEST POP DUP6 SWAP4 POP POP POP POP SWAP3 SWAP2 POP POP JUMP JUMPDEST PUSH2 0x2E78 DUP2 PUSH2 0x3F57 JUMP JUMPDEST DUP3 MSTORE POP POP JUMP JUMPDEST PUSH2 0x2E87 DUP2 PUSH2 0x3F63 JUMP JUMPDEST DUP3 MSTORE POP POP JUMP JUMPDEST PUSH2 0x2E9E PUSH2 0x2E99 DUP3 PUSH2 0x3F63 JUMP JUMPDEST PUSH2 0x407D JUMP JUMPDEST DUP3 MSTORE POP POP JUMP JUMPDEST PUSH1 0x0 PUSH2 0x2EAF DUP3 PUSH2 0x3B2C JUMP JUMPDEST PUSH2 0x2EB9 DUP2 DUP6 PUSH2 0x3B60 JUMP JUMPDEST SWAP4 POP PUSH2 0x2EC9 DUP2 DUP6 PUSH1 0x20 DUP7 ADD PUSH2 0x3FBD JUMP JUMPDEST DUP1 DUP5 ADD SWAP2 POP POP SWAP3 SWAP2 POP POP JUMP JUMPDEST PUSH1 0x0 DUP2 SLOAD PUSH2 0x2EE2 DUP2 PUSH2 0x3FF0 JUMP JUMPDEST PUSH2 0x2EEC DUP2 DUP7 PUSH2 0x3B60 JUMP JUMPDEST SWAP5 POP PUSH1 0x1 DUP3 AND PUSH1 0x0 DUP2 EQ PUSH2 0x2F07 JUMPI PUSH1 0x1 DUP2 EQ PUSH2 0x2F18 JUMPI PUSH2 0x2F4B JUMP JUMPDEST PUSH1 0xFF NOT DUP4 AND DUP7 MSTORE DUP2 DUP7 ADD SWAP4 POP PUSH2 0x2F4B JUMP JUMPDEST PUSH2 0x2F21 DUP6 PUSH2 0x3B0C JUMP JUMPDEST PUSH1 0x0 JUMPDEST DUP4 DUP2 LT ISZERO PUSH2 0x2F43 JUMPI DUP2 SLOAD DUP2 DUP10 ADD MSTORE PUSH1 0x1 DUP3 ADD SWAP2 POP PUSH1 0x20 DUP2 ADD SWAP1 POP PUSH2 0x2F24 JUMP JUMPDEST DUP4 DUP9 ADD SWAP6 POP POP POP JUMPDEST POP POP POP SWAP3 SWAP2 POP POP JUMP JUMPDEST PUSH1 0x0 PUSH2 0x2F5F DUP3 PUSH2 0x3B37 JUMP JUMPDEST PUSH2 0x2F69 DUP2 DUP6 PUSH2 0x3B6B JUMP JUMPDEST SWAP4 POP PUSH2 0x2F79 DUP2 DUP6 PUSH1 0x20 DUP7 ADD PUSH2 0x3FBD JUMP JUMPDEST PUSH2 0x2F82 DUP2 PUSH2 0x415F JUMP JUMPDEST DUP5 ADD SWAP2 POP POP SWAP3 SWAP2 POP POP JUMP JUMPDEST PUSH1 0x0 PUSH2 0x2F9A PUSH1 0x12 DUP4 PUSH2 0x3B6B JUMP JUMPDEST SWAP2 POP PUSH32 0x496E76616C6964207375626A6563742049440000000000000000000000000000 PUSH1 0x0 DUP4 ADD MSTORE PUSH1 0x20 DUP3 ADD SWAP1 POP SWAP2 SWAP1 POP JUMP JUMPDEST PUSH1 0x0 PUSH2 0x2FDA PUSH1 0x11 DUP4 PUSH2 0x3B6B JUMP JUMPDEST SWAP2 POP PUSH32 0x417474656E64616E636520636C6F736564000000000000000000000000000000 PUSH1 0x0 DUP4 ADD MSTORE PUSH1 0x20 DUP3 ADD SWAP1 POP SWAP2 SWAP1 POP JUMP JUMPDEST PUSH1 0x0 PUSH2 0x301A PUSH1 0xF DUP4 PUSH2 0x3B6B JUMP JUMPDEST SWAP2 POP PUSH32 0x496E76616C696420726571756573740000000000000000000000000000000000 PUSH1 0x0 DUP4 ADD MSTORE PUSH1 0x20 DUP3 ADD SWAP1 POP SWAP2 SWAP1 POP JUMP JUMPDEST PUSH1 0x0 PUSH2 0x305A PUSH1 0xF DUP4 PUSH2 0x3B6B JUMP JUMPDEST SWAP2 POP PUSH32 0x496E76616C696420616464726573730000000000000000000000000000000000 PUSH1 0x0 DUP4 ADD MSTORE PUSH1 0x20 DUP3 ADD SWAP1 POP SWAP2 SWAP1 POP JUMP JUMPDEST PUSH1 0x0 PUSH2 0x309A PUSH1 0x10 DUP4 PUSH2 0x3B6B JUMP JUMPDEST SWAP2 POP PUSH32 0x416C726561647920617070726F76656400000000000000000000000000000000 PUSH1 0x0 DUP4 ADD MSTORE PUSH1 0x20 DUP3 ADD SWAP1 POP SWAP2 SWAP1 POP JUMP JUMPDEST PUSH1 0x0 PUSH2 0x30DA PUSH1 0x1C DUP4 PUSH2 0x3B7C JUMP JUMPDEST SWAP2 POP PUSH32 0x19457468657265756D205369676E6564204D6573736167653A0A333200000000 PUSH1 0x0 DUP4 ADD MSTORE PUSH1 0x1C DUP3 ADD SWAP1 POP SWAP2 SWAP1 POP JUMP JUMPDEST PUSH1 0x0 PUSH2 0x311A PUSH1 0xC DUP4 PUSH2 0x3B6B JUMP JUMPDEST SWAP2 POP PUSH32 0x556E617574686F72697A65640000000000000000000000000000000000000000 PUSH1 0x0 DUP4 ADD MSTORE PUSH1 0x20 DUP3 ADD SWAP1 POP SWAP2 SWAP1 POP JUMP JUMPDEST PUSH1 0x0 PUSH2 0x315A PUSH1 0xD DUP4 PUSH2 0x3B6B JUMP JUMPDEST SWAP2 POP PUSH32 0x50726F6F66732072657573656400000000000000000000000000000000000000 PUSH1 0x0 DUP4 ADD MSTORE PUSH1 0x20 DUP3 ADD SWAP1 POP SWAP2 SWAP1 POP JUMP JUMPDEST PUSH1 0x0 PUSH2 0x319A PUSH1 0x10 DUP4 PUSH2 0x3B6B JUMP JUMPDEST SWAP2 POP PUSH32 0x416C726561647920656E726F6C6C656400000000000000000000000000000000 PUSH1 0x0 DUP4 ADD MSTORE PUSH1 0x20 DUP3 ADD SWAP1 POP SWAP2 SWAP1 POP JUMP JUMPDEST PUSH1 0x0 PUSH2 0x31DA PUSH1 0x15 DUP4 PUSH2 0x3B6B JUMP JUMPDEST SWAP2 POP PUSH32 0x496E76616C696420746561636865722070726F6F660000000000000000000000 PUSH1 0x0 DUP4 ADD MSTORE PUSH1 0x20 DUP3 ADD SWAP1 POP SWAP2 SWAP1 POP JUMP JUMPDEST PUSH1 0x0 PUSH2 0x321A PUSH1 0xA DUP4 PUSH2 0x3B6B JUMP JUMPDEST SWAP2 POP PUSH32 0x4F6E6C792061646D696E00000000000000000000000000000000000000000000 PUSH1 0x0 DUP4 ADD MSTORE PUSH1 0x20 DUP3 ADD SWAP1 POP SWAP2 SWAP1 POP JUMP JUMPDEST PUSH1 0x0 PUSH2 0x325A PUSH1 0x10 DUP4 PUSH2 0x3B6B JUMP JUMPDEST SWAP2 POP PUSH32 0x50726566697820746F6F206C6172676500000000000000000000000000000000 PUSH1 0x0 DUP4 ADD MSTORE PUSH1 0x20 DUP3 ADD SWAP1 POP SWAP2 SWAP1 POP JUMP JUMPDEST PUSH1 0x0 PUSH2 0x329A PUSH1 0xE DUP4 PUSH2 0x3B6B JUMP JUMPDEST SWAP2 POP PUSH32 0x5375626A65637420657869737473000000000000000000000000000000000000 PUSH1 0x0 DUP4 ADD MSTORE PUSH1 0x20 DUP3 ADD SWAP1 POP SWAP2 SWAP1 POP JUMP JUMPDEST PUSH1 0x0 PUSH2 0x32DA PUSH1 0x1D DUP4 PUSH2 0x3B6B JUMP JUMPDEST SWAP2 POP PUSH32 0x4E6F742073656374696F6E2773207375626A6563742074656163686572000000 PUSH1 0x0 DUP4 ADD MSTORE PUSH1 0x20 DUP3 ADD SWAP1 POP SWAP2 SWAP1 POP JUMP JUMPDEST PUSH1 0x0 PUSH2 0x331A PUSH1 0x11 DUP4 PUSH2 0x3B6B JUMP JUMPDEST SWAP2 POP PUSH32 0x4C6F636174696F6E206D69736D61746368000000000000000000000000000000 PUSH1 0x0 DUP4 ADD MSTORE PUSH1 0x20 DUP3 ADD SWAP1 POP SWAP2 SWAP1 POP JUMP JUMPDEST PUSH1 0x0 PUSH2 0x335A PUSH1 0xC DUP4 PUSH2 0x3B6B JUMP JUMPDEST SWAP2 POP PUSH32 0x4E6F7420656E726F6C6C65640000000000000000000000000000000000000000 PUSH1 0x0 DUP4 ADD MSTORE PUSH1 0x20 DUP3 ADD SWAP1 POP SWAP2 SWAP1 POP JUMP JUMPDEST PUSH1 0x0 PUSH2 0x339A PUSH1 0x18 DUP4 PUSH2 0x3B6B JUMP JUMPDEST SWAP2 POP PUSH32 0x496E76616C6964207369676E6174757265206C656E6774680000000000000000 PUSH1 0x0 DUP4 ADD MSTORE PUSH1 0x20 DUP3 ADD SWAP1 POP SWAP2 SWAP1 POP JUMP JUMPDEST PUSH1 0x0 PUSH2 0x33DA PUSH1 0x15 DUP4 PUSH2 0x3B6B JUMP JUMPDEST SWAP2 POP PUSH32 0x496E76616C69642073747564656E742070726F6F660000000000000000000000 PUSH1 0x0 DUP4 ADD MSTORE PUSH1 0x20 DUP3 ADD SWAP1 POP SWAP2 SWAP1 POP JUMP JUMPDEST PUSH1 0x0 PUSH2 0x341A PUSH1 0xE DUP4 PUSH2 0x3B6B JUMP JUMPDEST SWAP2 POP PUSH32 0x416C7265616479206D61726B6564000000000000000000000000000000000000 PUSH1 0x0 DUP4 ADD MSTORE PUSH1 0x20 DUP3 ADD SWAP1 POP SWAP2 SWAP1 POP JUMP JUMPDEST PUSH1 0x0 PUSH2 0x345A PUSH1 0xB DUP4 PUSH2 0x3B6B JUMP JUMPDEST SWAP2 POP PUSH32 0x436C61737320656E646564000000000000000000000000000000000000000000 PUSH1 0x0 DUP4 ADD MSTORE PUSH1 0x20 DUP3 ADD SWAP1 POP SWAP2 SWAP1 POP JUMP JUMPDEST PUSH1 0x0 PUSH2 0x349A PUSH1 0xF DUP4 PUSH2 0x3B6B JUMP JUMPDEST SWAP2 POP PUSH32 0x496E76616C69642073656374696F6E0000000000000000000000000000000000 PUSH1 0x0 DUP4 ADD MSTORE PUSH1 0x20 DUP3 ADD SWAP1 POP SWAP2 SWAP1 POP JUMP JUMPDEST PUSH2 0x34D6 DUP2 PUSH2 0x3F97 JUMP JUMPDEST DUP3 MSTORE POP POP JUMP JUMPDEST PUSH2 0x34E5 DUP2 PUSH2 0x3F97 JUMP JUMPDEST DUP3 MSTORE POP POP JUMP JUMPDEST PUSH2 0x34FC PUSH2 0x34F7 DUP3 PUSH2 0x3F97 JUMP JUMPDEST PUSH2 0x4099 JUMP JUMPDEST DUP3 MSTORE POP POP JUMP JUMPDEST PUSH2 0x350B DUP2 PUSH2 0x3FA1 JUMP JUMPDEST DUP3 MSTORE POP POP JUMP JUMPDEST PUSH1 0x0 PUSH2 0x351D DUP3 DUP6 PUSH2 0x2E8D JUMP JUMPDEST PUSH1 0x20 DUP3 ADD SWAP2 POP PUSH2 0x352D DUP3 DUP5 PUSH2 0x34EB JUMP JUMPDEST PUSH1 0x20 DUP3 ADD SWAP2 POP DUP2 SWAP1 POP SWAP4 SWAP3 POP POP POP JUMP JUMPDEST PUSH1 0x0 PUSH2 0x3549 DUP3 DUP6 PUSH2 0x2EA4 JUMP JUMPDEST SWAP2 POP PUSH2 0x3555 DUP3 DUP5 PUSH2 0x2EA4 JUMP JUMPDEST SWAP2 POP DUP2 SWAP1 POP SWAP4 SWAP3 POP POP POP JUMP JUMPDEST PUSH1 0x0 PUSH2 0x356D DUP3 DUP5 PUSH2 0x2ED5 JUMP JUMPDEST SWAP2 POP DUP2 SWAP1 POP SWAP3 SWAP2 POP POP JUMP JUMPDEST PUSH1 0x0 PUSH2 0x3583 DUP3 PUSH2 0x30CD JUMP JUMPDEST SWAP2 POP PUSH2 0x358F DUP3 DUP5 PUSH2 0x2E8D JUMP JUMPDEST PUSH1 0x20 DUP3 ADD SWAP2 POP DUP2 SWAP1 POP SWAP3 SWAP2 POP POP JUMP JUMPDEST PUSH1 0x0 PUSH2 0x35AA DUP3 DUP7 PUSH2 0x34EB JUMP JUMPDEST PUSH1 0x20 DUP3 ADD SWAP2 POP PUSH2 0x35BA DUP3 DUP6 PUSH2 0x2DFA JUMP JUMPDEST PUSH1 0x14 DUP3 ADD SWAP2 POP PUSH2 0x35CA DUP3 DUP5 PUSH2 0x34EB JUMP JUMPDEST PUSH1 0x20 DUP3 ADD SWAP2 POP DUP2 SWAP1 POP SWAP5 SWAP4 POP POP POP POP JUMP JUMPDEST PUSH1 0x0 PUSH1 0x20 DUP3 ADD SWAP1 POP PUSH2 0x35F0 PUSH1 0x0 DUP4 ADD DUP5 PUSH2 0x2DEB JUMP JUMPDEST SWAP3 SWAP2 POP POP JUMP JUMPDEST PUSH1 0x0 PUSH1 0x40 DUP3 ADD SWAP1 POP PUSH2 0x360B PUSH1 0x0 DUP4 ADD DUP6 PUSH2 0x2DEB JUMP JUMPDEST PUSH2 0x3618 PUSH1 0x20 DUP4 ADD DUP5 PUSH2 0x34DC JUMP JUMPDEST SWAP4 SWAP3 POP POP POP JUMP JUMPDEST PUSH1 0x0 PUSH1 0x80 DUP3 ADD SWAP1 POP PUSH2 0x3634 PUSH1 0x0 DUP4 ADD DUP8 PUSH2 0x2DEB JUMP JUMPDEST PUSH2 0x3641 PUSH1 0x20 DUP4 ADD DUP7 PUSH2 0x34DC JUMP JUMPDEST PUSH2 0x364E PUSH1 0x40 DUP4 ADD DUP6 PUSH2 0x2DEB JUMP JUMPDEST PUSH2 0x365B PUSH1 0x60 DUP4 ADD DUP5 PUSH2 0x2E6F JUMP JUMPDEST SWAP6 SWAP5 POP POP POP POP POP JUMP JUMPDEST PUSH1 0x0 PUSH1 0x20 DUP3 ADD SWAP1 POP DUP2 DUP2 SUB PUSH1 0x0 DUP4 ADD MSTORE PUSH2 0x367E DUP2 DUP5 PUSH2 0x2E11 JUMP JUMPDEST SWAP1 POP SWAP3 SWAP2 POP POP JUMP JUMPDEST PUSH1 0x0 PUSH1 0x20 DUP3 ADD SWAP1 POP PUSH2 0x369B PUSH1 0x0 DUP4 ADD DUP5 PUSH2 0x2E6F JUMP JUMPDEST SWAP3 SWAP2 POP POP JUMP JUMPDEST PUSH1 0x0 PUSH1 0x80 DUP3 ADD SWAP1 POP PUSH2 0x36B6 PUSH1 0x0 DUP4 ADD DUP8 PUSH2 0x2E7E JUMP JUMPDEST PUSH2 0x36C3 PUSH1 0x20 DUP4 ADD DUP7 PUSH2 0x3502 JUMP JUMPDEST PUSH2 0x36D0 PUSH1 0x40 DUP4 ADD DUP6 PUSH2 0x2E7E JUMP JUMPDEST PUSH2 0x36DD PUSH1 0x60 DUP4 ADD DUP5 PUSH2 0x2E7E JUMP JUMPDEST SWAP6 SWAP5 POP POP POP POP POP JUMP JUMPDEST PUSH1 0x0 PUSH1 0x20 DUP3 ADD SWAP1 POP DUP2 DUP2 SUB PUSH1 0x0 DUP4 ADD MSTORE PUSH2 0x3700 DUP2 DUP5 PUSH2 0x2F54 JUMP JUMPDEST SWAP1 POP SWAP3 SWAP2 POP POP JUMP JUMPDEST PUSH1 0x0 PUSH1 0x20 DUP3 ADD SWAP1 POP DUP2 DUP2 SUB PUSH1 0x0 DUP4 ADD MSTORE PUSH2 0x3721 DUP2 PUSH2 0x2F8D JUMP JUMPDEST SWAP1 POP SWAP2 SWAP1 POP JUMP JUMPDEST PUSH1 0x0 PUSH1 0x20 DUP3 ADD SWAP1 POP DUP2 DUP2 SUB PUSH1 0x0 DUP4 ADD MSTORE PUSH2 0x3741 DUP2 PUSH2 0x2FCD JUMP JUMPDEST SWAP1 POP SWAP2 SWAP1 POP JUMP JUMPDEST PUSH1 0x0 PUSH1 0x20 DUP3 ADD SWAP1 POP DUP2 DUP2 SUB PUSH1 0x0 DUP4 ADD MSTORE PUSH2 0x3761 DUP2 PUSH2 0x300D JUMP JUMPDEST SWAP1 POP SWAP2 SWAP1 POP JUMP JUMPDEST PUSH1 0x0 PUSH1 0x20 DUP3 ADD SWAP1 POP DUP2 DUP2 SUB PUSH1 0x0 DUP4 ADD MSTORE PUSH2 0x3781 DUP2 PUSH2 0x304D JUMP JUMPDEST SWAP1 POP SWAP2 SWAP1 POP JUMP JUMPDEST PUSH1 0x0 PUSH1 0x20 DUP3 ADD SWAP1 POP DUP2 DUP2 SUB PUSH1 0x0 DUP4 ADD MSTORE PUSH2 0x37A1 DUP2 PUSH2 0x308D JUMP JUMPDEST SWAP1 POP SWAP2 SWAP1 POP JUMP JUMPDEST PUSH1 0x0 PUSH1 0x20 DUP3 ADD SWAP1 POP DUP2 DUP2 SUB PUSH1 0x0 DUP4 ADD MSTORE PUSH2 0x37C1 DUP2 PUSH2 0x310D JUMP JUMPDEST SWAP1 POP SWAP2 SWAP1 POP JUMP JUMPDEST PUSH1 0x0 PUSH1 0x20 DUP3 ADD SWAP1 POP DUP2 DUP2 SUB PUSH1 0x0 DUP4 ADD MSTORE PUSH2 0x37E1 DUP2 PUSH2 0x314D JUMP JUMPDEST SWAP1 POP SWAP2 SWAP1 POP JUMP JUMPDEST PUSH1 0x0 PUSH1 0x20 DUP3 ADD SWAP1 POP DUP2 DUP2 SUB PUSH1 0x0 DUP4 ADD MSTORE PUSH2 0x3801 DUP2 PUSH2 0x318D JUMP JUMPDEST SWAP1 POP SWAP2 SWAP1 POP JUMP JUMPDEST PUSH1 0x0 PUSH1 0x20 DUP3 ADD SWAP1 POP DUP2 DUP2 SUB PUSH1 0x0 DUP4 ADD MSTORE PUSH2 0x3821 DUP2 PUSH2 0x31CD JUMP JUMPDEST SWAP1 POP SWAP2 SWAP1 POP JUMP JUMPDEST PUSH1 0x0 PUSH1 0x20 DUP3 ADD SWAP1 POP DUP2 DUP2 SUB PUSH1 0x0 DUP4 ADD MSTORE PUSH2 0x3841 DUP2 PUSH2 0x320D JUMP JUMPDEST SWAP1 POP SWAP2 SWAP1 POP JUMP JUMPDEST PUSH1 0x0 PUSH1 0x20 DUP3 ADD SWAP1 POP DUP2 DUP2 SUB PUSH1 0x0 DUP4 ADD MSTORE PUSH2 0x3861 DUP2 PUSH2 0x324D JUMP JUMPDEST SWAP1 POP SWAP2 SWAP1 POP JUMP JUMPDEST PUSH1 0x0 PUSH1 0x20 DUP3 ADD SWAP1 POP DUP2 DUP2 SUB PUSH1 0x0 DUP4 ADD MSTORE PUSH2 0x3881 DUP2 PUSH2 0x328D JUMP JUMPDEST SWAP1 POP SWAP2 SWAP1 POP JUMP JUMPDEST PUSH1 0x0 PUSH1 0x20 DUP3 ADD SWAP1 POP DUP2 DUP2 SUB PUSH1 0x0 DUP4 ADD MSTORE PUSH2 0x38A1 DUP2 PUSH2 0x32CD JUMP JUMPDEST SWAP1 POP SWAP2 SWAP1 POP JUMP JUMPDEST PUSH1 0x0 PUSH1 0x20 DUP3 ADD SWAP1 POP DUP2 DUP2 SUB PUSH1 0x0 DUP4 ADD MSTORE PUSH2 0x38C1 DUP2 PUSH2 0x330D JUMP JUMPDEST SWAP1 POP SWAP2 SWAP1 POP JUMP JUMPDEST PUSH1 0x0 PUSH1 0x20 DUP3 ADD SWAP1 POP DUP2 DUP2 SUB PUSH1 0x0 DUP4 ADD MSTORE PUSH2 0x38E1 DUP2 PUSH2 0x334D JUMP JUMPDEST SWAP1 POP SWAP2 SWAP1 POP JUMP JUMPDEST PUSH1 0x0 PUSH1 0x20 DUP3 ADD SWAP1 POP DUP2 DUP2 SUB PUSH1 0x0 DUP4 ADD MSTORE PUSH2 0x3901 DUP2 PUSH2 0x338D JUMP JUMPDEST SWAP1 POP SWAP2 SWAP1 POP JUMP JUMPDEST PUSH1 0x0 PUSH1 0x20 DUP3 ADD SWAP1 POP DUP2 DUP2 SUB PUSH1 0x0 DUP4 ADD MSTORE PUSH2 0x3921 DUP2 PUSH2 0x33CD JUMP JUMPDEST SWAP1 POP SWAP2 SWAP1 POP JUMP JUMPDEST PUSH1 0x0 PUSH1 0x20 DUP3 ADD SWAP1 POP DUP2 DUP2 SUB PUSH1 0x0 DUP4 ADD MSTORE PUSH2 0x3941 DUP2 PUSH2 0x340D JUMP JUMPDEST SWAP1 POP SWAP2 SWAP1 POP JUMP JUMPDEST PUSH1 0x0 PUSH1 0x20 DUP3 ADD SWAP1 POP DUP2 DUP2 SUB PUSH1 0x0 DUP4 ADD MSTORE PUSH2 0x3961 DUP2 PUSH2 0x344D JUMP JUMPDEST SWAP1 POP SWAP2 SWAP1 POP JUMP JUMPDEST PUSH1 0x0 PUSH1 0x20 DUP3 ADD SWAP1 POP DUP2 DUP2 SUB PUSH1 0x0 DUP4 ADD MSTORE PUSH2 0x3981 DUP2 PUSH2 0x348D JUMP JUMPDEST SWAP1 POP SWAP2 SWAP1 POP JUMP JUMPDEST PUSH1 0x0 PUSH1 0x20 DUP3 ADD SWAP1 POP PUSH2 0x399D PUSH1 0x0 DUP4 ADD DUP5 PUSH2 0x34DC JUMP JUMPDEST SWAP3 SWAP2 POP POP JUMP JUMPDEST PUSH1 0x0 PUSH1 0x40 DUP3 ADD SWAP1 POP PUSH2 0x39B8 PUSH1 0x0 DUP4 ADD DUP6 PUSH2 0x34DC JUMP JUMPDEST DUP2 DUP2 SUB PUSH1 0x20 DUP4 ADD MSTORE PUSH2 0x39CA DUP2 DUP5 PUSH2 0x2F54 JUMP JUMPDEST SWAP1 POP SWAP4 SWAP3 POP POP POP JUMP JUMPDEST PUSH1 0x0 PUSH1 0x40 DUP3 ADD SWAP1 POP PUSH2 0x39E8 PUSH1 0x0 DUP4 ADD DUP6 PUSH2 0x34DC JUMP JUMPDEST PUSH2 0x39F5 PUSH1 0x20 DUP4 ADD DUP5 PUSH2 0x34DC JUMP JUMPDEST SWAP4 SWAP3 POP POP POP JUMP JUMPDEST PUSH1 0x0 PUSH1 0xE0 DUP3 ADD SWAP1 POP PUSH2 0x3A11 PUSH1 0x0 DUP4 ADD DUP11 PUSH2 0x34DC JUMP JUMPDEST PUSH2 0x3A1E PUSH1 0x20 DUP4 ADD DUP10 PUSH2 0x34DC JUMP JUMPDEST PUSH2 0x3A2B PUSH1 0x40 DUP4 ADD DUP9 PUSH2 0x34DC JUMP JUMPDEST PUSH2 0x3A38 PUSH1 0x60 DUP4 ADD DUP8 PUSH2 0x2E7E JUMP JUMPDEST PUSH2 0x3A45 PUSH1 0x80 DUP4 ADD DUP7 PUSH2 0x34DC JUMP JUMPDEST PUSH2 0x3A52 PUSH1 0xA0 DUP4 ADD DUP6 PUSH2 0x34DC JUMP JUMPDEST PUSH2 0x3A5F PUSH1 0xC0 DUP4 ADD DUP5 PUSH2 0x2E6F JUMP JUMPDEST SWAP9 SWAP8 POP POP POP POP POP POP POP POP JUMP JUMPDEST PUSH1 0x0 PUSH1 0x40 MLOAD SWAP1 POP DUP2 DUP2 ADD DUP2 DUP2 LT PUSH8 0xFFFFFFFFFFFFFFFF DUP3 GT OR ISZERO PUSH2 0x3A92 JUMPI PUSH2 0x3A91 PUSH2 0x4130 JUMP JUMPDEST JUMPDEST DUP1 PUSH1 0x40 MSTORE POP SWAP2 SWAP1 POP JUMP JUMPDEST PUSH1 0x0 PUSH8 0xFFFFFFFFFFFFFFFF DUP3 GT ISZERO PUSH2 0x3AB7 JUMPI PUSH2 0x3AB6 PUSH2 0x4130 JUMP JUMPDEST JUMPDEST PUSH1 0x1F NOT PUSH1 0x1F DUP4 ADD AND SWAP1 POP PUSH1 0x20 DUP2 ADD SWAP1 POP SWAP2 SWAP1 POP JUMP JUMPDEST PUSH1 0x0 PUSH8 0xFFFFFFFFFFFFFFFF DUP3 GT ISZERO PUSH2 0x3AE7 JUMPI PUSH2 0x3AE6 PUSH2 0x4130 JUMP JUMPDEST JUMPDEST PUSH1 0x1F NOT PUSH1 0x1F DUP4 ADD AND SWAP1 POP PUSH1 0x20 DUP2 ADD SWAP1 POP SWAP2 SWAP1 POP JUMP JUMPDEST PUSH1 0x0 DUP2 SWAP1 POP PUSH1 0x20 DUP3 ADD SWAP1 POP SWAP2 SWAP1 POP JUMP JUMPDEST PUSH1 0x0 DUP2 SWAP1 POP DUP2 PUSH1 0x0 MSTORE PUSH1 0x20 PUSH1 0x0 KECCAK256 SWAP1 POP SWAP2 SWAP1 POP JUMP JUMPDEST PUSH1 0x0 DUP2 MLOAD SWAP1 POP SWAP2 SWAP1 POP JUMP JUMPDEST PUSH1 0x0 DUP2 MLOAD SWAP1 POP SWAP2 SWAP1 POP JUMP JUMPDEST PUSH1 0x0 DUP2 MLOAD SWAP1 POP SWAP2 SWAP1 POP JUMP JUMPDEST PUSH1 0x0 PUSH1 0x20 DUP3 ADD SWAP1 POP SWAP2 SWAP1 POP JUMP JUMPDEST PUSH1 0x0 DUP3 DUP3 MSTORE PUSH1 0x20 DUP3 ADD SWAP1 POP SWAP3 SWAP2 POP POP JUMP JUMPDEST PUSH1 0x0 DUP2 SWAP1 POP SWAP3 SWAP2 POP POP JUMP JUMPDEST PUSH1 0x0 DUP3 DUP3 MSTORE PUSH1 0x20 DUP3 ADD SWAP1 POP SWAP3 SWAP2 POP POP JUMP JUMPDEST PUSH1 0x0 DUP2 SWAP1 POP SWAP3 SWAP2 POP POP JUMP JUMPDEST PUSH1 0x0 PUSH2 0x3B92 DUP3 PUSH2 0x3F6D JUMP JUMPDEST SWAP2 POP PUSH2 0x3B9D DUP4 PUSH2 0x3F6D JUMP JUMPDEST SWAP3 POP DUP2 PUSH32 0x7FFFFFFFFFFFFFFFFFFFFFFFFFFFFFFFFFFFFFFFFFFFFFFFFFFFFFFFFFFFFFFF SUB DUP4 SGT PUSH1 0x0 DUP4 SLT ISZERO AND ISZERO PUSH2 0x3BD8 JUMPI PUSH2 0x3BD7 PUSH2 0x40A3 JUMP JUMPDEST JUMPDEST DUP2 PUSH32 0x8000000000000000000000000000000000000000000000000000000000000000 SUB DUP4 SLT PUSH1 0x0 DUP4 SLT AND ISZERO PUSH2 0x3C10 JUMPI PUSH2 0x3C0F PUSH2 0x40A3 JUMP JUMPDEST JUMPDEST DUP3 DUP3 ADD SWAP1 POP SWAP3 SWAP2 POP POP JUMP JUMPDEST PUSH1 0x0 PUSH2 0x3C26 DUP3 PUSH2 0x3F97 JUMP JUMPDEST SWAP2 POP PUSH2 0x3C31 DUP4 PUSH2 0x3F97 JUMP JUMPDEST SWAP3 POP DUP3 PUSH32 0xFFFFFFFFFFFFFFFFFFFFFFFFFFFFFFFFFFFFFFFFFFFFFFFFFFFFFFFFFFFFFFFF SUB DUP3 GT ISZERO PUSH2 0x3C66 JUMPI PUSH2 0x3C65 PUSH2 0x40A3 JUMP JUMPDEST JUMPDEST DUP3 DUP3 ADD SWAP1 POP SWAP3 SWAP2 POP POP JUMP JUMPDEST PUSH1 0x0 PUSH2 0x3C7C DUP3 PUSH2 0x3F6D JUMP JUMPDEST SWAP2 POP PUSH2 0x3C87 DUP4 PUSH2 0x3F6D JUMP JUMPDEST SWAP3 POP DUP3 PUSH2 0x3C97 JUMPI PUSH2 0x3C96 PUSH2 0x40D2 JUMP JUMPDEST JUMPDEST PUSH1 0x1 PUSH1 0x0 SUB DUP4 EQ PUSH32 0x8000000000000000000000000000000000000000000000000000000000000000 DUP4 EQ AND ISZERO PUSH2 0x3CD0 JUMPI PUSH2 0x3CCF PUSH2 0x40A3 JUMP JUMPDEST JUMPDEST DUP3 DUP3 SDIV SWAP1 POP SWAP3 SWAP2 POP POP JUMP JUMPDEST PUSH1 0x0 PUSH2 0x3CE6 DUP3 PUSH2 0x3F97 JUMP JUMPDEST SWAP2 POP PUSH2 0x3CF1 DUP4 PUSH2 0x3F97 JUMP JUMPDEST SWAP3 POP DUP3 PUSH2 0x3D01 JUMPI PUSH2 0x3D00 PUSH2 0x40D2 JUMP JUMPDEST JUMPDEST DUP3 DUP3 DIV SWAP1 POP SWAP3 SWAP2 POP POP JUMP JUMPDEST PUSH1 0x0 PUSH2 0x3D17 DUP3 PUSH2 0x3F6D JUMP JUMPDEST SWAP2 POP PUSH2 0x3D22 DUP4 PUSH2 0x3F6D JUMP JUMPDEST SWAP3 POP DUP3 PUSH32 0x7FFFFFFFFFFFFFFFFFFFFFFFFFFFFFFFFFFFFFFFFFFFFFFFFFFFFFFFFFFFFFFF DIV DUP3 GT PUSH1 0x0 DUP5 SGT PUSH1 0x0 DUP5 SGT AND AND ISZERO PUSH2 0x3D61 JUMPI PUSH2 0x3D60 PUSH2 0x40A3 JUMP JUMPDEST JUMPDEST DUP2 PUSH32 0x8000000000000000000000000000000000000000000000000000000000000000 SDIV DUP4 SLT PUSH1 0x0 DUP5 SLT PUSH1 0x0 DUP5 SGT AND AND ISZERO PUSH2 0x3D9E JUMPI PUSH2 0x3D9D PUSH2 0x40A3 JUMP JUMPDEST JUMPDEST DUP3 PUSH32 0x8000000000000000000000000000000000000000000000000000000000000000 SDIV DUP3 SLT PUSH1 0x0 DUP5 SGT PUSH1 0x0 DUP5 SLT AND AND ISZERO PUSH2 0x3DDB JUMPI PUSH2 0x3DDA PUSH2 0x40A3 JUMP JUMPDEST JUMPDEST DUP3 PUSH32 0x7FFFFFFFFFFFFFFFFFFFFFFFFFFFFFFFFFFFFFFFFFFFFFFFFFFFFFFFFFFFFFFF SDIV DUP3 SLT PUSH1 0x0 DUP5 SLT PUSH1 0x0 DUP5 SLT AND AND ISZERO PUSH2 0x3E18 JUMPI PUSH2 0x3E17 PUSH2 0x40A3 JUMP JUMPDEST JUMPDEST DUP3 DUP3 MUL SWAP1 POP SWAP3 SWAP2 POP POP JUMP JUMPDEST PUSH1 0x0 PUSH2 0x3E2E DUP3 PUSH2 0x3F97 JUMP JUMPDEST SWAP2 POP PUSH2 0x3E39 DUP4 PUSH2 0x3F97 JUMP JUMPDEST SWAP3 POP DUP2 PUSH32 0xFFFFFFFFFFFFFFFFFFFFFFFFFFFFFFFFFFFFFFFFFFFFFFFFFFFFFFFFFFFFFFFF DIV DUP4 GT DUP3 ISZERO ISZERO AND ISZERO PUSH2 0x3E72 JUMPI PUSH2 0x3E71 PUSH2 0x40A3 JUMP JUMPDEST JUMPDEST DUP3 DUP3 MUL SWAP1 POP SWAP3 SWAP2 POP POP JUMP JUMPDEST PUSH1 0x0 PUSH2 0x3E88 DUP3 PUSH2 0x3F6D JUMP JUMPDEST SWAP2 POP PUSH2 0x3E93 DUP4 PUSH2 0x3F6D JUMP JUMPDEST SWAP3 POP DUP3 PUSH32 0x8000000000000000000000000000000000000000000000000000000000000000 ADD DUP3 SLT PUSH1 0x0 DUP5 SLT ISZERO AND ISZERO PUSH2 0x3ECE JUMPI PUSH2 0x3ECD PUSH2 0x40A3 JUMP JUMPDEST JUMPDEST DUP3 PUSH32 0x7FFFFFFFFFFFFFFFFFFFFFFFFFFFFFFFFFFFFFFFFFFFFFFFFFFFFFFFFFFFFFFF ADD DUP3 SGT PUSH1 0x0 DUP5 SLT AND ISZERO PUSH2 0x3F06 JUMPI PUSH2 0x3F05 PUSH2 0x40A3 JUMP JUMPDEST JUMPDEST DUP3 DUP3 SUB SWAP1 POP SWAP3 SWAP2 POP POP JUMP JUMPDEST PUSH1 0x0 PUSH2 0x3F1C DUP3 PUSH2 0x3F97 JUMP JUMPDEST SWAP2 POP PUSH2 0x3F27 DUP4 PUSH2 0x3F97 JUMP JUMPDEST SWAP3 POP DUP3 DUP3 LT ISZERO PUSH2 0x3F3A JUMPI PUSH2 0x3F39 PUSH2 0x40A3 JUMP JUMPDEST JUMPDEST DUP3 DUP3 SUB SWAP1 POP SWAP3 SWAP2 POP POP JUMP JUMPDEST PUSH1 0x0 PUSH2 0x3F50 DUP3 PUSH2 0x3F77 JUMP JUMPDEST SWAP1 POP SWAP2 SWAP1 POP JUMP JUMPDEST PUSH1 0x0 DUP2 ISZERO ISZERO SWAP1 POP SWAP2 SWAP1 POP JUMP JUMPDEST PUSH1 0x0 DUP2 SWAP1 POP SWAP2 SWAP1 POP JUMP JUMPDEST PUSH1 0x0 DUP2 SWAP1 POP SWAP2 SWAP1 POP JUMP JUMPDEST PUSH1 0x0 PUSH20 0xFFFFFFFFFFFFFFFFFFFFFFFFFFFFFFFFFFFFFFFF DUP3 AND SWAP1 POP SWAP2 SWAP1 POP JUMP JUMPDEST PUSH1 0x0 DUP2 SWAP1 POP SWAP2 SWAP1 POP JUMP JUMPDEST PUSH1 0x0 PUSH1 0xFF DUP3 AND SWAP1 POP SWAP2 SWAP1 POP JUMP JUMPDEST DUP3 DUP2 DUP4 CALLDATACOPY PUSH1 0x0 DUP4 DUP4 ADD MSTORE POP POP POP JUMP JUMPDEST PUSH1 0x0 JUMPDEST DUP4 DUP2 LT ISZERO PUSH2 0x3FDB JUMPI DUP1 DUP3 ADD MLOAD DUP2 DUP5 ADD MSTORE PUSH1 0x20 DUP2 ADD SWAP1 POP PUSH2 0x3FC0 JUMP JUMPDEST DUP4 DUP2 GT ISZERO PUSH2 0x3FEA JUMPI PUSH1 0x0 DUP5 DUP5 ADD MSTORE JUMPDEST POP POP POP POP JUMP JUMPDEST PUSH1 0x0 PUSH1 0x2 DUP3 DIV SWAP1 POP PUSH1 0x1 DUP3 AND DUP1 PUSH2 0x4008 JUMPI PUSH1 0x7F DUP3 AND SWAP2 POP JUMPDEST PUSH1 0x20 DUP3 LT DUP2 EQ ISZERO PUSH2 0x401C JUMPI PUSH2 0x401B PUSH2 0x4101 JUMP JUMPDEST JUMPDEST POP SWAP2 SWAP1 POP JUMP JUMPDEST PUSH1 0x0 PUSH2 0x402D DUP3 PUSH2 0x3F97 JUMP JUMPDEST SWAP2 POP PUSH32 0xFFFFFFFFFFFFFFFFFFFFFFFFFFFFFFFFFFFFFFFFFFFFFFFFFFFFFFFFFFFFFFFF DUP3 EQ ISZERO PUSH2 0x4060 JUMPI PUSH2 0x405F PUSH2 0x40A3 JUMP JUMPDEST JUMPDEST PUSH1 0x1 DUP3 ADD SWAP1 POP SWAP2 SWAP1 POP JUMP JUMPDEST PUSH1 0x0 PUSH2 0x4076 DUP3 PUSH2 0x4087 JUMP JUMPDEST SWAP1 POP SWAP2 SWAP1 POP JUMP JUMPDEST PUSH1 0x0 DUP2 SWAP1 POP SWAP2 SWAP1 POP JUMP JUMPDEST PUSH1 0x0 PUSH2 0x4092 DUP3 PUSH2 0x4170 JUMP JUMPDEST SWAP1 POP SWAP2 SWAP1 POP JUMP JUMPDEST PUSH1 0x0 DUP2 SWAP1 POP SWAP2 SWAP1 POP JUMP JUMPDEST PUSH32 0x4E487B7100000000000000000000000000000000000000000000000000000000 PUSH1 0x0 MSTORE PUSH1 0x11 PUSH1 0x4 MSTORE PUSH1 0x24 PUSH1 0x0 REVERT JUMPDEST PUSH32 0x4E487B7100000000000000000000000000000000000000000000000000000000 PUSH1 0x0 MSTORE PUSH1 0x12 PUSH1 0x4 MSTORE PUSH1 0x24 PUSH1 0x0 REVERT JUMPDEST PUSH32 0x4E487B7100000000000000000000000000000000000000000000000000000000 PUSH1 0x0 MSTORE PUSH1 0x22 PUSH1 0x4 MSTORE PUSH1 0x24 PUSH1 0x0 REVERT JUMPDEST PUSH32 0x4E487B7100000000000000000000000000000000000000000000000000000000 PUSH1 0x0 MSTORE PUSH1 0x41 PUSH1 0x4 MSTORE PUSH1 0x24 PUSH1 0x0 REVERT JUMPDEST PUSH1 0x0 PUSH1 0x1F NOT PUSH1 0x1F DUP4 ADD AND SWAP1 POP SWAP2 SWAP1 POP JUMP JUMPDEST PUSH1 0x0 DUP2 PUSH1 0x60 SHL SWAP1 POP SWAP2 SWAP1 POP JUMP JUMPDEST PUSH2 0x4186 DUP2 PUSH2 0x3F45 JUMP JUMPDEST DUP2 EQ PUSH2 0x4191 JUMPI PUSH1 0x0 DUP1 REVERT JUMPDEST POP JUMP JUMPDEST PUSH2 0x419D DUP2 PUSH2 0x3F63 JUMP JUMPDEST DUP2 EQ PUSH2 0x41A8 JUMPI PUSH1 0x0 DUP1 REVERT JUMPDEST POP JUMP JUMPDEST PUSH2 0x41B4 DUP2 PUSH2 0x3F97 JUMP JUMPDEST DUP2 EQ PUSH2 0x41BF JUMPI PUSH1 0x0 DUP1 REVERT JUMPDEST POP JUMP INVALID LOG2 PUSH5 0x6970667358 0x22 SLT KECCAK256 0xD1 0xD DUP12 DUP4 0xAA 0x2B PUSH30 0x9192F666AFB83306A4C36D01A29ABFC665F06D20FC33C96F0B64736F6C63 NUMBER STOP ADDMOD STOP STOP CALLER "},"methodIdentifiers":{"GEOHASH_TOLERANCE_BYTES()":"d4094ab6","addStudent(uint256,address)":"a850c180","addSubjectToSection(uint256,string,address)":"3359da49","adjustmentRequests(bytes32)":"0b104eee","admin()":"f851a440","approveAdjustment(bytes32)":"c93f63f6","attendance(address,uint256)":"9a8d8955","classCounter()":"3954d58b","classes(uint256)":"817dbe9f","closeAttendance(uint256)":"f2500368","createSection(string)":"301c82f3","getCombinedAttendance(address,uint256)":"13a3c482","getSubjectClasses(string)":"f00070f5","getYearMonth(uint256)":"ca1f8c6e","isEnrolled(uint256,address)":"c9768315","isTeacher(address)":"aec37eb3","markAttendance(uint256,bytes32,uint256,bytes,bytes)":"d9065596","removeStudent(uint256,address)":"ab87e6d7","requestAdjustment(uint256,address)":"d064d63f","requestCounter()":"973a814e","sectionCounter()":"f11f6e94","sectionStudents(uint256,uint256)":"0212081c","sections(uint256)":"35603440","startClass(uint256,uint256,bytes32,uint256)":"4d7db89b","transferAdmin(address)":"75829def","usedLocationProofs(bytes32)":"a515797a"}}}}}