{
  "_format": "hh-sol-artifact-1",
  "contractName": "CollegeAttendance",
  "sourceName": "contracts/College Attendance.sol",
  "abi": [
    {
      "anonymous": false,
      "inputs": [
        {
          "indexed": true,
          "internalType": "bytes32",
          "name": "requestId",
          "type": "bytes32"
        },
        {
          "indexed": true,
          "internalType": "address",
          "name": "student",
          "type": "address"
        },
        {
          "indexed": false,
          "internalType": "uint256",
          "name": "classId",
          "type": "uint256"
        }
      ],
      "name": "AdjustmentApproved",
      "type": "event"
    },
    {
      "anonymous": false,
      "inputs": [
        {
          "indexed": false,
          "internalType": "bytes32",
          "name": "requestId",
          "type": "bytes32"
        },
        {
          "indexed": false,
          "internalType": "uint256",
          "name": "classId",
          "type": "uint256"
        },
        {
          "indexed": false,
          "internalType": "address",
          "name": "student",
          "type": "address"
        }
      ],
      "name": "AdjustmentRequested",
      "type": "event"
    },
    {
      "anonymous": false,
      "inputs": [
        {
          "indexed": false,
          "internalType": "address",
          "name": "student",
          "type": "address"
        },
        {
          "indexed": false,
          "internalType": "uint256",
          "name": "classId",
          "type": "uint256"
        }
      ],
      "name": "AttendanceMarked",
      "type": "event"
    },
    {
      "anonymous": false,
      "inputs": [
        {
          "indexed": true,
          "internalType": "uint256",
          "name": "sectionId",
          "type": "uint256"
        },
        {
          "indexed": false,
          "internalType": "uint256",
          "name": "subjectId",
          "type": "uint256"
        },
        {
          "indexed": false,
          "internalType": "uint256",
          "name": "classId",
          "type": "uint256"
        }
      ],
      "name": "ClassStarted",
      "type": "event"
    },
    {
      "anonymous": false,
      "inputs": [
        {
          "indexed": true,
          "internalType": "uint256",
          "name": "sectionId",
          "type": "uint256"
        },
        {
          "indexed": false,
          "internalType": "string",
          "name": "name",
          "type": "string"
        }
      ],
      "name": "SectionCreated",
      "type": "event"
    },
    {
      "inputs": [],
      "name": "GEOHASH_TOLERANCE_BYTES",
      "outputs": [
        {
          "internalType": "uint256",
          "name": "",
          "type": "uint256"
        }
      ],
      "stateMutability": "view",
      "type": "function"
    },
    {
      "inputs": [
        {
          "internalType": "uint256",
          "name": "sectionId",
          "type": "uint256"
        },
        {
          "internalType": "address",
          "name": "student",
          "type": "address"
        }
      ],
      "name": "addStudent",
      "outputs": [],
      "stateMutability": "nonpayable",
      "type": "function"
    },
    {
      "inputs": [
        {
          "internalType": "uint256",
          "name": "sectionId",
          "type": "uint256"
        },
        {
          "internalType": "string",
          "name": "subjectName",
          "type": "string"
        },
        {
          "internalType": "address",
          "name": "teacher",
          "type": "address"
        }
      ],
      "name": "addSubjectToSection",
      "outputs": [],
      "stateMutability": "nonpayable",
      "type": "function"
    },
    {
      "inputs": [
        {
          "internalType": "bytes32",
          "name": "",
          "type": "bytes32"
        }
      ],
      "name": "adjustmentRequests",
      "outputs": [
        {
          "internalType": "address",
          "name": "teacher",
          "type": "address"
        },
        {
          "internalType": "uint256",
          "name": "classId",
          "type": "uint256"
        },
        {
          "internalType": "address",
          "name": "student",
          "type": "address"
        },
        {
          "internalType": "bool",
          "name": "approved",
          "type": "bool"
        }
      ],
      "stateMutability": "view",
      "type": "function"
    },
    {
      "inputs": [],
      "name": "admin",
      "outputs": [
        {
          "internalType": "address",
          "name": "",
          "type": "address"
        }
      ],
      "stateMutability": "view",
      "type": "function"
    },
    {
      "inputs": [
        {
          "internalType": "bytes32",
          "name": "requestId",
          "type": "bytes32"
        }
      ],
      "name": "approveAdjustment",
      "outputs": [],
      "stateMutability": "nonpayable",
      "type": "function"
    },
    {
      "inputs": [
        {
          "internalType": "address",
          "name": "",
          "type": "address"
        },
        {
          "internalType": "uint256",
          "name": "",
          "type": "uint256"
        }
      ],
      "name": "attendance",
      "outputs": [
        {
          "internalType": "bool",
          "name": "",
          "type": "bool"
        }
      ],
      "stateMutability": "view",
      "type": "function"
    },
    {
      "inputs": [],
      "name": "classCounter",
      "outputs": [
        {
          "internalType": "uint256",
          "name": "",
          "type": "uint256"
        }
      ],
      "stateMutability": "view",
      "type": "function"
    },
    {
      "inputs": [
        {
          "internalType": "uint256",
          "name": "",
          "type": "uint256"
        }
      ],
      "name": "classes",
      "outputs": [
        {
          "internalType": "uint256",
          "name": "id",
          "type": "uint256"
        },
        {
          "internalType": "uint256",
          "name": "sectionId",
          "type": "uint256"
        },
        {
          "internalType": "uint256",
          "name": "subjectId",
          "type": "uint256"
        },
        {
          "internalType": "bytes32",
          "name": "geohash",
          "type": "bytes32"
        },
        {
          "internalType": "uint256",
          "name": "startTime",
          "type": "uint256"
        },
        {
          "internalType": "uint256",
          "name": "endTime",
          "type": "uint256"
        },
        {
          "internalType": "bool",
          "name": "attendanceClosed",
          "type": "bool"
        }
      ],
      "stateMutability": "view",
      "type": "function"
    },
    {
      "inputs": [
        {
          "internalType": "uint256",
          "name": "classId",
          "type": "uint256"
        }
      ],
      "name": "closeAttendance",
      "outputs": [],
      "stateMutability": "nonpayable",
      "type": "function"
    },
    {
      "inputs": [
        {
          "internalType": "string",
          "name": "name",
          "type": "string"
        }
      ],
      "name": "createSection",
      "outputs": [],
      "stateMutability": "nonpayable",
      "type": "function"
    },
    {
      "inputs": [
        {
          "internalType": "address",
          "name": "student",
          "type": "address"
        },
        {
          "internalType": "uint256",
          "name": "sectionId",
          "type": "uint256"
        }
      ],
      "name": "getCombinedAttendance",
      "outputs": [
        {
          "internalType": "uint256",
          "name": "attended",
          "type": "uint256"
        },
        {
          "internalType": "uint256",
          "name": "total",
          "type": "uint256"
        }
      ],
      "stateMutability": "view",
      "type": "function"
    },
    {
      "inputs": [
        {
          "internalType": "string",
          "name": "subjectName",
          "type": "string"
        }
      ],
      "name": "getSubjectClasses",
      "outputs": [
        {
          "internalType": "uint256[]",
          "name": "",
          "type": "uint256[]"
        }
      ],
      "stateMutability": "view",
      "type": "function"
    },
    {
      "inputs": [
        {
          "internalType": "uint256",
          "name": "timestamp",
          "type": "uint256"
        }
      ],
      "name": "getYearMonth",
      "outputs": [
        {
          "internalType": "uint256",
          "name": "year",
          "type": "uint256"
        },
        {
          "internalType": "uint256",
          "name": "month",
          "type": "uint256"
        }
      ],
      "stateMutability": "pure",
      "type": "function"
    },
    {
      "inputs": [
        {
          "internalType": "uint256",
          "name": "",
          "type": "uint256"
        },
        {
          "internalType": "address",
          "name": "",
          "type": "address"
        }
      ],
      "name": "isEnrolled",
      "outputs": [
        {
          "internalType": "bool",
          "name": "",
          "type": "bool"
        }
      ],
      "stateMutability": "view",
      "type": "function"
    },
    {
      "inputs": [
        {
          "internalType": "uint256",
          "name": "classId",
          "type": "uint256"
        },
        {
          "internalType": "bytes32",
          "name": "studentGeohash",
          "type": "bytes32"
        },
        {
          "internalType": "uint256",
          "name": "studentTimestamp",
          "type": "uint256"
        },
        {
          "internalType": "bytes",
          "name": "teacherSig",
          "type": "bytes"
        },
        {
          "internalType": "bytes",
          "name": "studentSig",
          "type": "bytes"
        }
      ],
      "name": "markAttendance",
      "outputs": [],
      "stateMutability": "nonpayable",
      "type": "function"
    },
    {
      "inputs": [
        {
          "internalType": "uint256",
          "name": "sectionId",
          "type": "uint256"
        },
        {
          "internalType": "address",
          "name": "student",
          "type": "address"
        }
      ],
      "name": "removeStudent",
      "outputs": [],
      "stateMutability": "nonpayable",
      "type": "function"
    },
    {
      "inputs": [
        {
          "internalType": "uint256",
          "name": "classId",
          "type": "uint256"
        },
        {
          "internalType": "address",
          "name": "student",
          "type": "address"
        }
      ],
      "name": "requestAdjustment",
      "outputs": [],
      "stateMutability": "nonpayable",
      "type": "function"
    },
    {
      "inputs": [],
      "name": "requestCounter",
      "outputs": [
        {
          "internalType": "uint256",
          "name": "",
          "type": "uint256"
        }
      ],
      "stateMutability": "view",
      "type": "function"
    },
    {
      "inputs": [],
      "name": "sectionCounter",
      "outputs": [
        {
          "internalType": "uint256",
          "name": "",
          "type": "uint256"
        }
      ],
      "stateMutability": "view",
      "type": "function"
    },
    {
      "inputs": [
        {
          "internalType": "uint256",
          "name": "",
          "type": "uint256"
        },
        {
          "internalType": "uint256",
          "name": "",
          "type": "uint256"
        }
      ],
      "name": "sectionStudents",
      "outputs": [
        {
          "internalType": "address",
          "name": "",
          "type": "address"
        }
      ],
      "stateMutability": "view",
      "type": "function"
    },
    {
      "inputs": [
        {
          "internalType": "uint256",
          "name": "",
          "type": "uint256"
        }
      ],
      "name": "sections",
      "outputs": [
        {
          "internalType": "uint256",
          "name": "id",
          "type": "uint256"
        },
        {
          "internalType": "string",
          "name": "name",
          "type": "string"
        }
      ],
      "stateMutability": "view",
      "type": "function"
    },
    {
      "inputs": [
        {
          "internalType": "uint256",
          "name": "sectionId",
          "type": "uint256"
        },
        {
          "internalType": "uint256",
          "name": "subjectId",
          "type": "uint256"
        },
        {
          "internalType": "bytes32",
          "name": "geohash",
          "type": "bytes32"
        },
        {
          "internalType": "uint256",
          "name": "durationMinutes",
          "type": "uint256"
        }
      ],
      "name": "startClass",
      "outputs": [],
      "stateMutability": "nonpayable",
      "type": "function"
    },
    {
      "inputs": [
        {
          "internalType": "address",
          "name": "newAdmin",
          "type": "address"
        }
      ],
      "name": "transferAdmin",
      "outputs": [],
      "stateMutability": "nonpayable",
      "type": "function"
    },
    {
      "inputs": [
        {
          "internalType": "bytes32",
          "name": "",
          "type": "bytes32"
        }
      ],
      "name": "usedLocationProofs",
      "outputs": [
        {
          "internalType": "bool",
          "name": "",
          "type": "bool"
        }
      ],
      "stateMutability": "view",
      "type": "function"
    }
  ],
  "bytecode": "0x6080604052348015600f57600080fd5b5061412b8061001f6000396000f3fe608060405234801561001057600080fd5b50600436106101735760003560e01c8063a515797a116100de578063d064d63f11610097578063f00070f511610071578063f00070f51461048a578063f11f6e94146104ba578063f2500368146104d8578063f851a440146104f457610173565b8063d064d63f14610434578063d4094ab614610450578063d90655961461046e57610173565b8063a515797a1461034f578063a850c1801461037f578063ab87e6d71461039b578063c93f63f6146103b7578063c9768315146103d3578063ca1f8c6e1461040357610173565b80633954d58b116101305780633954d58b146102755780634d7db89b1461029357806375829def146102af578063817dbe9f146102cb578063973a814e146103015780639a8d89551461031f57610173565b80630212081c146101785780630b104eee146101a857806313a3c482146101db578063301c82f31461020c5780633359da49146102285780633560344014610244575b600080fd5b610192600480360381019061018d91906126b5565b610512565b60405161019f9190612736565b60405180910390f35b6101c260048036038101906101bd9190612787565b610560565b6040516101d294939291906127de565b60405180910390f35b6101f560048036038101906101f0919061284f565b6105dd565b60405161020392919061288f565b60405180910390f35b610226600480360381019061022191906129fe565b610728565b005b610242600480360381019061023d9190612a47565b61083f565b005b61025e60048036038101906102599190612ab6565b610b0f565b60405161026c929190612b62565b60405180910390f35b61027d610bbb565b60405161028a9190612b92565b60405180910390f35b6102ad60048036038101906102a89190612bad565b610bc1565b005b6102c960048036038101906102c49190612c14565b610e9e565b005b6102e560048036038101906102e09190612ab6565b610fde565b6040516102f89796959493929190612c50565b60405180910390f35b61030961102d565b6040516103169190612b92565b60405180910390f35b6103396004803603810190610334919061284f565b611033565b6040516103469190612cbf565b60405180910390f35b61036960048036038101906103649190612787565b611062565b6040516103769190612cbf565b60405180910390f35b61039960048036038101906103949190612cda565b611082565b005b6103b560048036038101906103b09190612cda565b61127b565b005b6103d160048036038101906103cc9190612787565b611473565b005b6103ed60048036038101906103e89190612cda565b611780565b6040516103fa9190612cbf565b60405180910390f35b61041d60048036038101906104189190612ab6565b6117af565b60405161042b92919061288f565b60405180910390f35b61044e60048036038101906104499190612cda565b6117d7565b005b610458611a1b565b6040516104659190612b92565b60405180910390f35b61048860048036038101906104839190612dbb565b611a20565b005b6104a4600480360381019061049f91906129fe565b611f00565b6040516104b19190612f2c565b60405180910390f35b6104c261215b565b6040516104cf9190612b92565b60405180910390f35b6104f260048036038101906104ed9190612ab6565b612161565b005b6104fc612259565b6040516105099190612736565b60405180910390f35b6008602052816000526040600020818154811061052e57600080fd5b906000526020600020016000915091509054906101000a900473ffffffffffffffffffffffffffffffffffffffff1681565b60056020528060005260406000206000915090508060000160009054906101000a900473ffffffffffffffffffffffffffffffffffffffff16908060010154908060020160009054906101000a900473ffffffffffffffffffffffffffffffffffffffff16908060020160149054906101000a900460ff16905084565b6000806000600460008581526020019081526020016000209050600091506000925060005b816003018054905081101561071f57600082600301828154811061062957610628612f4e565b5b90600052602060002001549050600083600201600083815260200190815260200160002060030190508080549050856106629190612fac565b945060005b818054905081101561070f57600760008a73ffffffffffffffffffffffffffffffffffffffff1673ffffffffffffffffffffffffffffffffffffffff16815260200190815260200160002060008383815481106106c7576106c6612f4e565b5b9060005260206000200154815260200190815260200160002060009054906101000a900460ff16156107025786806106fe90612fe0565b9750505b8080600101915050610667565b5050508080600101915050610602565b50509250929050565b60008054906101000a900473ffffffffffffffffffffffffffffffffffffffff1673ffffffffffffffffffffffffffffffffffffffff163373ffffffffffffffffffffffffffffffffffffffff16146107b6576040517f08c379a00000000000000000000000000000000000000000000000000000000081526004016107ad90613074565b60405180910390fd5b6000600160008154809291906107cb90612fe0565b91905055905060006004600083815260200190815260200160002090508181600001819055508281600101908161080291906132a0565b50817e4736eea0f1f8d3b949033af6dbb0fdea6fc371bd8f2d0436eedb58961659e5846040516108329190613372565b60405180910390a2505050565b60008054906101000a900473ffffffffffffffffffffffffffffffffffffffff1673ffffffffffffffffffffffffffffffffffffffff163373ffffffffffffffffffffffffffffffffffffffff16146108cd576040517f08c379a00000000000000000000000000000000000000000000000000000000081526004016108c490613074565b60405180910390fd5b600060046000858152602001908152602001600020905060005b816003018054905081101561097e57600082600201600083815260200190815260200160002090508480519060200120816001016040516109289190613437565b604051809103902003610970576040517f08c379a00000000000000000000000000000000000000000000000000000000081526004016109679061349a565b60405180910390fd5b5080806001019150506108e7565b5060006004600086815260200190815260200160002060030180549050905060405180608001604052808281526020018581526020018473ffffffffffffffffffffffffffffffffffffffff168152602001600067ffffffffffffffff8111156109eb576109ea6128d3565b5b604051908082528060200260200182016040528015610a195781602001602082028036833780820191505090505b50815250600460008781526020019081526020016000206002016000838152602001908152602001600020600082015181600001556020820151816001019081610a6391906132a0565b5060408201518160020160006101000a81548173ffffffffffffffffffffffffffffffffffffffff021916908373ffffffffffffffffffffffffffffffffffffffff1602179055506060820151816003019080519060200190610ac7929190612601565b50905050600460008681526020019081526020016000206003018190806001815401808255809150506001900390600052602060002001600090919091909150555050505050565b6004602052806000526040600020600091509050806000015490806001018054610b38906130c3565b80601f0160208091040260200160405190810160405280929190818152602001828054610b64906130c3565b8015610bb15780601f10610b8657610100808354040283529160200191610bb1565b820191906000526020600020905b815481529060010190602001808311610b9457829003601f168201915b5050505050905082565b60025481565b8380600460008381526020019081526020016000206000015414610c1a576040517f08c379a0000000000000000000000000000000000000000000000000000000008152600401610c1190613506565b60405180910390fd5b848460046000838152602001908152602001600020600301805490508110610c77576040517f08c379a0000000000000000000000000000000000000000000000000000000008152600401610c6e90613572565b60405180910390fd5b60046000838152602001908152602001600020600201600082815260200190815260200160002060020160009054906101000a900473ffffffffffffffffffffffffffffffffffffffff1673ffffffffffffffffffffffffffffffffffffffff163373ffffffffffffffffffffffffffffffffffffffff1614610d2f576040517f08c379a0000000000000000000000000000000000000000000000000000000008152600401610d26906135de565b60405180910390fd5b600060026000815480929190610d4490612fe0565b9190505590506040518060e00160405280828152602001898152602001888152602001878152602001428152602001603c87610d8091906135fe565b42610d8b9190612fac565b81526020016000151581525060066000838152602001908152602001600020600082015181600001556020820151816001015560408201518160020155606082015181600301556080820151816004015560a0820151816005015560c08201518160060160006101000a81548160ff021916908315150217905550905050600460008981526020019081526020016000206002016000888152602001908152602001600020600301819080600181540180825580915050600190039060005260206000200160009091909190915055877f20e697ee2e8310db3b8b0d28937a1d05bc2cdd1b0698c3699f16a6c9387534e88883604051610e8c92919061288f565b60405180910390a25050505050505050565b60008054906101000a900473ffffffffffffffffffffffffffffffffffffffff1673ffffffffffffffffffffffffffffffffffffffff163373ffffffffffffffffffffffffffffffffffffffff1614610f2c576040517f08c379a0000000000000000000000000000000000000000000000000000000008152600401610f2390613074565b60405180910390fd5b600073ffffffffffffffffffffffffffffffffffffffff168173ffffffffffffffffffffffffffffffffffffffff1603610f9b576040517f08c379a0000000000000000000000000000000000000000000000000000000008152600401610f929061368c565b60405180910390fd5b806000806101000a81548173ffffffffffffffffffffffffffffffffffffffff021916908373ffffffffffffffffffffffffffffffffffffffff16021790555050565b60066020528060005260406000206000915090508060000154908060010154908060020154908060030154908060040154908060050154908060060160009054906101000a900460ff16905087565b60035481565b60076020528160005260406000206020528060005260406000206000915091509054906101000a900460ff1681565b600a6020528060005260406000206000915054906101000a900460ff1681565b81806004600083815260200190815260200160002060000154146110db576040517f08c379a00000000000000000000000000000000000000000000000000000000081526004016110d290613506565b60405180910390fd5b60008054906101000a900473ffffffffffffffffffffffffffffffffffffffff1673ffffffffffffffffffffffffffffffffffffffff163373ffffffffffffffffffffffffffffffffffffffff1614611169576040517f08c379a000000000000000000000000000000000000000000000000000000000815260040161116090613074565b60405180910390fd5b6004600084815260200190815260200160002060050160008373ffffffffffffffffffffffffffffffffffffffff1673ffffffffffffffffffffffffffffffffffffffff16815260200190815260200160002060009054906101000a900460ff161561120a576040517f08c379a0000000000000000000000000000000000000000000000000000000008152600401611201906136f8565b60405180910390fd5b60016004600085815260200190815260200160002060050160008473ffffffffffffffffffffffffffffffffffffffff1673ffffffffffffffffffffffffffffffffffffffff16815260200190815260200160002060006101000a81548160ff021916908315150217905550505050565b81806004600083815260200190815260200160002060000154146112d4576040517f08c379a00000000000000000000000000000000000000000000000000000000081526004016112cb90613506565b60405180910390fd5b60008054906101000a900473ffffffffffffffffffffffffffffffffffffffff1673ffffffffffffffffffffffffffffffffffffffff163373ffffffffffffffffffffffffffffffffffffffff1614611362576040517f08c379a000000000000000000000000000000000000000000000000000000000815260040161135990613074565b60405180910390fd5b6004600084815260200190815260200160002060050160008373ffffffffffffffffffffffffffffffffffffffff1673ffffffffffffffffffffffffffffffffffffffff16815260200190815260200160002060009054906101000a900460ff16611402576040517f08c379a00000000000000000000000000000000000000000000000000000000081526004016113f990613764565b60405180910390fd5b60006004600085815260200190815260200160002060050160008473ffffffffffffffffffffffffffffffffffffffff1673ffffffffffffffffffffffffffffffffffffffff16815260200190815260200160002060006101000a81548160ff021916908315150217905550505050565b6000600560008381526020019081526020016000209050600073ffffffffffffffffffffffffffffffffffffffff168160000160009054906101000a900473ffffffffffffffffffffffffffffffffffffffff1673ffffffffffffffffffffffffffffffffffffffff160361151d576040517f08c379a0000000000000000000000000000000000000000000000000000000008152600401611514906137d0565b60405180910390fd5b8060020160149054906101000a900460ff161561156f576040517f08c379a00000000000000000000000000000000000000000000000000000000081526004016115669061383c565b60405180910390fd5b8060020160009054906101000a900473ffffffffffffffffffffffffffffffffffffffff1673ffffffffffffffffffffffffffffffffffffffff163373ffffffffffffffffffffffffffffffffffffffff161480611618575060008054906101000a900473ffffffffffffffffffffffffffffffffffffffff1673ffffffffffffffffffffffffffffffffffffffff163373ffffffffffffffffffffffffffffffffffffffff16145b611657576040517f08c379a000000000000000000000000000000000000000000000000000000000815260040161164e906138a8565b60405180910390fd5b60018160020160146101000a81548160ff0219169083151502179055506001600760008360020160009054906101000a900473ffffffffffffffffffffffffffffffffffffffff1673ffffffffffffffffffffffffffffffffffffffff1673ffffffffffffffffffffffffffffffffffffffff16815260200190815260200160002060008360010154815260200190815260200160002060006101000a81548160ff0219169083151502179055508060020160009054906101000a900473ffffffffffffffffffffffffffffffffffffffff1673ffffffffffffffffffffffffffffffffffffffff16827f189199877ac49c708164c69193136769411baaedcc0ffc4660ad59cc1111c03083600101546040516117749190612b92565b60405180910390a35050565b60096020528160005260406000206020528060005260406000206000915091509054906101000a900460ff1681565b6000806117c962015180846117c491906138f7565b61227d565b508092508193505050915091565b6000600660008481526020019081526020016000209050600460008260010154815260200190815260200160002060020160008260020154815260200190815260200160002060020160009054906101000a900473ffffffffffffffffffffffffffffffffffffffff1673ffffffffffffffffffffffffffffffffffffffff163373ffffffffffffffffffffffffffffffffffffffff16146118ae576040517f08c379a00000000000000000000000000000000000000000000000000000000081526004016118a5906138a8565b60405180910390fd5b600083836003546040516020016118c793929190613991565b60405160208183030381529060405280519060200120905060405180608001604052803373ffffffffffffffffffffffffffffffffffffffff1681526020018581526020018473ffffffffffffffffffffffffffffffffffffffff168152602001600015158152506005600083815260200190815260200160002060008201518160000160006101000a81548173ffffffffffffffffffffffffffffffffffffffff021916908373ffffffffffffffffffffffffffffffffffffffff1602179055506020820151816001015560408201518160020160006101000a81548173ffffffffffffffffffffffffffffffffffffffff021916908373ffffffffffffffffffffffffffffffffffffffff16021790555060608201518160020160146101000a81548160ff02191690831515021790555090505060036000815480929190611a1090612fe0565b919050555050505050565b600581565b60006006600087815260200190815260200160002090506000600460008360010154815260200190815260200160002090508060050160003373ffffffffffffffffffffffffffffffffffffffff1673ffffffffffffffffffffffffffffffffffffffff16815260200190815260200160002060009054906101000a900460ff16611ae0576040517f08c379a0000000000000000000000000000000000000000000000000000000008152600401611ad790613764565b60405180910390fd5b8160060160009054906101000a900460ff1615611b32576040517f08c379a0000000000000000000000000000000000000000000000000000000008152600401611b2990613a1a565b60405180910390fd5b8160050154421115611b79576040517f08c379a0000000000000000000000000000000000000000000000000000000008152600401611b7090613a86565b60405180910390fd5b600760003373ffffffffffffffffffffffffffffffffffffffff1673ffffffffffffffffffffffffffffffffffffffff168152602001908152602001600020600088815260200190815260200160002060009054906101000a900460ff1615611c17576040517f08c379a0000000000000000000000000000000000000000000000000000000008152600401611c0e90613af2565b60405180910390fd5b611c278683600301546005612410565b611c66576040517f08c379a0000000000000000000000000000000000000000000000000000000008152600401611c5d90613b5e565b60405180910390fd5b600082600301548360040154604051602001611c83929190613b9f565b604051602081830303815290604052805190602001209050611ce281868460020160008760020154815260200190815260200160002060020160009054906101000a900473ffffffffffffffffffffffffffffffffffffffff166124cf565b611d21576040517f08c379a0000000000000000000000000000000000000000000000000000000008152600401611d1890613c17565b60405180910390fd5b60008787604051602001611d36929190613b9f565b604051602081830303815290604052805190602001209050611d598186336124cf565b611d98576040517f08c379a0000000000000000000000000000000000000000000000000000000008152600401611d8f90613c83565b60405180910390fd5b60008686604051602001611dad929190613cdf565b604051602081830303815290604052805190602001209050600a600082815260200190815260200160002060009054906101000a900460ff1615611e26576040517f08c379a0000000000000000000000000000000000000000000000000000000008152600401611e1d90613d4f565b60405180910390fd5b6001600a600083815260200190815260200160002060006101000a81548160ff0219169083151502179055506001600760003373ffffffffffffffffffffffffffffffffffffffff1673ffffffffffffffffffffffffffffffffffffffff16815260200190815260200160002060008c815260200190815260200160002060006101000a81548160ff0219169083151502179055507f8841d9f49345d61efc842e9624f59b54162b3c8acf4e384fd425957a2be55d86338b604051611eec929190613d6f565b60405180910390a150505050505050505050565b6060600080600090505b600154811015611fd557600060046000838152602001908152602001600020905060005b8160030180549050811015611fc6576000826003018281548110611f5557611f54612f4e565b5b9060005260206000200154905060008360020160008381526020019081526020016000209050878051906020012081600101604051611f949190613437565b604051809103902003611fb757806003018054905086611fb49190612fac565b95505b50508080600101915050611f2e565b50508080600101915050611f0a565b5060008167ffffffffffffffff811115611ff257611ff16128d3565b5b6040519080825280602002602001820160405280156120205781602001602082028036833780820191505090505b509050600080600090505b60015481101561214f57600060046000838152602001908152602001600020905060005b816003018054905081101561214057600082600301828154811061207657612075612f4e565b5b90600052602060002001549050600083600201600083815260200190815260200160002090508980519060200120816001016040516120b59190613437565b6040518091039020036121315760005b816003018054905081101561212f578160030181815481106120ea576120e9612f4e565b5b906000526020600020015488888151811061210857612107612f4e565b5b602002602001018181525050868061211f90612fe0565b97505080806001019150506120c5565b505b5050808060010191505061204f565b5050808060010191505061202b565b50819350505050919050565b60015481565b6000600660008381526020019081526020016000209050600460008260010154815260200190815260200160002060020160008260020154815260200190815260200160002060020160009054906101000a900473ffffffffffffffffffffffffffffffffffffffff1673ffffffffffffffffffffffffffffffffffffffff163373ffffffffffffffffffffffffffffffffffffffff1614612238576040517f08c379a000000000000000000000000000000000000000000000000000000000815260040161222f906138a8565b60405180910390fd5b60018160060160006101000a81548160ff0219169083151502179055505050565b60008054906101000a900473ffffffffffffffffffffffffffffffffffffffff1681565b600080600080849050600062253d8c62010bd98361229b9190613da2565b6122a59190613da2565b9050600062023ab18260046122ba9190613de6565b6122c49190613e5e565b9050600460038262023ab16122d99190613de6565b6122e39190613da2565b6122ed9190613e5e565b826122f89190613ec8565b9150600062164b0960018461230d9190613da2565b610fa061231a9190613de6565b6123249190613e5e565b9050601f6004826105b56123389190613de6565b6123429190613e5e565b8461234d9190613ec8565b6123579190613da2565b9250600061098f84605061236b9190613de6565b6123759190613e5e565b905060508161098f6123879190613de6565b6123919190613e5e565b8461239c9190613ec8565b9550600b816123ab9190613e5e565b935083600c6123ba9190613de6565b6002826123c79190613da2565b6123d19190613ec8565b965083826031856123e29190613ec8565b60646123ee9190613de6565b6123f89190613da2565b6124029190613da2565b975050505050509193909250565b60006020821115612456576040517f08c379a000000000000000000000000000000000000000000000000000000000815260040161244d90613f57565b60405180910390fd5b6000820361246757600190506124c8565b60007fffffffffffffffffffffffffffffffffffffffffffffffffffffffffffffffff60001b600160088561249c91906135fe565b6101006124a99190613f77565b6001901b6124b79190613f77565b60001b189050808416818616149150505b9392505050565b600080846040516020016124e39190614002565b604051602081830303815290604052805190602001209050600080600061250987612599565b9250925092508573ffffffffffffffffffffffffffffffffffffffff16600185838686604051600081526020016040526040516125499493929190614044565b6020604051602081039080840390855afa15801561256b573d6000803e3d6000fd5b5050506020604051035173ffffffffffffffffffffffffffffffffffffffff16149450505050509392505050565b600080600060418451146125e2576040517f08c379a00000000000000000000000000000000000000000000000000000000081526004016125d9906140d5565b60405180910390fd5b6020840151925060408401519150606084015160001a90509193909250565b82805482825590600052602060002090810192821561263d579160200282015b8281111561263c578251825591602001919060010190612621565b5b50905061264a919061264e565b5090565b5b8082111561266757600081600090555060010161264f565b5090565b6000604051905090565b600080fd5b600080fd5b6000819050919050565b6126928161267f565b811461269d57600080fd5b50565b6000813590506126af81612689565b92915050565b600080604083850312156126cc576126cb612675565b5b60006126da858286016126a0565b92505060206126eb858286016126a0565b9150509250929050565b600073ffffffffffffffffffffffffffffffffffffffff82169050919050565b6000612720826126f5565b9050919050565b61273081612715565b82525050565b600060208201905061274b6000830184612727565b92915050565b6000819050919050565b61276481612751565b811461276f57600080fd5b50565b6000813590506127818161275b565b92915050565b60006020828403121561279d5761279c612675565b5b60006127ab84828501612772565b91505092915050565b6127bd8161267f565b82525050565b60008115159050919050565b6127d8816127c3565b82525050565b60006080820190506127f36000830187612727565b61280060208301866127b4565b61280d6040830185612727565b61281a60608301846127cf565b95945050505050565b61282c81612715565b811461283757600080fd5b50565b60008135905061284981612823565b92915050565b6000806040838503121561286657612865612675565b5b60006128748582860161283a565b9250506020612885858286016126a0565b9150509250929050565b60006040820190506128a460008301856127b4565b6128b160208301846127b4565b9392505050565b600080fd5b600080fd5b6000601f19601f8301169050919050565b7f4e487b7100000000000000000000000000000000000000000000000000000000600052604160045260246000fd5b61290b826128c2565b810181811067ffffffffffffffff8211171561292a576129296128d3565b5b80604052505050565b600061293d61266b565b90506129498282612902565b919050565b600067ffffffffffffffff821115612969576129686128d3565b5b612972826128c2565b9050602081019050919050565b82818337600083830152505050565b60006129a161299c8461294e565b612933565b9050828152602081018484840111156129bd576129bc6128bd565b5b6129c884828561297f565b509392505050565b600082601f8301126129e5576129e46128b8565b5b81356129f584826020860161298e565b91505092915050565b600060208284031215612a1457612a13612675565b5b600082013567ffffffffffffffff811115612a3257612a3161267a565b5b612a3e848285016129d0565b91505092915050565b600080600060608486031215612a6057612a5f612675565b5b6000612a6e868287016126a0565b935050602084013567ffffffffffffffff811115612a8f57612a8e61267a565b5b612a9b868287016129d0565b9250506040612aac8682870161283a565b9150509250925092565b600060208284031215612acc57612acb612675565b5b6000612ada848285016126a0565b91505092915050565b600081519050919050565b600082825260208201905092915050565b60005b83811015612b1d578082015181840152602081019050612b02565b60008484015250505050565b6000612b3482612ae3565b612b3e8185612aee565b9350612b4e818560208601612aff565b612b57816128c2565b840191505092915050565b6000604082019050612b7760008301856127b4565b8181036020830152612b898184612b29565b90509392505050565b6000602082019050612ba760008301846127b4565b92915050565b60008060008060808587031215612bc757612bc6612675565b5b6000612bd5878288016126a0565b9450506020612be6878288016126a0565b9350506040612bf787828801612772565b9250506060612c08878288016126a0565b91505092959194509250565b600060208284031215612c2a57612c29612675565b5b6000612c388482850161283a565b91505092915050565b612c4a81612751565b82525050565b600060e082019050612c65600083018a6127b4565b612c7260208301896127b4565b612c7f60408301886127b4565b612c8c6060830187612c41565b612c9960808301866127b4565b612ca660a08301856127b4565b612cb360c08301846127cf565b98975050505050505050565b6000602082019050612cd460008301846127cf565b92915050565b60008060408385031215612cf157612cf0612675565b5b6000612cff858286016126a0565b9250506020612d108582860161283a565b9150509250929050565b600067ffffffffffffffff821115612d3557612d346128d3565b5b612d3e826128c2565b9050602081019050919050565b6000612d5e612d5984612d1a565b612933565b905082815260208101848484011115612d7a57612d796128bd565b5b612d8584828561297f565b509392505050565b600082601f830112612da257612da16128b8565b5b8135612db2848260208601612d4b565b91505092915050565b600080600080600060a08688031215612dd757612dd6612675565b5b6000612de5888289016126a0565b9550506020612df688828901612772565b9450506040612e07888289016126a0565b935050606086013567ffffffffffffffff811115612e2857612e2761267a565b5b612e3488828901612d8d565b925050608086013567ffffffffffffffff811115612e5557612e5461267a565b5b612e6188828901612d8d565b9150509295509295909350565b600081519050919050565b600082825260208201905092915050565b6000819050602082019050919050565b612ea38161267f565b82525050565b6000612eb58383612e9a565b60208301905092915050565b6000602082019050919050565b6000612ed982612e6e565b612ee38185612e79565b9350612eee83612e8a565b8060005b83811015612f1f578151612f068882612ea9565b9750612f1183612ec1565b925050600181019050612ef2565b5085935050505092915050565b60006020820190508181036000830152612f468184612ece565b905092915050565b7f4e487b7100000000000000000000000000000000000000000000000000000000600052603260045260246000fd5b7f4e487b7100000000000000000000000000000000000000000000000000000000600052601160045260246000fd5b6000612fb78261267f565b9150612fc28361267f565b9250828201905080821115612fda57612fd9612f7d565b5b92915050565b6000612feb8261267f565b91507fffffffffffffffffffffffffffffffffffffffffffffffffffffffffffffffff820361301d5761301c612f7d565b5b600182019050919050565b7f4f6e6c792061646d696e00000000000000000000000000000000000000000000600082015250565b600061305e600a83612aee565b915061306982613028565b602082019050919050565b6000602082019050818103600083015261308d81613051565b9050919050565b7f4e487b7100000000000000000000000000000000000000000000000000000000600052602260045260246000fd5b600060028204905060018216806130db57607f821691505b6020821081036130ee576130ed613094565b5b50919050565b60008190508160005260206000209050919050565b60006020601f8301049050919050565b600082821b905092915050565b6000600883026131567fffffffffffffffffffffffffffffffffffffffffffffffffffffffffffffffff82613119565b6131608683613119565b95508019841693508086168417925050509392505050565b6000819050919050565b600061319d6131986131938461267f565b613178565b61267f565b9050919050565b6000819050919050565b6131b783613182565b6131cb6131c3826131a4565b848454613126565b825550505050565b600090565b6131e06131d3565b6131eb8184846131ae565b505050565b5b8181101561320f576132046000826131d8565b6001810190506131f1565b5050565b601f82111561325457613225816130f4565b61322e84613109565b8101602085101561323d578190505b61325161324985613109565b8301826131f0565b50505b505050565b600082821c905092915050565b600061327760001984600802613259565b1980831691505092915050565b60006132908383613266565b9150826002028217905092915050565b6132a982612ae3565b67ffffffffffffffff8111156132c2576132c16128d3565b5b6132cc82546130c3565b6132d7828285613213565b600060209050601f83116001811461330a57600084156132f8578287015190505b6133028582613284565b86555061336a565b601f198416613318866130f4565b60005b828110156133405784890151825560018201915060208501945060208101905061331b565b8683101561335d5784890151613359601f891682613266565b8355505b6001600288020188555050505b505050505050565b6000602082019050818103600083015261338c8184612b29565b905092915050565b600081905092915050565b60008190508160005260206000209050919050565b600081546133c1816130c3565b6133cb8186613394565b945060018216600081146133e657600181146133fb5761342e565b60ff198316865281151582028601935061342e565b6134048561339f565b60005b8381101561342657815481890152600182019150602081019050613407565b838801955050505b50505092915050565b600061344382846133b4565b915081905092915050565b7f5375626a65637420657869737473000000000000000000000000000000000000600082015250565b6000613484600e83612aee565b915061348f8261344e565b602082019050919050565b600060208201905081810360008301526134b381613477565b9050919050565b7f496e76616c69642073656374696f6e0000000000000000000000000000000000600082015250565b60006134f0600f83612aee565b91506134fb826134ba565b602082019050919050565b6000602082019050818103600083015261351f816134e3565b9050919050565b7f496e76616c6964207375626a6563742049440000000000000000000000000000600082015250565b600061355c601283612aee565b915061356782613526565b602082019050919050565b6000602082019050818103600083015261358b8161354f565b9050919050565b7f4e6f742073656374696f6e2773207375626a6563742074656163686572000000600082015250565b60006135c8601d83612aee565b91506135d382613592565b602082019050919050565b600060208201905081810360008301526135f7816135bb565b9050919050565b60006136098261267f565b91506136148361267f565b92508282026136228161267f565b9150828204841483151761363957613638612f7d565b5b5092915050565b7f496e76616c696420616464726573730000000000000000000000000000000000600082015250565b6000613676600f83612aee565b915061368182613640565b602082019050919050565b600060208201905081810360008301526136a581613669565b9050919050565b7f416c726561647920656e726f6c6c656400000000000000000000000000000000600082015250565b60006136e2601083612aee565b91506136ed826136ac565b602082019050919050565b60006020820190508181036000830152613711816136d5565b9050919050565b7f4e6f7420656e726f6c6c65640000000000000000000000000000000000000000600082015250565b600061374e600c83612aee565b915061375982613718565b602082019050919050565b6000602082019050818103600083015261377d81613741565b9050919050565b7f496e76616c696420726571756573740000000000000000000000000000000000600082015250565b60006137ba600f83612aee565b91506137c582613784565b602082019050919050565b600060208201905081810360008301526137e9816137ad565b9050919050565b7f416c726561647920617070726f76656400000000000000000000000000000000600082015250565b6000613826601083612aee565b9150613831826137f0565b602082019050919050565b6000602082019050818103600083015261385581613819565b9050919050565b7f556e617574686f72697a65640000000000000000000000000000000000000000600082015250565b6000613892600c83612aee565b915061389d8261385c565b602082019050919050565b600060208201905081810360008301526138c181613885565b9050919050565b7f4e487b7100000000000000000000000000000000000000000000000000000000600052601260045260246000fd5b60006139028261267f565b915061390d8361267f565b92508261391d5761391c6138c8565b5b828204905092915050565b6000819050919050565b61394361393e8261267f565b613928565b82525050565b60008160601b9050919050565b600061396182613949565b9050919050565b600061397382613956565b9050919050565b61398b61398682612715565b613968565b82525050565b600061399d8286613932565b6020820191506139ad828561397a565b6014820191506139bd8284613932565b602082019150819050949350505050565b7f417474656e64616e636520636c6f736564000000000000000000000000000000600082015250565b6000613a04601183612aee565b9150613a0f826139ce565b602082019050919050565b60006020820190508181036000830152613a33816139f7565b9050919050565b7f436c61737320656e646564000000000000000000000000000000000000000000600082015250565b6000613a70600b83612aee565b9150613a7b82613a3a565b602082019050919050565b60006020820190508181036000830152613a9f81613a63565b9050919050565b7f416c7265616479206d61726b6564000000000000000000000000000000000000600082015250565b6000613adc600e83612aee565b9150613ae782613aa6565b602082019050919050565b60006020820190508181036000830152613b0b81613acf565b9050919050565b7f4c6f636174696f6e206d69736d61746368000000000000000000000000000000600082015250565b6000613b48601183612aee565b9150613b5382613b12565b602082019050919050565b60006020820190508181036000830152613b7781613b3b565b9050919050565b6000819050919050565b613b99613b9482612751565b613b7e565b82525050565b6000613bab8285613b88565b602082019150613bbb8284613932565b6020820191508190509392505050565b7f496e76616c696420746561636865722070726f6f660000000000000000000000600082015250565b6000613c01601583612aee565b9150613c0c82613bcb565b602082019050919050565b60006020820190508181036000830152613c3081613bf4565b9050919050565b7f496e76616c69642073747564656e742070726f6f660000000000000000000000600082015250565b6000613c6d601583612aee565b9150613c7882613c37565b602082019050919050565b60006020820190508181036000830152613c9c81613c60565b9050919050565b600081519050919050565b6000613cb982613ca3565b613cc38185613394565b9350613cd3818560208601612aff565b80840191505092915050565b6000613ceb8285613cae565b9150613cf78284613cae565b91508190509392505050565b7f50726f6f66732072657573656400000000000000000000000000000000000000600082015250565b6000613d39600d83612aee565b9150613d4482613d03565b602082019050919050565b60006020820190508181036000830152613d6881613d2c565b9050919050565b6000604082019050613d846000830185612727565b613d9160208301846127b4565b9392505050565b6000819050919050565b6000613dad82613d98565b9150613db883613d98565b925082820190508281121560008312168382126000841215161715613de057613ddf612f7d565b5b92915050565b6000613df182613d98565b9150613dfc83613d98565b9250828202613e0a81613d98565b91507f80000000000000000000000000000000000000000000000000000000000000008414600084121615613e4257613e41612f7d565b5b8282058414831517613e5757613e56612f7d565b5b5092915050565b6000613e6982613d98565b9150613e7483613d98565b925082613e8457613e836138c8565b5b600160000383147f800000000000000000000000000000000000000000000000000000000000000083141615613ebd57613ebc612f7d565b5b828205905092915050565b6000613ed382613d98565b9150613ede83613d98565b9250828203905081811260008412168282136000851215161715613f0557613f04612f7d565b5b92915050565b7f50726566697820746f6f206c6172676500000000000000000000000000000000600082015250565b6000613f41601083612aee565b9150613f4c82613f0b565b602082019050919050565b60006020820190508181036000830152613f7081613f34565b9050919050565b6000613f828261267f565b9150613f8d8361267f565b9250828203905081811115613fa557613fa4612f7d565b5b92915050565b600081905092915050565b7f19457468657265756d205369676e6564204d6573736167653a0a333200000000600082015250565b6000613fec601c83613fab565b9150613ff782613fb6565b601c82019050919050565b600061400d82613fdf565b91506140198284613b88565b60208201915081905092915050565b600060ff82169050919050565b61403e81614028565b82525050565b60006080820190506140596000830187612c41565b6140666020830186614035565b6140736040830185612c41565b6140806060830184612c41565b95945050505050565b7f496e76616c6964207369676e6174757265206c656e6774680000000000000000600082015250565b60006140bf601883612aee565b91506140ca82614089565b602082019050919050565b600060208201905081810360008301526140ee816140b2565b905091905056fea2646970667358221220519e9226e3fab1610ae1388a9b44a1e73d1ae5cbb4cd885c8d512e6413c5292f64736f6c634300081c0033",
  "linkReferences": {},
  "deployedLinkReferences": {}
}