{"contracts/College Attendance.sol":{"CollegeAttendance":{"abi":[{"anonymous":false,"inputs":[{"indexed":true,"internalType":"bytes32","name":"requestId","type":"bytes32"},{"indexed":true,"internalType":"address","name":"student","type":"address"},{"indexed":false,"internalType":"uint256","name":"classId","type":"uint256"}],"name":"AdjustmentApproved","type":"event"},{"anonymous":false,"inputs":[{"indexed":false,"internalType":"bytes32","name":"requestId","type":"bytes32"},{"indexed":false,"internalType":"uint256","name":"classId","type":"uint256"},{"indexed":false,"internalType":"address","name":"student","type":"address"}],"name":"AdjustmentRequested","type":"event"},{"anonymous":false,"inputs":[{"indexed":false,"internalType":"address","name":"student","type":"address"},{"indexed":false,"internalType":"uint256","name":"classId","type":"uint256"}],"name":"AttendanceMarked","type":"event"},{"anonymous":false,"inputs":[{"indexed":true,"internalType":"uint256","name":"sectionId","type":"uint256"},{"indexed":false,"internalType":"uint256","name":"subjectId","type":"uint256"},{"indexed":false,"internalType":"uint256","name":"classId","type":"uint256"}],"name":"ClassStarted","type":"event"},{"anonymous":false,"inputs":[{"indexed":true,"internalType":"uint256","name":"sectionId","type":"uint256"},{"indexed":false,"internalType":"string","name":"name","type":"string"}],"name":"SectionCreated","type":"event"},{"inputs":[],"name":"GEOHASH_TOLERANCE_BYTES","outputs":[{"internalType":"uint256","name":"","type":"uint256"}],"stateMutability":"view","type":"function"},{"inputs":[{"internalType":"uint256","name":"sectionId","type":"uint256"},{"internalType":"address","name":"student","type":"address"}],"name":"addStudent","outputs":[],"stateMutability":"nonpayable","type":"function"},{"inputs":[{"internalType":"uint256","name":"sectionId","type":"uint256"},{"internalType":"string","name":"subjectName","type":"string"},{"internalType":"address","name":"teacher","type":"address"}],"name":"addSubjectToSection","outputs":[],"stateMutability":"nonpayable","type":"function"},{"inputs":[{"internalType":"bytes32","name":"","type":"bytes32"}],"name":"adjustmentRequests","outputs":[{"internalType":"address","name":"teacher","type":"address"},{"internalType":"uint256","name":"classId","type":"uint256"},{"internalType":"address","name":"student","type":"address"},{"internalType":"bool","name":"approved","type":"bool"}],"stateMutability":"view","type":"function"},{"inputs":[],"name":"admin","outputs":[{"internalType":"address","name":"","type":"address"}],"stateMutability":"view","type":"function"},{"inputs":[{"internalType":"bytes32","name":"requestId","type":"bytes32"}],"name":"approveAdjustment","outputs":[],"stateMutability":"nonpayable","type":"function"},{"inputs":[{"internalType":"address","name":"","type":"address"},{"internalType":"uint256","name":"","type":"uint256"}],"name":"attendance","outputs":[{"internalType":"bool","name":"","type":"bool"}],"stateMutability":"view","type":"function"},{"inputs":[],"name":"classCounter","outputs":[{"internalType":"uint256","name":"","type":"uint256"}],"stateMutability":"view","type":"function"},{"inputs":[{"internalType":"uint256","name":"","type":"uint256"}],"name":"classes","outputs":[{"internalType":"uint256","name":"id","type":"uint256"},{"internalType":"uint256","name":"sectionId","type":"uint256"},{"internalType":"uint256","name":"subjectId","type":"uint256"},{"internalType":"bytes32","name":"geohash","type":"bytes32"},{"internalType":"uint256","name":"startTime","type":"uint256"},{"internalType":"uint256","name":"endTime","type":"uint256"},{"internalType":"bool","name":"attendanceClosed","type":"bool"}],"stateMutability":"view","type":"function"},{"inputs":[{"internalType":"uint256","name":"classId","type":"uint256"}],"name":"closeAttendance","outputs":[],"stateMutability":"nonpayable","type":"function"},{"inputs":[{"internalType":"string","name":"name","type":"string"}],"name":"createSection","outputs":[],"stateMutability":"nonpayable","type":"function"},{"inputs":[{"internalType":"address","name":"student","type":"address"},{"internalType":"uint256","name":"sectionId","type":"uint256"}],"name":"getCombinedAttendance","outputs":[{"internalType":"uint256","name":"attended","type":"uint256"},{"internalType":"uint256","name":"total","type":"uint256"}],"stateMutability":"view","type":"function"},{"inputs":[{"internalType":"string","name":"subjectName","type":"string"}],"name":"getSubjectClasses","outputs":[{"internalType":"uint256[]","name":"","type":"uint256[]"}],"stateMutability":"view","type":"function"},{"inputs":[{"internalType":"uint256","name":"timestamp","type":"uint256"}],"name":"getYearMonth","outputs":[{"internalType":"uint256","name":"year","type":"uint256"},{"internalType":"uint256","name":"month","type":"uint256"}],"stateMutability":"pure","type":"function"},{"inputs":[{"internalType":"uint256","name":"","type":"uint256"},{"internalType":"address","name":"","type":"address"}],"name":"isEnrolled","outputs":[{"internalType":"bool","name":"","type":"bool"}],"stateMutability":"view","type":"function"},{"inputs":[{"internalType":"uint256","name":"classId","type":"uint256"},{"internalType":"bytes32","name":"studentGeohash","type":"bytes32"},{"internalType":"uint256","name":"studentTimestamp","type":"uint256"},{"internalType":"bytes","name":"teacherSig","type":"bytes"},{"internalType":"bytes","name":"studentSig","type":"bytes"}],"name":"markAttendance","outputs":[],"stateMutability":"nonpayable","type":"function"},{"inputs":[{"internalType":"uint256","name":"sectionId","type":"uint256"},{"internalType":"address","name":"student","type":"address"}],"name":"removeStudent","outputs":[],"stateMutability":"nonpayable","type":"function"},{"inputs":[{"internalType":"uint256","name":"classId","type":"uint256"},{"internalType":"address","name":"student","type":"address"}],"name":"requestAdjustment","outputs":[],"stateMutability":"nonpayable","type":"function"},{"inputs":[],"name":"requestCounter","outputs":[{"internalType":"uint256","name":"","type":"uint256"}],"stateMutability":"view","type":"function"},{"inputs":[],"name":"sectionCounter","outputs":[{"internalType":"uint256","name":"","type":"uint256"}],"stateMutability":"view","type":"function"},{"inputs":[{"internalType":"uint256","name":"","type":"uint256"},{"internalType":"uint256","name":"","type":"uint256"}],"name":"sectionStudents","outputs":[{"internalType":"address","name":"","type":"address"}],"stateMutability":"view","type":"function"},{"inputs":[{"internalType":"uint256","name":"","type":"uint256"}],"name":"sections","outputs":[{"internalType":"uint256","name":"id","type":"uint256"},{"internalType":"string","name":"name","type":"string"}],"stateMutability":"view","type":"function"},{"inputs":[{"internalType":"uint256","name":"sectionId","type":"uint256"},{"internalType":"uint256","name":"subjectId","type":"uint256"},{"internalType":"bytes32","name":"geohash","type":"bytes32"},{"internalType":"uint256","name":"durationMinutes","type":"uint256"}],"name":"startClass","outputs":[],"stateMutability":"nonpayable","type":"function"},{"inputs":[{"internalType":"address","name":"newAdmin","type":"address"}],"name":"transferAdmin","outputs":[],"stateMutability":"nonpayable","type":"function"},{"inputs":[{"internalType":"bytes32","name":"","type":"bytes32"}],"name":"usedLocationProofs","outputs":[{"internalType":"bool","name":"","type":"bool"}],"stateMutability":"view","type":"function"}],"evm":{"bytecode":{"linkReferences":{},"object":"6080604052348015600f57600080fd5b5061412b8061001f6000396000f3fe608060405234801561001057600080fd5b50600436106101735760003560e01c8063a515797a116100de578063d064d63f11610097578063f00070f511610071578063f00070f51461048a578063f11f6e94146104ba578063f2500368146104d8578063f851a440146104f457610173565b8063d064d63f14610434578063d4094ab614610450578063d90655961461046e57610173565b8063a515797a1461034f578063a850c1801461037f578063ab87e6d71461039b578063c93f63f6146103b7578063c9768315146103d3578063ca1f8c6e1461040357610173565b80633954d58b116101305780633954d58b146102755780634d7db89b1461029357806375829def146102af578063817dbe9f146102cb578063973a814e146103015780639a8d89551461031f57610173565b80630212081c146101785780630b104eee146101a857806313a3c482146101db578063301c82f31461020c5780633359da49146102285780633560344014610244575b600080fd5b610192600480360381019061018d91906126b5565b610512565b60405161019f9190612736565b60405180910390f35b6101c260048036038101906101bd9190612787565b610560565b6040516101d294939291906127de565b60405180910390f35b6101f560048036038101906101f0919061284f565b6105dd565b60405161020392919061288f565b60405180910390f35b610226600480360381019061022191906129fe565b610728565b005b610242600480360381019061023d9190612a47565b61083f565b005b61025e60048036038101906102599190612ab6565b610b0f565b60405161026c929190612b62565b60405180910390f35b61027d610bbb565b60405161028a9190612b92565b60405180910390f35b6102ad60048036038101906102a89190612bad565b610bc1565b005b6102c960048036038101906102c49190612c14565b610e9e565b005b6102e560048036038101906102e09190612ab6565b610fde565b6040516102f89796959493929190612c50565b60405180910390f35b61030961102d565b6040516103169190612b92565b60405180910390f35b6103396004803603810190610334919061284f565b611033565b6040516103469190612cbf565b60405180910390f35b61036960048036038101906103649190612787565b611062565b6040516103769190612cbf565b60405180910390f35b61039960048036038101906103949190612cda565b611082565b005b6103b560048036038101906103b09190612cda565b61127b565b005b6103d160048036038101906103cc9190612787565b611473565b005b6103ed60048036038101906103e89190612cda565b611780565b6040516103fa9190612cbf565b60405180910390f35b61041d60048036038101906104189190612ab6565b6117af565b60405161042b92919061288f565b60405180910390f35b61044e60048036038101906104499190612cda565b6117d7565b005b610458611a1b565b6040516104659190612b92565b60405180910390f35b61048860048036038101906104839190612dbb565b611a20565b005b6104a4600480360381019061049f91906129fe565b611f00565b6040516104b19190612f2c565b60405180910390f35b6104c261215b565b6040516104cf9190612b92565b60405180910390f35b6104f260048036038101906104ed9190612ab6565b612161565b005b6104fc612259565b6040516105099190612736565b60405180910390f35b6008602052816000526040600020818154811061052e57600080fd5b906000526020600020016000915091509054906101000a900473ffffffffffffffffffffffffffffffffffffffff1681565b60056020528060005260406000206000915090508060000160009054906101000a900473ffffffffffffffffffffffffffffffffffffffff16908060010154908060020160009054906101000a900473ffffffffffffffffffffffffffffffffffffffff16908060020160149054906101000a900460ff16905084565b6000806000600460008581526020019081526020016000209050600091506000925060005b816003018054905081101561071f57600082600301828154811061062957610628612f4e565b5b90600052602060002001549050600083600201600083815260200190815260200160002060030190508080549050856106629190612fac565b945060005b818054905081101561070f57600760008a73ffffffffffffffffffffffffffffffffffffffff1673ffffffffffffffffffffffffffffffffffffffff16815260200190815260200160002060008383815481106106c7576106c6612f4e565b5b9060005260206000200154815260200190815260200160002060009054906101000a900460ff16156107025786806106fe90612fe0565b9750505b8080600101915050610667565b5050508080600101915050610602565b50509250929050565b60008054906101000a900473ffffffffffffffffffffffffffffffffffffffff1673ffffffffffffffffffffffffffffffffffffffff163373ffffffffffffffffffffffffffffffffffffffff16146107b6576040517f08c379a00000000000000000000000000000000000000000000000000000000081526004016107ad90613074565b60405180910390fd5b6000600160008154809291906107cb90612fe0565b91905055905060006004600083815260200190815260200160002090508181600001819055508281600101908161080291906132a0565b50817e4736eea0f1f8d3b949033af6dbb0fdea6fc371bd8f2d0436eedb58961659e5846040516108329190613372565b60405180910390a2505050565b60008054906101000a900473ffffffffffffffffffffffffffffffffffffffff1673ffffffffffffffffffffffffffffffffffffffff163373ffffffffffffffffffffffffffffffffffffffff16146108cd576040517f08c379a00000000000000000000000000000000000000000000000000000000081526004016108c490613074565b60405180910390fd5b600060046000858152602001908152602001600020905060005b816003018054905081101561097e57600082600201600083815260200190815260200160002090508480519060200120816001016040516109289190613437565b604051809103902003610970576040517f08c379a00000000000000000000000000000000000000000000000000000000081526004016109679061349a565b60405180910390fd5b5080806001019150506108e7565b5060006004600086815260200190815260200160002060030180549050905060405180608001604052808281526020018581526020018473ffffffffffffffffffffffffffffffffffffffff168152602001600067ffffffffffffffff8111156109eb576109ea6128d3565b5b604051908082528060200260200182016040528015610a195781602001602082028036833780820191505090505b50815250600460008781526020019081526020016000206002016000838152602001908152602001600020600082015181600001556020820151816001019081610a6391906132a0565b5060408201518160020160006101000a81548173ffffffffffffffffffffffffffffffffffffffff021916908373ffffffffffffffffffffffffffffffffffffffff1602179055506060820151816003019080519060200190610ac7929190612601565b50905050600460008681526020019081526020016000206003018190806001815401808255809150506001900390600052602060002001600090919091909150555050505050565b6004602052806000526040600020600091509050806000015490806001018054610b38906130c3565b80601f0160208091040260200160405190810160405280929190818152602001828054610b64906130c3565b8015610bb15780601f10610b8657610100808354040283529160200191610bb1565b820191906000526020600020905b815481529060010190602001808311610b9457829003601f168201915b5050505050905082565b60025481565b8380600460008381526020019081526020016000206000015414610c1a576040517f08c379a0000000000000000000000000000000000000000000000000000000008152600401610c1190613506565b60405180910390fd5b848460046000838152602001908152602001600020600301805490508110610c77576040517f08c379a0000000000000000000000000000000000000000000000000000000008152600401610c6e90613572565b60405180910390fd5b60046000838152602001908152602001600020600201600082815260200190815260200160002060020160009054906101000a900473ffffffffffffffffffffffffffffffffffffffff1673ffffffffffffffffffffffffffffffffffffffff163373ffffffffffffffffffffffffffffffffffffffff1614610d2f576040517f08c379a0000000000000000000000000000000000000000000000000000000008152600401610d26906135de565b60405180910390fd5b600060026000815480929190610d4490612fe0565b9190505590506040518060e00160405280828152602001898152602001888152602001878152602001428152602001603c87610d8091906135fe565b42610d8b9190612fac565b81526020016000151581525060066000838152602001908152602001600020600082015181600001556020820151816001015560408201518160020155606082015181600301556080820151816004015560a0820151816005015560c08201518160060160006101000a81548160ff021916908315150217905550905050600460008981526020019081526020016000206002016000888152602001908152602001600020600301819080600181540180825580915050600190039060005260206000200160009091909190915055877f20e697ee2e8310db3b8b0d28937a1d05bc2cdd1b0698c3699f16a6c9387534e88883604051610e8c92919061288f565b60405180910390a25050505050505050565b60008054906101000a900473ffffffffffffffffffffffffffffffffffffffff1673ffffffffffffffffffffffffffffffffffffffff163373ffffffffffffffffffffffffffffffffffffffff1614610f2c576040517f08c379a0000000000000000000000000000000000000000000000000000000008152600401610f2390613074565b60405180910390fd5b600073ffffffffffffffffffffffffffffffffffffffff168173ffffffffffffffffffffffffffffffffffffffff1603610f9b576040517f08c379a0000000000000000000000000000000000000000000000000000000008152600401610f929061368c565b60405180910390fd5b806000806101000a81548173ffffffffffffffffffffffffffffffffffffffff021916908373ffffffffffffffffffffffffffffffffffffffff16021790555050565b60066020528060005260406000206000915090508060000154908060010154908060020154908060030154908060040154908060050154908060060160009054906101000a900460ff16905087565b60035481565b60076020528160005260406000206020528060005260406000206000915091509054906101000a900460ff1681565b600a6020528060005260406000206000915054906101000a900460ff1681565b81806004600083815260200190815260200160002060000154146110db576040517f08c379a00000000000000000000000000000000000000000000000000000000081526004016110d290613506565b60405180910390fd5b60008054906101000a900473ffffffffffffffffffffffffffffffffffffffff1673ffffffffffffffffffffffffffffffffffffffff163373ffffffffffffffffffffffffffffffffffffffff1614611169576040517f08c379a000000000000000000000000000000000000000000000000000000000815260040161116090613074565b60405180910390fd5b6004600084815260200190815260200160002060050160008373ffffffffffffffffffffffffffffffffffffffff1673ffffffffffffffffffffffffffffffffffffffff16815260200190815260200160002060009054906101000a900460ff161561120a576040517f08c379a0000000000000000000000000000000000000000000000000000000008152600401611201906136f8565b60405180910390fd5b60016004600085815260200190815260200160002060050160008473ffffffffffffffffffffffffffffffffffffffff1673ffffffffffffffffffffffffffffffffffffffff16815260200190815260200160002060006101000a81548160ff021916908315150217905550505050565b81806004600083815260200190815260200160002060000154146112d4576040517f08c379a00000000000000000000000000000000000000000000000000000000081526004016112cb90613506565b60405180910390fd5b60008054906101000a900473ffffffffffffffffffffffffffffffffffffffff1673ffffffffffffffffffffffffffffffffffffffff163373ffffffffffffffffffffffffffffffffffffffff1614611362576040517f08c379a000000000000000000000000000000000000000000000000000000000815260040161135990613074565b60405180910390fd5b6004600084815260200190815260200160002060050160008373ffffffffffffffffffffffffffffffffffffffff1673ffffffffffffffffffffffffffffffffffffffff16815260200190815260200160002060009054906101000a900460ff16611402576040517f08c379a00000000000000000000000000000000000000000000000000000000081526004016113f990613764565b60405180910390fd5b60006004600085815260200190815260200160002060050160008473ffffffffffffffffffffffffffffffffffffffff1673ffffffffffffffffffffffffffffffffffffffff16815260200190815260200160002060006101000a81548160ff021916908315150217905550505050565b6000600560008381526020019081526020016000209050600073ffffffffffffffffffffffffffffffffffffffff168160000160009054906101000a900473ffffffffffffffffffffffffffffffffffffffff1673ffffffffffffffffffffffffffffffffffffffff160361151d576040517f08c379a0000000000000000000000000000000000000000000000000000000008152600401611514906137d0565b60405180910390fd5b8060020160149054906101000a900460ff161561156f576040517f08c379a00000000000000000000000000000000000000000000000000000000081526004016115669061383c565b60405180910390fd5b8060020160009054906101000a900473ffffffffffffffffffffffffffffffffffffffff1673ffffffffffffffffffffffffffffffffffffffff163373ffffffffffffffffffffffffffffffffffffffff161480611618575060008054906101000a900473ffffffffffffffffffffffffffffffffffffffff1673ffffffffffffffffffffffffffffffffffffffff163373ffffffffffffffffffffffffffffffffffffffff16145b611657576040517f08c379a000000000000000000000000000000000000000000000000000000000815260040161164e906138a8565b60405180910390fd5b60018160020160146101000a81548160ff0219169083151502179055506001600760008360020160009054906101000a900473ffffffffffffffffffffffffffffffffffffffff1673ffffffffffffffffffffffffffffffffffffffff1673ffffffffffffffffffffffffffffffffffffffff16815260200190815260200160002060008360010154815260200190815260200160002060006101000a81548160ff0219169083151502179055508060020160009054906101000a900473ffffffffffffffffffffffffffffffffffffffff1673ffffffffffffffffffffffffffffffffffffffff16827f189199877ac49c708164c69193136769411baaedcc0ffc4660ad59cc1111c03083600101546040516117749190612b92565b60405180910390a35050565b60096020528160005260406000206020528060005260406000206000915091509054906101000a900460ff1681565b6000806117c962015180846117c491906138f7565b61227d565b508092508193505050915091565b6000600660008481526020019081526020016000209050600460008260010154815260200190815260200160002060020160008260020154815260200190815260200160002060020160009054906101000a900473ffffffffffffffffffffffffffffffffffffffff1673ffffffffffffffffffffffffffffffffffffffff163373ffffffffffffffffffffffffffffffffffffffff16146118ae576040517f08c379a00000000000000000000000000000000000000000000000000000000081526004016118a5906138a8565b60405180910390fd5b600083836003546040516020016118c793929190613991565b60405160208183030381529060405280519060200120905060405180608001604052803373ffffffffffffffffffffffffffffffffffffffff1681526020018581526020018473ffffffffffffffffffffffffffffffffffffffff168152602001600015158152506005600083815260200190815260200160002060008201518160000160006101000a81548173ffffffffffffffffffffffffffffffffffffffff021916908373ffffffffffffffffffffffffffffffffffffffff1602179055506020820151816001015560408201518160020160006101000a81548173ffffffffffffffffffffffffffffffffffffffff021916908373ffffffffffffffffffffffffffffffffffffffff16021790555060608201518160020160146101000a81548160ff02191690831515021790555090505060036000815480929190611a1090612fe0565b919050555050505050565b600581565b60006006600087815260200190815260200160002090506000600460008360010154815260200190815260200160002090508060050160003373ffffffffffffffffffffffffffffffffffffffff1673ffffffffffffffffffffffffffffffffffffffff16815260200190815260200160002060009054906101000a900460ff16611ae0576040517f08c379a0000000000000000000000000000000000000000000000000000000008152600401611ad790613764565b60405180910390fd5b8160060160009054906101000a900460ff1615611b32576040517f08c379a0000000000000000000000000000000000000000000000000000000008152600401611b2990613a1a565b60405180910390fd5b8160050154421115611b79576040517f08c379a0000000000000000000000000000000000000000000000000000000008152600401611b7090613a86565b60405180910390fd5b600760003373ffffffffffffffffffffffffffffffffffffffff1673ffffffffffffffffffffffffffffffffffffffff168152602001908152602001600020600088815260200190815260200160002060009054906101000a900460ff1615611c17576040517f08c379a0000000000000000000000000000000000000000000000000000000008152600401611c0e90613af2565b60405180910390fd5b611c278683600301546005612410565b611c66576040517f08c379a0000000000000000000000000000000000000000000000000000000008152600401611c5d90613b5e565b60405180910390fd5b600082600301548360040154604051602001611c83929190613b9f565b604051602081830303815290604052805190602001209050611ce281868460020160008760020154815260200190815260200160002060020160009054906101000a900473ffffffffffffffffffffffffffffffffffffffff166124cf565b611d21576040517f08c379a0000000000000000000000000000000000000000000000000000000008152600401611d1890613c17565b60405180910390fd5b60008787604051602001611d36929190613b9f565b604051602081830303815290604052805190602001209050611d598186336124cf565b611d98576040517f08c379a0000000000000000000000000000000000000000000000000000000008152600401611d8f90613c83565b60405180910390fd5b60008686604051602001611dad929190613cdf565b604051602081830303815290604052805190602001209050600a600082815260200190815260200160002060009054906101000a900460ff1615611e26576040517f08c379a0000000000000000000000000000000000000000000000000000000008152600401611e1d90613d4f565b60405180910390fd5b6001600a600083815260200190815260200160002060006101000a81548160ff0219169083151502179055506001600760003373ffffffffffffffffffffffffffffffffffffffff1673ffffffffffffffffffffffffffffffffffffffff16815260200190815260200160002060008c815260200190815260200160002060006101000a81548160ff0219169083151502179055507f8841d9f49345d61efc842e9624f59b54162b3c8acf4e384fd425957a2be55d86338b604051611eec929190613d6f565b60405180910390a150505050505050505050565b6060600080600090505b600154811015611fd557600060046000838152602001908152602001600020905060005b8160030180549050811015611fc6576000826003018281548110611f5557611f54612f4e565b5b9060005260206000200154905060008360020160008381526020019081526020016000209050878051906020012081600101604051611f949190613437565b604051809103902003611fb757806003018054905086611fb49190612fac565b95505b50508080600101915050611f2e565b50508080600101915050611f0a565b5060008167ffffffffffffffff811115611ff257611ff16128d3565b5b6040519080825280602002602001820160405280156120205781602001602082028036833780820191505090505b509050600080600090505b60015481101561214f57600060046000838152602001908152602001600020905060005b816003018054905081101561214057600082600301828154811061207657612075612f4e565b5b90600052602060002001549050600083600201600083815260200190815260200160002090508980519060200120816001016040516120b59190613437565b6040518091039020036121315760005b816003018054905081101561212f578160030181815481106120ea576120e9612f4e565b5b906000526020600020015488888151811061210857612107612f4e565b5b602002602001018181525050868061211f90612fe0565b97505080806001019150506120c5565b505b5050808060010191505061204f565b5050808060010191505061202b565b50819350505050919050565b60015481565b6000600660008381526020019081526020016000209050600460008260010154815260200190815260200160002060020160008260020154815260200190815260200160002060020160009054906101000a900473ffffffffffffffffffffffffffffffffffffffff1673ffffffffffffffffffffffffffffffffffffffff163373ffffffffffffffffffffffffffffffffffffffff1614612238576040517f08c379a000000000000000000000000000000000000000000000000000000000815260040161222f906138a8565b60405180910390fd5b60018160060160006101000a81548160ff0219169083151502179055505050565b60008054906101000a900473ffffffffffffffffffffffffffffffffffffffff1681565b600080600080849050600062253d8c62010bd98361229b9190613da2565b6122a59190613da2565b9050600062023ab18260046122ba9190613de6565b6122c49190613e5e565b9050600460038262023ab16122d99190613de6565b6122e39190613da2565b6122ed9190613e5e565b826122f89190613ec8565b9150600062164b0960018461230d9190613da2565b610fa061231a9190613de6565b6123249190613e5e565b9050601f6004826105b56123389190613de6565b6123429190613e5e565b8461234d9190613ec8565b6123579190613da2565b9250600061098f84605061236b9190613de6565b6123759190613e5e565b905060508161098f6123879190613de6565b6123919190613e5e565b8461239c9190613ec8565b9550600b816123ab9190613e5e565b935083600c6123ba9190613de6565b6002826123c79190613da2565b6123d19190613ec8565b965083826031856123e29190613ec8565b60646123ee9190613de6565b6123f89190613da2565b6124029190613da2565b975050505050509193909250565b60006020821115612456576040517f08c379a000000000000000000000000000000000000000000000000000000000815260040161244d90613f57565b60405180910390fd5b6000820361246757600190506124c8565b60007fffffffffffffffffffffffffffffffffffffffffffffffffffffffffffffffff60001b600160088561249c91906135fe565b6101006124a99190613f77565b6001901b6124b79190613f77565b60001b189050808416818616149150505b9392505050565b600080846040516020016124e39190614002565b604051602081830303815290604052805190602001209050600080600061250987612599565b9250925092508573ffffffffffffffffffffffffffffffffffffffff16600185838686604051600081526020016040526040516125499493929190614044565b6020604051602081039080840390855afa15801561256b573d6000803e3d6000fd5b5050506020604051035173ffffffffffffffffffffffffffffffffffffffff16149450505050509392505050565b600080600060418451146125e2576040517f08c379a00000000000000000000000000000000000000000000000000000000081526004016125d9906140d5565b60405180910390fd5b6020840151925060408401519150606084015160001a90509193909250565b82805482825590600052602060002090810192821561263d579160200282015b8281111561263c578251825591602001919060010190612621565b5b50905061264a919061264e565b5090565b5b8082111561266757600081600090555060010161264f565b5090565b6000604051905090565b600080fd5b600080fd5b6000819050919050565b6126928161267f565b811461269d57600080fd5b50565b6000813590506126af81612689565b92915050565b600080604083850312156126cc576126cb612675565b5b60006126da858286016126a0565b92505060206126eb858286016126a0565b9150509250929050565b600073ffffffffffffffffffffffffffffffffffffffff82169050919050565b6000612720826126f5565b9050919050565b61273081612715565b82525050565b600060208201905061274b6000830184612727565b92915050565b6000819050919050565b61276481612751565b811461276f57600080fd5b50565b6000813590506127818161275b565b92915050565b60006020828403121561279d5761279c612675565b5b60006127ab84828501612772565b91505092915050565b6127bd8161267f565b82525050565b60008115159050919050565b6127d8816127c3565b82525050565b60006080820190506127f36000830187612727565b61280060208301866127b4565b61280d6040830185612727565b61281a60608301846127cf565b95945050505050565b61282c81612715565b811461283757600080fd5b50565b60008135905061284981612823565b92915050565b6000806040838503121561286657612865612675565b5b60006128748582860161283a565b9250506020612885858286016126a0565b9150509250929050565b60006040820190506128a460008301856127b4565b6128b160208301846127b4565b9392505050565b600080fd5b600080fd5b6000601f19601f8301169050919050565b7f4e487b7100000000000000000000000000000000000000000000000000000000600052604160045260246000fd5b61290b826128c2565b810181811067ffffffffffffffff8211171561292a576129296128d3565b5b80604052505050565b600061293d61266b565b90506129498282612902565b919050565b600067ffffffffffffffff821115612969576129686128d3565b5b612972826128c2565b9050602081019050919050565b82818337600083830152505050565b60006129a161299c8461294e565b612933565b9050828152602081018484840111156129bd576129bc6128bd565b5b6129c884828561297f565b509392505050565b600082601f8301126129e5576129e46128b8565b5b81356129f584826020860161298e565b91505092915050565b600060208284031215612a1457612a13612675565b5b600082013567ffffffffffffffff811115612a3257612a3161267a565b5b612a3e848285016129d0565b91505092915050565b600080600060608486031215612a6057612a5f612675565b5b6000612a6e868287016126a0565b935050602084013567ffffffffffffffff811115612a8f57612a8e61267a565b5b612a9b868287016129d0565b9250506040612aac8682870161283a565b9150509250925092565b600060208284031215612acc57612acb612675565b5b6000612ada848285016126a0565b91505092915050565b600081519050919050565b600082825260208201905092915050565b60005b83811015612b1d578082015181840152602081019050612b02565b60008484015250505050565b6000612b3482612ae3565b612b3e8185612aee565b9350612b4e818560208601612aff565b612b57816128c2565b840191505092915050565b6000604082019050612b7760008301856127b4565b8181036020830152612b898184612b29565b90509392505050565b6000602082019050612ba760008301846127b4565b92915050565b60008060008060808587031215612bc757612bc6612675565b5b6000612bd5878288016126a0565b9450506020612be6878288016126a0565b9350506040612bf787828801612772565b9250506060612c08878288016126a0565b91505092959194509250565b600060208284031215612c2a57612c29612675565b5b6000612c388482850161283a565b91505092915050565b612c4a81612751565b82525050565b600060e082019050612c65600083018a6127b4565b612c7260208301896127b4565b612c7f60408301886127b4565b612c8c6060830187612c41565b612c9960808301866127b4565b612ca660a08301856127b4565b612cb360c08301846127cf565b98975050505050505050565b6000602082019050612cd460008301846127cf565b92915050565b60008060408385031215612cf157612cf0612675565b5b6000612cff858286016126a0565b9250506020612d108582860161283a565b9150509250929050565b600067ffffffffffffffff821115612d3557612d346128d3565b5b612d3e826128c2565b9050602081019050919050565b6000612d5e612d5984612d1a565b612933565b905082815260208101848484011115612d7a57612d796128bd565b5b612d8584828561297f565b509392505050565b600082601f830112612da257612da16128b8565b5b8135612db2848260208601612d4b565b91505092915050565b600080600080600060a08688031215612dd757612dd6612675565b5b6000612de5888289016126a0565b9550506020612df688828901612772565b9450506040612e07888289016126a0565b935050606086013567ffffffffffffffff811115612e2857612e2761267a565b5b612e3488828901612d8d565b925050608086013567ffffffffffffffff811115612e5557612e5461267a565b5b612e6188828901612d8d565b9150509295509295909350565b600081519050919050565b600082825260208201905092915050565b6000819050602082019050919050565b612ea38161267f565b82525050565b6000612eb58383612e9a565b60208301905092915050565b6000602082019050919050565b6000612ed982612e6e565b612ee38185612e79565b9350612eee83612e8a565b8060005b83811015612f1f578151612f068882612ea9565b9750612f1183612ec1565b925050600181019050612ef2565b5085935050505092915050565b60006020820190508181036000830152612f468184612ece565b905092915050565b7f4e487b7100000000000000000000000000000000000000000000000000000000600052603260045260246000fd5b7f4e487b7100000000000000000000000000000000000000000000000000000000600052601160045260246000fd5b6000612fb78261267f565b9150612fc28361267f565b9250828201905080821115612fda57612fd9612f7d565b5b92915050565b6000612feb8261267f565b91507fffffffffffffffffffffffffffffffffffffffffffffffffffffffffffffffff820361301d5761301c612f7d565b5b600182019050919050565b7f4f6e6c792061646d696e00000000000000000000000000000000000000000000600082015250565b600061305e600a83612aee565b915061306982613028565b602082019050919050565b6000602082019050818103600083015261308d81613051565b9050919050565b7f4e487b7100000000000000000000000000000000000000000000000000000000600052602260045260246000fd5b600060028204905060018216806130db57607f821691505b6020821081036130ee576130ed613094565b5b50919050565b60008190508160005260206000209050919050565b60006020601f8301049050919050565b600082821b905092915050565b6000600883026131567fffffffffffffffffffffffffffffffffffffffffffffffffffffffffffffffff82613119565b6131608683613119565b95508019841693508086168417925050509392505050565b6000819050919050565b600061319d6131986131938461267f565b613178565b61267f565b9050919050565b6000819050919050565b6131b783613182565b6131cb6131c3826131a4565b848454613126565b825550505050565b600090565b6131e06131d3565b6131eb8184846131ae565b505050565b5b8181101561320f576132046000826131d8565b6001810190506131f1565b5050565b601f82111561325457613225816130f4565b61322e84613109565b8101602085101561323d578190505b61325161324985613109565b8301826131f0565b50505b505050565b600082821c905092915050565b600061327760001984600802613259565b1980831691505092915050565b60006132908383613266565b9150826002028217905092915050565b6132a982612ae3565b67ffffffffffffffff8111156132c2576132c16128d3565b5b6132cc82546130c3565b6132d7828285613213565b600060209050601f83116001811461330a57600084156132f8578287015190505b6133028582613284565b86555061336a565b601f198416613318866130f4565b60005b828110156133405784890151825560018201915060208501945060208101905061331b565b8683101561335d5784890151613359601f891682613266565b8355505b6001600288020188555050505b505050505050565b6000602082019050818103600083015261338c8184612b29565b905092915050565b600081905092915050565b60008190508160005260206000209050919050565b600081546133c1816130c3565b6133cb8186613394565b945060018216600081146133e657600181146133fb5761342e565b60ff198316865281151582028601935061342e565b6134048561339f565b60005b8381101561342657815481890152600182019150602081019050613407565b838801955050505b50505092915050565b600061344382846133b4565b915081905092915050565b7f5375626a65637420657869737473000000000000000000000000000000000000600082015250565b6000613484600e83612aee565b915061348f8261344e565b602082019050919050565b600060208201905081810360008301526134b381613477565b9050919050565b7f496e76616c69642073656374696f6e0000000000000000000000000000000000600082015250565b60006134f0600f83612aee565b91506134fb826134ba565b602082019050919050565b6000602082019050818103600083015261351f816134e3565b9050919050565b7f496e76616c6964207375626a6563742049440000000000000000000000000000600082015250565b600061355c601283612aee565b915061356782613526565b602082019050919050565b6000602082019050818103600083015261358b8161354f565b9050919050565b7f4e6f742073656374696f6e2773207375626a6563742074656163686572000000600082015250565b60006135c8601d83612aee565b91506135d382613592565b602082019050919050565b600060208201905081810360008301526135f7816135bb565b9050919050565b60006136098261267f565b91506136148361267f565b92508282026136228161267f565b9150828204841483151761363957613638612f7d565b5b5092915050565b7f496e76616c696420616464726573730000000000000000000000000000000000600082015250565b6000613676600f83612aee565b915061368182613640565b602082019050919050565b600060208201905081810360008301526136a581613669565b9050919050565b7f416c726561647920656e726f6c6c656400000000000000000000000000000000600082015250565b60006136e2601083612aee565b91506136ed826136ac565b602082019050919050565b60006020820190508181036000830152613711816136d5565b9050919050565b7f4e6f7420656e726f6c6c65640000000000000000000000000000000000000000600082015250565b600061374e600c83612aee565b915061375982613718565b602082019050919050565b6000602082019050818103600083015261377d81613741565b9050919050565b7f496e76616c696420726571756573740000000000000000000000000000000000600082015250565b60006137ba600f83612aee565b91506137c582613784565b602082019050919050565b600060208201905081810360008301526137e9816137ad565b9050919050565b7f416c726561647920617070726f76656400000000000000000000000000000000600082015250565b6000613826601083612aee565b9150613831826137f0565b602082019050919050565b6000602082019050818103600083015261385581613819565b9050919050565b7f556e617574686f72697a65640000000000000000000000000000000000000000600082015250565b6000613892600c83612aee565b915061389d8261385c565b602082019050919050565b600060208201905081810360008301526138c181613885565b9050919050565b7f4e487b7100000000000000000000000000000000000000000000000000000000600052601260045260246000fd5b60006139028261267f565b915061390d8361267f565b92508261391d5761391c6138c8565b5b828204905092915050565b6000819050919050565b61394361393e8261267f565b613928565b82525050565b60008160601b9050919050565b600061396182613949565b9050919050565b600061397382613956565b9050919050565b61398b61398682612715565b613968565b82525050565b600061399d8286613932565b6020820191506139ad828561397a565b6014820191506139bd8284613932565b602082019150819050949350505050565b7f417474656e64616e636520636c6f736564000000000000000000000000000000600082015250565b6000613a04601183612aee565b9150613a0f826139ce565b602082019050919050565b60006020820190508181036000830152613a33816139f7565b9050919050565b7f436c61737320656e646564000000000000000000000000000000000000000000600082015250565b6000613a70600b83612aee565b9150613a7b82613a3a565b602082019050919050565b60006020820190508181036000830152613a9f81613a63565b9050919050565b7f416c7265616479206d61726b6564000000000000000000000000000000000000600082015250565b6000613adc600e83612aee565b9150613ae782613aa6565b602082019050919050565b60006020820190508181036000830152613b0b81613acf565b9050919050565b7f4c6f636174696f6e206d69736d61746368000000000000000000000000000000600082015250565b6000613b48601183612aee565b9150613b5382613b12565b602082019050919050565b60006020820190508181036000830152613b7781613b3b565b9050919050565b6000819050919050565b613b99613b9482612751565b613b7e565b82525050565b6000613bab8285613b88565b602082019150613bbb8284613932565b6020820191508190509392505050565b7f496e76616c696420746561636865722070726f6f660000000000000000000000600082015250565b6000613c01601583612aee565b9150613c0c82613bcb565b602082019050919050565b60006020820190508181036000830152613c3081613bf4565b9050919050565b7f496e76616c69642073747564656e742070726f6f660000000000000000000000600082015250565b6000613c6d601583612aee565b9150613c7882613c37565b602082019050919050565b60006020820190508181036000830152613c9c81613c60565b9050919050565b600081519050919050565b6000613cb982613ca3565b613cc38185613394565b9350613cd3818560208601612aff565b80840191505092915050565b6000613ceb8285613cae565b9150613cf78284613cae565b91508190509392505050565b7f50726f6f66732072657573656400000000000000000000000000000000000000600082015250565b6000613d39600d83612aee565b9150613d4482613d03565b602082019050919050565b60006020820190508181036000830152613d6881613d2c565b9050919050565b6000604082019050613d846000830185612727565b613d9160208301846127b4565b9392505050565b6000819050919050565b6000613dad82613d98565b9150613db883613d98565b925082820190508281121560008312168382126000841215161715613de057613ddf612f7d565b5b92915050565b6000613df182613d98565b9150613dfc83613d98565b9250828202613e0a81613d98565b91507f80000000000000000000000000000000000000000000000000000000000000008414600084121615613e4257613e41612f7d565b5b8282058414831517613e5757613e56612f7d565b5b5092915050565b6000613e6982613d98565b9150613e7483613d98565b925082613e8457613e836138c8565b5b600160000383147f800000000000000000000000000000000000000000000000000000000000000083141615613ebd57613ebc612f7d565b5b828205905092915050565b6000613ed382613d98565b9150613ede83613d98565b9250828203905081811260008412168282136000851215161715613f0557613f04612f7d565b5b92915050565b7f50726566697820746f6f206c6172676500000000000000000000000000000000600082015250565b6000613f41601083612aee565b9150613f4c82613f0b565b602082019050919050565b60006020820190508181036000830152613f7081613f34565b9050919050565b6000613f828261267f565b9150613f8d8361267f565b9250828203905081811115613fa557613fa4612f7d565b5b92915050565b600081905092915050565b7f19457468657265756d205369676e6564204d6573736167653a0a333200000000600082015250565b6000613fec601c83613fab565b9150613ff782613fb6565b601c82019050919050565b600061400d82613fdf565b91506140198284613b88565b60208201915081905092915050565b600060ff82169050919050565b61403e81614028565b82525050565b60006080820190506140596000830187612c41565b6140666020830186614035565b6140736040830185612c41565b6140806060830184612c41565b95945050505050565b7f496e76616c6964207369676e6174757265206c656e6774680000000000000000600082015250565b60006140bf601883612aee565b91506140ca82614089565b602082019050919050565b600060208201905081810360008301526140ee816140b2565b905091905056fea2646970667358221220519e9226e3fab1610ae1388a9b44a1e73d1ae5cbb4cd885c8d512e6413c5292f64736f6c634300081c0033","opcodes":"PUSH1 0x80 PUSH1 0x40 MSTORE CALLVALUE DUP1 ISZERO PUSH1 0xF JUMPI PUSH1 0x0 DUP1 REVERT JUMPDEST POP PUSH2 0x412B DUP1 PUSH2 0x1F PUSH1 0x0 CODECOPY PUSH1 0x0 RETURN INVALID PUSH1 0x80 PUSH1 0x40 MSTORE CALLVALUE DUP1 ISZERO PUSH2 0x10 JUMPI PUSH1 0x0 DUP1 REVERT JUMPDEST POP PUSH1 0x4 CALLDATASIZE LT PUSH2 0x173 JUMPI PUSH1 0x0 CALLDATALOAD PUSH1 0xE0 SHR DUP1 PUSH4 0xA515797A GT PUSH2 0xDE JUMPI DUP1 PUSH4 0xD064D63F GT PUSH2 0x97 JUMPI DUP1 PUSH4 0xF00070F5 GT PUSH2 0x71 JUMPI DUP1 PUSH4 0xF00070F5 EQ PUSH2 0x48A JUMPI DUP1 PUSH4 0xF11F6E94 EQ PUSH2 0x4BA JUMPI DUP1 PUSH4 0xF2500368 EQ PUSH2 0x4D8 JUMPI DUP1 PUSH4 0xF851A440 EQ PUSH2 0x4F4 JUMPI PUSH2 0x173 JUMP JUMPDEST DUP1 PUSH4 0xD064D63F EQ PUSH2 0x434 JUMPI DUP1 PUSH4 0xD4094AB6 EQ PUSH2 0x450 JUMPI DUP1 PUSH4 0xD9065596 EQ PUSH2 0x46E JUMPI PUSH2 0x173 JUMP JUMPDEST DUP1 PUSH4 0xA515797A EQ PUSH2 0x34F JUMPI DUP1 PUSH4 0xA850C180 EQ PUSH2 0x37F JUMPI DUP1 PUSH4 0xAB87E6D7 EQ PUSH2 0x39B JUMPI DUP1 PUSH4 0xC93F63F6 EQ PUSH2 0x3B7 JUMPI DUP1 PUSH4 0xC9768315 EQ PUSH2 0x3D3 JUMPI DUP1 PUSH4 0xCA1F8C6E EQ PUSH2 0x403 JUMPI PUSH2 0x173 JUMP JUMPDEST DUP1 PUSH4 0x3954D58B GT PUSH2 0x130 JUMPI DUP1 PUSH4 0x3954D58B EQ PUSH2 0x275 JUMPI DUP1 PUSH4 0x4D7DB89B EQ PUSH2 0x293 JUMPI DUP1 PUSH4 0x75829DEF EQ PUSH2 0x2AF JUMPI DUP1 PUSH4 0x817DBE9F EQ PUSH2 0x2CB JUMPI DUP1 PUSH4 0x973A814E EQ PUSH2 0x301 JUMPI DUP1 PUSH4 0x9A8D8955 EQ PUSH2 0x31F JUMPI PUSH2 0x173 JUMP JUMPDEST DUP1 PUSH4 0x212081C EQ PUSH2 0x178 JUMPI DUP1 PUSH4 0xB104EEE EQ PUSH2 0x1A8 JUMPI DUP1 PUSH4 0x13A3C482 EQ PUSH2 0x1DB JUMPI DUP1 PUSH4 0x301C82F3 EQ PUSH2 0x20C JUMPI DUP1 PUSH4 0x3359DA49 EQ PUSH2 0x228 JUMPI DUP1 PUSH4 0x35603440 EQ PUSH2 0x244 JUMPI JUMPDEST PUSH1 0x0 DUP1 REVERT JUMPDEST PUSH2 0x192 PUSH1 0x4 DUP1 CALLDATASIZE SUB DUP2 ADD SWAP1 PUSH2 0x18D SWAP2 SWAP1 PUSH2 0x26B5 JUMP JUMPDEST PUSH2 0x512 JUMP JUMPDEST PUSH1 0x40 MLOAD PUSH2 0x19F SWAP2 SWAP1 PUSH2 0x2736 JUMP JUMPDEST PUSH1 0x40 MLOAD DUP1 SWAP2 SUB SWAP1 RETURN JUMPDEST PUSH2 0x1C2 PUSH1 0x4 DUP1 CALLDATASIZE SUB DUP2 ADD SWAP1 PUSH2 0x1BD SWAP2 SWAP1 PUSH2 0x2787 JUMP JUMPDEST PUSH2 0x560 JUMP JUMPDEST PUSH1 0x40 MLOAD PUSH2 0x1D2 SWAP5 SWAP4 SWAP3 SWAP2 SWAP1 PUSH2 0x27DE JUMP JUMPDEST PUSH1 0x40 MLOAD DUP1 SWAP2 SUB SWAP1 RETURN JUMPDEST PUSH2 0x1F5 PUSH1 0x4 DUP1 CALLDATASIZE SUB DUP2 ADD SWAP1 PUSH2 0x1F0 SWAP2 SWAP1 PUSH2 0x284F JUMP JUMPDEST PUSH2 0x5DD JUMP JUMPDEST PUSH1 0x40 MLOAD PUSH2 0x203 SWAP3 SWAP2 SWAP1 PUSH2 0x288F JUMP JUMPDEST PUSH1 0x40 MLOAD DUP1 SWAP2 SUB SWAP1 RETURN JUMPDEST PUSH2 0x226 PUSH1 0x4 DUP1 CALLDATASIZE SUB DUP2 ADD SWAP1 PUSH2 0x221 SWAP2 SWAP1 PUSH2 0x29FE JUMP JUMPDEST PUSH2 0x728 JUMP JUMPDEST STOP JUMPDEST PUSH2 0x242 PUSH1 0x4 DUP1 CALLDATASIZE SUB DUP2 ADD SWAP1 PUSH2 0x23D SWAP2 SWAP1 PUSH2 0x2A47 JUMP JUMPDEST PUSH2 0x83F JUMP JUMPDEST STOP JUMPDEST PUSH2 0x25E PUSH1 0x4 DUP1 CALLDATASIZE SUB DUP2 ADD SWAP1 PUSH2 0x259 SWAP2 SWAP1 PUSH2 0x2AB6 JUMP JUMPDEST PUSH2 0xB0F JUMP JUMPDEST PUSH1 0x40 MLOAD PUSH2 0x26C SWAP3 SWAP2 SWAP1 PUSH2 0x2B62 JUMP JUMPDEST PUSH1 0x40 MLOAD DUP1 SWAP2 SUB SWAP1 RETURN JUMPDEST PUSH2 0x27D PUSH2 0xBBB JUMP JUMPDEST PUSH1 0x40 MLOAD PUSH2 0x28A SWAP2 SWAP1 PUSH2 0x2B92 JUMP JUMPDEST PUSH1 0x40 MLOAD DUP1 SWAP2 SUB SWAP1 RETURN JUMPDEST PUSH2 0x2AD PUSH1 0x4 DUP1 CALLDATASIZE SUB DUP2 ADD SWAP1 PUSH2 0x2A8 SWAP2 SWAP1 PUSH2 0x2BAD JUMP JUMPDEST PUSH2 0xBC1 JUMP JUMPDEST STOP JUMPDEST PUSH2 0x2C9 PUSH1 0x4 DUP1 CALLDATASIZE SUB DUP2 ADD SWAP1 PUSH2 0x2C4 SWAP2 SWAP1 PUSH2 0x2C14 JUMP JUMPDEST PUSH2 0xE9E JUMP JUMPDEST STOP JUMPDEST PUSH2 0x2E5 PUSH1 0x4 DUP1 CALLDATASIZE SUB DUP2 ADD SWAP1 PUSH2 0x2E0 SWAP2 SWAP1 PUSH2 0x2AB6 JUMP JUMPDEST PUSH2 0xFDE JUMP JUMPDEST PUSH1 0x40 MLOAD PUSH2 0x2F8 SWAP8 SWAP7 SWAP6 SWAP5 SWAP4 SWAP3 SWAP2 SWAP1 PUSH2 0x2C50 JUMP JUMPDEST PUSH1 0x40 MLOAD DUP1 SWAP2 SUB SWAP1 RETURN JUMPDEST PUSH2 0x309 PUSH2 0x102D JUMP JUMPDEST PUSH1 0x40 MLOAD PUSH2 0x316 SWAP2 SWAP1 PUSH2 0x2B92 JUMP JUMPDEST PUSH1 0x40 MLOAD DUP1 SWAP2 SUB SWAP1 RETURN JUMPDEST PUSH2 0x339 PUSH1 0x4 DUP1 CALLDATASIZE SUB DUP2 ADD SWAP1 PUSH2 0x334 SWAP2 SWAP1 PUSH2 0x284F JUMP JUMPDEST PUSH2 0x1033 JUMP JUMPDEST PUSH1 0x40 MLOAD PUSH2 0x346 SWAP2 SWAP1 PUSH2 0x2CBF JUMP JUMPDEST PUSH1 0x40 MLOAD DUP1 SWAP2 SUB SWAP1 RETURN JUMPDEST PUSH2 0x369 PUSH1 0x4 DUP1 CALLDATASIZE SUB DUP2 ADD SWAP1 PUSH2 0x364 SWAP2 SWAP1 PUSH2 0x2787 JUMP JUMPDEST PUSH2 0x1062 JUMP JUMPDEST PUSH1 0x40 MLOAD PUSH2 0x376 SWAP2 SWAP1 PUSH2 0x2CBF JUMP JUMPDEST PUSH1 0x40 MLOAD DUP1 SWAP2 SUB SWAP1 RETURN JUMPDEST PUSH2 0x399 PUSH1 0x4 DUP1 CALLDATASIZE SUB DUP2 ADD SWAP1 PUSH2 0x394 SWAP2 SWAP1 PUSH2 0x2CDA JUMP JUMPDEST PUSH2 0x1082 JUMP JUMPDEST STOP JUMPDEST PUSH2 0x3B5 PUSH1 0x4 DUP1 CALLDATASIZE SUB DUP2 ADD SWAP1 PUSH2 0x3B0 SWAP2 SWAP1 PUSH2 0x2CDA JUMP JUMPDEST PUSH2 0x127B JUMP JUMPDEST STOP JUMPDEST PUSH2 0x3D1 PUSH1 0x4 DUP1 CALLDATASIZE SUB DUP2 ADD SWAP1 PUSH2 0x3CC SWAP2 SWAP1 PUSH2 0x2787 JUMP JUMPDEST PUSH2 0x1473 JUMP JUMPDEST STOP JUMPDEST PUSH2 0x3ED PUSH1 0x4 DUP1 CALLDATASIZE SUB DUP2 ADD SWAP1 PUSH2 0x3E8 SWAP2 SWAP1 PUSH2 0x2CDA JUMP JUMPDEST PUSH2 0x1780 JUMP JUMPDEST PUSH1 0x40 MLOAD PUSH2 0x3FA SWAP2 SWAP1 PUSH2 0x2CBF JUMP JUMPDEST PUSH1 0x40 MLOAD DUP1 SWAP2 SUB SWAP1 RETURN JUMPDEST PUSH2 0x41D PUSH1 0x4 DUP1 CALLDATASIZE SUB DUP2 ADD SWAP1 PUSH2 0x418 SWAP2 SWAP1 PUSH2 0x2AB6 JUMP JUMPDEST PUSH2 0x17AF JUMP JUMPDEST PUSH1 0x40 MLOAD PUSH2 0x42B SWAP3 SWAP2 SWAP1 PUSH2 0x288F JUMP JUMPDEST PUSH1 0x40 MLOAD DUP1 SWAP2 SUB SWAP1 RETURN JUMPDEST PUSH2 0x44E PUSH1 0x4 DUP1 CALLDATASIZE SUB DUP2 ADD SWAP1 PUSH2 0x449 SWAP2 SWAP1 PUSH2 0x2CDA JUMP JUMPDEST PUSH2 0x17D7 JUMP JUMPDEST STOP JUMPDEST PUSH2 0x458 PUSH2 0x1A1B JUMP JUMPDEST PUSH1 0x40 MLOAD PUSH2 0x465 SWAP2 SWAP1 PUSH2 0x2B92 JUMP JUMPDEST PUSH1 0x40 MLOAD DUP1 SWAP2 SUB SWAP1 RETURN JUMPDEST PUSH2 0x488 PUSH1 0x4 DUP1 CALLDATASIZE SUB DUP2 ADD SWAP1 PUSH2 0x483 SWAP2 SWAP1 PUSH2 0x2DBB JUMP JUMPDEST PUSH2 0x1A20 JUMP JUMPDEST STOP JUMPDEST PUSH2 0x4A4 PUSH1 0x4 DUP1 CALLDATASIZE SUB DUP2 ADD SWAP1 PUSH2 0x49F SWAP2 SWAP1 PUSH2 0x29FE JUMP JUMPDEST PUSH2 0x1F00 JUMP JUMPDEST PUSH1 0x40 MLOAD PUSH2 0x4B1 SWAP2 SWAP1 PUSH2 0x2F2C JUMP JUMPDEST PUSH1 0x40 MLOAD DUP1 SWAP2 SUB SWAP1 RETURN JUMPDEST PUSH2 0x4C2 PUSH2 0x215B JUMP JUMPDEST PUSH1 0x40 MLOAD PUSH2 0x4CF SWAP2 SWAP1 PUSH2 0x2B92 JUMP JUMPDEST PUSH1 0x40 MLOAD DUP1 SWAP2 SUB SWAP1 RETURN JUMPDEST PUSH2 0x4F2 PUSH1 0x4 DUP1 CALLDATASIZE SUB DUP2 ADD SWAP1 PUSH2 0x4ED SWAP2 SWAP1 PUSH2 0x2AB6 JUMP JUMPDEST PUSH2 0x2161 JUMP JUMPDEST STOP JUMPDEST PUSH2 0x4FC PUSH2 0x2259 JUMP JUMPDEST PUSH1 0x40 MLOAD PUSH2 0x509 SWAP2 SWAP1 PUSH2 0x2736 JUMP JUMPDEST PUSH1 0x40 MLOAD DUP1 SWAP2 SUB SWAP1 RETURN JUMPDEST PUSH1 0x8 PUSH1 0x20 MSTORE DUP2 PUSH1 0x0 MSTORE PUSH1 0x40 PUSH1 0x0 KECCAK256 DUP2 DUP2 SLOAD DUP2 LT PUSH2 0x52E JUMPI PUSH1 0x0 DUP1 REVERT JUMPDEST SWAP1 PUSH1 0x0 MSTORE PUSH1 0x20 PUSH1 0x0 KECCAK256 ADD PUSH1 0x0 SWAP2 POP SWAP2 POP SWAP1 SLOAD SWAP1 PUSH2 0x100 EXP SWAP1 DIV PUSH20 0xFFFFFFFFFFFFFFFFFFFFFFFFFFFFFFFFFFFFFFFF AND DUP2 JUMP JUMPDEST PUSH1 0x5 PUSH1 0x20 MSTORE DUP1 PUSH1 0x0 MSTORE PUSH1 0x40 PUSH1 0x0 KECCAK256 PUSH1 0x0 SWAP2 POP SWAP1 POP DUP1 PUSH1 0x0 ADD PUSH1 0x0 SWAP1 SLOAD SWAP1 PUSH2 0x100 EXP SWAP1 DIV PUSH20 0xFFFFFFFFFFFFFFFFFFFFFFFFFFFFFFFFFFFFFFFF AND SWAP1 DUP1 PUSH1 0x1 ADD SLOAD SWAP1 DUP1 PUSH1 0x2 ADD PUSH1 0x0 SWAP1 SLOAD SWAP1 PUSH2 0x100 EXP SWAP1 DIV PUSH20 0xFFFFFFFFFFFFFFFFFFFFFFFFFFFFFFFFFFFFFFFF AND SWAP1 DUP1 PUSH1 0x2 ADD PUSH1 0x14 SWAP1 SLOAD SWAP1 PUSH2 0x100 EXP SWAP1 DIV PUSH1 0xFF AND SWAP1 POP DUP5 JUMP JUMPDEST PUSH1 0x0 DUP1 PUSH1 0x0 PUSH1 0x4 PUSH1 0x0 DUP6 DUP2 MSTORE PUSH1 0x20 ADD SWAP1 DUP2 MSTORE PUSH1 0x20 ADD PUSH1 0x0 KECCAK256 SWAP1 POP PUSH1 0x0 SWAP2 POP PUSH1 0x0 SWAP3 POP PUSH1 0x0 JUMPDEST DUP2 PUSH1 0x3 ADD DUP1 SLOAD SWAP1 POP DUP2 LT ISZERO PUSH2 0x71F JUMPI PUSH1 0x0 DUP3 PUSH1 0x3 ADD DUP3 DUP2 SLOAD DUP2 LT PUSH2 0x629 JUMPI PUSH2 0x628 PUSH2 0x2F4E JUMP JUMPDEST JUMPDEST SWAP1 PUSH1 0x0 MSTORE PUSH1 0x20 PUSH1 0x0 KECCAK256 ADD SLOAD SWAP1 POP PUSH1 0x0 DUP4 PUSH1 0x2 ADD PUSH1 0x0 DUP4 DUP2 MSTORE PUSH1 0x20 ADD SWAP1 DUP2 MSTORE PUSH1 0x20 ADD PUSH1 0x0 KECCAK256 PUSH1 0x3 ADD SWAP1 POP DUP1 DUP1 SLOAD SWAP1 POP DUP6 PUSH2 0x662 SWAP2 SWAP1 PUSH2 0x2FAC JUMP JUMPDEST SWAP5 POP PUSH1 0x0 JUMPDEST DUP2 DUP1 SLOAD SWAP1 POP DUP2 LT ISZERO PUSH2 0x70F JUMPI PUSH1 0x7 PUSH1 0x0 DUP11 PUSH20 0xFFFFFFFFFFFFFFFFFFFFFFFFFFFFFFFFFFFFFFFF AND PUSH20 0xFFFFFFFFFFFFFFFFFFFFFFFFFFFFFFFFFFFFFFFF AND DUP2 MSTORE PUSH1 0x20 ADD SWAP1 DUP2 MSTORE PUSH1 0x20 ADD PUSH1 0x0 KECCAK256 PUSH1 0x0 DUP4 DUP4 DUP2 SLOAD DUP2 LT PUSH2 0x6C7 JUMPI PUSH2 0x6C6 PUSH2 0x2F4E JUMP JUMPDEST JUMPDEST SWAP1 PUSH1 0x0 MSTORE PUSH1 0x20 PUSH1 0x0 KECCAK256 ADD SLOAD DUP2 MSTORE PUSH1 0x20 ADD SWAP1 DUP2 MSTORE PUSH1 0x20 ADD PUSH1 0x0 KECCAK256 PUSH1 0x0 SWAP1 SLOAD SWAP1 PUSH2 0x100 EXP SWAP1 DIV PUSH1 0xFF AND ISZERO PUSH2 0x702 JUMPI DUP7 DUP1 PUSH2 0x6FE SWAP1 PUSH2 0x2FE0 JUMP JUMPDEST SWAP8 POP POP JUMPDEST DUP1 DUP1 PUSH1 0x1 ADD SWAP2 POP POP PUSH2 0x667 JUMP JUMPDEST POP POP POP DUP1 DUP1 PUSH1 0x1 ADD SWAP2 POP POP PUSH2 0x602 JUMP JUMPDEST POP POP SWAP3 POP SWAP3 SWAP1 POP JUMP JUMPDEST PUSH1 0x0 DUP1 SLOAD SWAP1 PUSH2 0x100 EXP SWAP1 DIV PUSH20 0xFFFFFFFFFFFFFFFFFFFFFFFFFFFFFFFFFFFFFFFF AND PUSH20 0xFFFFFFFFFFFFFFFFFFFFFFFFFFFFFFFFFFFFFFFF AND CALLER PUSH20 0xFFFFFFFFFFFFFFFFFFFFFFFFFFFFFFFFFFFFFFFF AND EQ PUSH2 0x7B6 JUMPI PUSH1 0x40 MLOAD PUSH32 0x8C379A000000000000000000000000000000000000000000000000000000000 DUP2 MSTORE PUSH1 0x4 ADD PUSH2 0x7AD SWAP1 PUSH2 0x3074 JUMP JUMPDEST PUSH1 0x40 MLOAD DUP1 SWAP2 SUB SWAP1 REVERT JUMPDEST PUSH1 0x0 PUSH1 0x1 PUSH1 0x0 DUP2 SLOAD DUP1 SWAP3 SWAP2 SWAP1 PUSH2 0x7CB SWAP1 PUSH2 0x2FE0 JUMP JUMPDEST SWAP2 SWAP1 POP SSTORE SWAP1 POP PUSH1 0x0 PUSH1 0x4 PUSH1 0x0 DUP4 DUP2 MSTORE PUSH1 0x20 ADD SWAP1 DUP2 MSTORE PUSH1 0x20 ADD PUSH1 0x0 KECCAK256 SWAP1 POP DUP2 DUP2 PUSH1 0x0 ADD DUP2 SWAP1 SSTORE POP DUP3 DUP2 PUSH1 0x1 ADD SWAP1 DUP2 PUSH2 0x802 SWAP2 SWAP1 PUSH2 0x32A0 JUMP JUMPDEST POP DUP2 PUSH31 0x4736EEA0F1F8D3B949033AF6DBB0FDEA6FC371BD8F2D0436EEDB58961659E5 DUP5 PUSH1 0x40 MLOAD PUSH2 0x832 SWAP2 SWAP1 PUSH2 0x3372 JUMP JUMPDEST PUSH1 0x40 MLOAD DUP1 SWAP2 SUB SWAP1 LOG2 POP POP POP JUMP JUMPDEST PUSH1 0x0 DUP1 SLOAD SWAP1 PUSH2 0x100 EXP SWAP1 DIV PUSH20 0xFFFFFFFFFFFFFFFFFFFFFFFFFFFFFFFFFFFFFFFF AND PUSH20 0xFFFFFFFFFFFFFFFFFFFFFFFFFFFFFFFFFFFFFFFF AND CALLER PUSH20 0xFFFFFFFFFFFFFFFFFFFFFFFFFFFFFFFFFFFFFFFF AND EQ PUSH2 0x8CD JUMPI PUSH1 0x40 MLOAD PUSH32 0x8C379A000000000000000000000000000000000000000000000000000000000 DUP2 MSTORE PUSH1 0x4 ADD PUSH2 0x8C4 SWAP1 PUSH2 0x3074 JUMP JUMPDEST PUSH1 0x40 MLOAD DUP1 SWAP2 SUB SWAP1 REVERT JUMPDEST PUSH1 0x0 PUSH1 0x4 PUSH1 0x0 DUP6 DUP2 MSTORE PUSH1 0x20 ADD SWAP1 DUP2 MSTORE PUSH1 0x20 ADD PUSH1 0x0 KECCAK256 SWAP1 POP PUSH1 0x0 JUMPDEST DUP2 PUSH1 0x3 ADD DUP1 SLOAD SWAP1 POP DUP2 LT ISZERO PUSH2 0x97E JUMPI PUSH1 0x0 DUP3 PUSH1 0x2 ADD PUSH1 0x0 DUP4 DUP2 MSTORE PUSH1 0x20 ADD SWAP1 DUP2 MSTORE PUSH1 0x20 ADD PUSH1 0x0 KECCAK256 SWAP1 POP DUP5 DUP1 MLOAD SWAP1 PUSH1 0x20 ADD KECCAK256 DUP2 PUSH1 0x1 ADD PUSH1 0x40 MLOAD PUSH2 0x928 SWAP2 SWAP1 PUSH2 0x3437 JUMP JUMPDEST PUSH1 0x40 MLOAD DUP1 SWAP2 SUB SWAP1 KECCAK256 SUB PUSH2 0x970 JUMPI PUSH1 0x40 MLOAD PUSH32 0x8C379A000000000000000000000000000000000000000000000000000000000 DUP2 MSTORE PUSH1 0x4 ADD PUSH2 0x967 SWAP1 PUSH2 0x349A JUMP JUMPDEST PUSH1 0x40 MLOAD DUP1 SWAP2 SUB SWAP1 REVERT JUMPDEST POP DUP1 DUP1 PUSH1 0x1 ADD SWAP2 POP POP PUSH2 0x8E7 JUMP JUMPDEST POP PUSH1 0x0 PUSH1 0x4 PUSH1 0x0 DUP7 DUP2 MSTORE PUSH1 0x20 ADD SWAP1 DUP2 MSTORE PUSH1 0x20 ADD PUSH1 0x0 KECCAK256 PUSH1 0x3 ADD DUP1 SLOAD SWAP1 POP SWAP1 POP PUSH1 0x40 MLOAD DUP1 PUSH1 0x80 ADD PUSH1 0x40 MSTORE DUP1 DUP3 DUP2 MSTORE PUSH1 0x20 ADD DUP6 DUP2 MSTORE PUSH1 0x20 ADD DUP5 PUSH20 0xFFFFFFFFFFFFFFFFFFFFFFFFFFFFFFFFFFFFFFFF AND DUP2 MSTORE PUSH1 0x20 ADD PUSH1 0x0 PUSH8 0xFFFFFFFFFFFFFFFF DUP2 GT ISZERO PUSH2 0x9EB JUMPI PUSH2 0x9EA PUSH2 0x28D3 JUMP JUMPDEST JUMPDEST PUSH1 0x40 MLOAD SWAP1 DUP1 DUP3 MSTORE DUP1 PUSH1 0x20 MUL PUSH1 0x20 ADD DUP3 ADD PUSH1 0x40 MSTORE DUP1 ISZERO PUSH2 0xA19 JUMPI DUP2 PUSH1 0x20 ADD PUSH1 0x20 DUP3 MUL DUP1 CALLDATASIZE DUP4 CALLDATACOPY DUP1 DUP3 ADD SWAP2 POP POP SWAP1 POP JUMPDEST POP DUP2 MSTORE POP PUSH1 0x4 PUSH1 0x0 DUP8 DUP2 MSTORE PUSH1 0x20 ADD SWAP1 DUP2 MSTORE PUSH1 0x20 ADD PUSH1 0x0 KECCAK256 PUSH1 0x2 ADD PUSH1 0x0 DUP4 DUP2 MSTORE PUSH1 0x20 ADD SWAP1 DUP2 MSTORE PUSH1 0x20 ADD PUSH1 0x0 KECCAK256 PUSH1 0x0 DUP3 ADD MLOAD DUP2 PUSH1 0x0 ADD SSTORE PUSH1 0x20 DUP3 ADD MLOAD DUP2 PUSH1 0x1 ADD SWAP1 DUP2 PUSH2 0xA63 SWAP2 SWAP1 PUSH2 0x32A0 JUMP JUMPDEST POP PUSH1 0x40 DUP3 ADD MLOAD DUP2 PUSH1 0x2 ADD PUSH1 0x0 PUSH2 0x100 EXP DUP2 SLOAD DUP2 PUSH20 0xFFFFFFFFFFFFFFFFFFFFFFFFFFFFFFFFFFFFFFFF MUL NOT AND SWAP1 DUP4 PUSH20 0xFFFFFFFFFFFFFFFFFFFFFFFFFFFFFFFFFFFFFFFF AND MUL OR SWAP1 SSTORE POP PUSH1 0x60 DUP3 ADD MLOAD DUP2 PUSH1 0x3 ADD SWAP1 DUP1 MLOAD SWAP1 PUSH1 0x20 ADD SWAP1 PUSH2 0xAC7 SWAP3 SWAP2 SWAP1 PUSH2 0x2601 JUMP JUMPDEST POP SWAP1 POP POP PUSH1 0x4 PUSH1 0x0 DUP7 DUP2 MSTORE PUSH1 0x20 ADD SWAP1 DUP2 MSTORE PUSH1 0x20 ADD PUSH1 0x0 KECCAK256 PUSH1 0x3 ADD DUP2 SWAP1 DUP1 PUSH1 0x1 DUP2 SLOAD ADD DUP1 DUP3 SSTORE DUP1 SWAP2 POP POP PUSH1 0x1 SWAP1 SUB SWAP1 PUSH1 0x0 MSTORE PUSH1 0x20 PUSH1 0x0 KECCAK256 ADD PUSH1 0x0 SWAP1 SWAP2 SWAP1 SWAP2 SWAP1 SWAP2 POP SSTORE POP POP POP POP POP JUMP JUMPDEST PUSH1 0x4 PUSH1 0x20 MSTORE DUP1 PUSH1 0x0 MSTORE PUSH1 0x40 PUSH1 0x0 KECCAK256 PUSH1 0x0 SWAP2 POP SWAP1 POP DUP1 PUSH1 0x0 ADD SLOAD SWAP1 DUP1 PUSH1 0x1 ADD DUP1 SLOAD PUSH2 0xB38 SWAP1 PUSH2 0x30C3 JUMP JUMPDEST DUP1 PUSH1 0x1F ADD PUSH1 0x20 DUP1 SWAP2 DIV MUL PUSH1 0x20 ADD PUSH1 0x40 MLOAD SWAP1 DUP2 ADD PUSH1 0x40 MSTORE DUP1 SWAP3 SWAP2 SWAP1 DUP2 DUP2 MSTORE PUSH1 0x20 ADD DUP3 DUP1 SLOAD PUSH2 0xB64 SWAP1 PUSH2 0x30C3 JUMP JUMPDEST DUP1 ISZERO PUSH2 0xBB1 JUMPI DUP1 PUSH1 0x1F LT PUSH2 0xB86 JUMPI PUSH2 0x100 DUP1 DUP4 SLOAD DIV MUL DUP4 MSTORE SWAP2 PUSH1 0x20 ADD SWAP2 PUSH2 0xBB1 JUMP JUMPDEST DUP3 ADD SWAP2 SWAP1 PUSH1 0x0 MSTORE PUSH1 0x20 PUSH1 0x0 KECCAK256 SWAP1 JUMPDEST DUP2 SLOAD DUP2 MSTORE SWAP1 PUSH1 0x1 ADD SWAP1 PUSH1 0x20 ADD DUP1 DUP4 GT PUSH2 0xB94 JUMPI DUP3 SWAP1 SUB PUSH1 0x1F AND DUP3 ADD SWAP2 JUMPDEST POP POP POP POP POP SWAP1 POP DUP3 JUMP JUMPDEST PUSH1 0x2 SLOAD DUP2 JUMP JUMPDEST DUP4 DUP1 PUSH1 0x4 PUSH1 0x0 DUP4 DUP2 MSTORE PUSH1 0x20 ADD SWAP1 DUP2 MSTORE PUSH1 0x20 ADD PUSH1 0x0 KECCAK256 PUSH1 0x0 ADD SLOAD EQ PUSH2 0xC1A JUMPI PUSH1 0x40 MLOAD PUSH32 0x8C379A000000000000000000000000000000000000000000000000000000000 DUP2 MSTORE PUSH1 0x4 ADD PUSH2 0xC11 SWAP1 PUSH2 0x3506 JUMP JUMPDEST PUSH1 0x40 MLOAD DUP1 SWAP2 SUB SWAP1 REVERT JUMPDEST DUP5 DUP5 PUSH1 0x4 PUSH1 0x0 DUP4 DUP2 MSTORE PUSH1 0x20 ADD SWAP1 DUP2 MSTORE PUSH1 0x20 ADD PUSH1 0x0 KECCAK256 PUSH1 0x3 ADD DUP1 SLOAD SWAP1 POP DUP2 LT PUSH2 0xC77 JUMPI PUSH1 0x40 MLOAD PUSH32 0x8C379A000000000000000000000000000000000000000000000000000000000 DUP2 MSTORE PUSH1 0x4 ADD PUSH2 0xC6E SWAP1 PUSH2 0x3572 JUMP JUMPDEST PUSH1 0x40 MLOAD DUP1 SWAP2 SUB SWAP1 REVERT JUMPDEST PUSH1 0x4 PUSH1 0x0 DUP4 DUP2 MSTORE PUSH1 0x20 ADD SWAP1 DUP2 MSTORE PUSH1 0x20 ADD PUSH1 0x0 KECCAK256 PUSH1 0x2 ADD PUSH1 0x0 DUP3 DUP2 MSTORE PUSH1 0x20 ADD SWAP1 DUP2 MSTORE PUSH1 0x20 ADD PUSH1 0x0 KECCAK256 PUSH1 0x2 ADD PUSH1 0x0 SWAP1 SLOAD SWAP1 PUSH2 0x100 EXP SWAP1 DIV PUSH20 0xFFFFFFFFFFFFFFFFFFFFFFFFFFFFFFFFFFFFFFFF AND PUSH20 0xFFFFFFFFFFFFFFFFFFFFFFFFFFFFFFFFFFFFFFFF AND CALLER PUSH20 0xFFFFFFFFFFFFFFFFFFFFFFFFFFFFFFFFFFFFFFFF AND EQ PUSH2 0xD2F JUMPI PUSH1 0x40 MLOAD PUSH32 0x8C379A000000000000000000000000000000000000000000000000000000000 DUP2 MSTORE PUSH1 0x4 ADD PUSH2 0xD26 SWAP1 PUSH2 0x35DE JUMP JUMPDEST PUSH1 0x40 MLOAD DUP1 SWAP2 SUB SWAP1 REVERT JUMPDEST PUSH1 0x0 PUSH1 0x2 PUSH1 0x0 DUP2 SLOAD DUP1 SWAP3 SWAP2 SWAP1 PUSH2 0xD44 SWAP1 PUSH2 0x2FE0 JUMP JUMPDEST SWAP2 SWAP1 POP SSTORE SWAP1 POP PUSH1 0x40 MLOAD DUP1 PUSH1 0xE0 ADD PUSH1 0x40 MSTORE DUP1 DUP3 DUP2 MSTORE PUSH1 0x20 ADD DUP10 DUP2 MSTORE PUSH1 0x20 ADD DUP9 DUP2 MSTORE PUSH1 0x20 ADD DUP8 DUP2 MSTORE PUSH1 0x20 ADD TIMESTAMP DUP2 MSTORE PUSH1 0x20 ADD PUSH1 0x3C DUP8 PUSH2 0xD80 SWAP2 SWAP1 PUSH2 0x35FE JUMP JUMPDEST TIMESTAMP PUSH2 0xD8B SWAP2 SWAP1 PUSH2 0x2FAC JUMP JUMPDEST DUP2 MSTORE PUSH1 0x20 ADD PUSH1 0x0 ISZERO ISZERO DUP2 MSTORE POP PUSH1 0x6 PUSH1 0x0 DUP4 DUP2 MSTORE PUSH1 0x20 ADD SWAP1 DUP2 MSTORE PUSH1 0x20 ADD PUSH1 0x0 KECCAK256 PUSH1 0x0 DUP3 ADD MLOAD DUP2 PUSH1 0x0 ADD SSTORE PUSH1 0x20 DUP3 ADD MLOAD DUP2 PUSH1 0x1 ADD SSTORE PUSH1 0x40 DUP3 ADD MLOAD DUP2 PUSH1 0x2 ADD SSTORE PUSH1 0x60 DUP3 ADD MLOAD DUP2 PUSH1 0x3 ADD SSTORE PUSH1 0x80 DUP3 ADD MLOAD DUP2 PUSH1 0x4 ADD SSTORE PUSH1 0xA0 DUP3 ADD MLOAD DUP2 PUSH1 0x5 ADD SSTORE PUSH1 0xC0 DUP3 ADD MLOAD DUP2 PUSH1 0x6 ADD PUSH1 0x0 PUSH2 0x100 EXP DUP2 SLOAD DUP2 PUSH1 0xFF MUL NOT AND SWAP1 DUP4 ISZERO ISZERO MUL OR SWAP1 SSTORE POP SWAP1 POP POP PUSH1 0x4 PUSH1 0x0 DUP10 DUP2 MSTORE PUSH1 0x20 ADD SWAP1 DUP2 MSTORE PUSH1 0x20 ADD PUSH1 0x0 KECCAK256 PUSH1 0x2 ADD PUSH1 0x0 DUP9 DUP2 MSTORE PUSH1 0x20 ADD SWAP1 DUP2 MSTORE PUSH1 0x20 ADD PUSH1 0x0 KECCAK256 PUSH1 0x3 ADD DUP2 SWAP1 DUP1 PUSH1 0x1 DUP2 SLOAD ADD DUP1 DUP3 SSTORE DUP1 SWAP2 POP POP PUSH1 0x1 SWAP1 SUB SWAP1 PUSH1 0x0 MSTORE PUSH1 0x20 PUSH1 0x0 KECCAK256 ADD PUSH1 0x0 SWAP1 SWAP2 SWAP1 SWAP2 SWAP1 SWAP2 POP SSTORE DUP8 PUSH32 0x20E697EE2E8310DB3B8B0D28937A1D05BC2CDD1B0698C3699F16A6C9387534E8 DUP9 DUP4 PUSH1 0x40 MLOAD PUSH2 0xE8C SWAP3 SWAP2 SWAP1 PUSH2 0x288F JUMP JUMPDEST PUSH1 0x40 MLOAD DUP1 SWAP2 SUB SWAP1 LOG2 POP POP POP POP POP POP POP POP JUMP JUMPDEST PUSH1 0x0 DUP1 SLOAD SWAP1 PUSH2 0x100 EXP SWAP1 DIV PUSH20 0xFFFFFFFFFFFFFFFFFFFFFFFFFFFFFFFFFFFFFFFF AND PUSH20 0xFFFFFFFFFFFFFFFFFFFFFFFFFFFFFFFFFFFFFFFF AND CALLER PUSH20 0xFFFFFFFFFFFFFFFFFFFFFFFFFFFFFFFFFFFFFFFF AND EQ PUSH2 0xF2C JUMPI PUSH1 0x40 MLOAD PUSH32 0x8C379A000000000000000000000000000000000000000000000000000000000 DUP2 MSTORE PUSH1 0x4 ADD PUSH2 0xF23 SWAP1 PUSH2 0x3074 JUMP JUMPDEST PUSH1 0x40 MLOAD DUP1 SWAP2 SUB SWAP1 REVERT JUMPDEST PUSH1 0x0 PUSH20 0xFFFFFFFFFFFFFFFFFFFFFFFFFFFFFFFFFFFFFFFF AND DUP2 PUSH20 0xFFFFFFFFFFFFFFFFFFFFFFFFFFFFFFFFFFFFFFFF AND SUB PUSH2 0xF9B JUMPI PUSH1 0x40 MLOAD PUSH32 0x8C379A000000000000000000000000000000000000000000000000000000000 DUP2 MSTORE PUSH1 0x4 ADD PUSH2 0xF92 SWAP1 PUSH2 0x368C JUMP JUMPDEST PUSH1 0x40 MLOAD DUP1 SWAP2 SUB SWAP1 REVERT JUMPDEST DUP1 PUSH1 0x0 DUP1 PUSH2 0x100 EXP DUP2 SLOAD DUP2 PUSH20 0xFFFFFFFFFFFFFFFFFFFFFFFFFFFFFFFFFFFFFFFF MUL NOT AND SWAP1 DUP4 PUSH20 0xFFFFFFFFFFFFFFFFFFFFFFFFFFFFFFFFFFFFFFFF AND MUL OR SWAP1 SSTORE POP POP JUMP JUMPDEST PUSH1 0x6 PUSH1 0x20 MSTORE DUP1 PUSH1 0x0 MSTORE PUSH1 0x40 PUSH1 0x0 KECCAK256 PUSH1 0x0 SWAP2 POP SWAP1 POP DUP1 PUSH1 0x0 ADD SLOAD SWAP1 DUP1 PUSH1 0x1 ADD SLOAD SWAP1 DUP1 PUSH1 0x2 ADD SLOAD SWAP1 DUP1 PUSH1 0x3 ADD SLOAD SWAP1 DUP1 PUSH1 0x4 ADD SLOAD SWAP1 DUP1 PUSH1 0x5 ADD SLOAD SWAP1 DUP1 PUSH1 0x6 ADD PUSH1 0x0 SWAP1 SLOAD SWAP1 PUSH2 0x100 EXP SWAP1 DIV PUSH1 0xFF AND SWAP1 POP DUP8 JUMP JUMPDEST PUSH1 0x3 SLOAD DUP2 JUMP JUMPDEST PUSH1 0x7 PUSH1 0x20 MSTORE DUP2 PUSH1 0x0 MSTORE PUSH1 0x40 PUSH1 0x0 KECCAK256 PUSH1 0x20 MSTORE DUP1 PUSH1 0x0 MSTORE PUSH1 0x40 PUSH1 0x0 KECCAK256 PUSH1 0x0 SWAP2 POP SWAP2 POP SWAP1 SLOAD SWAP1 PUSH2 0x100 EXP SWAP1 DIV PUSH1 0xFF AND DUP2 JUMP JUMPDEST PUSH1 0xA PUSH1 0x20 MSTORE DUP1 PUSH1 0x0 MSTORE PUSH1 0x40 PUSH1 0x0 KECCAK256 PUSH1 0x0 SWAP2 POP SLOAD SWAP1 PUSH2 0x100 EXP SWAP1 DIV PUSH1 0xFF AND DUP2 JUMP JUMPDEST DUP2 DUP1 PUSH1 0x4 PUSH1 0x0 DUP4 DUP2 MSTORE PUSH1 0x20 ADD SWAP1 DUP2 MSTORE PUSH1 0x20 ADD PUSH1 0x0 KECCAK256 PUSH1 0x0 ADD SLOAD EQ PUSH2 0x10DB JUMPI PUSH1 0x40 MLOAD PUSH32 0x8C379A000000000000000000000000000000000000000000000000000000000 DUP2 MSTORE PUSH1 0x4 ADD PUSH2 0x10D2 SWAP1 PUSH2 0x3506 JUMP JUMPDEST PUSH1 0x40 MLOAD DUP1 SWAP2 SUB SWAP1 REVERT JUMPDEST PUSH1 0x0 DUP1 SLOAD SWAP1 PUSH2 0x100 EXP SWAP1 DIV PUSH20 0xFFFFFFFFFFFFFFFFFFFFFFFFFFFFFFFFFFFFFFFF AND PUSH20 0xFFFFFFFFFFFFFFFFFFFFFFFFFFFFFFFFFFFFFFFF AND CALLER PUSH20 0xFFFFFFFFFFFFFFFFFFFFFFFFFFFFFFFFFFFFFFFF AND EQ PUSH2 0x1169 JUMPI PUSH1 0x40 MLOAD PUSH32 0x8C379A000000000000000000000000000000000000000000000000000000000 DUP2 MSTORE PUSH1 0x4 ADD PUSH2 0x1160 SWAP1 PUSH2 0x3074 JUMP JUMPDEST PUSH1 0x40 MLOAD DUP1 SWAP2 SUB SWAP1 REVERT JUMPDEST PUSH1 0x4 PUSH1 0x0 DUP5 DUP2 MSTORE PUSH1 0x20 ADD SWAP1 DUP2 MSTORE PUSH1 0x20 ADD PUSH1 0x0 KECCAK256 PUSH1 0x5 ADD PUSH1 0x0 DUP4 PUSH20 0xFFFFFFFFFFFFFFFFFFFFFFFFFFFFFFFFFFFFFFFF AND PUSH20 0xFFFFFFFFFFFFFFFFFFFFFFFFFFFFFFFFFFFFFFFF AND DUP2 MSTORE PUSH1 0x20 ADD SWAP1 DUP2 MSTORE PUSH1 0x20 ADD PUSH1 0x0 KECCAK256 PUSH1 0x0 SWAP1 SLOAD SWAP1 PUSH2 0x100 EXP SWAP1 DIV PUSH1 0xFF AND ISZERO PUSH2 0x120A JUMPI PUSH1 0x40 MLOAD PUSH32 0x8C379A000000000000000000000000000000000000000000000000000000000 DUP2 MSTORE PUSH1 0x4 ADD PUSH2 0x1201 SWAP1 PUSH2 0x36F8 JUMP JUMPDEST PUSH1 0x40 MLOAD DUP1 SWAP2 SUB SWAP1 REVERT JUMPDEST PUSH1 0x1 PUSH1 0x4 PUSH1 0x0 DUP6 DUP2 MSTORE PUSH1 0x20 ADD SWAP1 DUP2 MSTORE PUSH1 0x20 ADD PUSH1 0x0 KECCAK256 PUSH1 0x5 ADD PUSH1 0x0 DUP5 PUSH20 0xFFFFFFFFFFFFFFFFFFFFFFFFFFFFFFFFFFFFFFFF AND PUSH20 0xFFFFFFFFFFFFFFFFFFFFFFFFFFFFFFFFFFFFFFFF AND DUP2 MSTORE PUSH1 0x20 ADD SWAP1 DUP2 MSTORE PUSH1 0x20 ADD PUSH1 0x0 KECCAK256 PUSH1 0x0 PUSH2 0x100 EXP DUP2 SLOAD DUP2 PUSH1 0xFF MUL NOT AND SWAP1 DUP4 ISZERO ISZERO MUL OR SWAP1 SSTORE POP POP POP POP JUMP JUMPDEST DUP2 DUP1 PUSH1 0x4 PUSH1 0x0 DUP4 DUP2 MSTORE PUSH1 0x20 ADD SWAP1 DUP2 MSTORE PUSH1 0x20 ADD PUSH1 0x0 KECCAK256 PUSH1 0x0 ADD SLOAD EQ PUSH2 0x12D4 JUMPI PUSH1 0x40 MLOAD PUSH32 0x8C379A000000000000000000000000000000000000000000000000000000000 DUP2 MSTORE PUSH1 0x4 ADD PUSH2 0x12CB SWAP1 PUSH2 0x3506 JUMP JUMPDEST PUSH1 0x40 MLOAD DUP1 SWAP2 SUB SWAP1 REVERT JUMPDEST PUSH1 0x0 DUP1 SLOAD SWAP1 PUSH2 0x100 EXP SWAP1 DIV PUSH20 0xFFFFFFFFFFFFFFFFFFFFFFFFFFFFFFFFFFFFFFFF AND PUSH20 0xFFFFFFFFFFFFFFFFFFFFFFFFFFFFFFFFFFFFFFFF AND CALLER PUSH20 0xFFFFFFFFFFFFFFFFFFFFFFFFFFFFFFFFFFFFFFFF AND EQ PUSH2 0x1362 JUMPI PUSH1 0x40 MLOAD PUSH32 0x8C379A000000000000000000000000000000000000000000000000000000000 DUP2 MSTORE PUSH1 0x4 ADD PUSH2 0x1359 SWAP1 PUSH2 0x3074 JUMP JUMPDEST PUSH1 0x40 MLOAD DUP1 SWAP2 SUB SWAP1 REVERT JUMPDEST PUSH1 0x4 PUSH1 0x0 DUP5 DUP2 MSTORE PUSH1 0x20 ADD SWAP1 DUP2 MSTORE PUSH1 0x20 ADD PUSH1 0x0 KECCAK256 PUSH1 0x5 ADD PUSH1 0x0 DUP4 PUSH20 0xFFFFFFFFFFFFFFFFFFFFFFFFFFFFFFFFFFFFFFFF AND PUSH20 0xFFFFFFFFFFFFFFFFFFFFFFFFFFFFFFFFFFFFFFFF AND DUP2 MSTORE PUSH1 0x20 ADD SWAP1 DUP2 MSTORE PUSH1 0x20 ADD PUSH1 0x0 KECCAK256 PUSH1 0x0 SWAP1 SLOAD SWAP1 PUSH2 0x100 EXP SWAP1 DIV PUSH1 0xFF AND PUSH2 0x1402 JUMPI PUSH1 0x40 MLOAD PUSH32 0x8C379A000000000000000000000000000000000000000000000000000000000 DUP2 MSTORE PUSH1 0x4 ADD PUSH2 0x13F9 SWAP1 PUSH2 0x3764 JUMP JUMPDEST PUSH1 0x40 MLOAD DUP1 SWAP2 SUB SWAP1 REVERT JUMPDEST PUSH1 0x0 PUSH1 0x4 PUSH1 0x0 DUP6 DUP2 MSTORE PUSH1 0x20 ADD SWAP1 DUP2 MSTORE PUSH1 0x20 ADD PUSH1 0x0 KECCAK256 PUSH1 0x5 ADD PUSH1 0x0 DUP5 PUSH20 0xFFFFFFFFFFFFFFFFFFFFFFFFFFFFFFFFFFFFFFFF AND PUSH20 0xFFFFFFFFFFFFFFFFFFFFFFFFFFFFFFFFFFFFFFFF AND DUP2 MSTORE PUSH1 0x20 ADD SWAP1 DUP2 MSTORE PUSH1 0x20 ADD PUSH1 0x0 KECCAK256 PUSH1 0x0 PUSH2 0x100 EXP DUP2 SLOAD DUP2 PUSH1 0xFF MUL NOT AND SWAP1 DUP4 ISZERO ISZERO MUL OR SWAP1 SSTORE POP POP POP POP JUMP JUMPDEST PUSH1 0x0 PUSH1 0x5 PUSH1 0x0 DUP4 DUP2 MSTORE PUSH1 0x20 ADD SWAP1 DUP2 MSTORE PUSH1 0x20 ADD PUSH1 0x0 KECCAK256 SWAP1 POP PUSH1 0x0 PUSH20 0xFFFFFFFFFFFFFFFFFFFFFFFFFFFFFFFFFFFFFFFF AND DUP2 PUSH1 0x0 ADD PUSH1 0x0 SWAP1 SLOAD SWAP1 PUSH2 0x100 EXP SWAP1 DIV PUSH20 0xFFFFFFFFFFFFFFFFFFFFFFFFFFFFFFFFFFFFFFFF AND PUSH20 0xFFFFFFFFFFFFFFFFFFFFFFFFFFFFFFFFFFFFFFFF AND SUB PUSH2 0x151D JUMPI PUSH1 0x40 MLOAD PUSH32 0x8C379A000000000000000000000000000000000000000000000000000000000 DUP2 MSTORE PUSH1 0x4 ADD PUSH2 0x1514 SWAP1 PUSH2 0x37D0 JUMP JUMPDEST PUSH1 0x40 MLOAD DUP1 SWAP2 SUB SWAP1 REVERT JUMPDEST DUP1 PUSH1 0x2 ADD PUSH1 0x14 SWAP1 SLOAD SWAP1 PUSH2 0x100 EXP SWAP1 DIV PUSH1 0xFF AND ISZERO PUSH2 0x156F JUMPI PUSH1 0x40 MLOAD PUSH32 0x8C379A000000000000000000000000000000000000000000000000000000000 DUP2 MSTORE PUSH1 0x4 ADD PUSH2 0x1566 SWAP1 PUSH2 0x383C JUMP JUMPDEST PUSH1 0x40 MLOAD DUP1 SWAP2 SUB SWAP1 REVERT JUMPDEST DUP1 PUSH1 0x2 ADD PUSH1 0x0 SWAP1 SLOAD SWAP1 PUSH2 0x100 EXP SWAP1 DIV PUSH20 0xFFFFFFFFFFFFFFFFFFFFFFFFFFFFFFFFFFFFFFFF AND PUSH20 0xFFFFFFFFFFFFFFFFFFFFFFFFFFFFFFFFFFFFFFFF AND CALLER PUSH20 0xFFFFFFFFFFFFFFFFFFFFFFFFFFFFFFFFFFFFFFFF AND EQ DUP1 PUSH2 0x1618 JUMPI POP PUSH1 0x0 DUP1 SLOAD SWAP1 PUSH2 0x100 EXP SWAP1 DIV PUSH20 0xFFFFFFFFFFFFFFFFFFFFFFFFFFFFFFFFFFFFFFFF AND PUSH20 0xFFFFFFFFFFFFFFFFFFFFFFFFFFFFFFFFFFFFFFFF AND CALLER PUSH20 0xFFFFFFFFFFFFFFFFFFFFFFFFFFFFFFFFFFFFFFFF AND EQ JUMPDEST PUSH2 0x1657 JUMPI PUSH1 0x40 MLOAD PUSH32 0x8C379A000000000000000000000000000000000000000000000000000000000 DUP2 MSTORE PUSH1 0x4 ADD PUSH2 0x164E SWAP1 PUSH2 0x38A8 JUMP JUMPDEST PUSH1 0x40 MLOAD DUP1 SWAP2 SUB SWAP1 REVERT JUMPDEST PUSH1 0x1 DUP2 PUSH1 0x2 ADD PUSH1 0x14 PUSH2 0x100 EXP DUP2 SLOAD DUP2 PUSH1 0xFF MUL NOT AND SWAP1 DUP4 ISZERO ISZERO MUL OR SWAP1 SSTORE POP PUSH1 0x1 PUSH1 0x7 PUSH1 0x0 DUP4 PUSH1 0x2 ADD PUSH1 0x0 SWAP1 SLOAD SWAP1 PUSH2 0x100 EXP SWAP1 DIV PUSH20 0xFFFFFFFFFFFFFFFFFFFFFFFFFFFFFFFFFFFFFFFF AND PUSH20 0xFFFFFFFFFFFFFFFFFFFFFFFFFFFFFFFFFFFFFFFF AND PUSH20 0xFFFFFFFFFFFFFFFFFFFFFFFFFFFFFFFFFFFFFFFF AND DUP2 MSTORE PUSH1 0x20 ADD SWAP1 DUP2 MSTORE PUSH1 0x20 ADD PUSH1 0x0 KECCAK256 PUSH1 0x0 DUP4 PUSH1 0x1 ADD SLOAD DUP2 MSTORE PUSH1 0x20 ADD SWAP1 DUP2 MSTORE PUSH1 0x20 ADD PUSH1 0x0 KECCAK256 PUSH1 0x0 PUSH2 0x100 EXP DUP2 SLOAD DUP2 PUSH1 0xFF MUL NOT AND SWAP1 DUP4 ISZERO ISZERO MUL OR SWAP1 SSTORE POP DUP1 PUSH1 0x2 ADD PUSH1 0x0 SWAP1 SLOAD SWAP1 PUSH2 0x100 EXP SWAP1 DIV PUSH20 0xFFFFFFFFFFFFFFFFFFFFFFFFFFFFFFFFFFFFFFFF AND PUSH20 0xFFFFFFFFFFFFFFFFFFFFFFFFFFFFFFFFFFFFFFFF AND DUP3 PUSH32 0x189199877AC49C708164C69193136769411BAAEDCC0FFC4660AD59CC1111C030 DUP4 PUSH1 0x1 ADD SLOAD PUSH1 0x40 MLOAD PUSH2 0x1774 SWAP2 SWAP1 PUSH2 0x2B92 JUMP JUMPDEST PUSH1 0x40 MLOAD DUP1 SWAP2 SUB SWAP1 LOG3 POP POP JUMP JUMPDEST PUSH1 0x9 PUSH1 0x20 MSTORE DUP2 PUSH1 0x0 MSTORE PUSH1 0x40 PUSH1 0x0 KECCAK256 PUSH1 0x20 MSTORE DUP1 PUSH1 0x0 MSTORE PUSH1 0x40 PUSH1 0x0 KECCAK256 PUSH1 0x0 SWAP2 POP SWAP2 POP SWAP1 SLOAD SWAP1 PUSH2 0x100 EXP SWAP1 DIV PUSH1 0xFF AND DUP2 JUMP JUMPDEST PUSH1 0x0 DUP1 PUSH2 0x17C9 PUSH3 0x15180 DUP5 PUSH2 0x17C4 SWAP2 SWAP1 PUSH2 0x38F7 JUMP JUMPDEST PUSH2 0x227D JUMP JUMPDEST POP DUP1 SWAP3 POP DUP2 SWAP4 POP POP POP SWAP2 POP SWAP2 JUMP JUMPDEST PUSH1 0x0 PUSH1 0x6 PUSH1 0x0 DUP5 DUP2 MSTORE PUSH1 0x20 ADD SWAP1 DUP2 MSTORE PUSH1 0x20 ADD PUSH1 0x0 KECCAK256 SWAP1 POP PUSH1 0x4 PUSH1 0x0 DUP3 PUSH1 0x1 ADD SLOAD DUP2 MSTORE PUSH1 0x20 ADD SWAP1 DUP2 MSTORE PUSH1 0x20 ADD PUSH1 0x0 KECCAK256 PUSH1 0x2 ADD PUSH1 0x0 DUP3 PUSH1 0x2 ADD SLOAD DUP2 MSTORE PUSH1 0x20 ADD SWAP1 DUP2 MSTORE PUSH1 0x20 ADD PUSH1 0x0 KECCAK256 PUSH1 0x2 ADD PUSH1 0x0 SWAP1 SLOAD SWAP1 PUSH2 0x100 EXP SWAP1 DIV PUSH20 0xFFFFFFFFFFFFFFFFFFFFFFFFFFFFFFFFFFFFFFFF AND PUSH20 0xFFFFFFFFFFFFFFFFFFFFFFFFFFFFFFFFFFFFFFFF AND CALLER PUSH20 0xFFFFFFFFFFFFFFFFFFFFFFFFFFFFFFFFFFFFFFFF AND EQ PUSH2 0x18AE JUMPI PUSH1 0x40 MLOAD PUSH32 0x8C379A000000000000000000000000000000000000000000000000000000000 DUP2 MSTORE PUSH1 0x4 ADD PUSH2 0x18A5 SWAP1 PUSH2 0x38A8 JUMP JUMPDEST PUSH1 0x40 MLOAD DUP1 SWAP2 SUB SWAP1 REVERT JUMPDEST PUSH1 0x0 DUP4 DUP4 PUSH1 0x3 SLOAD PUSH1 0x40 MLOAD PUSH1 0x20 ADD PUSH2 0x18C7 SWAP4 SWAP3 SWAP2 SWAP1 PUSH2 0x3991 JUMP JUMPDEST PUSH1 0x40 MLOAD PUSH1 0x20 DUP2 DUP4 SUB SUB DUP2 MSTORE SWAP1 PUSH1 0x40 MSTORE DUP1 MLOAD SWAP1 PUSH1 0x20 ADD KECCAK256 SWAP1 POP PUSH1 0x40 MLOAD DUP1 PUSH1 0x80 ADD PUSH1 0x40 MSTORE DUP1 CALLER PUSH20 0xFFFFFFFFFFFFFFFFFFFFFFFFFFFFFFFFFFFFFFFF AND DUP2 MSTORE PUSH1 0x20 ADD DUP6 DUP2 MSTORE PUSH1 0x20 ADD DUP5 PUSH20 0xFFFFFFFFFFFFFFFFFFFFFFFFFFFFFFFFFFFFFFFF AND DUP2 MSTORE PUSH1 0x20 ADD PUSH1 0x0 ISZERO ISZERO DUP2 MSTORE POP PUSH1 0x5 PUSH1 0x0 DUP4 DUP2 MSTORE PUSH1 0x20 ADD SWAP1 DUP2 MSTORE PUSH1 0x20 ADD PUSH1 0x0 KECCAK256 PUSH1 0x0 DUP3 ADD MLOAD DUP2 PUSH1 0x0 ADD PUSH1 0x0 PUSH2 0x100 EXP DUP2 SLOAD DUP2 PUSH20 0xFFFFFFFFFFFFFFFFFFFFFFFFFFFFFFFFFFFFFFFF MUL NOT AND SWAP1 DUP4 PUSH20 0xFFFFFFFFFFFFFFFFFFFFFFFFFFFFFFFFFFFFFFFF AND MUL OR SWAP1 SSTORE POP PUSH1 0x20 DUP3 ADD MLOAD DUP2 PUSH1 0x1 ADD SSTORE PUSH1 0x40 DUP3 ADD MLOAD DUP2 PUSH1 0x2 ADD PUSH1 0x0 PUSH2 0x100 EXP DUP2 SLOAD DUP2 PUSH20 0xFFFFFFFFFFFFFFFFFFFFFFFFFFFFFFFFFFFFFFFF MUL NOT AND SWAP1 DUP4 PUSH20 0xFFFFFFFFFFFFFFFFFFFFFFFFFFFFFFFFFFFFFFFF AND MUL OR SWAP1 SSTORE POP PUSH1 0x60 DUP3 ADD MLOAD DUP2 PUSH1 0x2 ADD PUSH1 0x14 PUSH2 0x100 EXP DUP2 SLOAD DUP2 PUSH1 0xFF MUL NOT AND SWAP1 DUP4 ISZERO ISZERO MUL OR SWAP1 SSTORE POP SWAP1 POP POP PUSH1 0x3 PUSH1 0x0 DUP2 SLOAD DUP1 SWAP3 SWAP2 SWAP1 PUSH2 0x1A10 SWAP1 PUSH2 0x2FE0 JUMP JUMPDEST SWAP2 SWAP1 POP SSTORE POP POP POP POP POP JUMP JUMPDEST PUSH1 0x5 DUP2 JUMP JUMPDEST PUSH1 0x0 PUSH1 0x6 PUSH1 0x0 DUP8 DUP2 MSTORE PUSH1 0x20 ADD SWAP1 DUP2 MSTORE PUSH1 0x20 ADD PUSH1 0x0 KECCAK256 SWAP1 POP PUSH1 0x0 PUSH1 0x4 PUSH1 0x0 DUP4 PUSH1 0x1 ADD SLOAD DUP2 MSTORE PUSH1 0x20 ADD SWAP1 DUP2 MSTORE PUSH1 0x20 ADD PUSH1 0x0 KECCAK256 SWAP1 POP DUP1 PUSH1 0x5 ADD PUSH1 0x0 CALLER PUSH20 0xFFFFFFFFFFFFFFFFFFFFFFFFFFFFFFFFFFFFFFFF AND PUSH20 0xFFFFFFFFFFFFFFFFFFFFFFFFFFFFFFFFFFFFFFFF AND DUP2 MSTORE PUSH1 0x20 ADD SWAP1 DUP2 MSTORE PUSH1 0x20 ADD PUSH1 0x0 KECCAK256 PUSH1 0x0 SWAP1 SLOAD SWAP1 PUSH2 0x100 EXP SWAP1 DIV PUSH1 0xFF AND PUSH2 0x1AE0 JUMPI PUSH1 0x40 MLOAD PUSH32 0x8C379A000000000000000000000000000000000000000000000000000000000 DUP2 MSTORE PUSH1 0x4 ADD PUSH2 0x1AD7 SWAP1 PUSH2 0x3764 JUMP JUMPDEST PUSH1 0x40 MLOAD DUP1 SWAP2 SUB SWAP1 REVERT JUMPDEST DUP2 PUSH1 0x6 ADD PUSH1 0x0 SWAP1 SLOAD SWAP1 PUSH2 0x100 EXP SWAP1 DIV PUSH1 0xFF AND ISZERO PUSH2 0x1B32 JUMPI PUSH1 0x40 MLOAD PUSH32 0x8C379A000000000000000000000000000000000000000000000000000000000 DUP2 MSTORE PUSH1 0x4 ADD PUSH2 0x1B29 SWAP1 PUSH2 0x3A1A JUMP JUMPDEST PUSH1 0x40 MLOAD DUP1 SWAP2 SUB SWAP1 REVERT JUMPDEST DUP2 PUSH1 0x5 ADD SLOAD TIMESTAMP GT ISZERO PUSH2 0x1B79 JUMPI PUSH1 0x40 MLOAD PUSH32 0x8C379A000000000000000000000000000000000000000000000000000000000 DUP2 MSTORE PUSH1 0x4 ADD PUSH2 0x1B70 SWAP1 PUSH2 0x3A86 JUMP JUMPDEST PUSH1 0x40 MLOAD DUP1 SWAP2 SUB SWAP1 REVERT JUMPDEST PUSH1 0x7 PUSH1 0x0 CALLER PUSH20 0xFFFFFFFFFFFFFFFFFFFFFFFFFFFFFFFFFFFFFFFF AND PUSH20 0xFFFFFFFFFFFFFFFFFFFFFFFFFFFFFFFFFFFFFFFF AND DUP2 MSTORE PUSH1 0x20 ADD SWAP1 DUP2 MSTORE PUSH1 0x20 ADD PUSH1 0x0 KECCAK256 PUSH1 0x0 DUP9 DUP2 MSTORE PUSH1 0x20 ADD SWAP1 DUP2 MSTORE PUSH1 0x20 ADD PUSH1 0x0 KECCAK256 PUSH1 0x0 SWAP1 SLOAD SWAP1 PUSH2 0x100 EXP SWAP1 DIV PUSH1 0xFF AND ISZERO PUSH2 0x1C17 JUMPI PUSH1 0x40 MLOAD PUSH32 0x8C379A000000000000000000000000000000000000000000000000000000000 DUP2 MSTORE PUSH1 0x4 ADD PUSH2 0x1C0E SWAP1 PUSH2 0x3AF2 JUMP JUMPDEST PUSH1 0x40 MLOAD DUP1 SWAP2 SUB SWAP1 REVERT JUMPDEST PUSH2 0x1C27 DUP7 DUP4 PUSH1 0x3 ADD SLOAD PUSH1 0x5 PUSH2 0x2410 JUMP JUMPDEST PUSH2 0x1C66 JUMPI PUSH1 0x40 MLOAD PUSH32 0x8C379A000000000000000000000000000000000000000000000000000000000 DUP2 MSTORE PUSH1 0x4 ADD PUSH2 0x1C5D SWAP1 PUSH2 0x3B5E JUMP JUMPDEST PUSH1 0x40 MLOAD DUP1 SWAP2 SUB SWAP1 REVERT JUMPDEST PUSH1 0x0 DUP3 PUSH1 0x3 ADD SLOAD DUP4 PUSH1 0x4 ADD SLOAD PUSH1 0x40 MLOAD PUSH1 0x20 ADD PUSH2 0x1C83 SWAP3 SWAP2 SWAP1 PUSH2 0x3B9F JUMP JUMPDEST PUSH1 0x40 MLOAD PUSH1 0x20 DUP2 DUP4 SUB SUB DUP2 MSTORE SWAP1 PUSH1 0x40 MSTORE DUP1 MLOAD SWAP1 PUSH1 0x20 ADD KECCAK256 SWAP1 POP PUSH2 0x1CE2 DUP2 DUP7 DUP5 PUSH1 0x2 ADD PUSH1 0x0 DUP8 PUSH1 0x2 ADD SLOAD DUP2 MSTORE PUSH1 0x20 ADD SWAP1 DUP2 MSTORE PUSH1 0x20 ADD PUSH1 0x0 KECCAK256 PUSH1 0x2 ADD PUSH1 0x0 SWAP1 SLOAD SWAP1 PUSH2 0x100 EXP SWAP1 DIV PUSH20 0xFFFFFFFFFFFFFFFFFFFFFFFFFFFFFFFFFFFFFFFF AND PUSH2 0x24CF JUMP JUMPDEST PUSH2 0x1D21 JUMPI PUSH1 0x40 MLOAD PUSH32 0x8C379A000000000000000000000000000000000000000000000000000000000 DUP2 MSTORE PUSH1 0x4 ADD PUSH2 0x1D18 SWAP1 PUSH2 0x3C17 JUMP JUMPDEST PUSH1 0x40 MLOAD DUP1 SWAP2 SUB SWAP1 REVERT JUMPDEST PUSH1 0x0 DUP8 DUP8 PUSH1 0x40 MLOAD PUSH1 0x20 ADD PUSH2 0x1D36 SWAP3 SWAP2 SWAP1 PUSH2 0x3B9F JUMP JUMPDEST PUSH1 0x40 MLOAD PUSH1 0x20 DUP2 DUP4 SUB SUB DUP2 MSTORE SWAP1 PUSH1 0x40 MSTORE DUP1 MLOAD SWAP1 PUSH1 0x20 ADD KECCAK256 SWAP1 POP PUSH2 0x1D59 DUP2 DUP7 CALLER PUSH2 0x24CF JUMP JUMPDEST PUSH2 0x1D98 JUMPI PUSH1 0x40 MLOAD PUSH32 0x8C379A000000000000000000000000000000000000000000000000000000000 DUP2 MSTORE PUSH1 0x4 ADD PUSH2 0x1D8F SWAP1 PUSH2 0x3C83 JUMP JUMPDEST PUSH1 0x40 MLOAD DUP1 SWAP2 SUB SWAP1 REVERT JUMPDEST PUSH1 0x0 DUP7 DUP7 PUSH1 0x40 MLOAD PUSH1 0x20 ADD PUSH2 0x1DAD SWAP3 SWAP2 SWAP1 PUSH2 0x3CDF JUMP JUMPDEST PUSH1 0x40 MLOAD PUSH1 0x20 DUP2 DUP4 SUB SUB DUP2 MSTORE SWAP1 PUSH1 0x40 MSTORE DUP1 MLOAD SWAP1 PUSH1 0x20 ADD KECCAK256 SWAP1 POP PUSH1 0xA PUSH1 0x0 DUP3 DUP2 MSTORE PUSH1 0x20 ADD SWAP1 DUP2 MSTORE PUSH1 0x20 ADD PUSH1 0x0 KECCAK256 PUSH1 0x0 SWAP1 SLOAD SWAP1 PUSH2 0x100 EXP SWAP1 DIV PUSH1 0xFF AND ISZERO PUSH2 0x1E26 JUMPI PUSH1 0x40 MLOAD PUSH32 0x8C379A000000000000000000000000000000000000000000000000000000000 DUP2 MSTORE PUSH1 0x4 ADD PUSH2 0x1E1D SWAP1 PUSH2 0x3D4F JUMP JUMPDEST PUSH1 0x40 MLOAD DUP1 SWAP2 SUB SWAP1 REVERT JUMPDEST PUSH1 0x1 PUSH1 0xA PUSH1 0x0 DUP4 DUP2 MSTORE PUSH1 0x20 ADD SWAP1 DUP2 MSTORE PUSH1 0x20 ADD PUSH1 0x0 KECCAK256 PUSH1 0x0 PUSH2 0x100 EXP DUP2 SLOAD DUP2 PUSH1 0xFF MUL NOT AND SWAP1 DUP4 ISZERO ISZERO MUL OR SWAP1 SSTORE POP PUSH1 0x1 PUSH1 0x7 PUSH1 0x0 CALLER PUSH20 0xFFFFFFFFFFFFFFFFFFFFFFFFFFFFFFFFFFFFFFFF AND PUSH20 0xFFFFFFFFFFFFFFFFFFFFFFFFFFFFFFFFFFFFFFFF AND DUP2 MSTORE PUSH1 0x20 ADD SWAP1 DUP2 MSTORE PUSH1 0x20 ADD PUSH1 0x0 KECCAK256 PUSH1 0x0 DUP13 DUP2 MSTORE PUSH1 0x20 ADD SWAP1 DUP2 MSTORE PUSH1 0x20 ADD PUSH1 0x0 KECCAK256 PUSH1 0x0 PUSH2 0x100 EXP DUP2 SLOAD DUP2 PUSH1 0xFF MUL NOT AND SWAP1 DUP4 ISZERO ISZERO MUL OR SWAP1 SSTORE POP PUSH32 0x8841D9F49345D61EFC842E9624F59B54162B3C8ACF4E384FD425957A2BE55D86 CALLER DUP12 PUSH1 0x40 MLOAD PUSH2 0x1EEC SWAP3 SWAP2 SWAP1 PUSH2 0x3D6F JUMP JUMPDEST PUSH1 0x40 MLOAD DUP1 SWAP2 SUB SWAP1 LOG1 POP POP POP POP POP POP POP POP POP POP JUMP JUMPDEST PUSH1 0x60 PUSH1 0x0 DUP1 PUSH1 0x0 SWAP1 POP JUMPDEST PUSH1 0x1 SLOAD DUP2 LT ISZERO PUSH2 0x1FD5 JUMPI PUSH1 0x0 PUSH1 0x4 PUSH1 0x0 DUP4 DUP2 MSTORE PUSH1 0x20 ADD SWAP1 DUP2 MSTORE PUSH1 0x20 ADD PUSH1 0x0 KECCAK256 SWAP1 POP PUSH1 0x0 JUMPDEST DUP2 PUSH1 0x3 ADD DUP1 SLOAD SWAP1 POP DUP2 LT ISZERO PUSH2 0x1FC6 JUMPI PUSH1 0x0 DUP3 PUSH1 0x3 ADD DUP3 DUP2 SLOAD DUP2 LT PUSH2 0x1F55 JUMPI PUSH2 0x1F54 PUSH2 0x2F4E JUMP JUMPDEST JUMPDEST SWAP1 PUSH1 0x0 MSTORE PUSH1 0x20 PUSH1 0x0 KECCAK256 ADD SLOAD SWAP1 POP PUSH1 0x0 DUP4 PUSH1 0x2 ADD PUSH1 0x0 DUP4 DUP2 MSTORE PUSH1 0x20 ADD SWAP1 DUP2 MSTORE PUSH1 0x20 ADD PUSH1 0x0 KECCAK256 SWAP1 POP DUP8 DUP1 MLOAD SWAP1 PUSH1 0x20 ADD KECCAK256 DUP2 PUSH1 0x1 ADD PUSH1 0x40 MLOAD PUSH2 0x1F94 SWAP2 SWAP1 PUSH2 0x3437 JUMP JUMPDEST PUSH1 0x40 MLOAD DUP1 SWAP2 SUB SWAP1 KECCAK256 SUB PUSH2 0x1FB7 JUMPI DUP1 PUSH1 0x3 ADD DUP1 SLOAD SWAP1 POP DUP7 PUSH2 0x1FB4 SWAP2 SWAP1 PUSH2 0x2FAC JUMP JUMPDEST SWAP6 POP JUMPDEST POP POP DUP1 DUP1 PUSH1 0x1 ADD SWAP2 POP POP PUSH2 0x1F2E JUMP JUMPDEST POP POP DUP1 DUP1 PUSH1 0x1 ADD SWAP2 POP POP PUSH2 0x1F0A JUMP JUMPDEST POP PUSH1 0x0 DUP2 PUSH8 0xFFFFFFFFFFFFFFFF DUP2 GT ISZERO PUSH2 0x1FF2 JUMPI PUSH2 0x1FF1 PUSH2 0x28D3 JUMP JUMPDEST JUMPDEST PUSH1 0x40 MLOAD SWAP1 DUP1 DUP3 MSTORE DUP1 PUSH1 0x20 MUL PUSH1 0x20 ADD DUP3 ADD PUSH1 0x40 MSTORE DUP1 ISZERO PUSH2 0x2020 JUMPI DUP2 PUSH1 0x20 ADD PUSH1 0x20 DUP3 MUL DUP1 CALLDATASIZE DUP4 CALLDATACOPY DUP1 DUP3 ADD SWAP2 POP POP SWAP1 POP JUMPDEST POP SWAP1 POP PUSH1 0x0 DUP1 PUSH1 0x0 SWAP1 POP JUMPDEST PUSH1 0x1 SLOAD DUP2 LT ISZERO PUSH2 0x214F JUMPI PUSH1 0x0 PUSH1 0x4 PUSH1 0x0 DUP4 DUP2 MSTORE PUSH1 0x20 ADD SWAP1 DUP2 MSTORE PUSH1 0x20 ADD PUSH1 0x0 KECCAK256 SWAP1 POP PUSH1 0x0 JUMPDEST DUP2 PUSH1 0x3 ADD DUP1 SLOAD SWAP1 POP DUP2 LT ISZERO PUSH2 0x2140 JUMPI PUSH1 0x0 DUP3 PUSH1 0x3 ADD DUP3 DUP2 SLOAD DUP2 LT PUSH2 0x2076 JUMPI PUSH2 0x2075 PUSH2 0x2F4E JUMP JUMPDEST JUMPDEST SWAP1 PUSH1 0x0 MSTORE PUSH1 0x20 PUSH1 0x0 KECCAK256 ADD SLOAD SWAP1 POP PUSH1 0x0 DUP4 PUSH1 0x2 ADD PUSH1 0x0 DUP4 DUP2 MSTORE PUSH1 0x20 ADD SWAP1 DUP2 MSTORE PUSH1 0x20 ADD PUSH1 0x0 KECCAK256 SWAP1 POP DUP10 DUP1 MLOAD SWAP1 PUSH1 0x20 ADD KECCAK256 DUP2 PUSH1 0x1 ADD PUSH1 0x40 MLOAD PUSH2 0x20B5 SWAP2 SWAP1 PUSH2 0x3437 JUMP JUMPDEST PUSH1 0x40 MLOAD DUP1 SWAP2 SUB SWAP1 KECCAK256 SUB PUSH2 0x2131 JUMPI PUSH1 0x0 JUMPDEST DUP2 PUSH1 0x3 ADD DUP1 SLOAD SWAP1 POP DUP2 LT ISZERO PUSH2 0x212F JUMPI DUP2 PUSH1 0x3 ADD DUP2 DUP2 SLOAD DUP2 LT PUSH2 0x20EA JUMPI PUSH2 0x20E9 PUSH2 0x2F4E JUMP JUMPDEST JUMPDEST SWAP1 PUSH1 0x0 MSTORE PUSH1 0x20 PUSH1 0x0 KECCAK256 ADD SLOAD DUP9 DUP9 DUP2 MLOAD DUP2 LT PUSH2 0x2108 JUMPI PUSH2 0x2107 PUSH2 0x2F4E JUMP JUMPDEST JUMPDEST PUSH1 0x20 MUL PUSH1 0x20 ADD ADD DUP2 DUP2 MSTORE POP POP DUP7 DUP1 PUSH2 0x211F SWAP1 PUSH2 0x2FE0 JUMP JUMPDEST SWAP8 POP POP DUP1 DUP1 PUSH1 0x1 ADD SWAP2 POP POP PUSH2 0x20C5 JUMP JUMPDEST POP JUMPDEST POP POP DUP1 DUP1 PUSH1 0x1 ADD SWAP2 POP POP PUSH2 0x204F JUMP JUMPDEST POP POP DUP1 DUP1 PUSH1 0x1 ADD SWAP2 POP POP PUSH2 0x202B JUMP JUMPDEST POP DUP2 SWAP4 POP POP POP POP SWAP2 SWAP1 POP JUMP JUMPDEST PUSH1 0x1 SLOAD DUP2 JUMP JUMPDEST PUSH1 0x0 PUSH1 0x6 PUSH1 0x0 DUP4 DUP2 MSTORE PUSH1 0x20 ADD SWAP1 DUP2 MSTORE PUSH1 0x20 ADD PUSH1 0x0 KECCAK256 SWAP1 POP PUSH1 0x4 PUSH1 0x0 DUP3 PUSH1 0x1 ADD SLOAD DUP2 MSTORE PUSH1 0x20 ADD SWAP1 DUP2 MSTORE PUSH1 0x20 ADD PUSH1 0x0 KECCAK256 PUSH1 0x2 ADD PUSH1 0x0 DUP3 PUSH1 0x2 ADD SLOAD DUP2 MSTORE PUSH1 0x20 ADD SWAP1 DUP2 MSTORE PUSH1 0x20 ADD PUSH1 0x0 KECCAK256 PUSH1 0x2 ADD PUSH1 0x0 SWAP1 SLOAD SWAP1 PUSH2 0x100 EXP SWAP1 DIV PUSH20 0xFFFFFFFFFFFFFFFFFFFFFFFFFFFFFFFFFFFFFFFF AND PUSH20 0xFFFFFFFFFFFFFFFFFFFFFFFFFFFFFFFFFFFFFFFF AND CALLER PUSH20 0xFFFFFFFFFFFFFFFFFFFFFFFFFFFFFFFFFFFFFFFF AND EQ PUSH2 0x2238 JUMPI PUSH1 0x40 MLOAD PUSH32 0x8C379A000000000000000000000000000000000000000000000000000000000 DUP2 MSTORE PUSH1 0x4 ADD PUSH2 0x222F SWAP1 PUSH2 0x38A8 JUMP JUMPDEST PUSH1 0x40 MLOAD DUP1 SWAP2 SUB SWAP1 REVERT JUMPDEST PUSH1 0x1 DUP2 PUSH1 0x6 ADD PUSH1 0x0 PUSH2 0x100 EXP DUP2 SLOAD DUP2 PUSH1 0xFF MUL NOT AND SWAP1 DUP4 ISZERO ISZERO MUL OR SWAP1 SSTORE POP POP POP JUMP JUMPDEST PUSH1 0x0 DUP1 SLOAD SWAP1 PUSH2 0x100 EXP SWAP1 DIV PUSH20 0xFFFFFFFFFFFFFFFFFFFFFFFFFFFFFFFFFFFFFFFF AND DUP2 JUMP JUMPDEST PUSH1 0x0 DUP1 PUSH1 0x0 DUP1 DUP5 SWAP1 POP PUSH1 0x0 PUSH3 0x253D8C PUSH3 0x10BD9 DUP4 PUSH2 0x229B SWAP2 SWAP1 PUSH2 0x3DA2 JUMP JUMPDEST PUSH2 0x22A5 SWAP2 SWAP1 PUSH2 0x3DA2 JUMP JUMPDEST SWAP1 POP PUSH1 0x0 PUSH3 0x23AB1 DUP3 PUSH1 0x4 PUSH2 0x22BA SWAP2 SWAP1 PUSH2 0x3DE6 JUMP JUMPDEST PUSH2 0x22C4 SWAP2 SWAP1 PUSH2 0x3E5E JUMP JUMPDEST SWAP1 POP PUSH1 0x4 PUSH1 0x3 DUP3 PUSH3 0x23AB1 PUSH2 0x22D9 SWAP2 SWAP1 PUSH2 0x3DE6 JUMP JUMPDEST PUSH2 0x22E3 SWAP2 SWAP1 PUSH2 0x3DA2 JUMP JUMPDEST PUSH2 0x22ED SWAP2 SWAP1 PUSH2 0x3E5E JUMP JUMPDEST DUP3 PUSH2 0x22F8 SWAP2 SWAP1 PUSH2 0x3EC8 JUMP JUMPDEST SWAP2 POP PUSH1 0x0 PUSH3 0x164B09 PUSH1 0x1 DUP5 PUSH2 0x230D SWAP2 SWAP1 PUSH2 0x3DA2 JUMP JUMPDEST PUSH2 0xFA0 PUSH2 0x231A SWAP2 SWAP1 PUSH2 0x3DE6 JUMP JUMPDEST PUSH2 0x2324 SWAP2 SWAP1 PUSH2 0x3E5E JUMP JUMPDEST SWAP1 POP PUSH1 0x1F PUSH1 0x4 DUP3 PUSH2 0x5B5 PUSH2 0x2338 SWAP2 SWAP1 PUSH2 0x3DE6 JUMP JUMPDEST PUSH2 0x2342 SWAP2 SWAP1 PUSH2 0x3E5E JUMP JUMPDEST DUP5 PUSH2 0x234D SWAP2 SWAP1 PUSH2 0x3EC8 JUMP JUMPDEST PUSH2 0x2357 SWAP2 SWAP1 PUSH2 0x3DA2 JUMP JUMPDEST SWAP3 POP PUSH1 0x0 PUSH2 0x98F DUP5 PUSH1 0x50 PUSH2 0x236B SWAP2 SWAP1 PUSH2 0x3DE6 JUMP JUMPDEST PUSH2 0x2375 SWAP2 SWAP1 PUSH2 0x3E5E JUMP JUMPDEST SWAP1 POP PUSH1 0x50 DUP2 PUSH2 0x98F PUSH2 0x2387 SWAP2 SWAP1 PUSH2 0x3DE6 JUMP JUMPDEST PUSH2 0x2391 SWAP2 SWAP1 PUSH2 0x3E5E JUMP JUMPDEST DUP5 PUSH2 0x239C SWAP2 SWAP1 PUSH2 0x3EC8 JUMP JUMPDEST SWAP6 POP PUSH1 0xB DUP2 PUSH2 0x23AB SWAP2 SWAP1 PUSH2 0x3E5E JUMP JUMPDEST SWAP4 POP DUP4 PUSH1 0xC PUSH2 0x23BA SWAP2 SWAP1 PUSH2 0x3DE6 JUMP JUMPDEST PUSH1 0x2 DUP3 PUSH2 0x23C7 SWAP2 SWAP1 PUSH2 0x3DA2 JUMP JUMPDEST PUSH2 0x23D1 SWAP2 SWAP1 PUSH2 0x3EC8 JUMP JUMPDEST SWAP7 POP DUP4 DUP3 PUSH1 0x31 DUP6 PUSH2 0x23E2 SWAP2 SWAP1 PUSH2 0x3EC8 JUMP JUMPDEST PUSH1 0x64 PUSH2 0x23EE SWAP2 SWAP1 PUSH2 0x3DE6 JUMP JUMPDEST PUSH2 0x23F8 SWAP2 SWAP1 PUSH2 0x3DA2 JUMP JUMPDEST PUSH2 0x2402 SWAP2 SWAP1 PUSH2 0x3DA2 JUMP JUMPDEST SWAP8 POP POP POP POP POP POP SWAP2 SWAP4 SWAP1 SWAP3 POP JUMP JUMPDEST PUSH1 0x0 PUSH1 0x20 DUP3 GT ISZERO PUSH2 0x2456 JUMPI PUSH1 0x40 MLOAD PUSH32 0x8C379A000000000000000000000000000000000000000000000000000000000 DUP2 MSTORE PUSH1 0x4 ADD PUSH2 0x244D SWAP1 PUSH2 0x3F57 JUMP JUMPDEST PUSH1 0x40 MLOAD DUP1 SWAP2 SUB SWAP1 REVERT JUMPDEST PUSH1 0x0 DUP3 SUB PUSH2 0x2467 JUMPI PUSH1 0x1 SWAP1 POP PUSH2 0x24C8 JUMP JUMPDEST PUSH1 0x0 PUSH32 0xFFFFFFFFFFFFFFFFFFFFFFFFFFFFFFFFFFFFFFFFFFFFFFFFFFFFFFFFFFFFFFFF PUSH1 0x0 SHL PUSH1 0x1 PUSH1 0x8 DUP6 PUSH2 0x249C SWAP2 SWAP1 PUSH2 0x35FE JUMP JUMPDEST PUSH2 0x100 PUSH2 0x24A9 SWAP2 SWAP1 PUSH2 0x3F77 JUMP JUMPDEST PUSH1 0x1 SWAP1 SHL PUSH2 0x24B7 SWAP2 SWAP1 PUSH2 0x3F77 JUMP JUMPDEST PUSH1 0x0 SHL XOR SWAP1 POP DUP1 DUP5 AND DUP2 DUP7 AND EQ SWAP2 POP POP JUMPDEST SWAP4 SWAP3 POP POP POP JUMP JUMPDEST PUSH1 0x0 DUP1 DUP5 PUSH1 0x40 MLOAD PUSH1 0x20 ADD PUSH2 0x24E3 SWAP2 SWAP1 PUSH2 0x4002 JUMP JUMPDEST PUSH1 0x40 MLOAD PUSH1 0x20 DUP2 DUP4 SUB SUB DUP2 MSTORE SWAP1 PUSH1 0x40 MSTORE DUP1 MLOAD SWAP1 PUSH1 0x20 ADD KECCAK256 SWAP1 POP PUSH1 0x0 DUP1 PUSH1 0x0 PUSH2 0x2509 DUP8 PUSH2 0x2599 JUMP JUMPDEST SWAP3 POP SWAP3 POP SWAP3 POP DUP6 PUSH20 0xFFFFFFFFFFFFFFFFFFFFFFFFFFFFFFFFFFFFFFFF AND PUSH1 0x1 DUP6 DUP4 DUP7 DUP7 PUSH1 0x40 MLOAD PUSH1 0x0 DUP2 MSTORE PUSH1 0x20 ADD PUSH1 0x40 MSTORE PUSH1 0x40 MLOAD PUSH2 0x2549 SWAP5 SWAP4 SWAP3 SWAP2 SWAP1 PUSH2 0x4044 JUMP JUMPDEST PUSH1 0x20 PUSH1 0x40 MLOAD PUSH1 0x20 DUP2 SUB SWAP1 DUP1 DUP5 SUB SWAP1 DUP6 GAS STATICCALL ISZERO DUP1 ISZERO PUSH2 0x256B JUMPI RETURNDATASIZE PUSH1 0x0 DUP1 RETURNDATACOPY RETURNDATASIZE PUSH1 0x0 REVERT JUMPDEST POP POP POP PUSH1 0x20 PUSH1 0x40 MLOAD SUB MLOAD PUSH20 0xFFFFFFFFFFFFFFFFFFFFFFFFFFFFFFFFFFFFFFFF AND EQ SWAP5 POP POP POP POP POP SWAP4 SWAP3 POP POP POP JUMP JUMPDEST PUSH1 0x0 DUP1 PUSH1 0x0 PUSH1 0x41 DUP5 MLOAD EQ PUSH2 0x25E2 JUMPI PUSH1 0x40 MLOAD PUSH32 0x8C379A000000000000000000000000000000000000000000000000000000000 DUP2 MSTORE PUSH1 0x4 ADD PUSH2 0x25D9 SWAP1 PUSH2 0x40D5 JUMP JUMPDEST PUSH1 0x40 MLOAD DUP1 SWAP2 SUB SWAP1 REVERT JUMPDEST PUSH1 0x20 DUP5 ADD MLOAD SWAP3 POP PUSH1 0x40 DUP5 ADD MLOAD SWAP2 POP PUSH1 0x60 DUP5 ADD MLOAD PUSH1 0x0 BYTE SWAP1 POP SWAP2 SWAP4 SWAP1 SWAP3 POP JUMP JUMPDEST DUP3 DUP1 SLOAD DUP3 DUP3 SSTORE SWAP1 PUSH1 0x0 MSTORE PUSH1 0x20 PUSH1 0x0 KECCAK256 SWAP1 DUP2 ADD SWAP3 DUP3 ISZERO PUSH2 0x263D JUMPI SWAP2 PUSH1 0x20 MUL DUP3 ADD JUMPDEST DUP3 DUP2 GT ISZERO PUSH2 0x263C JUMPI DUP3 MLOAD DUP3 SSTORE SWAP2 PUSH1 0x20 ADD SWAP2 SWAP1 PUSH1 0x1 ADD SWAP1 PUSH2 0x2621 JUMP JUMPDEST JUMPDEST POP SWAP1 POP PUSH2 0x264A SWAP2 SWAP1 PUSH2 0x264E JUMP JUMPDEST POP SWAP1 JUMP JUMPDEST JUMPDEST DUP1 DUP3 GT ISZERO PUSH2 0x2667 JUMPI PUSH1 0x0 DUP2 PUSH1 0x0 SWAP1 SSTORE POP PUSH1 0x1 ADD PUSH2 0x264F JUMP JUMPDEST POP SWAP1 JUMP JUMPDEST PUSH1 0x0 PUSH1 0x40 MLOAD SWAP1 POP SWAP1 JUMP JUMPDEST PUSH1 0x0 DUP1 REVERT JUMPDEST PUSH1 0x0 DUP1 REVERT JUMPDEST PUSH1 0x0 DUP2 SWAP1 POP SWAP2 SWAP1 POP JUMP JUMPDEST PUSH2 0x2692 DUP2 PUSH2 0x267F JUMP JUMPDEST DUP2 EQ PUSH2 0x269D JUMPI PUSH1 0x0 DUP1 REVERT JUMPDEST POP JUMP JUMPDEST PUSH1 0x0 DUP2 CALLDATALOAD SWAP1 POP PUSH2 0x26AF DUP2 PUSH2 0x2689 JUMP JUMPDEST SWAP3 SWAP2 POP POP JUMP JUMPDEST PUSH1 0x0 DUP1 PUSH1 0x40 DUP4 DUP6 SUB SLT ISZERO PUSH2 0x26CC JUMPI PUSH2 0x26CB PUSH2 0x2675 JUMP JUMPDEST JUMPDEST PUSH1 0x0 PUSH2 0x26DA DUP6 DUP3 DUP7 ADD PUSH2 0x26A0 JUMP JUMPDEST SWAP3 POP POP PUSH1 0x20 PUSH2 0x26EB DUP6 DUP3 DUP7 ADD PUSH2 0x26A0 JUMP JUMPDEST SWAP2 POP POP SWAP3 POP SWAP3 SWAP1 POP JUMP JUMPDEST PUSH1 0x0 PUSH20 0xFFFFFFFFFFFFFFFFFFFFFFFFFFFFFFFFFFFFFFFF DUP3 AND SWAP1 POP SWAP2 SWAP1 POP JUMP JUMPDEST PUSH1 0x0 PUSH2 0x2720 DUP3 PUSH2 0x26F5 JUMP JUMPDEST SWAP1 POP SWAP2 SWAP1 POP JUMP JUMPDEST PUSH2 0x2730 DUP2 PUSH2 0x2715 JUMP JUMPDEST DUP3 MSTORE POP POP JUMP JUMPDEST PUSH1 0x0 PUSH1 0x20 DUP3 ADD SWAP1 POP PUSH2 0x274B PUSH1 0x0 DUP4 ADD DUP5 PUSH2 0x2727 JUMP JUMPDEST SWAP3 SWAP2 POP POP JUMP JUMPDEST PUSH1 0x0 DUP2 SWAP1 POP SWAP2 SWAP1 POP JUMP JUMPDEST PUSH2 0x2764 DUP2 PUSH2 0x2751 JUMP JUMPDEST DUP2 EQ PUSH2 0x276F JUMPI PUSH1 0x0 DUP1 REVERT JUMPDEST POP JUMP JUMPDEST PUSH1 0x0 DUP2 CALLDATALOAD SWAP1 POP PUSH2 0x2781 DUP2 PUSH2 0x275B JUMP JUMPDEST SWAP3 SWAP2 POP POP JUMP JUMPDEST PUSH1 0x0 PUSH1 0x20 DUP3 DUP5 SUB SLT ISZERO PUSH2 0x279D JUMPI PUSH2 0x279C PUSH2 0x2675 JUMP JUMPDEST JUMPDEST PUSH1 0x0 PUSH2 0x27AB DUP5 DUP3 DUP6 ADD PUSH2 0x2772 JUMP JUMPDEST SWAP2 POP POP SWAP3 SWAP2 POP POP JUMP JUMPDEST PUSH2 0x27BD DUP2 PUSH2 0x267F JUMP JUMPDEST DUP3 MSTORE POP POP JUMP JUMPDEST PUSH1 0x0 DUP2 ISZERO ISZERO SWAP1 POP SWAP2 SWAP1 POP JUMP JUMPDEST PUSH2 0x27D8 DUP2 PUSH2 0x27C3 JUMP JUMPDEST DUP3 MSTORE POP POP JUMP JUMPDEST PUSH1 0x0 PUSH1 0x80 DUP3 ADD SWAP1 POP PUSH2 0x27F3 PUSH1 0x0 DUP4 ADD DUP8 PUSH2 0x2727 JUMP JUMPDEST PUSH2 0x2800 PUSH1 0x20 DUP4 ADD DUP7 PUSH2 0x27B4 JUMP JUMPDEST PUSH2 0x280D PUSH1 0x40 DUP4 ADD DUP6 PUSH2 0x2727 JUMP JUMPDEST PUSH2 0x281A PUSH1 0x60 DUP4 ADD DUP5 PUSH2 0x27CF JUMP JUMPDEST SWAP6 SWAP5 POP POP POP POP POP JUMP JUMPDEST PUSH2 0x282C DUP2 PUSH2 0x2715 JUMP JUMPDEST DUP2 EQ PUSH2 0x2837 JUMPI PUSH1 0x0 DUP1 REVERT JUMPDEST POP JUMP JUMPDEST PUSH1 0x0 DUP2 CALLDATALOAD SWAP1 POP PUSH2 0x2849 DUP2 PUSH2 0x2823 JUMP JUMPDEST SWAP3 SWAP2 POP POP JUMP JUMPDEST PUSH1 0x0 DUP1 PUSH1 0x40 DUP4 DUP6 SUB SLT ISZERO PUSH2 0x2866 JUMPI PUSH2 0x2865 PUSH2 0x2675 JUMP JUMPDEST JUMPDEST PUSH1 0x0 PUSH2 0x2874 DUP6 DUP3 DUP7 ADD PUSH2 0x283A JUMP JUMPDEST SWAP3 POP POP PUSH1 0x20 PUSH2 0x2885 DUP6 DUP3 DUP7 ADD PUSH2 0x26A0 JUMP JUMPDEST SWAP2 POP POP SWAP3 POP SWAP3 SWAP1 POP JUMP JUMPDEST PUSH1 0x0 PUSH1 0x40 DUP3 ADD SWAP1 POP PUSH2 0x28A4 PUSH1 0x0 DUP4 ADD DUP6 PUSH2 0x27B4 JUMP JUMPDEST PUSH2 0x28B1 PUSH1 0x20 DUP4 ADD DUP5 PUSH2 0x27B4 JUMP JUMPDEST SWAP4 SWAP3 POP POP POP JUMP JUMPDEST PUSH1 0x0 DUP1 REVERT JUMPDEST PUSH1 0x0 DUP1 REVERT JUMPDEST PUSH1 0x0 PUSH1 0x1F NOT PUSH1 0x1F DUP4 ADD AND SWAP1 POP SWAP2 SWAP1 POP JUMP JUMPDEST PUSH32 0x4E487B7100000000000000000000000000000000000000000000000000000000 PUSH1 0x0 MSTORE PUSH1 0x41 PUSH1 0x4 MSTORE PUSH1 0x24 PUSH1 0x0 REVERT JUMPDEST PUSH2 0x290B DUP3 PUSH2 0x28C2 JUMP JUMPDEST DUP2 ADD DUP2 DUP2 LT PUSH8 0xFFFFFFFFFFFFFFFF DUP3 GT OR ISZERO PUSH2 0x292A JUMPI PUSH2 0x2929 PUSH2 0x28D3 JUMP JUMPDEST JUMPDEST DUP1 PUSH1 0x40 MSTORE POP POP POP JUMP JUMPDEST PUSH1 0x0 PUSH2 0x293D PUSH2 0x266B JUMP JUMPDEST SWAP1 POP PUSH2 0x2949 DUP3 DUP3 PUSH2 0x2902 JUMP JUMPDEST SWAP2 SWAP1 POP JUMP JUMPDEST PUSH1 0x0 PUSH8 0xFFFFFFFFFFFFFFFF DUP3 GT ISZERO PUSH2 0x2969 JUMPI PUSH2 0x2968 PUSH2 0x28D3 JUMP JUMPDEST JUMPDEST PUSH2 0x2972 DUP3 PUSH2 0x28C2 JUMP JUMPDEST SWAP1 POP PUSH1 0x20 DUP2 ADD SWAP1 POP SWAP2 SWAP1 POP JUMP JUMPDEST DUP3 DUP2 DUP4 CALLDATACOPY PUSH1 0x0 DUP4 DUP4 ADD MSTORE POP POP POP JUMP JUMPDEST PUSH1 0x0 PUSH2 0x29A1 PUSH2 0x299C DUP5 PUSH2 0x294E JUMP JUMPDEST PUSH2 0x2933 JUMP JUMPDEST SWAP1 POP DUP3 DUP2 MSTORE PUSH1 0x20 DUP2 ADD DUP5 DUP5 DUP5 ADD GT ISZERO PUSH2 0x29BD JUMPI PUSH2 0x29BC PUSH2 0x28BD JUMP JUMPDEST JUMPDEST PUSH2 0x29C8 DUP5 DUP3 DUP6 PUSH2 0x297F JUMP JUMPDEST POP SWAP4 SWAP3 POP POP POP JUMP JUMPDEST PUSH1 0x0 DUP3 PUSH1 0x1F DUP4 ADD SLT PUSH2 0x29E5 JUMPI PUSH2 0x29E4 PUSH2 0x28B8 JUMP JUMPDEST JUMPDEST DUP2 CALLDATALOAD PUSH2 0x29F5 DUP5 DUP3 PUSH1 0x20 DUP7 ADD PUSH2 0x298E JUMP JUMPDEST SWAP2 POP POP SWAP3 SWAP2 POP POP JUMP JUMPDEST PUSH1 0x0 PUSH1 0x20 DUP3 DUP5 SUB SLT ISZERO PUSH2 0x2A14 JUMPI PUSH2 0x2A13 PUSH2 0x2675 JUMP JUMPDEST JUMPDEST PUSH1 0x0 DUP3 ADD CALLDATALOAD PUSH8 0xFFFFFFFFFFFFFFFF DUP2 GT ISZERO PUSH2 0x2A32 JUMPI PUSH2 0x2A31 PUSH2 0x267A JUMP JUMPDEST JUMPDEST PUSH2 0x2A3E DUP5 DUP3 DUP6 ADD PUSH2 0x29D0 JUMP JUMPDEST SWAP2 POP POP SWAP3 SWAP2 POP POP JUMP JUMPDEST PUSH1 0x0 DUP1 PUSH1 0x0 PUSH1 0x60 DUP5 DUP7 SUB SLT ISZERO PUSH2 0x2A60 JUMPI PUSH2 0x2A5F PUSH2 0x2675 JUMP JUMPDEST JUMPDEST PUSH1 0x0 PUSH2 0x2A6E DUP7 DUP3 DUP8 ADD PUSH2 0x26A0 JUMP JUMPDEST SWAP4 POP POP PUSH1 0x20 DUP5 ADD CALLDATALOAD PUSH8 0xFFFFFFFFFFFFFFFF DUP2 GT ISZERO PUSH2 0x2A8F JUMPI PUSH2 0x2A8E PUSH2 0x267A JUMP JUMPDEST JUMPDEST PUSH2 0x2A9B DUP7 DUP3 DUP8 ADD PUSH2 0x29D0 JUMP JUMPDEST SWAP3 POP POP PUSH1 0x40 PUSH2 0x2AAC DUP7 DUP3 DUP8 ADD PUSH2 0x283A JUMP JUMPDEST SWAP2 POP POP SWAP3 POP SWAP3 POP SWAP3 JUMP JUMPDEST PUSH1 0x0 PUSH1 0x20 DUP3 DUP5 SUB SLT ISZERO PUSH2 0x2ACC JUMPI PUSH2 0x2ACB PUSH2 0x2675 JUMP JUMPDEST JUMPDEST PUSH1 0x0 PUSH2 0x2ADA DUP5 DUP3 DUP6 ADD PUSH2 0x26A0 JUMP JUMPDEST SWAP2 POP POP SWAP3 SWAP2 POP POP JUMP JUMPDEST PUSH1 0x0 DUP2 MLOAD SWAP1 POP SWAP2 SWAP1 POP JUMP JUMPDEST PUSH1 0x0 DUP3 DUP3 MSTORE PUSH1 0x20 DUP3 ADD SWAP1 POP SWAP3 SWAP2 POP POP JUMP JUMPDEST PUSH1 0x0 JUMPDEST DUP4 DUP2 LT ISZERO PUSH2 0x2B1D JUMPI DUP1 DUP3 ADD MLOAD DUP2 DUP5 ADD MSTORE PUSH1 0x20 DUP2 ADD SWAP1 POP PUSH2 0x2B02 JUMP JUMPDEST PUSH1 0x0 DUP5 DUP5 ADD MSTORE POP POP POP POP JUMP JUMPDEST PUSH1 0x0 PUSH2 0x2B34 DUP3 PUSH2 0x2AE3 JUMP JUMPDEST PUSH2 0x2B3E DUP2 DUP6 PUSH2 0x2AEE JUMP JUMPDEST SWAP4 POP PUSH2 0x2B4E DUP2 DUP6 PUSH1 0x20 DUP7 ADD PUSH2 0x2AFF JUMP JUMPDEST PUSH2 0x2B57 DUP2 PUSH2 0x28C2 JUMP JUMPDEST DUP5 ADD SWAP2 POP POP SWAP3 SWAP2 POP POP JUMP JUMPDEST PUSH1 0x0 PUSH1 0x40 DUP3 ADD SWAP1 POP PUSH2 0x2B77 PUSH1 0x0 DUP4 ADD DUP6 PUSH2 0x27B4 JUMP JUMPDEST DUP2 DUP2 SUB PUSH1 0x20 DUP4 ADD MSTORE PUSH2 0x2B89 DUP2 DUP5 PUSH2 0x2B29 JUMP JUMPDEST SWAP1 POP SWAP4 SWAP3 POP POP POP JUMP JUMPDEST PUSH1 0x0 PUSH1 0x20 DUP3 ADD SWAP1 POP PUSH2 0x2BA7 PUSH1 0x0 DUP4 ADD DUP5 PUSH2 0x27B4 JUMP JUMPDEST SWAP3 SWAP2 POP POP JUMP JUMPDEST PUSH1 0x0 DUP1 PUSH1 0x0 DUP1 PUSH1 0x80 DUP6 DUP8 SUB SLT ISZERO PUSH2 0x2BC7 JUMPI PUSH2 0x2BC6 PUSH2 0x2675 JUMP JUMPDEST JUMPDEST PUSH1 0x0 PUSH2 0x2BD5 DUP8 DUP3 DUP9 ADD PUSH2 0x26A0 JUMP JUMPDEST SWAP5 POP POP PUSH1 0x20 PUSH2 0x2BE6 DUP8 DUP3 DUP9 ADD PUSH2 0x26A0 JUMP JUMPDEST SWAP4 POP POP PUSH1 0x40 PUSH2 0x2BF7 DUP8 DUP3 DUP9 ADD PUSH2 0x2772 JUMP JUMPDEST SWAP3 POP POP PUSH1 0x60 PUSH2 0x2C08 DUP8 DUP3 DUP9 ADD PUSH2 0x26A0 JUMP JUMPDEST SWAP2 POP POP SWAP3 SWAP6 SWAP2 SWAP5 POP SWAP3 POP JUMP JUMPDEST PUSH1 0x0 PUSH1 0x20 DUP3 DUP5 SUB SLT ISZERO PUSH2 0x2C2A JUMPI PUSH2 0x2C29 PUSH2 0x2675 JUMP JUMPDEST JUMPDEST PUSH1 0x0 PUSH2 0x2C38 DUP5 DUP3 DUP6 ADD PUSH2 0x283A JUMP JUMPDEST SWAP2 POP POP SWAP3 SWAP2 POP POP JUMP JUMPDEST PUSH2 0x2C4A DUP2 PUSH2 0x2751 JUMP JUMPDEST DUP3 MSTORE POP POP JUMP JUMPDEST PUSH1 0x0 PUSH1 0xE0 DUP3 ADD SWAP1 POP PUSH2 0x2C65 PUSH1 0x0 DUP4 ADD DUP11 PUSH2 0x27B4 JUMP JUMPDEST PUSH2 0x2C72 PUSH1 0x20 DUP4 ADD DUP10 PUSH2 0x27B4 JUMP JUMPDEST PUSH2 0x2C7F PUSH1 0x40 DUP4 ADD DUP9 PUSH2 0x27B4 JUMP JUMPDEST PUSH2 0x2C8C PUSH1 0x60 DUP4 ADD DUP8 PUSH2 0x2C41 JUMP JUMPDEST PUSH2 0x2C99 PUSH1 0x80 DUP4 ADD DUP7 PUSH2 0x27B4 JUMP JUMPDEST PUSH2 0x2CA6 PUSH1 0xA0 DUP4 ADD DUP6 PUSH2 0x27B4 JUMP JUMPDEST PUSH2 0x2CB3 PUSH1 0xC0 DUP4 ADD DUP5 PUSH2 0x27CF JUMP JUMPDEST SWAP9 SWAP8 POP POP POP POP POP POP POP POP JUMP JUMPDEST PUSH1 0x0 PUSH1 0x20 DUP3 ADD SWAP1 POP PUSH2 0x2CD4 PUSH1 0x0 DUP4 ADD DUP5 PUSH2 0x27CF JUMP JUMPDEST SWAP3 SWAP2 POP POP JUMP JUMPDEST PUSH1 0x0 DUP1 PUSH1 0x40 DUP4 DUP6 SUB SLT ISZERO PUSH2 0x2CF1 JUMPI PUSH2 0x2CF0 PUSH2 0x2675 JUMP JUMPDEST JUMPDEST PUSH1 0x0 PUSH2 0x2CFF DUP6 DUP3 DUP7 ADD PUSH2 0x26A0 JUMP JUMPDEST SWAP3 POP POP PUSH1 0x20 PUSH2 0x2D10 DUP6 DUP3 DUP7 ADD PUSH2 0x283A JUMP JUMPDEST SWAP2 POP POP SWAP3 POP SWAP3 SWAP1 POP JUMP JUMPDEST PUSH1 0x0 PUSH8 0xFFFFFFFFFFFFFFFF DUP3 GT ISZERO PUSH2 0x2D35 JUMPI PUSH2 0x2D34 PUSH2 0x28D3 JUMP JUMPDEST JUMPDEST PUSH2 0x2D3E DUP3 PUSH2 0x28C2 JUMP JUMPDEST SWAP1 POP PUSH1 0x20 DUP2 ADD SWAP1 POP SWAP2 SWAP1 POP JUMP JUMPDEST PUSH1 0x0 PUSH2 0x2D5E PUSH2 0x2D59 DUP5 PUSH2 0x2D1A JUMP JUMPDEST PUSH2 0x2933 JUMP JUMPDEST SWAP1 POP DUP3 DUP2 MSTORE PUSH1 0x20 DUP2 ADD DUP5 DUP5 DUP5 ADD GT ISZERO PUSH2 0x2D7A JUMPI PUSH2 0x2D79 PUSH2 0x28BD JUMP JUMPDEST JUMPDEST PUSH2 0x2D85 DUP5 DUP3 DUP6 PUSH2 0x297F JUMP JUMPDEST POP SWAP4 SWAP3 POP POP POP JUMP JUMPDEST PUSH1 0x0 DUP3 PUSH1 0x1F DUP4 ADD SLT PUSH2 0x2DA2 JUMPI PUSH2 0x2DA1 PUSH2 0x28B8 JUMP JUMPDEST JUMPDEST DUP2 CALLDATALOAD PUSH2 0x2DB2 DUP5 DUP3 PUSH1 0x20 DUP7 ADD PUSH2 0x2D4B JUMP JUMPDEST SWAP2 POP POP SWAP3 SWAP2 POP POP JUMP JUMPDEST PUSH1 0x0 DUP1 PUSH1 0x0 DUP1 PUSH1 0x0 PUSH1 0xA0 DUP7 DUP9 SUB SLT ISZERO PUSH2 0x2DD7 JUMPI PUSH2 0x2DD6 PUSH2 0x2675 JUMP JUMPDEST JUMPDEST PUSH1 0x0 PUSH2 0x2DE5 DUP9 DUP3 DUP10 ADD PUSH2 0x26A0 JUMP JUMPDEST SWAP6 POP POP PUSH1 0x20 PUSH2 0x2DF6 DUP9 DUP3 DUP10 ADD PUSH2 0x2772 JUMP JUMPDEST SWAP5 POP POP PUSH1 0x40 PUSH2 0x2E07 DUP9 DUP3 DUP10 ADD PUSH2 0x26A0 JUMP JUMPDEST SWAP4 POP POP PUSH1 0x60 DUP7 ADD CALLDATALOAD PUSH8 0xFFFFFFFFFFFFFFFF DUP2 GT ISZERO PUSH2 0x2E28 JUMPI PUSH2 0x2E27 PUSH2 0x267A JUMP JUMPDEST JUMPDEST PUSH2 0x2E34 DUP9 DUP3 DUP10 ADD PUSH2 0x2D8D JUMP JUMPDEST SWAP3 POP POP PUSH1 0x80 DUP7 ADD CALLDATALOAD PUSH8 0xFFFFFFFFFFFFFFFF DUP2 GT ISZERO PUSH2 0x2E55 JUMPI PUSH2 0x2E54 PUSH2 0x267A JUMP JUMPDEST JUMPDEST PUSH2 0x2E61 DUP9 DUP3 DUP10 ADD PUSH2 0x2D8D JUMP JUMPDEST SWAP2 POP POP SWAP3 SWAP6 POP SWAP3 SWAP6 SWAP1 SWAP4 POP JUMP JUMPDEST PUSH1 0x0 DUP2 MLOAD SWAP1 POP SWAP2 SWAP1 POP JUMP JUMPDEST PUSH1 0x0 DUP3 DUP3 MSTORE PUSH1 0x20 DUP3 ADD SWAP1 POP SWAP3 SWAP2 POP POP JUMP JUMPDEST PUSH1 0x0 DUP2 SWAP1 POP PUSH1 0x20 DUP3 ADD SWAP1 POP SWAP2 SWAP1 POP JUMP JUMPDEST PUSH2 0x2EA3 DUP2 PUSH2 0x267F JUMP JUMPDEST DUP3 MSTORE POP POP JUMP JUMPDEST PUSH1 0x0 PUSH2 0x2EB5 DUP4 DUP4 PUSH2 0x2E9A JUMP JUMPDEST PUSH1 0x20 DUP4 ADD SWAP1 POP SWAP3 SWAP2 POP POP JUMP JUMPDEST PUSH1 0x0 PUSH1 0x20 DUP3 ADD SWAP1 POP SWAP2 SWAP1 POP JUMP JUMPDEST PUSH1 0x0 PUSH2 0x2ED9 DUP3 PUSH2 0x2E6E JUMP JUMPDEST PUSH2 0x2EE3 DUP2 DUP6 PUSH2 0x2E79 JUMP JUMPDEST SWAP4 POP PUSH2 0x2EEE DUP4 PUSH2 0x2E8A JUMP JUMPDEST DUP1 PUSH1 0x0 JUMPDEST DUP4 DUP2 LT ISZERO PUSH2 0x2F1F JUMPI DUP2 MLOAD PUSH2 0x2F06 DUP9 DUP3 PUSH2 0x2EA9 JUMP JUMPDEST SWAP8 POP PUSH2 0x2F11 DUP4 PUSH2 0x2EC1 JUMP JUMPDEST SWAP3 POP POP PUSH1 0x1 DUP2 ADD SWAP1 POP PUSH2 0x2EF2 JUMP JUMPDEST POP DUP6 SWAP4 POP POP POP POP SWAP3 SWAP2 POP POP JUMP JUMPDEST PUSH1 0x0 PUSH1 0x20 DUP3 ADD SWAP1 POP DUP2 DUP2 SUB PUSH1 0x0 DUP4 ADD MSTORE PUSH2 0x2F46 DUP2 DUP5 PUSH2 0x2ECE JUMP JUMPDEST SWAP1 POP SWAP3 SWAP2 POP POP JUMP JUMPDEST PUSH32 0x4E487B7100000000000000000000000000000000000000000000000000000000 PUSH1 0x0 MSTORE PUSH1 0x32 PUSH1 0x4 MSTORE PUSH1 0x24 PUSH1 0x0 REVERT JUMPDEST PUSH32 0x4E487B7100000000000000000000000000000000000000000000000000000000 PUSH1 0x0 MSTORE PUSH1 0x11 PUSH1 0x4 MSTORE PUSH1 0x24 PUSH1 0x0 REVERT JUMPDEST PUSH1 0x0 PUSH2 0x2FB7 DUP3 PUSH2 0x267F JUMP JUMPDEST SWAP2 POP PUSH2 0x2FC2 DUP4 PUSH2 0x267F JUMP JUMPDEST SWAP3 POP DUP3 DUP3 ADD SWAP1 POP DUP1 DUP3 GT ISZERO PUSH2 0x2FDA JUMPI PUSH2 0x2FD9 PUSH2 0x2F7D JUMP JUMPDEST JUMPDEST SWAP3 SWAP2 POP POP JUMP JUMPDEST PUSH1 0x0 PUSH2 0x2FEB DUP3 PUSH2 0x267F JUMP JUMPDEST SWAP2 POP PUSH32 0xFFFFFFFFFFFFFFFFFFFFFFFFFFFFFFFFFFFFFFFFFFFFFFFFFFFFFFFFFFFFFFFF DUP3 SUB PUSH2 0x301D JUMPI PUSH2 0x301C PUSH2 0x2F7D JUMP JUMPDEST JUMPDEST PUSH1 0x1 DUP3 ADD SWAP1 POP SWAP2 SWAP1 POP JUMP JUMPDEST PUSH32 0x4F6E6C792061646D696E00000000000000000000000000000000000000000000 PUSH1 0x0 DUP3 ADD MSTORE POP JUMP JUMPDEST PUSH1 0x0 PUSH2 0x305E PUSH1 0xA DUP4 PUSH2 0x2AEE JUMP JUMPDEST SWAP2 POP PUSH2 0x3069 DUP3 PUSH2 0x3028 JUMP JUMPDEST PUSH1 0x20 DUP3 ADD SWAP1 POP SWAP2 SWAP1 POP JUMP JUMPDEST PUSH1 0x0 PUSH1 0x20 DUP3 ADD SWAP1 POP DUP2 DUP2 SUB PUSH1 0x0 DUP4 ADD MSTORE PUSH2 0x308D DUP2 PUSH2 0x3051 JUMP JUMPDEST SWAP1 POP SWAP2 SWAP1 POP JUMP JUMPDEST PUSH32 0x4E487B7100000000000000000000000000000000000000000000000000000000 PUSH1 0x0 MSTORE PUSH1 0x22 PUSH1 0x4 MSTORE PUSH1 0x24 PUSH1 0x0 REVERT JUMPDEST PUSH1 0x0 PUSH1 0x2 DUP3 DIV SWAP1 POP PUSH1 0x1 DUP3 AND DUP1 PUSH2 0x30DB JUMPI PUSH1 0x7F DUP3 AND SWAP2 POP JUMPDEST PUSH1 0x20 DUP3 LT DUP2 SUB PUSH2 0x30EE JUMPI PUSH2 0x30ED PUSH2 0x3094 JUMP JUMPDEST JUMPDEST POP SWAP2 SWAP1 POP JUMP JUMPDEST PUSH1 0x0 DUP2 SWAP1 POP DUP2 PUSH1 0x0 MSTORE PUSH1 0x20 PUSH1 0x0 KECCAK256 SWAP1 POP SWAP2 SWAP1 POP JUMP JUMPDEST PUSH1 0x0 PUSH1 0x20 PUSH1 0x1F DUP4 ADD DIV SWAP1 POP SWAP2 SWAP1 POP JUMP JUMPDEST PUSH1 0x0 DUP3 DUP3 SHL SWAP1 POP SWAP3 SWAP2 POP POP JUMP JUMPDEST PUSH1 0x0 PUSH1 0x8 DUP4 MUL PUSH2 0x3156 PUSH32 0xFFFFFFFFFFFFFFFFFFFFFFFFFFFFFFFFFFFFFFFFFFFFFFFFFFFFFFFFFFFFFFFF DUP3 PUSH2 0x3119 JUMP JUMPDEST PUSH2 0x3160 DUP7 DUP4 PUSH2 0x3119 JUMP JUMPDEST SWAP6 POP DUP1 NOT DUP5 AND SWAP4 POP DUP1 DUP7 AND DUP5 OR SWAP3 POP POP POP SWAP4 SWAP3 POP POP POP JUMP JUMPDEST PUSH1 0x0 DUP2 SWAP1 POP SWAP2 SWAP1 POP JUMP JUMPDEST PUSH1 0x0 PUSH2 0x319D PUSH2 0x3198 PUSH2 0x3193 DUP5 PUSH2 0x267F JUMP JUMPDEST PUSH2 0x3178 JUMP JUMPDEST PUSH2 0x267F JUMP JUMPDEST SWAP1 POP SWAP2 SWAP1 POP JUMP JUMPDEST PUSH1 0x0 DUP2 SWAP1 POP SWAP2 SWAP1 POP JUMP JUMPDEST PUSH2 0x31B7 DUP4 PUSH2 0x3182 JUMP JUMPDEST PUSH2 0x31CB PUSH2 0x31C3 DUP3 PUSH2 0x31A4 JUMP JUMPDEST DUP5 DUP5 SLOAD PUSH2 0x3126 JUMP JUMPDEST DUP3 SSTORE POP POP POP POP JUMP JUMPDEST PUSH1 0x0 SWAP1 JUMP JUMPDEST PUSH2 0x31E0 PUSH2 0x31D3 JUMP JUMPDEST PUSH2 0x31EB DUP2 DUP5 DUP5 PUSH2 0x31AE JUMP JUMPDEST POP POP POP JUMP JUMPDEST JUMPDEST DUP2 DUP2 LT ISZERO PUSH2 0x320F JUMPI PUSH2 0x3204 PUSH1 0x0 DUP3 PUSH2 0x31D8 JUMP JUMPDEST PUSH1 0x1 DUP2 ADD SWAP1 POP PUSH2 0x31F1 JUMP JUMPDEST POP POP JUMP JUMPDEST PUSH1 0x1F DUP3 GT ISZERO PUSH2 0x3254 JUMPI PUSH2 0x3225 DUP2 PUSH2 0x30F4 JUMP JUMPDEST PUSH2 0x322E DUP5 PUSH2 0x3109 JUMP JUMPDEST DUP2 ADD PUSH1 0x20 DUP6 LT ISZERO PUSH2 0x323D JUMPI DUP2 SWAP1 POP JUMPDEST PUSH2 0x3251 PUSH2 0x3249 DUP6 PUSH2 0x3109 JUMP JUMPDEST DUP4 ADD DUP3 PUSH2 0x31F0 JUMP JUMPDEST POP POP JUMPDEST POP POP POP JUMP JUMPDEST PUSH1 0x0 DUP3 DUP3 SHR SWAP1 POP SWAP3 SWAP2 POP POP JUMP JUMPDEST PUSH1 0x0 PUSH2 0x3277 PUSH1 0x0 NOT DUP5 PUSH1 0x8 MUL PUSH2 0x3259 JUMP JUMPDEST NOT DUP1 DUP4 AND SWAP2 POP POP SWAP3 SWAP2 POP POP JUMP JUMPDEST PUSH1 0x0 PUSH2 0x3290 DUP4 DUP4 PUSH2 0x3266 JUMP JUMPDEST SWAP2 POP DUP3 PUSH1 0x2 MUL DUP3 OR SWAP1 POP SWAP3 SWAP2 POP POP JUMP JUMPDEST PUSH2 0x32A9 DUP3 PUSH2 0x2AE3 JUMP JUMPDEST PUSH8 0xFFFFFFFFFFFFFFFF DUP2 GT ISZERO PUSH2 0x32C2 JUMPI PUSH2 0x32C1 PUSH2 0x28D3 JUMP JUMPDEST JUMPDEST PUSH2 0x32CC DUP3 SLOAD PUSH2 0x30C3 JUMP JUMPDEST PUSH2 0x32D7 DUP3 DUP3 DUP6 PUSH2 0x3213 JUMP JUMPDEST PUSH1 0x0 PUSH1 0x20 SWAP1 POP PUSH1 0x1F DUP4 GT PUSH1 0x1 DUP2 EQ PUSH2 0x330A JUMPI PUSH1 0x0 DUP5 ISZERO PUSH2 0x32F8 JUMPI DUP3 DUP8 ADD MLOAD SWAP1 POP JUMPDEST PUSH2 0x3302 DUP6 DUP3 PUSH2 0x3284 JUMP JUMPDEST DUP7 SSTORE POP PUSH2 0x336A JUMP JUMPDEST PUSH1 0x1F NOT DUP5 AND PUSH2 0x3318 DUP7 PUSH2 0x30F4 JUMP JUMPDEST PUSH1 0x0 JUMPDEST DUP3 DUP2 LT ISZERO PUSH2 0x3340 JUMPI DUP5 DUP10 ADD MLOAD DUP3 SSTORE PUSH1 0x1 DUP3 ADD SWAP2 POP PUSH1 0x20 DUP6 ADD SWAP5 POP PUSH1 0x20 DUP2 ADD SWAP1 POP PUSH2 0x331B JUMP JUMPDEST DUP7 DUP4 LT ISZERO PUSH2 0x335D JUMPI DUP5 DUP10 ADD MLOAD PUSH2 0x3359 PUSH1 0x1F DUP10 AND DUP3 PUSH2 0x3266 JUMP JUMPDEST DUP4 SSTORE POP JUMPDEST PUSH1 0x1 PUSH1 0x2 DUP9 MUL ADD DUP9 SSTORE POP POP POP JUMPDEST POP POP POP POP POP POP JUMP JUMPDEST PUSH1 0x0 PUSH1 0x20 DUP3 ADD SWAP1 POP DUP2 DUP2 SUB PUSH1 0x0 DUP4 ADD MSTORE PUSH2 0x338C DUP2 DUP5 PUSH2 0x2B29 JUMP JUMPDEST SWAP1 POP SWAP3 SWAP2 POP POP JUMP JUMPDEST PUSH1 0x0 DUP2 SWAP1 POP SWAP3 SWAP2 POP POP JUMP JUMPDEST PUSH1 0x0 DUP2 SWAP1 POP DUP2 PUSH1 0x0 MSTORE PUSH1 0x20 PUSH1 0x0 KECCAK256 SWAP1 POP SWAP2 SWAP1 POP JUMP JUMPDEST PUSH1 0x0 DUP2 SLOAD PUSH2 0x33C1 DUP2 PUSH2 0x30C3 JUMP JUMPDEST PUSH2 0x33CB DUP2 DUP7 PUSH2 0x3394 JUMP JUMPDEST SWAP5 POP PUSH1 0x1 DUP3 AND PUSH1 0x0 DUP2 EQ PUSH2 0x33E6 JUMPI PUSH1 0x1 DUP2 EQ PUSH2 0x33FB JUMPI PUSH2 0x342E JUMP JUMPDEST PUSH1 0xFF NOT DUP4 AND DUP7 MSTORE DUP2 ISZERO ISZERO DUP3 MUL DUP7 ADD SWAP4 POP PUSH2 0x342E JUMP JUMPDEST PUSH2 0x3404 DUP6 PUSH2 0x339F JUMP JUMPDEST PUSH1 0x0 JUMPDEST DUP4 DUP2 LT ISZERO PUSH2 0x3426 JUMPI DUP2 SLOAD DUP2 DUP10 ADD MSTORE PUSH1 0x1 DUP3 ADD SWAP2 POP PUSH1 0x20 DUP2 ADD SWAP1 POP PUSH2 0x3407 JUMP JUMPDEST DUP4 DUP9 ADD SWAP6 POP POP POP JUMPDEST POP POP POP SWAP3 SWAP2 POP POP JUMP JUMPDEST PUSH1 0x0 PUSH2 0x3443 DUP3 DUP5 PUSH2 0x33B4 JUMP JUMPDEST SWAP2 POP DUP2 SWAP1 POP SWAP3 SWAP2 POP POP JUMP JUMPDEST PUSH32 0x5375626A65637420657869737473000000000000000000000000000000000000 PUSH1 0x0 DUP3 ADD MSTORE POP JUMP JUMPDEST PUSH1 0x0 PUSH2 0x3484 PUSH1 0xE DUP4 PUSH2 0x2AEE JUMP JUMPDEST SWAP2 POP PUSH2 0x348F DUP3 PUSH2 0x344E JUMP JUMPDEST PUSH1 0x20 DUP3 ADD SWAP1 POP SWAP2 SWAP1 POP JUMP JUMPDEST PUSH1 0x0 PUSH1 0x20 DUP3 ADD SWAP1 POP DUP2 DUP2 SUB PUSH1 0x0 DUP4 ADD MSTORE PUSH2 0x34B3 DUP2 PUSH2 0x3477 JUMP JUMPDEST SWAP1 POP SWAP2 SWAP1 POP JUMP JUMPDEST PUSH32 0x496E76616C69642073656374696F6E0000000000000000000000000000000000 PUSH1 0x0 DUP3 ADD MSTORE POP JUMP JUMPDEST PUSH1 0x0 PUSH2 0x34F0 PUSH1 0xF DUP4 PUSH2 0x2AEE JUMP JUMPDEST SWAP2 POP PUSH2 0x34FB DUP3 PUSH2 0x34BA JUMP JUMPDEST PUSH1 0x20 DUP3 ADD SWAP1 POP SWAP2 SWAP1 POP JUMP JUMPDEST PUSH1 0x0 PUSH1 0x20 DUP3 ADD SWAP1 POP DUP2 DUP2 SUB PUSH1 0x0 DUP4 ADD MSTORE PUSH2 0x351F DUP2 PUSH2 0x34E3 JUMP JUMPDEST SWAP1 POP SWAP2 SWAP1 POP JUMP JUMPDEST PUSH32 0x496E76616C6964207375626A6563742049440000000000000000000000000000 PUSH1 0x0 DUP3 ADD MSTORE POP JUMP JUMPDEST PUSH1 0x0 PUSH2 0x355C PUSH1 0x12 DUP4 PUSH2 0x2AEE JUMP JUMPDEST SWAP2 POP PUSH2 0x3567 DUP3 PUSH2 0x3526 JUMP JUMPDEST PUSH1 0x20 DUP3 ADD SWAP1 POP SWAP2 SWAP1 POP JUMP JUMPDEST PUSH1 0x0 PUSH1 0x20 DUP3 ADD SWAP1 POP DUP2 DUP2 SUB PUSH1 0x0 DUP4 ADD MSTORE PUSH2 0x358B DUP2 PUSH2 0x354F JUMP JUMPDEST SWAP1 POP SWAP2 SWAP1 POP JUMP JUMPDEST PUSH32 0x4E6F742073656374696F6E2773207375626A6563742074656163686572000000 PUSH1 0x0 DUP3 ADD MSTORE POP JUMP JUMPDEST PUSH1 0x0 PUSH2 0x35C8 PUSH1 0x1D DUP4 PUSH2 0x2AEE JUMP JUMPDEST SWAP2 POP PUSH2 0x35D3 DUP3 PUSH2 0x3592 JUMP JUMPDEST PUSH1 0x20 DUP3 ADD SWAP1 POP SWAP2 SWAP1 POP JUMP JUMPDEST PUSH1 0x0 PUSH1 0x20 DUP3 ADD SWAP1 POP DUP2 DUP2 SUB PUSH1 0x0 DUP4 ADD MSTORE PUSH2 0x35F7 DUP2 PUSH2 0x35BB JUMP JUMPDEST SWAP1 POP SWAP2 SWAP1 POP JUMP JUMPDEST PUSH1 0x0 PUSH2 0x3609 DUP3 PUSH2 0x267F JUMP JUMPDEST SWAP2 POP PUSH2 0x3614 DUP4 PUSH2 0x267F JUMP JUMPDEST SWAP3 POP DUP3 DUP3 MUL PUSH2 0x3622 DUP2 PUSH2 0x267F JUMP JUMPDEST SWAP2 POP DUP3 DUP3 DIV DUP5 EQ DUP4 ISZERO OR PUSH2 0x3639 JUMPI PUSH2 0x3638 PUSH2 0x2F7D JUMP JUMPDEST JUMPDEST POP SWAP3 SWAP2 POP POP JUMP JUMPDEST PUSH32 0x496E76616C696420616464726573730000000000000000000000000000000000 PUSH1 0x0 DUP3 ADD MSTORE POP JUMP JUMPDEST PUSH1 0x0 PUSH2 0x3676 PUSH1 0xF DUP4 PUSH2 0x2AEE JUMP JUMPDEST SWAP2 POP PUSH2 0x3681 DUP3 PUSH2 0x3640 JUMP JUMPDEST PUSH1 0x20 DUP3 ADD SWAP1 POP SWAP2 SWAP1 POP JUMP JUMPDEST PUSH1 0x0 PUSH1 0x20 DUP3 ADD SWAP1 POP DUP2 DUP2 SUB PUSH1 0x0 DUP4 ADD MSTORE PUSH2 0x36A5 DUP2 PUSH2 0x3669 JUMP JUMPDEST SWAP1 POP SWAP2 SWAP1 POP JUMP JUMPDEST PUSH32 0x416C726561647920656E726F6C6C656400000000000000000000000000000000 PUSH1 0x0 DUP3 ADD MSTORE POP JUMP JUMPDEST PUSH1 0x0 PUSH2 0x36E2 PUSH1 0x10 DUP4 PUSH2 0x2AEE JUMP JUMPDEST SWAP2 POP PUSH2 0x36ED DUP3 PUSH2 0x36AC JUMP JUMPDEST PUSH1 0x20 DUP3 ADD SWAP1 POP SWAP2 SWAP1 POP JUMP JUMPDEST PUSH1 0x0 PUSH1 0x20 DUP3 ADD SWAP1 POP DUP2 DUP2 SUB PUSH1 0x0 DUP4 ADD MSTORE PUSH2 0x3711 DUP2 PUSH2 0x36D5 JUMP JUMPDEST SWAP1 POP SWAP2 SWAP1 POP JUMP JUMPDEST PUSH32 0x4E6F7420656E726F6C6C65640000000000000000000000000000000000000000 PUSH1 0x0 DUP3 ADD MSTORE POP JUMP JUMPDEST PUSH1 0x0 PUSH2 0x374E PUSH1 0xC DUP4 PUSH2 0x2AEE JUMP JUMPDEST SWAP2 POP PUSH2 0x3759 DUP3 PUSH2 0x3718 JUMP JUMPDEST PUSH1 0x20 DUP3 ADD SWAP1 POP SWAP2 SWAP1 POP JUMP JUMPDEST PUSH1 0x0 PUSH1 0x20 DUP3 ADD SWAP1 POP DUP2 DUP2 SUB PUSH1 0x0 DUP4 ADD MSTORE PUSH2 0x377D DUP2 PUSH2 0x3741 JUMP JUMPDEST SWAP1 POP SWAP2 SWAP1 POP JUMP JUMPDEST PUSH32 0x496E76616C696420726571756573740000000000000000000000000000000000 PUSH1 0x0 DUP3 ADD MSTORE POP JUMP JUMPDEST PUSH1 0x0 PUSH2 0x37BA PUSH1 0xF DUP4 PUSH2 0x2AEE JUMP JUMPDEST SWAP2 POP PUSH2 0x37C5 DUP3 PUSH2 0x3784 JUMP JUMPDEST PUSH1 0x20 DUP3 ADD SWAP1 POP SWAP2 SWAP1 POP JUMP JUMPDEST PUSH1 0x0 PUSH1 0x20 DUP3 ADD SWAP1 POP DUP2 DUP2 SUB PUSH1 0x0 DUP4 ADD MSTORE PUSH2 0x37E9 DUP2 PUSH2 0x37AD JUMP JUMPDEST SWAP1 POP SWAP2 SWAP1 POP JUMP JUMPDEST PUSH32 0x416C726561647920617070726F76656400000000000000000000000000000000 PUSH1 0x0 DUP3 ADD MSTORE POP JUMP JUMPDEST PUSH1 0x0 PUSH2 0x3826 PUSH1 0x10 DUP4 PUSH2 0x2AEE JUMP JUMPDEST SWAP2 POP PUSH2 0x3831 DUP3 PUSH2 0x37F0 JUMP JUMPDEST PUSH1 0x20 DUP3 ADD SWAP1 POP SWAP2 SWAP1 POP JUMP JUMPDEST PUSH1 0x0 PUSH1 0x20 DUP3 ADD SWAP1 POP DUP2 DUP2 SUB PUSH1 0x0 DUP4 ADD MSTORE PUSH2 0x3855 DUP2 PUSH2 0x3819 JUMP JUMPDEST SWAP1 POP SWAP2 SWAP1 POP JUMP JUMPDEST PUSH32 0x556E617574686F72697A65640000000000000000000000000000000000000000 PUSH1 0x0 DUP3 ADD MSTORE POP JUMP JUMPDEST PUSH1 0x0 PUSH2 0x3892 PUSH1 0xC DUP4 PUSH2 0x2AEE JUMP JUMPDEST SWAP2 POP PUSH2 0x389D DUP3 PUSH2 0x385C JUMP JUMPDEST PUSH1 0x20 DUP3 ADD SWAP1 POP SWAP2 SWAP1 POP JUMP JUMPDEST PUSH1 0x0 PUSH1 0x20 DUP3 ADD SWAP1 POP DUP2 DUP2 SUB PUSH1 0x0 DUP4 ADD MSTORE PUSH2 0x38C1 DUP2 PUSH2 0x3885 JUMP JUMPDEST SWAP1 POP SWAP2 SWAP1 POP JUMP JUMPDEST PUSH32 0x4E487B7100000000000000000000000000000000000000000000000000000000 PUSH1 0x0 MSTORE PUSH1 0x12 PUSH1 0x4 MSTORE PUSH1 0x24 PUSH1 0x0 REVERT JUMPDEST PUSH1 0x0 PUSH2 0x3902 DUP3 PUSH2 0x267F JUMP JUMPDEST SWAP2 POP PUSH2 0x390D DUP4 PUSH2 0x267F JUMP JUMPDEST SWAP3 POP DUP3 PUSH2 0x391D JUMPI PUSH2 0x391C PUSH2 0x38C8 JUMP JUMPDEST JUMPDEST DUP3 DUP3 DIV SWAP1 POP SWAP3 SWAP2 POP POP JUMP JUMPDEST PUSH1 0x0 DUP2 SWAP1 POP SWAP2 SWAP1 POP JUMP JUMPDEST PUSH2 0x3943 PUSH2 0x393E DUP3 PUSH2 0x267F JUMP JUMPDEST PUSH2 0x3928 JUMP JUMPDEST DUP3 MSTORE POP POP JUMP JUMPDEST PUSH1 0x0 DUP2 PUSH1 0x60 SHL SWAP1 POP SWAP2 SWAP1 POP JUMP JUMPDEST PUSH1 0x0 PUSH2 0x3961 DUP3 PUSH2 0x3949 JUMP JUMPDEST SWAP1 POP SWAP2 SWAP1 POP JUMP JUMPDEST PUSH1 0x0 PUSH2 0x3973 DUP3 PUSH2 0x3956 JUMP JUMPDEST SWAP1 POP SWAP2 SWAP1 POP JUMP JUMPDEST PUSH2 0x398B PUSH2 0x3986 DUP3 PUSH2 0x2715 JUMP JUMPDEST PUSH2 0x3968 JUMP JUMPDEST DUP3 MSTORE POP POP JUMP JUMPDEST PUSH1 0x0 PUSH2 0x399D DUP3 DUP7 PUSH2 0x3932 JUMP JUMPDEST PUSH1 0x20 DUP3 ADD SWAP2 POP PUSH2 0x39AD DUP3 DUP6 PUSH2 0x397A JUMP JUMPDEST PUSH1 0x14 DUP3 ADD SWAP2 POP PUSH2 0x39BD DUP3 DUP5 PUSH2 0x3932 JUMP JUMPDEST PUSH1 0x20 DUP3 ADD SWAP2 POP DUP2 SWAP1 POP SWAP5 SWAP4 POP POP POP POP JUMP JUMPDEST PUSH32 0x417474656E64616E636520636C6F736564000000000000000000000000000000 PUSH1 0x0 DUP3 ADD MSTORE POP JUMP JUMPDEST PUSH1 0x0 PUSH2 0x3A04 PUSH1 0x11 DUP4 PUSH2 0x2AEE JUMP JUMPDEST SWAP2 POP PUSH2 0x3A0F DUP3 PUSH2 0x39CE JUMP JUMPDEST PUSH1 0x20 DUP3 ADD SWAP1 POP SWAP2 SWAP1 POP JUMP JUMPDEST PUSH1 0x0 PUSH1 0x20 DUP3 ADD SWAP1 POP DUP2 DUP2 SUB PUSH1 0x0 DUP4 ADD MSTORE PUSH2 0x3A33 DUP2 PUSH2 0x39F7 JUMP JUMPDEST SWAP1 POP SWAP2 SWAP1 POP JUMP JUMPDEST PUSH32 0x436C61737320656E646564000000000000000000000000000000000000000000 PUSH1 0x0 DUP3 ADD MSTORE POP JUMP JUMPDEST PUSH1 0x0 PUSH2 0x3A70 PUSH1 0xB DUP4 PUSH2 0x2AEE JUMP JUMPDEST SWAP2 POP PUSH2 0x3A7B DUP3 PUSH2 0x3A3A JUMP JUMPDEST PUSH1 0x20 DUP3 ADD SWAP1 POP SWAP2 SWAP1 POP JUMP JUMPDEST PUSH1 0x0 PUSH1 0x20 DUP3 ADD SWAP1 POP DUP2 DUP2 SUB PUSH1 0x0 DUP4 ADD MSTORE PUSH2 0x3A9F DUP2 PUSH2 0x3A63 JUMP JUMPDEST SWAP1 POP SWAP2 SWAP1 POP JUMP JUMPDEST PUSH32 0x416C7265616479206D61726B6564000000000000000000000000000000000000 PUSH1 0x0 DUP3 ADD MSTORE POP JUMP JUMPDEST PUSH1 0x0 PUSH2 0x3ADC PUSH1 0xE DUP4 PUSH2 0x2AEE JUMP JUMPDEST SWAP2 POP PUSH2 0x3AE7 DUP3 PUSH2 0x3AA6 JUMP JUMPDEST PUSH1 0x20 DUP3 ADD SWAP1 POP SWAP2 SWAP1 POP JUMP JUMPDEST PUSH1 0x0 PUSH1 0x20 DUP3 ADD SWAP1 POP DUP2 DUP2 SUB PUSH1 0x0 DUP4 ADD MSTORE PUSH2 0x3B0B DUP2 PUSH2 0x3ACF JUMP JUMPDEST SWAP1 POP SWAP2 SWAP1 POP JUMP JUMPDEST PUSH32 0x4C6F636174696F6E206D69736D61746368000000000000000000000000000000 PUSH1 0x0 DUP3 ADD MSTORE POP JUMP JUMPDEST PUSH1 0x0 PUSH2 0x3B48 PUSH1 0x11 DUP4 PUSH2 0x2AEE JUMP JUMPDEST SWAP2 POP PUSH2 0x3B53 DUP3 PUSH2 0x3B12 JUMP JUMPDEST PUSH1 0x20 DUP3 ADD SWAP1 POP SWAP2 SWAP1 POP JUMP JUMPDEST PUSH1 0x0 PUSH1 0x20 DUP3 ADD SWAP1 POP DUP2 DUP2 SUB PUSH1 0x0 DUP4 ADD MSTORE PUSH2 0x3B77 DUP2 PUSH2 0x3B3B JUMP JUMPDEST SWAP1 POP SWAP2 SWAP1 POP JUMP JUMPDEST PUSH1 0x0 DUP2 SWAP1 POP SWAP2 SWAP1 POP JUMP JUMPDEST PUSH2 0x3B99 PUSH2 0x3B94 DUP3 PUSH2 0x2751 JUMP JUMPDEST PUSH2 0x3B7E JUMP JUMPDEST DUP3 MSTORE POP POP JUMP JUMPDEST PUSH1 0x0 PUSH2 0x3BAB DUP3 DUP6 PUSH2 0x3B88 JUMP JUMPDEST PUSH1 0x20 DUP3 ADD SWAP2 POP PUSH2 0x3BBB DUP3 DUP5 PUSH2 0x3932 JUMP JUMPDEST PUSH1 0x20 DUP3 ADD SWAP2 POP DUP2 SWAP1 POP SWAP4 SWAP3 POP POP POP JUMP JUMPDEST PUSH32 0x496E76616C696420746561636865722070726F6F660000000000000000000000 PUSH1 0x0 DUP3 ADD MSTORE POP JUMP JUMPDEST PUSH1 0x0 PUSH2 0x3C01 PUSH1 0x15 DUP4 PUSH2 0x2AEE JUMP JUMPDEST SWAP2 POP PUSH2 0x3C0C DUP3 PUSH2 0x3BCB JUMP JUMPDEST PUSH1 0x20 DUP3 ADD SWAP1 POP SWAP2 SWAP1 POP JUMP JUMPDEST PUSH1 0x0 PUSH1 0x20 DUP3 ADD SWAP1 POP DUP2 DUP2 SUB PUSH1 0x0 DUP4 ADD MSTORE PUSH2 0x3C30 DUP2 PUSH2 0x3BF4 JUMP JUMPDEST SWAP1 POP SWAP2 SWAP1 POP JUMP JUMPDEST PUSH32 0x496E76616C69642073747564656E742070726F6F660000000000000000000000 PUSH1 0x0 DUP3 ADD MSTORE POP JUMP JUMPDEST PUSH1 0x0 PUSH2 0x3C6D PUSH1 0x15 DUP4 PUSH2 0x2AEE JUMP JUMPDEST SWAP2 POP PUSH2 0x3C78 DUP3 PUSH2 0x3C37 JUMP JUMPDEST PUSH1 0x20 DUP3 ADD SWAP1 POP SWAP2 SWAP1 POP JUMP JUMPDEST PUSH1 0x0 PUSH1 0x20 DUP3 ADD SWAP1 POP DUP2 DUP2 SUB PUSH1 0x0 DUP4 ADD MSTORE PUSH2 0x3C9C DUP2 PUSH2 0x3C60 JUMP JUMPDEST SWAP1 POP SWAP2 SWAP1 POP JUMP JUMPDEST PUSH1 0x0 DUP2 MLOAD SWAP1 POP SWAP2 SWAP1 POP JUMP JUMPDEST PUSH1 0x0 PUSH2 0x3CB9 DUP3 PUSH2 0x3CA3 JUMP JUMPDEST PUSH2 0x3CC3 DUP2 DUP6 PUSH2 0x3394 JUMP JUMPDEST SWAP4 POP PUSH2 0x3CD3 DUP2 DUP6 PUSH1 0x20 DUP7 ADD PUSH2 0x2AFF JUMP JUMPDEST DUP1 DUP5 ADD SWAP2 POP POP SWAP3 SWAP2 POP POP JUMP JUMPDEST PUSH1 0x0 PUSH2 0x3CEB DUP3 DUP6 PUSH2 0x3CAE JUMP JUMPDEST SWAP2 POP PUSH2 0x3CF7 DUP3 DUP5 PUSH2 0x3CAE JUMP JUMPDEST SWAP2 POP DUP2 SWAP1 POP SWAP4 SWAP3 POP POP POP JUMP JUMPDEST PUSH32 0x50726F6F66732072657573656400000000000000000000000000000000000000 PUSH1 0x0 DUP3 ADD MSTORE POP JUMP JUMPDEST PUSH1 0x0 PUSH2 0x3D39 PUSH1 0xD DUP4 PUSH2 0x2AEE JUMP JUMPDEST SWAP2 POP PUSH2 0x3D44 DUP3 PUSH2 0x3D03 JUMP JUMPDEST PUSH1 0x20 DUP3 ADD SWAP1 POP SWAP2 SWAP1 POP JUMP JUMPDEST PUSH1 0x0 PUSH1 0x20 DUP3 ADD SWAP1 POP DUP2 DUP2 SUB PUSH1 0x0 DUP4 ADD MSTORE PUSH2 0x3D68 DUP2 PUSH2 0x3D2C JUMP JUMPDEST SWAP1 POP SWAP2 SWAP1 POP JUMP JUMPDEST PUSH1 0x0 PUSH1 0x40 DUP3 ADD SWAP1 POP PUSH2 0x3D84 PUSH1 0x0 DUP4 ADD DUP6 PUSH2 0x2727 JUMP JUMPDEST PUSH2 0x3D91 PUSH1 0x20 DUP4 ADD DUP5 PUSH2 0x27B4 JUMP JUMPDEST SWAP4 SWAP3 POP POP POP JUMP JUMPDEST PUSH1 0x0 DUP2 SWAP1 POP SWAP2 SWAP1 POP JUMP JUMPDEST PUSH1 0x0 PUSH2 0x3DAD DUP3 PUSH2 0x3D98 JUMP JUMPDEST SWAP2 POP PUSH2 0x3DB8 DUP4 PUSH2 0x3D98 JUMP JUMPDEST SWAP3 POP DUP3 DUP3 ADD SWAP1 POP DUP3 DUP2 SLT ISZERO PUSH1 0x0 DUP4 SLT AND DUP4 DUP3 SLT PUSH1 0x0 DUP5 SLT ISZERO AND OR ISZERO PUSH2 0x3DE0 JUMPI PUSH2 0x3DDF PUSH2 0x2F7D JUMP JUMPDEST JUMPDEST SWAP3 SWAP2 POP POP JUMP JUMPDEST PUSH1 0x0 PUSH2 0x3DF1 DUP3 PUSH2 0x3D98 JUMP JUMPDEST SWAP2 POP PUSH2 0x3DFC DUP4 PUSH2 0x3D98 JUMP JUMPDEST SWAP3 POP DUP3 DUP3 MUL PUSH2 0x3E0A DUP2 PUSH2 0x3D98 JUMP JUMPDEST SWAP2 POP PUSH32 0x8000000000000000000000000000000000000000000000000000000000000000 DUP5 EQ PUSH1 0x0 DUP5 SLT AND ISZERO PUSH2 0x3E42 JUMPI PUSH2 0x3E41 PUSH2 0x2F7D JUMP JUMPDEST JUMPDEST DUP3 DUP3 SDIV DUP5 EQ DUP4 ISZERO OR PUSH2 0x3E57 JUMPI PUSH2 0x3E56 PUSH2 0x2F7D JUMP JUMPDEST JUMPDEST POP SWAP3 SWAP2 POP POP JUMP JUMPDEST PUSH1 0x0 PUSH2 0x3E69 DUP3 PUSH2 0x3D98 JUMP JUMPDEST SWAP2 POP PUSH2 0x3E74 DUP4 PUSH2 0x3D98 JUMP JUMPDEST SWAP3 POP DUP3 PUSH2 0x3E84 JUMPI PUSH2 0x3E83 PUSH2 0x38C8 JUMP JUMPDEST JUMPDEST PUSH1 0x1 PUSH1 0x0 SUB DUP4 EQ PUSH32 0x8000000000000000000000000000000000000000000000000000000000000000 DUP4 EQ AND ISZERO PUSH2 0x3EBD JUMPI PUSH2 0x3EBC PUSH2 0x2F7D JUMP JUMPDEST JUMPDEST DUP3 DUP3 SDIV SWAP1 POP SWAP3 SWAP2 POP POP JUMP JUMPDEST PUSH1 0x0 PUSH2 0x3ED3 DUP3 PUSH2 0x3D98 JUMP JUMPDEST SWAP2 POP PUSH2 0x3EDE DUP4 PUSH2 0x3D98 JUMP JUMPDEST SWAP3 POP DUP3 DUP3 SUB SWAP1 POP DUP2 DUP2 SLT PUSH1 0x0 DUP5 SLT AND DUP3 DUP3 SGT PUSH1 0x0 DUP6 SLT ISZERO AND OR ISZERO PUSH2 0x3F05 JUMPI PUSH2 0x3F04 PUSH2 0x2F7D JUMP JUMPDEST JUMPDEST SWAP3 SWAP2 POP POP JUMP JUMPDEST PUSH32 0x50726566697820746F6F206C6172676500000000000000000000000000000000 PUSH1 0x0 DUP3 ADD MSTORE POP JUMP JUMPDEST PUSH1 0x0 PUSH2 0x3F41 PUSH1 0x10 DUP4 PUSH2 0x2AEE JUMP JUMPDEST SWAP2 POP PUSH2 0x3F4C DUP3 PUSH2 0x3F0B JUMP JUMPDEST PUSH1 0x20 DUP3 ADD SWAP1 POP SWAP2 SWAP1 POP JUMP JUMPDEST PUSH1 0x0 PUSH1 0x20 DUP3 ADD SWAP1 POP DUP2 DUP2 SUB PUSH1 0x0 DUP4 ADD MSTORE PUSH2 0x3F70 DUP2 PUSH2 0x3F34 JUMP JUMPDEST SWAP1 POP SWAP2 SWAP1 POP JUMP JUMPDEST PUSH1 0x0 PUSH2 0x3F82 DUP3 PUSH2 0x267F JUMP JUMPDEST SWAP2 POP PUSH2 0x3F8D DUP4 PUSH2 0x267F JUMP JUMPDEST SWAP3 POP DUP3 DUP3 SUB SWAP1 POP DUP2 DUP2 GT ISZERO PUSH2 0x3FA5 JUMPI PUSH2 0x3FA4 PUSH2 0x2F7D JUMP JUMPDEST JUMPDEST SWAP3 SWAP2 POP POP JUMP JUMPDEST PUSH1 0x0 DUP2 SWAP1 POP SWAP3 SWAP2 POP POP JUMP JUMPDEST PUSH32 0x19457468657265756D205369676E6564204D6573736167653A0A333200000000 PUSH1 0x0 DUP3 ADD MSTORE POP JUMP JUMPDEST PUSH1 0x0 PUSH2 0x3FEC PUSH1 0x1C DUP4 PUSH2 0x3FAB JUMP JUMPDEST SWAP2 POP PUSH2 0x3FF7 DUP3 PUSH2 0x3FB6 JUMP JUMPDEST PUSH1 0x1C DUP3 ADD SWAP1 POP SWAP2 SWAP1 POP JUMP JUMPDEST PUSH1 0x0 PUSH2 0x400D DUP3 PUSH2 0x3FDF JUMP JUMPDEST SWAP2 POP PUSH2 0x4019 DUP3 DUP5 PUSH2 0x3B88 JUMP JUMPDEST PUSH1 0x20 DUP3 ADD SWAP2 POP DUP2 SWAP1 POP SWAP3 SWAP2 POP POP JUMP JUMPDEST PUSH1 0x0 PUSH1 0xFF DUP3 AND SWAP1 POP SWAP2 SWAP1 POP JUMP JUMPDEST PUSH2 0x403E DUP2 PUSH2 0x4028 JUMP JUMPDEST DUP3 MSTORE POP POP JUMP JUMPDEST PUSH1 0x0 PUSH1 0x80 DUP3 ADD SWAP1 POP PUSH2 0x4059 PUSH1 0x0 DUP4 ADD DUP8 PUSH2 0x2C41 JUMP JUMPDEST PUSH2 0x4066 PUSH1 0x20 DUP4 ADD DUP7 PUSH2 0x4035 JUMP JUMPDEST PUSH2 0x4073 PUSH1 0x40 DUP4 ADD DUP6 PUSH2 0x2C41 JUMP JUMPDEST PUSH2 0x4080 PUSH1 0x60 DUP4 ADD DUP5 PUSH2 0x2C41 JUMP JUMPDEST SWAP6 SWAP5 POP POP POP POP POP JUMP JUMPDEST PUSH32 0x496E76616C6964207369676E6174757265206C656E6774680000000000000000 PUSH1 0x0 DUP3 ADD MSTORE POP JUMP JUMPDEST PUSH1 0x0 PUSH2 0x40BF PUSH1 0x18 DUP4 PUSH2 0x2AEE JUMP JUMPDEST SWAP2 POP PUSH2 0x40CA DUP3 PUSH2 0x4089 JUMP JUMPDEST PUSH1 0x20 DUP3 ADD SWAP1 POP SWAP2 SWAP1 POP JUMP JUMPDEST PUSH1 0x0 PUSH1 0x20 DUP3 ADD SWAP1 POP DUP2 DUP2 SUB PUSH1 0x0 DUP4 ADD MSTORE PUSH2 0x40EE DUP2 PUSH2 0x40B2 JUMP JUMPDEST SWAP1 POP SWAP2 SWAP1 POP JUMP INVALID LOG2 PUSH5 0x6970667358 0x22 SLT KECCAK256 MLOAD SWAP15 SWAP3 0x26 0xE3 STATICCALL 0xB1 PUSH2 0xAE1 CODESIZE DUP11 SWAP12 PREVRANDAO LOG1 0xE7 RETURNDATASIZE BYTE 0xE5 0xCB 0xB4 0xCD DUP9 TLOAD DUP14 MLOAD 0x2E PUSH5 0x13C5292F64 PUSH20 0x6F6C634300081C00330000000000000000000000 "},"methodIdentifiers":{"GEOHASH_TOLERANCE_BYTES()":"d4094ab6","addStudent(uint256,address)":"a850c180","addSubjectToSection(uint256,string,address)":"3359da49","adjustmentRequests(bytes32)":"0b104eee","admin()":"f851a440","approveAdjustment(bytes32)":"c93f63f6","attendance(address,uint256)":"9a8d8955","classCounter()":"3954d58b","classes(uint256)":"817dbe9f","closeAttendance(uint256)":"f2500368","createSection(string)":"301c82f3","getCombinedAttendance(address,uint256)":"13a3c482","getSubjectClasses(string)":"f00070f5","getYearMonth(uint256)":"ca1f8c6e","isEnrolled(uint256,address)":"c9768315","markAttendance(uint256,bytes32,uint256,bytes,bytes)":"d9065596","removeStudent(uint256,address)":"ab87e6d7","requestAdjustment(uint256,address)":"d064d63f","requestCounter()":"973a814e","sectionCounter()":"f11f6e94","sectionStudents(uint256,uint256)":"0212081c","sections(uint256)":"35603440","startClass(uint256,uint256,bytes32,uint256)":"4d7db89b","transferAdmin(address)":"75829def","usedLocationProofs(bytes32)":"a515797a"}}}}}